{"contracts/CampaignRegistry.sol":{"CampaignRegistry":{"abi":[{"anonymous":false,"inputs":[{"indexed":false,"internalType":"address","name":"previousAdmin","type":"address"},{"indexed":false,"internalType":"address","name":"newAdmin","type":"address"}],"name":"AdminChanged","type":"event"},{"anonymous":false,"inputs":[{"indexed":true,"internalType":"address","name":"beacon","type":"address"}],"name":"BeaconUpgraded","type":"event"},{"anonymous":false,"inputs":[{"indexed":false,"internalType":"uint256","name":"campaignId","type":"uint256"},{"indexed":false,"internalType":"address","name":"entrepreneur","type":"address"},{"indexed":false,"internalType":"uint256","name":"targetAmount","type":"uint256"},{"indexed":false,"internalType":"uint256","name":"deadline","type":"uint256"}],"name":"CampaignCreated","type":"event"},{"anonymous":false,"inputs":[{"indexed":false,"internalType":"uint256","name":"campaignId","type":"uint256"},{"indexed":false,"internalType":"address","name":"investor","type":"address"},{"indexed":false,"internalType":"uint256","name":"amount","type":"uint256"}],"name":"ContributionMade","type":"event"},{"anonymous":false,"inputs":[{"indexed":false,"internalType":"uint256","name":"campaignId","type":"uint256"}],"name":"FundsReceived","type":"event"},{"anonymous":false,"inputs":[{"indexed":false,"internalType":"uint256","name":"campaignId","type":"uint256"},{"indexed":false,"internalType":"address","name":"vendor","type":"address"},{"indexed":false,"internalType":"uint256","name":"amount","type":"uint256"}],"name":"FundsReleased","type":"event"},{"anonymous":false,"inputs":[{"indexed":false,"internalType":"uint8","name":"version","type":"uint8"}],"name":"Initialized","type":"event"},{"anonymous":false,"inputs":[{"indexed":true,"internalType":"address","name":"previousOwner","type":"address"},{"indexed":true,"internalType":"address","name":"newOwner","type":"address"}],"name":"OwnershipTransferred","type":"event"},{"anonymous":false,"inputs":[{"indexed":false,"internalType":"uint256","name":"campaignId","type":"uint256"},{"indexed":false,"internalType":"address","name":"investor","type":"address"}],"name":"RequestApproved","type":"event"},{"anonymous":false,"inputs":[{"indexed":false,"internalType":"uint256","name":"campaignId","type":"uint256"},{"indexed":false,"internalType":"uint256","name":"requestAmount","type":"uint256"}],"name":"RequestCreated","type":"event"},{"anonymous":false,"inputs":[{"indexed":true,"internalType":"address","name":"implementation","type":"address"}],"name":"Upgraded","type":"event"},{"anonymous":false,"inputs":[{"indexed":false,"internalType":"string","name":"email","type":"string"},{"indexed":false,"internalType":"bool","name":"verified","type":"bool"},{"indexed":false,"internalType":"address","name":"walletAddress","type":"address"}],"name":"UserRegistered","type":"event"},{"inputs":[{"internalType":"address","name":"_owner","type":"address"},{"internalType":"uint256","name":"index","type":"uint256"}],"name":"_campaignOfEntrepreneurByIndex","outputs":[{"internalType":"uint256","name":"","type":"uint256"}],"stateMutability":"view","type":"function"},{"inputs":[{"internalType":"uint256","name":"_campaignId","type":"uint256"}],"name":"approveFundReleaseRequest","outputs":[],"stateMutability":"nonpayable","type":"function"},{"inputs":[{"internalType":"uint256","name":"","type":"uint256"}],"name":"campaigns","outputs":[{"internalType":"uint256","name":"campaignId","type":"uint256"},{"internalType":"uint256","name":"targetAmount","type":"uint256"},{"internalType":"uint256","name":"raisedAmount","type":"uint256"},{"internalType":"uint256","name":"requestAmount","type":"uint256"},{"internalType":"uint256","name":"deadline","type":"uint256"},{"internalType":"uint256","name":"completeAt","type":"uint256"},{"internalType":"uint256","name":"minimumContribution","type":"uint256"},{"internalType":"string","name":"imageUri","type":"string"},{"internalType":"string","name":"campaignTitle","type":"string"},{"internalType":"string","name":"campaignDescription","type":"string"},{"internalType":"address","name":"entrepreneur","type":"address"},{"internalType":"address payable","name":"vendor","type":"address"},{"internalType":"enum ICampaignRegistry.CampaignStatus","name":"status","type":"uint8"},{"internalType":"bool","name":"requestCreated","type":"bool"},{"internalType":"bool","name":"fundsReceived","type":"bool"}],"stateMutability":"view","type":"function"},{"inputs":[{"internalType":"uint256","name":"_campaignId","type":"uint256"}],"name":"confirmFundsReceived","outputs":[],"stateMutability":"nonpayable","type":"function"},{"inputs":[{"internalType":"uint256","name":"_targetAmount","type":"uint256"},{"internalType":"uint256","name":"_deadline","type":"uint256"},{"internalType":"uint256","name":"minimumContribution","type":"uint256"},{"internalType":"string","name":"_imageUri","type":"string"},{"internalType":"string","name":"_campaignTitle","type":"string"},{"internalType":"string","name":"_campaignDescription","type":"string"}],"name":"createCampaign","outputs":[],"stateMutability":"nonpayable","type":"function"},{"inputs":[{"internalType":"uint256","name":"_campaignId","type":"uint256"},{"internalType":"uint256","name":"_requestAmount","type":"uint256"},{"internalType":"address payable","name":"_vendorAddress","type":"address"}],"name":"createFundReleaseRequest","outputs":[],"stateMutability":"nonpayable","type":"function"},{"inputs":[{"internalType":"uint256","name":"_campaignId","type":"uint256"}],"name":"donateToCampaign","outputs":[],"stateMutability":"payable","type":"function"},{"inputs":[{"internalType":"uint256","name":"_campaignId","type":"uint256"}],"name":"getAllDonations","outputs":[{"internalType":"uint256[]","name":"","type":"uint256[]"}],"stateMutability":"view","type":"function"},{"inputs":[{"internalType":"uint256","name":"_campaignId","type":"uint256"}],"name":"getAllDonators","outputs":[{"internalType":"address[]","name":"","type":"address[]"}],"stateMutability":"view","type":"function"},{"inputs":[{"internalType":"uint256","name":"_campaignId","type":"uint256"}],"name":"getCampaignById","outputs":[{"components":[{"internalType":"uint256","name":"campaignId","type":"uint256"},{"internalType":"uint256","name":"targetAmount","type":"uint256"},{"internalType":"uint256","name":"raisedAmount","type":"uint256"},{"internalType":"uint256","name":"requestAmount","type":"uint256"},{"internalType":"uint256","name":"deadline","type":"uint256"},{"internalType":"uint256","name":"completeAt","type":"uint256"},{"internalType":"uint256","name":"minimumContribution","type":"uint256"},{"internalType":"string","name":"imageUri","type":"string"},{"internalType":"string","name":"campaignTitle","type":"string"},{"internalType":"string","name":"campaignDescription","type":"string"},{"internalType":"address","name":"entrepreneur","type":"address"},{"internalType":"address payable","name":"vendor","type":"address"},{"internalType":"address[]","name":"investors","type":"address[]"},{"internalType":"enum ICampaignRegistry.CampaignStatus","name":"status","type":"uint8"},{"internalType":"bool","name":"requestCreated","type":"bool"},{"internalType":"bool","name":"fundsReceived","type":"bool"}],"internalType":"struct ICampaignRegistry.Campaign","name":"","type":"tuple"}],"stateMutability":"view","type":"function"},{"inputs":[],"name":"getCampaigns","outputs":[{"components":[{"internalType":"uint256","name":"campaignId","type":"uint256"},{"internalType":"uint256","name":"targetAmount","type":"uint256"},{"internalType":"uint256","name":"raisedAmount","type":"uint256"},{"internalType":"uint256","name":"requestAmount","type":"uint256"},{"internalType":"uint256","name":"deadline","type":"uint256"},{"internalType":"uint256","name":"completeAt","type":"uint256"},{"internalType":"uint256","name":"minimumContribution","type":"uint256"},{"internalType":"string","name":"imageUri","type":"string"},{"internalType":"string","name":"campaignTitle","type":"string"},{"internalType":"string","name":"campaignDescription","type":"string"},{"internalType":"address","name":"entrepreneur","type":"address"},{"internalType":"address payable","name":"vendor","type":"address"},{"internalType":"address[]","name":"investors","type":"address[]"},{"internalType":"enum ICampaignRegistry.CampaignStatus","name":"status","type":"uint8"},{"internalType":"bool","name":"requestCreated","type":"bool"},{"internalType":"bool","name":"fundsReceived","type":"bool"}],"internalType":"struct ICampaignRegistry.Campaign[]","name":"","type":"tuple[]"}],"stateMutability":"view","type":"function"},{"inputs":[{"internalType":"address","name":"_entrepreneur","type":"address"}],"name":"getCampaignsByEntrepreneur","outputs":[{"components":[{"internalType":"uint256","name":"campaignId","type":"uint256"},{"internalType":"uint256","name":"targetAmount","type":"uint256"},{"internalType":"uint256","name":"raisedAmount","type":"uint256"},{"internalType":"uint256","name":"requestAmount","type":"uint256"},{"internalType":"uint256","name":"deadline","type":"uint256"},{"internalType":"uint256","name":"completeAt","type":"uint256"},{"internalType":"uint256","name":"minimumContribution","type":"uint256"},{"internalType":"string","name":"imageUri","type":"string"},{"internalType":"string","name":"campaignTitle","type":"string"},{"internalType":"string","name":"campaignDescription","type":"string"},{"internalType":"address","name":"entrepreneur","type":"address"},{"internalType":"address payable","name":"vendor","type":"address"},{"internalType":"address[]","name":"investors","type":"address[]"},{"internalType":"enum ICampaignRegistry.CampaignStatus","name":"status","type":"uint8"},{"internalType":"bool","name":"requestCreated","type":"bool"},{"internalType":"bool","name":"fundsReceived","type":"bool"}],"internalType":"struct ICampaignRegistry.Campaign[]","name":"","type":"tuple[]"}],"stateMutability":"view","type":"function"},{"inputs":[{"internalType":"uint256","name":"_campaignId","type":"uint256"}],"name":"getInvestorDonations","outputs":[{"internalType":"address[]","name":"","type":"address[]"},{"internalType":"uint256[]","name":"","type":"uint256[]"}],"stateMutability":"view","type":"function"},{"inputs":[{"internalType":"address","name":"_investor","type":"address"}],"name":"getTotalCampaignsByInvestor","outputs":[{"internalType":"uint256","name":"","type":"uint256"}],"stateMutability":"view","type":"function"},{"inputs":[],"name":"initialize","outputs":[],"stateMutability":"nonpayable","type":"function"},{"inputs":[{"internalType":"string","name":"_email","type":"string"},{"internalType":"string","name":"_password","type":"string"}],"name":"loginUser","outputs":[{"internalType":"bool","name":"","type":"bool"}],"stateMutability":"view","type":"function"},{"inputs":[],"name":"owner","outputs":[{"internalType":"address","name":"","type":"address"}],"stateMutability":"view","type":"function"},{"inputs":[],"name":"proxiableUUID","outputs":[{"internalType":"bytes32","name":"","type":"bytes32"}],"stateMutability":"view","type":"function"},{"inputs":[{"internalType":"string","name":"_email","type":"string"},{"internalType":"string","name":"_password","type":"string"},{"internalType":"enum ICampaignRegistry.Category","name":"_category","type":"uint8"}],"name":"registerUser","outputs":[],"stateMutability":"nonpayable","type":"function"},{"inputs":[{"internalType":"uint256","name":"_campaignId","type":"uint256"}],"name":"releaseFundsToVendors","outputs":[],"stateMutability":"nonpayable","type":"function"},{"inputs":[],"name":"renounceOwnership","outputs":[],"stateMutability":"nonpayable","type":"function"},{"inputs":[{"internalType":"address","name":"newOwner","type":"address"}],"name":"transferOwnership","outputs":[],"stateMutability":"nonpayable","type":"function"},{"inputs":[{"internalType":"address","name":"newImplementation","type":"address"}],"name":"upgradeTo","outputs":[],"stateMutability":"nonpayable","type":"function"},{"inputs":[{"internalType":"address","name":"newImplementation","type":"address"},{"internalType":"bytes","name":"data","type":"bytes"}],"name":"upgradeToAndCall","outputs":[],"stateMutability":"payable","type":"function"},{"inputs":[{"internalType":"address","name":"","type":"address"}],"name":"users","outputs":[{"internalType":"string","name":"email","type":"string"},{"internalType":"string","name":"password","type":"string"},{"internalType":"enum ICampaignRegistry.Category","name":"category","type":"uint8"},{"internalType":"address","name":"walletAddress","type":"address"},{"internalType":"bool","name":"verified","type":"bool"}],"stateMutability":"view","type":"function"}],"evm":{"bytecode":{"linkReferences":{},"object":"60a080604052346100315730608052613557908161003782396080518181816111e0015281816112ec015261191e0152f35b600080fdfe6080604052600436101561001257600080fd5b60003560e01c8063141961bc146127525780631ad417bf1461216257806322ce12e51461210157806324777746146120b75780632e17a93114611b935780633659cfe6146118f857806342a4fda8146115645780634f1ef2861461129b57806352d1902d146111c557806367c2cbad146110e257806370debcf714610e85578063715018a614610e2a57806374c49fd514610cd55780638129fc1c14610b805780638da5cb5b14610b595780638e5baa6214610adb578063a6b036331461098e578063a7247cd91461075c578063a87430ba146106ba578063ae1f680214610566578063e27883fb14610523578063e6ffcaa1146103fb578063efb801831461027b578063f2fde38b146101d55763ffa676d11461012f57600080fd5b346101d0576020806003193601126101d057600435908160005260cc8152600c6040600020019182549061016282613258565b9360005b838110610184576040518581528061018081880189612ad9565b0390f35b806001600160a01b0361019a6101cb9385613212565b9190548660005260cd895260406000209260031b1c1660005286526040600020546101c5828961328a565b526130f9565b610166565b600080fd5b346101d05760203660031901126101d0576101ee612a86565b6101f6612c61565b6001600160a01b038116156102105761020e90612cb9565b005b60405162461bcd60e51b815260206004820152602660248201527f4f776e61626c653a206e6577206f776e657220697320746865207a65726f206160448201527f64647265737300000000000000000000000000000000000000000000000000006064820152608490fd5b346101d0576020806003193601126101d0576001600160a01b038061029e612a86565b16908160005260cf90818452604060002054916102ba83613370565b9360005b8481106102d357604051806101808882612bff565b816000528287526102e8816040600020613212565b919054600392831b1c60005260cc885260406000206040519061030a826128b4565b80548252600193848201548b84015260028201546040840152810154606083015260048101546080830152600581015460a0830152600681015460c08301526103556007820161290f565b60e0830152600d60089161036a83820161290f565b61010085015261037c6009820161290f565b61012085015288600a8201541661014085015288600b820154166101608501526103a8600c820161329e565b6101808501520154809160ff9283918282166103c3816129f5565b6101a08701521c1615156101c084015260101c1615156101e08201526103e9828961328a565b526103f4818861328a565b50016102be565b346101d05760203660031901126101d0576104146132f6565b5060043560005260cc602052610180604060002060ff600d60405192610439846128b4565b8054845260018101546020850152600281015460408501526003810154606085015260048101546080850152600581015460a0850152600681015460c08501526104856007820161290f565b60e08501526104966008820161290f565b6101008501526104a86009820161290f565b6101208501526001600160a01b0380600a83015416610140860152600b820154166101608501526104db600c820161329e565b61018085015201548181166104ef816129f5565b6101a0840152818160081c1615156101c084015260101c1615156101e0820152604051918291602083526020830190612b0d565b346101d05760203660031901126101d05760043560005260cc602052610180610552600c60406000200161329e565b604051918291602083526020830190612a9c565b346101d0576020806003193601126101d057600435903360005260cb815261059b60ff60026040600020015460a81c16613022565b6105a860c9548310613108565b3360005260cb81526105cf600260ff8160406000200154166105c9816129f5565b1461307a565b8160005260cc8152604060002091336001600160a01b03600b850154160361064f57600d836106266106217fbcdc7071c1beb6dcf2744621e0b29a2f2432ee20812d9ca5e3d5e8f9308d93a39661343c565b6133c0565b0162010000815461063d60ff8260101c16156131a0565b62ff00001916179055604051908152a1005b60405162461bcd60e51b815260048101839052603460248201527f4f6e6c79207468652063616d706169676e2076656e646f722063616e20636f6e60448201527f6669726d2066756e64732072656365697665642e0000000000000000000000006064820152608490fd5b346101d05760203660031901126101d0576107266001600160a01b03806106df612a86565b1660005260cb602052604060002060ff6106f88261290f565b9260026107076001850161290f565b930154906107348383169460405197889760a0895260a08901906129b5565b9087820360208901526129b5565b9361073e816129f5565b60408601528160081c16606085015260a81c16151560808301520390f35b346101d0576020806003193601126101d057600435903360005260cb815261079160ff60026040600020015460a81c16613022565b61079e60c9548310613108565b3360005260cb81526107c0600160ff600260406000200154166105c9816129f5565b8160005260cc8152600d604060002001546107e760ff82166107e1816129f5565b15613154565b8260005260cd825260406000203360005282526040600020541561093d5760081c60ff16156108ed578160005260ce8152604060002033600052815260ff6040600020541661088357816040917ff3dc904660a0ea05aba8dfa1e21fbc4fb2914be2a3029da7b0fdd3e5eee20ddb9360005260ce81528260002033600052815282600020600160ff1982541617905582519182523390820152a1005b6084906040519062461bcd60e51b82526004820152602960248201527f496e766573746f722068617320616c726561647920617070726f76656420746860448201527f65207265717565737400000000000000000000000000000000000000000000006064820152fd5b6084906040519062461bcd60e51b82526004820152602360248201527f4e6f20726571756573742065786973747320666f7220746869732063616d706160448201526234b3b760e91b6064820152fd5b60405162461bcd60e51b8152600481018390526024808201527f4f6e6c7920696e766573746f72732063616e20617070726f76652061207265716044820152631d595cdd60e21b6064820152608490fd5b346101d05760003660031901126101d05760c9546109ab81613370565b9060005b8181106109c457604051806101808582612bff565b8060005260209060cc82526040600020604051906109e1826128b4565b805482526001938482015490830152600281015460408301526003810154606083015260048101546080830152600581015460a0830152600681015460c0830152610a2e6007820161290f565b60e0830152600d600891610a4383820161290f565b610100850152610a556009820161290f565b6101208501526001600160a01b0380600a83015416610140860152600b82015416610160850152610a88600c820161329e565b6101808501520154809160ff928391828216610aa3816129f5565b6101a08701521c1615156101c084015260101c1615156101e0820152610ac9828661328a565b52610ad4818561328a565b50016109af565b346101d0576020806003193601126101d057610af5612a86565b60c9546000916001600160a01b0316825b828110610b1857505050604051908152f35b8060005260cd85526040600020826000528552604060002054610b44575b610b3f906130f9565b610b06565b92610b51610b3f916130f9565b939050610b36565b346101d05760003660031901126101d05760206001600160a01b0360335416604051908152f35b346101d05760003660031901126101d05760005460ff8160081c161590818092610cc8575b8015610cb1575b15610c465760ff19811660011760005581610c34575b50610bdd60ff60005460081c16610bd881612f30565b612f30565b610be633612cb9565b60005490610bf960ff8360081c16612f30565b610bff57005b61ff0019166000557f7f26b83ff96e1f2b6a682f133852f6798a09c465da95921460cefb3847402498602060405160018152a1005b61ffff19166101011760005581610bc2565b60405162461bcd60e51b815260206004820152602e60248201527f496e697469616c697a61626c653a20636f6e747261637420697320616c72656160448201527f647920696e697469616c697a65640000000000000000000000000000000000006064820152608490fd5b50303b158015610bac5750600160ff821614610bac565b50600160ff821610610ba5565b346101d0576020806003193601126101d057600435903360005260cb8152610d0a60ff60026040600020015460a81c16613022565b610d1760c9548310613108565b3360005260cb8152610d3d60ff60026040600020015416610d37816129f5565b1561307a565b8160005260cc8152604060002091610d6c610621600d850194610d6760ff8754166107e1816129f5565b61343c565b8060005260cc825260406000209160026001600160a01b03600b85015416930154600081858115610e20575b600092839283928392f115610e145760cc610e0f927f6e3c6096795c8298a218b2cfb8bde42726ff7c9a3d27b4d3ba41ab7f74feb5fb96600160ff19825416179055846000525260006002604082200155604051938493846001600160a01b03604092959493606083019683521660208201520152565b0390a1005b6040513d6000823e3d90fd5b6108fc9250610d98565b346101d05760003660031901126101d057610e43612c61565b60006001600160a01b036033546001600160a01b03198116603355167f8be0079c531659141344cd1fd0a4f28419497f9722a3daafe3b4186f6b6457e08280a3005b346101d05760603660031901126101d0576001600160a01b03600435602435604435838116908190036101d0573360005260209360cb8552610ed460ff60026040600020015460a81c16613022565b610ee160c9548510613108565b3360005260cb8552610f0160ff60026040600020015416610d37816129f5565b8360005260cc8552604060002090600d820190815490610f2760ff83166107e1816129f5565b3390600a85015416036110775760ff8160081c1661100c5760028301548511610fa1576003830185905561ff001916610100179055600b0180546001600160a01b031916909117905560408051928352928201527f99f063607b2d9f794eb8985daf4a0d3224e73b48e43228a183329e415dff077e9190a1005b60405162461bcd60e51b815260048101889052603e60248201527f5265717565737420616d6f756e74206d757374206265206c657373207468616e60448201527f206f7220657175616c20746f207468652072616973656420616d6f756e7400006064820152608490fd5b60405162461bcd60e51b815260048101889052603460248201527f4120726571756573742068617320616c7265616479206265656e20637265617460448201527f656420666f7220746869732063616d706169676e0000000000000000000000006064820152608490fd5b60405162461bcd60e51b815260048101889052602a60248201527f4f6e6c792074686520656e7472657072656e6575722063616e2063726561746560448201527f20612072657175657374000000000000000000000000000000000000000000006064820152608490fd5b346101d0576020806003193601126101d0576004358060005260cc8252600c604060002001805461111281613240565b9261112060405194856128ed565b818452601f1961112f83613240565b01368686013761113e82613258565b9260005b83811061117357611166866101808988604051948594604086526040860190612a9c565b9184830390850152612ad9565b806001600160a01b036111896111c09385613212565b90549060031b1c168061119c838a61328a565b528460005260cd895260406000209060005288526040600020546101c5828861328a565b611142565b346101d05760003660031901126101d0576001600160a01b037f00000000000000000000000000000000000000000000000000000000000000001630036112305760206040517f360894a13ba1a3210667c828492db98dca3e2076cc3735a920a3ca505d382bbc8152f35b60405162461bcd60e51b815260206004820152603860248201527f555550535570677261646561626c653a206d757374206e6f742062652063616c60448201527f6c6564207468726f7567682064656c656761746563616c6c00000000000000006064820152608490fd5b60403660031901126101d0576112af612a86565b60243567ffffffffffffffff81116101d057366023820112156101d0576112e0903690602481600401359101612a31565b6001600160a01b0390817f0000000000000000000000000000000000000000000000000000000000000000169161131983301415612d01565b6113487f360894a13ba1a3210667c828492db98dca3e2076cc3735a920a3ca505d382bbc938285541614612d73565b7f4910fdfa16fed3260ed0e7147f7cc6da11a60208b5b9406d12a635614ffd91435460ff161561137e5750505061020e90612de5565b8316604051926352d1902d60e01b84526020938481600481865afa60009181611535575b506114035760405162461bcd60e51b815260048101869052602e60248201527f45524331393637557067726164653a206e657720696d706c656d656e7461746960448201526d6f6e206973206e6f74205555505360901b6064820152608490fd5b939293036114de5761141484612de5565b7fbc7cd75a20ee27fd9adebab32041f755214dbc6bffa90cc0225b39da2e5c2d3b600080a28151158015906114d6575b61144a57005b61020e926000806040519461145e866128d1565b602786527f416464726573733a206c6f772d6c6576656c2064656c65676174652063616c6c85870152660819985a5b195960ca1b60408701528481519101845af4903d156114cd573d6114b081612a15565b906114be60405192836128ed565b8152600081943d92013e612e93565b60609250612e93565b506001611444565b60405162461bcd60e51b815260048101839052602960248201527f45524331393637557067726164653a20756e737570706f727465642070726f786044820152681a58589b195555525160ba1b6064820152608490fd5b9091508581813d831161155d575b61154d81836128ed565b810103126101d0575190876113a2565b503d611543565b6020806003193601126101d057600435903360005260cb815261159460ff60026040600020015460a81c16613022565b6115a160c9548310613108565b3360005260cb81526115c3600160ff600260406000200154166105c9816129f5565b8160005260cc81526115e360ff600d60406000200154166107e1816129f5565b8160005260cc81526004604060002001544210156118b4578160005260cc81526040600020600d81015461161d60ff82166107e1816129f5565b600482015442101561186f57341561180457600682015434106117b35760ff61164a9160101c16156131a0565b8260005260cd82526040600020336000528252604060002061166d3482546130ec565b90556002810161167e3482546130ec565b90558260005260ca8252604060002061169781546130f9565b90558260005260cd825260406000203360005282523460406000205414611754575b5060408051838152336020820152349181019190915260cc92907f0a4a91237423e0a1766a761c7cb029311d8b95d6b1b81db1b949a70c98b4e08e90606090a16000525260406000204260048201541160001461171d57600d01805460ff19169055005b600281015460018201541161174457600d8101805460ff1916600117905542600590910155005b600d01805460ff19166002179055005b600c01918254926801000000000000000084101561179d578361177e91600160cc96018155613212565b81549060031b906001600160a01b0333831b921b1916179055916116b9565b634e487b7160e01b600052604160045260246000fd5b60405162461bcd60e51b815260048101849052602360248201527f41206d696e756d756d20636f6e747269627574696f6e2069732072657175697260448201526232b21760e91b6064820152608490fd5b60405162461bcd60e51b815260048101849052602960248201527f446f6e6174696f6e20616d6f756e74206d75737420626520677265617465722060448201527f7468616e207a65726f00000000000000000000000000000000000000000000006064820152608490fd5b60405162461bcd60e51b815260048101849052601960248201527f43616d706169676e20706572696f642068617320656e646564000000000000006044820152606490fd5b6064906040519062461bcd60e51b82526004820152601560248201527f446561646c696e652068617320706173736564202100000000000000000000006044820152fd5b346101d0576020806003193601126101d057611912612a86565b6001600160a01b0391827f00000000000000000000000000000000000000000000000000000000000000001661194a81301415612d01565b6119797f360894a13ba1a3210667c828492db98dca3e2076cc3735a920a3ca505d382bbc918583541614612d73565b604051908282019482861067ffffffffffffffff87111761179d57856040526000835260ff7f4910fdfa16fed3260ed0e7147f7cc6da11a60208b5b9406d12a635614ffd914354166000146119d6575050505061020e9150612de5565b8492939416906040516352d1902d60e01b81528581600481865afa60009181611b64575b50611a5b5760405162461bcd60e51b815260048101879052602e60248201527f45524331393637557067726164653a206e657720696d706c656d656e7461746960448201526d6f6e206973206e6f74205555505360901b6064820152608490fd5b94939403611b0d57611a6c82612de5565b7fbc7cd75a20ee27fd9adebab32041f755214dbc6bffa90cc0225b39da2e5c2d3b600080a2825115801590611b05575b611aa257005b60008061020e9560405195611ab6876128d1565b602787527f416464726573733a206c6f772d6c6576656c2064656c65676174652063616c6c86880152660819985a5b195960ca1b60408801525190845af4903d156114cd573d6114b081612a15565b506000611a9c565b60405162461bcd60e51b815260048101849052602960248201527f45524331393637557067726164653a20756e737570706f727465642070726f786044820152681a58589b195555525160ba1b6064820152608490fd5b9091508681813d8311611b8c575b611b7c81836128ed565b810103126101d0575190886119fa565b503d611b72565b346101d05760603660031901126101d05760043567ffffffffffffffff81116101d057611bc4903690600401612a68565b60243567ffffffffffffffff81116101d057611be4903690600401612a68565b9060443560038110156101d0578151156120725782511561202d573315611fe8573360005260cb60205260ff60026040600020015460a81c16611fa3576040519260a0840184811067ffffffffffffffff82111761179d576040528284526020840152611c50816129f5565b6040830152336060830152600160808301523360005260cb602052604060002090825192835167ffffffffffffffff811161179d57611c8f845461287a565b601f8111611f5f575b506020601f8211600114611ef6578192939495600092611eeb575b50508160011b916000199060031b1c19161783555b602081015192835167ffffffffffffffff811161179d57611cec600183015461287a565b601f8111611ea0575b506020601f8211600114611e0a579181600292611ded9695947f427b59b30d98f86c6e6670da78cff4cbaa374e6642ff6d038faa43cbb5fd8de398600092611dff575b50508160011b916000199060031b1c19161760018201555b0190604081015190611d61826129f5565b611d6a826129f5565b82547fffffffffffffffffffff0000000000000000000000000000000000000000000060ff75ff000000000000000000000000000000000000000000608074ffffffffffffffffffffffffffffffffffffffff00606087015160081b16950151151560a81b169416911617171790556040519182916060835260608301906129b5565b600160208301523360408301520390a1005b015190508880611d38565b601f198216956001840160005260206000209660005b818110611e885750927f427b59b30d98f86c6e6670da78cff4cbaa374e6642ff6d038faa43cbb5fd8de397611ded979695936001938360029710611e6f575b505050811b016001820155611d50565b015160001960f88460031b161c19169055888080611e5f565b83830151895560019098019760209384019301611e20565b600183016000526020600020601f830160051c81019160208410611ee1575b601f0160051c01905b818110611ed55750611cf5565b60008155600101611ec8565b9091508190611ebf565b015190508580611cb3565b8460005260206000209060005b601f1984168110611f47575060019394959683601f19811610611f2e575b505050811b018355611cc8565b015160001960f88460031b161c19169055858080611f21565b9091602060018192858b015181550193019101611f03565b846000526020600020601f830160051c810160208410611f9c575b601f830160051c82018110611f90575050611c98565b60008155600101611f7a565b5080611f7a565b60405162461bcd60e51b815260206004820152601a60248201527f5573657220697320616c726561647920726567697374657265640000000000006044820152606490fd5b60405162461bcd60e51b815260206004820152601660248201527f496e76616c69642077616c6c65742061646472657373000000000000000000006044820152606490fd5b60405162461bcd60e51b815260206004820152601860248201527f50617373776f72642063616e6e6f7420626520656d70747900000000000000006044820152606490fd5b60405162461bcd60e51b815260206004820152601560248201527f456d61696c2063616e6e6f7420626520656d70747900000000000000000000006044820152606490fd5b346101d05760403660031901126101d0576001600160a01b036120d8612a86565b1660005260cf60205260206120f36024356040600020613212565b90546040519160031b1c8152f35b346101d05760403660031901126101d05767ffffffffffffffff6004358181116101d057612133903690600401612a68565b906024359081116101d057602091612152612158923690600401612a68565b90612fa2565b6040519015158152f35b346101d05760c03660031901126101d05760643567ffffffffffffffff81116101d057612193903690600401612a68565b60843567ffffffffffffffff81116101d0576121b3903690600401612a68565b9060a43567ffffffffffffffff81116101d0576121d4903690600401612a68565b913360005260cb6020526121f560ff60026040600020015460a81c16613022565b3360005260cb60205261221660ff60026040600020015416610d37816129f5565b600435156126e75761222a602435426130ec565b9160c954918260005260cc602052604060002091426004840154101561267c57838355600a8301336001600160a01b0319825416179055600435600184015580519067ffffffffffffffff821161179d57819061228a600786015461287a565b601f8111612629575b50602090601f83116001146125b7576000926125ac575b50508160011b916000199060031b1c19161760078301555b80519067ffffffffffffffff821161179d5781906122e3600885015461287a565b601f8111612559575b50602090601f83116001146124ec576000926124e1575b50508160011b916000199060031b1c19161760088201555b835167ffffffffffffffff811161179d57612339600983015461287a565b601f811161249a575b506020601f8211600114612426579080600d93926123b3969760009261241b575b50508160011b916000199060031b1c19161760098201555b84600482015560443560068201550160ff19815416905561239d60c9546130f9565b60c9553360005260cf60205260406000206134c8565b5060c954600019810191908211612405577f91b289a829e71d811b8c69e4a24ba2d40d115d8a236e9a724cb3bb2d43cf72239160809160405191825233602083015260043560408301526060820152a1005b634e487b7160e01b600052601160045260246000fd5b015190508780612363565b601f198216956009840160005260206000209660005b8181106124825750966001928492600d96956123b3999a10612469575b505050811b01600982015561237b565b015160001960f88460031b161c19169055878080612459565b8383015189556001909801976020938401930161243c565b600983016000526020600020601f830160051c8101602084106124da575b601f830160051c820181106124ce575050612342565b600081556001016124b8565b50806124b8565b015190508680612303565b600885016000908152602081209350601f198516905b8181106125415750908460019594939210612528575b505050811b01600882015561231b565b015160001960f88460031b161c19169055868080612518565b92936020600181928786015181550195019301612502565b909150600884016000526020600020601f840160051c8101602085106125a5575b90849392915b601f830160051c820181106125965750506122ec565b60008155859450600101612580565b508061257a565b0151905087806122aa565b9250600785016000526020600020906000935b601f198416851061260e576001945083601f198116106125f5575b505050811b0160078301556122c2565b015160001960f88460031b161c191690558780806125e5565b818101518355602094850194600190930192909101906125ca565b909150600785016000526020600020601f840160051c810160208510612675575b90849392915b601f830160051c82018110612666575050612293565b60008155859450600101612650565b508061264a565b60405162461bcd60e51b815260206004820152602960248201527f5468652063616d706169676e206d7573742062652061206461746520696e207460448201527f68652066757475726500000000000000000000000000000000000000000000006064820152608490fd5b60405162461bcd60e51b815260206004820152602760248201527f54617267657420616d6f756e74206d757374206265206772656174657220746860448201527f616e207a65726f000000000000000000000000000000000000000000000000006064820152608490fd5b346101d05760203660031901126101d05760043560005260cc60205260406000208054600182015491600281015460038201549060048301549260058101546006820154600783016127a39061290f565b6127af6008850161290f565b916127bc6009860161290f565b936001600160a01b039889600a8801541699600b8801541696600d01549860ff8a16986040519d8e809e81526020015260408d015260608c015260808b015260a08a015260c08901526101e08060e08a01528801612819916129b5565b87810361010089015261282b916129b5565b86810361012088015261283d916129b5565b93610140860152610160850152612853816129f5565b6101808401528060081c60ff1615156101a084015260101c60ff1615156101c08301520390f35b90600182811c921680156128aa575b602083101461289457565b634e487b7160e01b600052602260045260246000fd5b91607f1691612889565b610200810190811067ffffffffffffffff82111761179d57604052565b6060810190811067ffffffffffffffff82111761179d57604052565b90601f8019910116810190811067ffffffffffffffff82111761179d57604052565b90604051918260008254926129238461287a565b908184526001948581169081600014612992575060011461294f575b505061294d925003836128ed565b565b9093915060005260209081600020936000915b81831061297a57505061294d9350820101388061293f565b85548884018501529485019487945091830191612962565b91505061294d94506020925060ff191682840152151560051b820101388061293f565b919082519283825260005b8481106129e1575050826000602080949584010152601f8019910116010190565b6020818301810151848301820152016129c0565b600311156129ff57565b634e487b7160e01b600052602160045260246000fd5b67ffffffffffffffff811161179d57601f01601f191660200190565b929192612a3d82612a15565b91612a4b60405193846128ed565b8294818452818301116101d0578281602093846000960137010152565b9080601f830112156101d057816020612a8393359101612a31565b90565b600435906001600160a01b03821682036101d057565b90815180825260208080930193019160005b828110612abc575050505090565b83516001600160a01b031685529381019392810192600101612aae565b90815180825260208080930193019160005b828110612af9575050505090565b835185529381019392810192600101612aeb565b90815181526020820151602082015260408201516040820152606082015160608201526080820151608082015260a082015160a082015260c082015160c0820152612bce612b98612b84612b7060e08601516102008060e08801528601906129b5565b6101008087015190868303908701526129b5565b6101208086015190858303908601526129b5565b6001600160a01b036101408181870151169085015261016090818601511690840152610180808501519084830390850152612a9c565b916101a08082015190612be0826129f5565b8301526101c0808201511515908301526101e080910151151591015290565b602080820190808352835180925260408301928160408460051b8301019501936000915b848310612c335750505050505090565b9091929394958480612c51600193603f198682030187528a51612b0d565b9801930193019194939290612c23565b6001600160a01b03603354163303612c7557565b606460405162461bcd60e51b815260206004820152602060248201527f4f776e61626c653a2063616c6c6572206973206e6f7420746865206f776e65726044820152fd5b603354906001600160a01b0380911691826001600160a01b0319821617603355167f8be0079c531659141344cd1fd0a4f28419497f9722a3daafe3b4186f6b6457e0600080a3565b15612d0857565b60405162461bcd60e51b815260206004820152602c60248201527f46756e6374696f6e206d7573742062652063616c6c6564207468726f7567682060448201527f64656c656761746563616c6c00000000000000000000000000000000000000006064820152608490fd5b15612d7a57565b60405162461bcd60e51b815260206004820152602c60248201527f46756e6374696f6e206d7573742062652063616c6c6564207468726f7567682060448201527f6163746976652070726f787900000000000000000000000000000000000000006064820152608490fd5b803b15612e28576001600160a01b037f360894a13ba1a3210667c828492db98dca3e2076cc3735a920a3ca505d382bbc91166001600160a01b0319825416179055565b60405162461bcd60e51b815260206004820152602d60248201527f455243313936373a206e657720696d706c656d656e746174696f6e206973206e60448201527f6f74206120636f6e7472616374000000000000000000000000000000000000006064820152608490fd5b91929015612ef55750815115612ea7575090565b3b15612eb05790565b60405162461bcd60e51b815260206004820152601d60248201527f416464726573733a2063616c6c20746f206e6f6e2d636f6e74726163740000006044820152606490fd5b825190915015612f085750805190602001fd5b60405162461bcd60e51b815260206004820152908190612f2c9060248301906129b5565b0390fd5b15612f3757565b60405162461bcd60e51b815260206004820152602b60248201527f496e697469616c697a61626c653a20636f6e7472616374206973206e6f74206960448201527f6e697469616c697a696e670000000000000000000000000000000000000000006064820152608490fd5b903360005260cb602052604060002060ff600282015460a81c169283612fff575b5082612fda575b5050612fd557600090565b600190565b612fe891925060010161290f565b602081519101209060208151910120143880612fca565b90925061300b8361290f565b602081519101209060208151910120149138612fc3565b1561302957565b60405162461bcd60e51b815260206004820152602360248201527f4f6e6c792076657269666965642075736572732063616e20706172746963697060448201526261746560e81b6064820152608490fd5b1561308157565b60405162461bcd60e51b815260206004820152603c60248201527f4f6e6c79207573657273206f662074686520737065636966696564206361746560448201527f676f72792063616e20706572666f726d207468697320616374696f6e000000006064820152608490fd5b9190820180921161240557565b60001981146124055760010190565b1561310f57565b60405162461bcd60e51b815260206004820152601760248201527f43616d706169676e20646f6573206e6f742065786973740000000000000000006044820152606490fd5b1561315b57565b60405162461bcd60e51b815260206004820152601760248201527f43616d706169676e206973206e6f74206f6e676f696e670000000000000000006044820152606490fd5b156131a757565b60405162461bcd60e51b815260206004820152603360248201527f46756e647320666f7220746869732063616d706169676e206861766520616c7260448201527f65616479206265656e2072656365697665642e000000000000000000000000006064820152608490fd5b805482101561322a5760005260206000200190600090565b634e487b7160e01b600052603260045260246000fd5b67ffffffffffffffff811161179d5760051b60200190565b9061326282613240565b61326f60405191826128ed565b8281528092613280601f1991613240565b0190602036910137565b805182101561322a5760209160051b010190565b9060405191828154918282526020928383019160005283600020936000905b8282106132d35750505061294d925003836128ed565b85546001600160a01b0316845260019586019588955093810193909101906132bd565b60405190613303826128b4565b816101e06000918281528260208201528260408201528260608201528260808201528260a08201528260c0820152606060e08201526060610100820152606061012082015282610140820152826101608201526060610180820152826101a0820152826101c08201520152565b9061337a82613240565b61338760405191826128ed565b8281528092613398601f1991613240565b019060005b8281106133a957505050565b6020906133b46132f6565b8282850101520161339d565b156133c757565b60405162461bcd60e51b815260206004820152604160248201527f5265717565737420686173206e6f74206265656e20617070726f76656420627960448201527f20746865207265717569726564206e756d626572206f6620696e766573746f726064820152607360f81b608482015260a490fd5b80546000908152602060ca815260408083205492600c81950192835493825b8581106134705750505050505060011c111590565b6001600160a01b036134828284613212565b91905483875260ce86528787209260031b1c168552835260ff85852054166134b3575b6134ae906130f9565b61345b565b966134c06134ae916130f9565b9790506134a5565b9190600183016000908282528060205260408220541560001461354457845494680100000000000000008610156135305761350d866001604096979801835582613212565b81549060031b9087821b91600019901b1916179055549382526020522055600190565b634e487b7160e01b83526041600452602483fd5b5092505056fea164736f6c6343000812000a","opcodes":"PUSH1 0xA0 DUP1 PUSH1 0x40 MSTORE CALLVALUE PUSH2 0x31 JUMPI ADDRESS PUSH1 0x80 MSTORE PUSH2 0x3557 SWAP1 DUP2 PUSH2 0x37 DUP3 CODECOPY PUSH1 0x80 MLOAD DUP2 DUP2 DUP2 PUSH2 0x11E0 ADD MSTORE DUP2 DUP2 PUSH2 0x12EC ADD MSTORE PUSH2 0x191E ADD MSTORE RETURN JUMPDEST PUSH1 0x0 DUP1 REVERT INVALID PUSH1 0x80 PUSH1 0x40 MSTORE PUSH1 0x4 CALLDATASIZE LT ISZERO PUSH2 0x12 JUMPI PUSH1 0x0 DUP1 REVERT JUMPDEST PUSH1 0x0 CALLDATALOAD PUSH1 0xE0 SHR DUP1 PUSH4 0x141961BC EQ PUSH2 0x2752 JUMPI DUP1 PUSH4 0x1AD417BF EQ PUSH2 0x2162 JUMPI DUP1 PUSH4 0x22CE12E5 EQ PUSH2 0x2101 JUMPI DUP1 PUSH4 0x24777746 EQ PUSH2 0x20B7 JUMPI DUP1 PUSH4 0x2E17A931 EQ PUSH2 0x1B93 JUMPI DUP1 PUSH4 0x3659CFE6 EQ PUSH2 0x18F8 JUMPI DUP1 PUSH4 0x42A4FDA8 EQ PUSH2 0x1564 JUMPI DUP1 PUSH4 0x4F1EF286 EQ PUSH2 0x129B JUMPI DUP1 PUSH4 0x52D1902D EQ PUSH2 0x11C5 JUMPI DUP1 PUSH4 0x67C2CBAD EQ PUSH2 0x10E2 JUMPI DUP1 PUSH4 0x70DEBCF7 EQ PUSH2 0xE85 JUMPI DUP1 PUSH4 0x715018A6 EQ PUSH2 0xE2A JUMPI DUP1 PUSH4 0x74C49FD5 EQ PUSH2 0xCD5 JUMPI DUP1 PUSH4 0x8129FC1C EQ PUSH2 0xB80 JUMPI DUP1 PUSH4 0x8DA5CB5B EQ PUSH2 0xB59 JUMPI DUP1 PUSH4 0x8E5BAA62 EQ PUSH2 0xADB JUMPI DUP1 PUSH4 0xA6B03633 EQ PUSH2 0x98E JUMPI DUP1 PUSH4 0xA7247CD9 EQ PUSH2 0x75C JUMPI DUP1 PUSH4 0xA87430BA EQ PUSH2 0x6BA JUMPI DUP1 PUSH4 0xAE1F6802 EQ PUSH2 0x566 JUMPI DUP1 PUSH4 0xE27883FB EQ PUSH2 0x523 JUMPI DUP1 PUSH4 0xE6FFCAA1 EQ PUSH2 0x3FB JUMPI DUP1 PUSH4 0xEFB80183 EQ PUSH2 0x27B JUMPI DUP1 PUSH4 0xF2FDE38B EQ PUSH2 0x1D5 JUMPI PUSH4 0xFFA676D1 EQ PUSH2 0x12F JUMPI PUSH1 0x0 DUP1 REVERT JUMPDEST CALLVALUE PUSH2 0x1D0 JUMPI PUSH1 0x20 DUP1 PUSH1 0x3 NOT CALLDATASIZE ADD SLT PUSH2 0x1D0 JUMPI PUSH1 0x4 CALLDATALOAD SWAP1 DUP2 PUSH1 0x0 MSTORE PUSH1 0xCC DUP2 MSTORE PUSH1 0xC PUSH1 0x40 PUSH1 0x0 KECCAK256 ADD SWAP2 DUP3 SLOAD SWAP1 PUSH2 0x162 DUP3 PUSH2 0x3258 JUMP JUMPDEST SWAP4 PUSH1 0x0 JUMPDEST DUP4 DUP2 LT PUSH2 0x184 JUMPI PUSH1 0x40 MLOAD DUP6 DUP2 MSTORE DUP1 PUSH2 0x180 DUP2 DUP9 ADD DUP10 PUSH2 0x2AD9 JUMP JUMPDEST SUB SWAP1 RETURN JUMPDEST DUP1 PUSH1 0x1 PUSH1 0x1 PUSH1 0xA0 SHL SUB PUSH2 0x19A PUSH2 0x1CB SWAP4 DUP6 PUSH2 0x3212 JUMP JUMPDEST SWAP2 SWAP1 SLOAD DUP7 PUSH1 0x0 MSTORE PUSH1 0xCD DUP10 MSTORE PUSH1 0x40 PUSH1 0x0 KECCAK256 SWAP3 PUSH1 0x3 SHL SHR AND PUSH1 0x0 MSTORE DUP7 MSTORE PUSH1 0x40 PUSH1 0x0 KECCAK256 SLOAD PUSH2 0x1C5 DUP3 DUP10 PUSH2 0x328A JUMP JUMPDEST MSTORE PUSH2 0x30F9 JUMP JUMPDEST PUSH2 0x166 JUMP JUMPDEST PUSH1 0x0 DUP1 REVERT JUMPDEST CALLVALUE PUSH2 0x1D0 JUMPI PUSH1 0x20 CALLDATASIZE PUSH1 0x3 NOT ADD SLT PUSH2 0x1D0 JUMPI PUSH2 0x1EE PUSH2 0x2A86 JUMP JUMPDEST PUSH2 0x1F6 PUSH2 0x2C61 JUMP JUMPDEST PUSH1 0x1 PUSH1 0x1 PUSH1 0xA0 SHL SUB DUP2 AND ISZERO PUSH2 0x210 JUMPI PUSH2 0x20E SWAP1 PUSH2 0x2CB9 JUMP JUMPDEST STOP JUMPDEST PUSH1 0x40 MLOAD PUSH3 0x461BCD PUSH1 0xE5 SHL DUP2 MSTORE PUSH1 0x20 PUSH1 0x4 DUP3 ADD MSTORE PUSH1 0x26 PUSH1 0x24 DUP3 ADD MSTORE PUSH32 0x4F776E61626C653A206E6577206F776E657220697320746865207A65726F2061 PUSH1 0x44 DUP3 ADD MSTORE PUSH32 0x6464726573730000000000000000000000000000000000000000000000000000 PUSH1 0x64 DUP3 ADD MSTORE PUSH1 0x84 SWAP1 REVERT JUMPDEST CALLVALUE PUSH2 0x1D0 JUMPI PUSH1 0x20 DUP1 PUSH1 0x3 NOT CALLDATASIZE ADD SLT PUSH2 0x1D0 JUMPI PUSH1 0x1 PUSH1 0x1 PUSH1 0xA0 SHL SUB DUP1 PUSH2 0x29E PUSH2 0x2A86 JUMP JUMPDEST AND SWAP1 DUP2 PUSH1 0x0 MSTORE PUSH1 0xCF SWAP1 DUP2 DUP5 MSTORE PUSH1 0x40 PUSH1 0x0 KECCAK256 SLOAD SWAP2 PUSH2 0x2BA DUP4 PUSH2 0x3370 JUMP JUMPDEST SWAP4 PUSH1 0x0 JUMPDEST DUP5 DUP2 LT PUSH2 0x2D3 JUMPI PUSH1 0x40 MLOAD DUP1 PUSH2 0x180 DUP9 DUP3 PUSH2 0x2BFF JUMP JUMPDEST DUP2 PUSH1 0x0 MSTORE DUP3 DUP8 MSTORE PUSH2 0x2E8 DUP2 PUSH1 0x40 PUSH1 0x0 KECCAK256 PUSH2 0x3212 JUMP JUMPDEST SWAP2 SWAP1 SLOAD PUSH1 0x3 SWAP3 DUP4 SHL SHR PUSH1 0x0 MSTORE PUSH1 0xCC DUP9 MSTORE PUSH1 0x40 PUSH1 0x0 KECCAK256 PUSH1 0x40 MLOAD SWAP1 PUSH2 0x30A DUP3 PUSH2 0x28B4 JUMP JUMPDEST DUP1 SLOAD DUP3 MSTORE PUSH1 0x1 SWAP4 DUP5 DUP3 ADD SLOAD DUP12 DUP5 ADD MSTORE PUSH1 0x2 DUP3 ADD SLOAD PUSH1 0x40 DUP5 ADD MSTORE DUP2 ADD SLOAD PUSH1 0x60 DUP4 ADD MSTORE PUSH1 0x4 DUP2 ADD SLOAD PUSH1 0x80 DUP4 ADD MSTORE PUSH1 0x5 DUP2 ADD SLOAD PUSH1 0xA0 DUP4 ADD MSTORE PUSH1 0x6 DUP2 ADD SLOAD PUSH1 0xC0 DUP4 ADD MSTORE PUSH2 0x355 PUSH1 0x7 DUP3 ADD PUSH2 0x290F JUMP JUMPDEST PUSH1 0xE0 DUP4 ADD MSTORE PUSH1 0xD PUSH1 0x8 SWAP2 PUSH2 0x36A DUP4 DUP3 ADD PUSH2 0x290F JUMP JUMPDEST PUSH2 0x100 DUP6 ADD MSTORE PUSH2 0x37C PUSH1 0x9 DUP3 ADD PUSH2 0x290F JUMP JUMPDEST PUSH2 0x120 DUP6 ADD MSTORE DUP9 PUSH1 0xA DUP3 ADD SLOAD AND PUSH2 0x140 DUP6 ADD MSTORE DUP9 PUSH1 0xB DUP3 ADD SLOAD AND PUSH2 0x160 DUP6 ADD MSTORE PUSH2 0x3A8 PUSH1 0xC DUP3 ADD PUSH2 0x329E JUMP JUMPDEST PUSH2 0x180 DUP6 ADD MSTORE ADD SLOAD DUP1 SWAP2 PUSH1 0xFF SWAP3 DUP4 SWAP2 DUP3 DUP3 AND PUSH2 0x3C3 DUP2 PUSH2 0x29F5 JUMP JUMPDEST PUSH2 0x1A0 DUP8 ADD MSTORE SHR AND ISZERO ISZERO PUSH2 0x1C0 DUP5 ADD MSTORE PUSH1 0x10 SHR AND ISZERO ISZERO PUSH2 0x1E0 DUP3 ADD MSTORE PUSH2 0x3E9 DUP3 DUP10 PUSH2 0x328A JUMP JUMPDEST MSTORE PUSH2 0x3F4 DUP2 DUP9 PUSH2 0x328A JUMP JUMPDEST POP ADD PUSH2 0x2BE JUMP JUMPDEST CALLVALUE PUSH2 0x1D0 JUMPI PUSH1 0x20 CALLDATASIZE PUSH1 0x3 NOT ADD SLT PUSH2 0x1D0 JUMPI PUSH2 0x414 PUSH2 0x32F6 JUMP JUMPDEST POP PUSH1 0x4 CALLDATALOAD PUSH1 0x0 MSTORE PUSH1 0xCC PUSH1 0x20 MSTORE PUSH2 0x180 PUSH1 0x40 PUSH1 0x0 KECCAK256 PUSH1 0xFF PUSH1 0xD PUSH1 0x40 MLOAD SWAP3 PUSH2 0x439 DUP5 PUSH2 0x28B4 JUMP JUMPDEST DUP1 SLOAD DUP5 MSTORE PUSH1 0x1 DUP2 ADD SLOAD PUSH1 0x20 DUP6 ADD MSTORE PUSH1 0x2 DUP2 ADD SLOAD PUSH1 0x40 DUP6 ADD MSTORE PUSH1 0x3 DUP2 ADD SLOAD PUSH1 0x60 DUP6 ADD MSTORE PUSH1 0x4 DUP2 ADD SLOAD PUSH1 0x80 DUP6 ADD MSTORE PUSH1 0x5 DUP2 ADD SLOAD PUSH1 0xA0 DUP6 ADD MSTORE PUSH1 0x6 DUP2 ADD SLOAD PUSH1 0xC0 DUP6 ADD MSTORE PUSH2 0x485 PUSH1 0x7 DUP3 ADD PUSH2 0x290F JUMP JUMPDEST PUSH1 0xE0 DUP6 ADD MSTORE PUSH2 0x496 PUSH1 0x8 DUP3 ADD PUSH2 0x290F JUMP JUMPDEST PUSH2 0x100 DUP6 ADD MSTORE PUSH2 0x4A8 PUSH1 0x9 DUP3 ADD PUSH2 0x290F JUMP JUMPDEST PUSH2 0x120 DUP6 ADD MSTORE PUSH1 0x1 PUSH1 0x1 PUSH1 0xA0 SHL SUB DUP1 PUSH1 0xA DUP4 ADD SLOAD AND PUSH2 0x140 DUP7 ADD MSTORE PUSH1 0xB DUP3 ADD SLOAD AND PUSH2 0x160 DUP6 ADD MSTORE PUSH2 0x4DB PUSH1 0xC DUP3 ADD PUSH2 0x329E JUMP JUMPDEST PUSH2 0x180 DUP6 ADD MSTORE ADD SLOAD DUP2 DUP2 AND PUSH2 0x4EF DUP2 PUSH2 0x29F5 JUMP JUMPDEST PUSH2 0x1A0 DUP5 ADD MSTORE DUP2 DUP2 PUSH1 0x8 SHR AND ISZERO ISZERO PUSH2 0x1C0 DUP5 ADD MSTORE PUSH1 0x10 SHR AND ISZERO ISZERO PUSH2 0x1E0 DUP3 ADD MSTORE PUSH1 0x40 MLOAD SWAP2 DUP3 SWAP2 PUSH1 0x20 DUP4 MSTORE PUSH1 0x20 DUP4 ADD SWAP1 PUSH2 0x2B0D JUMP JUMPDEST CALLVALUE PUSH2 0x1D0 JUMPI PUSH1 0x20 CALLDATASIZE PUSH1 0x3 NOT ADD SLT PUSH2 0x1D0 JUMPI PUSH1 0x4 CALLDATALOAD PUSH1 0x0 MSTORE PUSH1 0xCC PUSH1 0x20 MSTORE PUSH2 0x180 PUSH2 0x552 PUSH1 0xC PUSH1 0x40 PUSH1 0x0 KECCAK256 ADD PUSH2 0x329E JUMP JUMPDEST PUSH1 0x40 MLOAD SWAP2 DUP3 SWAP2 PUSH1 0x20 DUP4 MSTORE PUSH1 0x20 DUP4 ADD SWAP1 PUSH2 0x2A9C JUMP JUMPDEST CALLVALUE PUSH2 0x1D0 JUMPI PUSH1 0x20 DUP1 PUSH1 0x3 NOT CALLDATASIZE ADD SLT PUSH2 0x1D0 JUMPI PUSH1 0x4 CALLDATALOAD SWAP1 CALLER PUSH1 0x0 MSTORE PUSH1 0xCB DUP2 MSTORE PUSH2 0x59B PUSH1 0xFF PUSH1 0x2 PUSH1 0x40 PUSH1 0x0 KECCAK256 ADD SLOAD PUSH1 0xA8 SHR AND PUSH2 0x3022 JUMP JUMPDEST PUSH2 0x5A8 PUSH1 0xC9 SLOAD DUP4 LT PUSH2 0x3108 JUMP JUMPDEST CALLER PUSH1 0x0 MSTORE PUSH1 0xCB DUP2 MSTORE PUSH2 0x5CF PUSH1 0x2 PUSH1 0xFF DUP2 PUSH1 0x40 PUSH1 0x0 KECCAK256 ADD SLOAD AND PUSH2 0x5C9 DUP2 PUSH2 0x29F5 JUMP JUMPDEST EQ PUSH2 0x307A JUMP JUMPDEST DUP2 PUSH1 0x0 MSTORE PUSH1 0xCC DUP2 MSTORE PUSH1 0x40 PUSH1 0x0 KECCAK256 SWAP2 CALLER PUSH1 0x1 PUSH1 0x1 PUSH1 0xA0 SHL SUB PUSH1 0xB DUP6 ADD SLOAD AND SUB PUSH2 0x64F JUMPI PUSH1 0xD DUP4 PUSH2 0x626 PUSH2 0x621 PUSH32 0xBCDC7071C1BEB6DCF2744621E0B29A2F2432EE20812D9CA5E3D5E8F9308D93A3 SWAP7 PUSH2 0x343C JUMP JUMPDEST PUSH2 0x33C0 JUMP JUMPDEST ADD PUSH3 0x10000 DUP2 SLOAD PUSH2 0x63D PUSH1 0xFF DUP3 PUSH1 0x10 SHR AND ISZERO PUSH2 0x31A0 JUMP JUMPDEST PUSH3 0xFF0000 NOT AND OR SWAP1 SSTORE PUSH1 0x40 MLOAD SWAP1 DUP2 MSTORE LOG1 STOP JUMPDEST PUSH1 0x40 MLOAD PUSH3 0x461BCD PUSH1 0xE5 SHL DUP2 MSTORE PUSH1 0x4 DUP2 ADD DUP4 SWAP1 MSTORE PUSH1 0x34 PUSH1 0x24 DUP3 ADD MSTORE PUSH32 0x4F6E6C79207468652063616D706169676E2076656E646F722063616E20636F6E PUSH1 0x44 DUP3 ADD MSTORE PUSH32 0x6669726D2066756E64732072656365697665642E000000000000000000000000 PUSH1 0x64 DUP3 ADD MSTORE PUSH1 0x84 SWAP1 REVERT JUMPDEST CALLVALUE PUSH2 0x1D0 JUMPI PUSH1 0x20 CALLDATASIZE PUSH1 0x3 NOT ADD SLT PUSH2 0x1D0 JUMPI PUSH2 0x726 PUSH1 0x1 PUSH1 0x1 PUSH1 0xA0 SHL SUB DUP1 PUSH2 0x6DF PUSH2 0x2A86 JUMP JUMPDEST AND PUSH1 0x0 MSTORE PUSH1 0xCB PUSH1 0x20 MSTORE PUSH1 0x40 PUSH1 0x0 KECCAK256 PUSH1 0xFF PUSH2 0x6F8 DUP3 PUSH2 0x290F JUMP JUMPDEST SWAP3 PUSH1 0x2 PUSH2 0x707 PUSH1 0x1 DUP6 ADD PUSH2 0x290F JUMP JUMPDEST SWAP4 ADD SLOAD SWAP1 PUSH2 0x734 DUP4 DUP4 AND SWAP5 PUSH1 0x40 MLOAD SWAP8 DUP9 SWAP8 PUSH1 0xA0 DUP10 MSTORE PUSH1 0xA0 DUP10 ADD SWAP1 PUSH2 0x29B5 JUMP JUMPDEST SWAP1 DUP8 DUP3 SUB PUSH1 0x20 DUP10 ADD MSTORE PUSH2 0x29B5 JUMP JUMPDEST SWAP4 PUSH2 0x73E DUP2 PUSH2 0x29F5 JUMP JUMPDEST PUSH1 0x40 DUP7 ADD MSTORE DUP2 PUSH1 0x8 SHR AND PUSH1 0x60 DUP6 ADD MSTORE PUSH1 0xA8 SHR AND ISZERO ISZERO PUSH1 0x80 DUP4 ADD MSTORE SUB SWAP1 RETURN JUMPDEST CALLVALUE PUSH2 0x1D0 JUMPI PUSH1 0x20 DUP1 PUSH1 0x3 NOT CALLDATASIZE ADD SLT PUSH2 0x1D0 JUMPI PUSH1 0x4 CALLDATALOAD SWAP1 CALLER PUSH1 0x0 MSTORE PUSH1 0xCB DUP2 MSTORE PUSH2 0x791 PUSH1 0xFF PUSH1 0x2 PUSH1 0x40 PUSH1 0x0 KECCAK256 ADD SLOAD PUSH1 0xA8 SHR AND PUSH2 0x3022 JUMP JUMPDEST PUSH2 0x79E PUSH1 0xC9 SLOAD DUP4 LT PUSH2 0x3108 JUMP JUMPDEST CALLER PUSH1 0x0 MSTORE PUSH1 0xCB DUP2 MSTORE PUSH2 0x7C0 PUSH1 0x1 PUSH1 0xFF PUSH1 0x2 PUSH1 0x40 PUSH1 0x0 KECCAK256 ADD SLOAD AND PUSH2 0x5C9 DUP2 PUSH2 0x29F5 JUMP JUMPDEST DUP2 PUSH1 0x0 MSTORE PUSH1 0xCC DUP2 MSTORE PUSH1 0xD PUSH1 0x40 PUSH1 0x0 KECCAK256 ADD SLOAD PUSH2 0x7E7 PUSH1 0xFF DUP3 AND PUSH2 0x7E1 DUP2 PUSH2 0x29F5 JUMP JUMPDEST ISZERO PUSH2 0x3154 JUMP JUMPDEST DUP3 PUSH1 0x0 MSTORE PUSH1 0xCD DUP3 MSTORE PUSH1 0x40 PUSH1 0x0 KECCAK256 CALLER PUSH1 0x0 MSTORE DUP3 MSTORE PUSH1 0x40 PUSH1 0x0 KECCAK256 SLOAD ISZERO PUSH2 0x93D JUMPI PUSH1 0x8 SHR PUSH1 0xFF AND ISZERO PUSH2 0x8ED JUMPI DUP2 PUSH1 0x0 MSTORE PUSH1 0xCE DUP2 MSTORE PUSH1 0x40 PUSH1 0x0 KECCAK256 CALLER PUSH1 0x0 MSTORE DUP2 MSTORE PUSH1 0xFF PUSH1 0x40 PUSH1 0x0 KECCAK256 SLOAD AND PUSH2 0x883 JUMPI DUP2 PUSH1 0x40 SWAP2 PUSH32 0xF3DC904660A0EA05ABA8DFA1E21FBC4FB2914BE2A3029DA7B0FDD3E5EEE20DDB SWAP4 PUSH1 0x0 MSTORE PUSH1 0xCE DUP2 MSTORE DUP3 PUSH1 0x0 KECCAK256 CALLER PUSH1 0x0 MSTORE DUP2 MSTORE DUP3 PUSH1 0x0 KECCAK256 PUSH1 0x1 PUSH1 0xFF NOT DUP3 SLOAD AND OR SWAP1 SSTORE DUP3 MLOAD SWAP2 DUP3 MSTORE CALLER SWAP1 DUP3 ADD MSTORE LOG1 STOP JUMPDEST PUSH1 0x84 SWAP1 PUSH1 0x40 MLOAD SWAP1 PUSH3 0x461BCD PUSH1 0xE5 SHL DUP3 MSTORE PUSH1 0x4 DUP3 ADD MSTORE PUSH1 0x29 PUSH1 0x24 DUP3 ADD MSTORE PUSH32 0x496E766573746F722068617320616C726561647920617070726F766564207468 PUSH1 0x44 DUP3 ADD MSTORE PUSH32 0x6520726571756573740000000000000000000000000000000000000000000000 PUSH1 0x64 DUP3 ADD MSTORE REVERT JUMPDEST PUSH1 0x84 SWAP1 PUSH1 0x40 MLOAD SWAP1 PUSH3 0x461BCD PUSH1 0xE5 SHL DUP3 MSTORE PUSH1 0x4 DUP3 ADD MSTORE PUSH1 0x23 PUSH1 0x24 DUP3 ADD MSTORE PUSH32 0x4E6F20726571756573742065786973747320666F7220746869732063616D7061 PUSH1 0x44 DUP3 ADD MSTORE PUSH3 0x34B3B7 PUSH1 0xE9 SHL PUSH1 0x64 DUP3 ADD MSTORE REVERT JUMPDEST PUSH1 0x40 MLOAD PUSH3 0x461BCD PUSH1 0xE5 SHL DUP2 MSTORE PUSH1 0x4 DUP2 ADD DUP4 SWAP1 MSTORE PUSH1 0x24 DUP1 DUP3 ADD MSTORE PUSH32 0x4F6E6C7920696E766573746F72732063616E20617070726F7665206120726571 PUSH1 0x44 DUP3 ADD MSTORE PUSH4 0x1D595CDD PUSH1 0xE2 SHL PUSH1 0x64 DUP3 ADD MSTORE PUSH1 0x84 SWAP1 REVERT JUMPDEST CALLVALUE PUSH2 0x1D0 JUMPI PUSH1 0x0 CALLDATASIZE PUSH1 0x3 NOT ADD SLT PUSH2 0x1D0 JUMPI PUSH1 0xC9 SLOAD PUSH2 0x9AB DUP2 PUSH2 0x3370 JUMP JUMPDEST SWAP1 PUSH1 0x0 JUMPDEST DUP2 DUP2 LT PUSH2 0x9C4 JUMPI PUSH1 0x40 MLOAD DUP1 PUSH2 0x180 DUP6 DUP3 PUSH2 0x2BFF JUMP JUMPDEST DUP1 PUSH1 0x0 MSTORE PUSH1 0x20 SWAP1 PUSH1 0xCC DUP3 MSTORE PUSH1 0x40 PUSH1 0x0 KECCAK256 PUSH1 0x40 MLOAD SWAP1 PUSH2 0x9E1 DUP3 PUSH2 0x28B4 JUMP JUMPDEST DUP1 SLOAD DUP3 MSTORE PUSH1 0x1 SWAP4 DUP5 DUP3 ADD SLOAD SWAP1 DUP4 ADD MSTORE PUSH1 0x2 DUP2 ADD SLOAD PUSH1 0x40 DUP4 ADD MSTORE PUSH1 0x3 DUP2 ADD SLOAD PUSH1 0x60 DUP4 ADD MSTORE PUSH1 0x4 DUP2 ADD SLOAD PUSH1 0x80 DUP4 ADD MSTORE PUSH1 0x5 DUP2 ADD SLOAD PUSH1 0xA0 DUP4 ADD MSTORE PUSH1 0x6 DUP2 ADD SLOAD PUSH1 0xC0 DUP4 ADD MSTORE PUSH2 0xA2E PUSH1 0x7 DUP3 ADD PUSH2 0x290F JUMP JUMPDEST PUSH1 0xE0 DUP4 ADD MSTORE PUSH1 0xD PUSH1 0x8 SWAP2 PUSH2 0xA43 DUP4 DUP3 ADD PUSH2 0x290F JUMP JUMPDEST PUSH2 0x100 DUP6 ADD MSTORE PUSH2 0xA55 PUSH1 0x9 DUP3 ADD PUSH2 0x290F JUMP JUMPDEST PUSH2 0x120 DUP6 ADD MSTORE PUSH1 0x1 PUSH1 0x1 PUSH1 0xA0 SHL SUB DUP1 PUSH1 0xA DUP4 ADD SLOAD AND PUSH2 0x140 DUP7 ADD MSTORE PUSH1 0xB DUP3 ADD SLOAD AND PUSH2 0x160 DUP6 ADD MSTORE PUSH2 0xA88 PUSH1 0xC DUP3 ADD PUSH2 0x329E JUMP JUMPDEST PUSH2 0x180 DUP6 ADD MSTORE ADD SLOAD DUP1 SWAP2 PUSH1 0xFF SWAP3 DUP4 SWAP2 DUP3 DUP3 AND PUSH2 0xAA3 DUP2 PUSH2 0x29F5 JUMP JUMPDEST PUSH2 0x1A0 DUP8 ADD MSTORE SHR AND ISZERO ISZERO PUSH2 0x1C0 DUP5 ADD MSTORE PUSH1 0x10 SHR AND ISZERO ISZERO PUSH2 0x1E0 DUP3 ADD MSTORE PUSH2 0xAC9 DUP3 DUP7 PUSH2 0x328A JUMP JUMPDEST MSTORE PUSH2 0xAD4 DUP2 DUP6 PUSH2 0x328A JUMP JUMPDEST POP ADD PUSH2 0x9AF JUMP JUMPDEST CALLVALUE PUSH2 0x1D0 JUMPI PUSH1 0x20 DUP1 PUSH1 0x3 NOT CALLDATASIZE ADD SLT PUSH2 0x1D0 JUMPI PUSH2 0xAF5 PUSH2 0x2A86 JUMP JUMPDEST PUSH1 0xC9 SLOAD PUSH1 0x0 SWAP2 PUSH1 0x1 PUSH1 0x1 PUSH1 0xA0 SHL SUB AND DUP3 JUMPDEST DUP3 DUP2 LT PUSH2 0xB18 JUMPI POP POP POP PUSH1 0x40 MLOAD SWAP1 DUP2 MSTORE RETURN JUMPDEST DUP1 PUSH1 0x0 MSTORE PUSH1 0xCD DUP6 MSTORE PUSH1 0x40 PUSH1 0x0 KECCAK256 DUP3 PUSH1 0x0 MSTORE DUP6 MSTORE PUSH1 0x40 PUSH1 0x0 KECCAK256 SLOAD PUSH2 0xB44 JUMPI JUMPDEST PUSH2 0xB3F SWAP1 PUSH2 0x30F9 JUMP JUMPDEST PUSH2 0xB06 JUMP JUMPDEST SWAP3 PUSH2 0xB51 PUSH2 0xB3F SWAP2 PUSH2 0x30F9 JUMP JUMPDEST SWAP4 SWAP1 POP PUSH2 0xB36 JUMP JUMPDEST CALLVALUE PUSH2 0x1D0 JUMPI PUSH1 0x0 CALLDATASIZE PUSH1 0x3 NOT ADD SLT PUSH2 0x1D0 JUMPI PUSH1 0x20 PUSH1 0x1 PUSH1 0x1 PUSH1 0xA0 SHL SUB PUSH1 0x33 SLOAD AND PUSH1 0x40 MLOAD SWAP1 DUP2 MSTORE RETURN JUMPDEST CALLVALUE PUSH2 0x1D0 JUMPI PUSH1 0x0 CALLDATASIZE PUSH1 0x3 NOT ADD SLT PUSH2 0x1D0 JUMPI PUSH1 0x0 SLOAD PUSH1 0xFF DUP2 PUSH1 0x8 SHR AND ISZERO SWAP1 DUP2 DUP1 SWAP3 PUSH2 0xCC8 JUMPI JUMPDEST DUP1 ISZERO PUSH2 0xCB1 JUMPI JUMPDEST ISZERO PUSH2 0xC46 JUMPI PUSH1 0xFF NOT DUP2 AND PUSH1 0x1 OR PUSH1 0x0 SSTORE DUP2 PUSH2 0xC34 JUMPI JUMPDEST POP PUSH2 0xBDD PUSH1 0xFF PUSH1 0x0 SLOAD PUSH1 0x8 SHR AND PUSH2 0xBD8 DUP2 PUSH2 0x2F30 JUMP JUMPDEST PUSH2 0x2F30 JUMP JUMPDEST PUSH2 0xBE6 CALLER PUSH2 0x2CB9 JUMP JUMPDEST PUSH1 0x0 SLOAD SWAP1 PUSH2 0xBF9 PUSH1 0xFF DUP4 PUSH1 0x8 SHR AND PUSH2 0x2F30 JUMP JUMPDEST PUSH2 0xBFF JUMPI STOP JUMPDEST PUSH2 0xFF00 NOT AND PUSH1 0x0 SSTORE PUSH32 0x7F26B83FF96E1F2B6A682F133852F6798A09C465DA95921460CEFB3847402498 PUSH1 0x20 PUSH1 0x40 MLOAD PUSH1 0x1 DUP2 MSTORE LOG1 STOP JUMPDEST PUSH2 0xFFFF NOT AND PUSH2 0x101 OR PUSH1 0x0 SSTORE DUP2 PUSH2 0xBC2 JUMP JUMPDEST PUSH1 0x40 MLOAD PUSH3 0x461BCD PUSH1 0xE5 SHL DUP2 MSTORE PUSH1 0x20 PUSH1 0x4 DUP3 ADD MSTORE PUSH1 0x2E PUSH1 0x24 DUP3 ADD MSTORE PUSH32 0x496E697469616C697A61626C653A20636F6E747261637420697320616C726561 PUSH1 0x44 DUP3 ADD MSTORE PUSH32 0x647920696E697469616C697A6564000000000000000000000000000000000000 PUSH1 0x64 DUP3 ADD MSTORE PUSH1 0x84 SWAP1 REVERT JUMPDEST POP ADDRESS EXTCODESIZE ISZERO DUP1 ISZERO PUSH2 0xBAC JUMPI POP PUSH1 0x1 PUSH1 0xFF DUP3 AND EQ PUSH2 0xBAC JUMP JUMPDEST POP PUSH1 0x1 PUSH1 0xFF DUP3 AND LT PUSH2 0xBA5 JUMP JUMPDEST CALLVALUE PUSH2 0x1D0 JUMPI PUSH1 0x20 DUP1 PUSH1 0x3 NOT CALLDATASIZE ADD SLT PUSH2 0x1D0 JUMPI PUSH1 0x4 CALLDATALOAD SWAP1 CALLER PUSH1 0x0 MSTORE PUSH1 0xCB DUP2 MSTORE PUSH2 0xD0A PUSH1 0xFF PUSH1 0x2 PUSH1 0x40 PUSH1 0x0 KECCAK256 ADD SLOAD PUSH1 0xA8 SHR AND PUSH2 0x3022 JUMP JUMPDEST PUSH2 0xD17 PUSH1 0xC9 SLOAD DUP4 LT PUSH2 0x3108 JUMP JUMPDEST CALLER PUSH1 0x0 MSTORE PUSH1 0xCB DUP2 MSTORE PUSH2 0xD3D PUSH1 0xFF PUSH1 0x2 PUSH1 0x40 PUSH1 0x0 KECCAK256 ADD SLOAD AND PUSH2 0xD37 DUP2 PUSH2 0x29F5 JUMP JUMPDEST ISZERO PUSH2 0x307A JUMP JUMPDEST DUP2 PUSH1 0x0 MSTORE PUSH1 0xCC DUP2 MSTORE PUSH1 0x40 PUSH1 0x0 KECCAK256 SWAP2 PUSH2 0xD6C PUSH2 0x621 PUSH1 0xD DUP6 ADD SWAP5 PUSH2 0xD67 PUSH1 0xFF DUP8 SLOAD AND PUSH2 0x7E1 DUP2 PUSH2 0x29F5 JUMP JUMPDEST PUSH2 0x343C JUMP JUMPDEST DUP1 PUSH1 0x0 MSTORE PUSH1 0xCC DUP3 MSTORE PUSH1 0x40 PUSH1 0x0 KECCAK256 SWAP2 PUSH1 0x2 PUSH1 0x1 PUSH1 0x1 PUSH1 0xA0 SHL SUB PUSH1 0xB DUP6 ADD SLOAD AND SWAP4 ADD SLOAD PUSH1 0x0 DUP2 DUP6 DUP2 ISZERO PUSH2 0xE20 JUMPI JUMPDEST PUSH1 0x0 SWAP3 DUP4 SWAP3 DUP4 SWAP3 DUP4 SWAP3 CALL ISZERO PUSH2 0xE14 JUMPI PUSH1 0xCC PUSH2 0xE0F SWAP3 PUSH32 0x6E3C6096795C8298A218B2CFB8BDE42726FF7C9A3D27B4D3BA41AB7F74FEB5FB SWAP7 PUSH1 0x1 PUSH1 0xFF NOT DUP3 SLOAD AND OR SWAP1 SSTORE DUP5 PUSH1 0x0 MSTORE MSTORE PUSH1 0x0 PUSH1 0x2 PUSH1 0x40 DUP3 KECCAK256 ADD SSTORE PUSH1 0x40 MLOAD SWAP4 DUP5 SWAP4 DUP5 PUSH1 0x1 PUSH1 0x1 PUSH1 0xA0 SHL SUB PUSH1 0x40 SWAP3 SWAP6 SWAP5 SWAP4 PUSH1 0x60 DUP4 ADD SWAP7 DUP4 MSTORE AND PUSH1 0x20 DUP3 ADD MSTORE ADD MSTORE JUMP JUMPDEST SUB SWAP1 LOG1 STOP JUMPDEST PUSH1 0x40 MLOAD RETURNDATASIZE PUSH1 0x0 DUP3 RETURNDATACOPY RETURNDATASIZE SWAP1 REVERT JUMPDEST PUSH2 0x8FC SWAP3 POP PUSH2 0xD98 JUMP JUMPDEST CALLVALUE PUSH2 0x1D0 JUMPI PUSH1 0x0 CALLDATASIZE PUSH1 0x3 NOT ADD SLT PUSH2 0x1D0 JUMPI PUSH2 0xE43 PUSH2 0x2C61 JUMP JUMPDEST PUSH1 0x0 PUSH1 0x1 PUSH1 0x1 PUSH1 0xA0 SHL SUB PUSH1 0x33 SLOAD PUSH1 0x1 PUSH1 0x1 PUSH1 0xA0 SHL SUB NOT DUP2 AND PUSH1 0x33 SSTORE AND PUSH32 0x8BE0079C531659141344CD1FD0A4F28419497F9722A3DAAFE3B4186F6B6457E0 DUP3 DUP1 LOG3 STOP JUMPDEST CALLVALUE PUSH2 0x1D0 JUMPI PUSH1 0x60 CALLDATASIZE PUSH1 0x3 NOT ADD SLT PUSH2 0x1D0 JUMPI PUSH1 0x1 PUSH1 0x1 PUSH1 0xA0 SHL SUB PUSH1 0x4 CALLDATALOAD PUSH1 0x24 CALLDATALOAD PUSH1 0x44 CALLDATALOAD DUP4 DUP2 AND SWAP1 DUP2 SWAP1 SUB PUSH2 0x1D0 JUMPI CALLER PUSH1 0x0 MSTORE PUSH1 0x20 SWAP4 PUSH1 0xCB DUP6 MSTORE PUSH2 0xED4 PUSH1 0xFF PUSH1 0x2 PUSH1 0x40 PUSH1 0x0 KECCAK256 ADD SLOAD PUSH1 0xA8 SHR AND PUSH2 0x3022 JUMP JUMPDEST PUSH2 0xEE1 PUSH1 0xC9 SLOAD DUP6 LT PUSH2 0x3108 JUMP JUMPDEST CALLER PUSH1 0x0 MSTORE PUSH1 0xCB DUP6 MSTORE PUSH2 0xF01 PUSH1 0xFF PUSH1 0x2 PUSH1 0x40 PUSH1 0x0 KECCAK256 ADD SLOAD AND PUSH2 0xD37 DUP2 PUSH2 0x29F5 JUMP JUMPDEST DUP4 PUSH1 0x0 MSTORE PUSH1 0xCC DUP6 MSTORE PUSH1 0x40 PUSH1 0x0 KECCAK256 SWAP1 PUSH1 0xD DUP3 ADD SWAP1 DUP2 SLOAD SWAP1 PUSH2 0xF27 PUSH1 0xFF DUP4 AND PUSH2 0x7E1 DUP2 PUSH2 0x29F5 JUMP JUMPDEST CALLER SWAP1 PUSH1 0xA DUP6 ADD SLOAD AND SUB PUSH2 0x1077 JUMPI PUSH1 0xFF DUP2 PUSH1 0x8 SHR AND PUSH2 0x100C JUMPI PUSH1 0x2 DUP4 ADD SLOAD DUP6 GT PUSH2 0xFA1 JUMPI PUSH1 0x3 DUP4 ADD DUP6 SWAP1 SSTORE PUSH2 0xFF00 NOT AND PUSH2 0x100 OR SWAP1 SSTORE PUSH1 0xB ADD DUP1 SLOAD PUSH1 0x1 PUSH1 0x1 PUSH1 0xA0 SHL SUB NOT AND SWAP1 SWAP2 OR SWAP1 SSTORE PUSH1 0x40 DUP1 MLOAD SWAP3 DUP4 MSTORE SWAP3 DUP3 ADD MSTORE PUSH32 0x99F063607B2D9F794EB8985DAF4A0D3224E73B48E43228A183329E415DFF077E SWAP2 SWAP1 LOG1 STOP JUMPDEST PUSH1 0x40 MLOAD PUSH3 0x461BCD PUSH1 0xE5 SHL DUP2 MSTORE PUSH1 0x4 DUP2 ADD DUP9 SWAP1 MSTORE PUSH1 0x3E PUSH1 0x24 DUP3 ADD MSTORE PUSH32 0x5265717565737420616D6F756E74206D757374206265206C657373207468616E PUSH1 0x44 DUP3 ADD MSTORE PUSH32 0x206F7220657175616C20746F207468652072616973656420616D6F756E740000 PUSH1 0x64 DUP3 ADD MSTORE PUSH1 0x84 SWAP1 REVERT JUMPDEST PUSH1 0x40 MLOAD PUSH3 0x461BCD PUSH1 0xE5 SHL DUP2 MSTORE PUSH1 0x4 DUP2 ADD DUP9 SWAP1 MSTORE PUSH1 0x34 PUSH1 0x24 DUP3 ADD MSTORE PUSH32 0x4120726571756573742068617320616C7265616479206265656E206372656174 PUSH1 0x44 DUP3 ADD MSTORE PUSH32 0x656420666F7220746869732063616D706169676E000000000000000000000000 PUSH1 0x64 DUP3 ADD MSTORE PUSH1 0x84 SWAP1 REVERT JUMPDEST PUSH1 0x40 MLOAD PUSH3 0x461BCD PUSH1 0xE5 SHL DUP2 MSTORE PUSH1 0x4 DUP2 ADD DUP9 SWAP1 MSTORE PUSH1 0x2A PUSH1 0x24 DUP3 ADD MSTORE PUSH32 0x4F6E6C792074686520656E7472657072656E6575722063616E20637265617465 PUSH1 0x44 DUP3 ADD MSTORE PUSH32 0x2061207265717565737400000000000000000000000000000000000000000000 PUSH1 0x64 DUP3 ADD MSTORE PUSH1 0x84 SWAP1 REVERT JUMPDEST CALLVALUE PUSH2 0x1D0 JUMPI PUSH1 0x20 DUP1 PUSH1 0x3 NOT CALLDATASIZE ADD SLT PUSH2 0x1D0 JUMPI PUSH1 0x4 CALLDATALOAD DUP1 PUSH1 0x0 MSTORE PUSH1 0xCC DUP3 MSTORE PUSH1 0xC PUSH1 0x40 PUSH1 0x0 KECCAK256 ADD DUP1 SLOAD PUSH2 0x1112 DUP2 PUSH2 0x3240 JUMP JUMPDEST SWAP3 PUSH2 0x1120 PUSH1 0x40 MLOAD SWAP5 DUP6 PUSH2 0x28ED JUMP JUMPDEST DUP2 DUP5 MSTORE PUSH1 0x1F NOT PUSH2 0x112F DUP4 PUSH2 0x3240 JUMP JUMPDEST ADD CALLDATASIZE DUP7 DUP7 ADD CALLDATACOPY PUSH2 0x113E DUP3 PUSH2 0x3258 JUMP JUMPDEST SWAP3 PUSH1 0x0 JUMPDEST DUP4 DUP2 LT PUSH2 0x1173 JUMPI PUSH2 0x1166 DUP7 PUSH2 0x180 DUP10 DUP9 PUSH1 0x40 MLOAD SWAP5 DUP6 SWAP5 PUSH1 0x40 DUP7 MSTORE PUSH1 0x40 DUP7 ADD SWAP1 PUSH2 0x2A9C JUMP JUMPDEST SWAP2 DUP5 DUP4 SUB SWAP1 DUP6 ADD MSTORE PUSH2 0x2AD9 JUMP JUMPDEST DUP1 PUSH1 0x1 PUSH1 0x1 PUSH1 0xA0 SHL SUB PUSH2 0x1189 PUSH2 0x11C0 SWAP4 DUP6 PUSH2 0x3212 JUMP JUMPDEST SWAP1 SLOAD SWAP1 PUSH1 0x3 SHL SHR AND DUP1 PUSH2 0x119C DUP4 DUP11 PUSH2 0x328A JUMP JUMPDEST MSTORE DUP5 PUSH1 0x0 MSTORE PUSH1 0xCD DUP10 MSTORE PUSH1 0x40 PUSH1 0x0 KECCAK256 SWAP1 PUSH1 0x0 MSTORE DUP9 MSTORE PUSH1 0x40 PUSH1 0x0 KECCAK256 SLOAD PUSH2 0x1C5 DUP3 DUP9 PUSH2 0x328A JUMP JUMPDEST PUSH2 0x1142 JUMP JUMPDEST CALLVALUE PUSH2 0x1D0 JUMPI PUSH1 0x0 CALLDATASIZE PUSH1 0x3 NOT ADD SLT PUSH2 0x1D0 JUMPI PUSH1 0x1 PUSH1 0x1 PUSH1 0xA0 SHL SUB PUSH32 0x0 AND ADDRESS SUB PUSH2 0x1230 JUMPI PUSH1 0x20 PUSH1 0x40 MLOAD PUSH32 0x360894A13BA1A3210667C828492DB98DCA3E2076CC3735A920A3CA505D382BBC DUP2 MSTORE RETURN JUMPDEST PUSH1 0x40 MLOAD PUSH3 0x461BCD PUSH1 0xE5 SHL DUP2 MSTORE PUSH1 0x20 PUSH1 0x4 DUP3 ADD MSTORE PUSH1 0x38 PUSH1 0x24 DUP3 ADD MSTORE PUSH32 0x555550535570677261646561626C653A206D757374206E6F742062652063616C PUSH1 0x44 DUP3 ADD MSTORE PUSH32 0x6C6564207468726F7567682064656C656761746563616C6C0000000000000000 PUSH1 0x64 DUP3 ADD MSTORE PUSH1 0x84 SWAP1 REVERT JUMPDEST PUSH1 0x40 CALLDATASIZE PUSH1 0x3 NOT ADD SLT PUSH2 0x1D0 JUMPI PUSH2 0x12AF PUSH2 0x2A86 JUMP JUMPDEST PUSH1 0x24 CALLDATALOAD PUSH8 0xFFFFFFFFFFFFFFFF DUP2 GT PUSH2 0x1D0 JUMPI CALLDATASIZE PUSH1 0x23 DUP3 ADD SLT ISZERO PUSH2 0x1D0 JUMPI PUSH2 0x12E0 SWAP1 CALLDATASIZE SWAP1 PUSH1 0x24 DUP2 PUSH1 0x4 ADD CALLDATALOAD SWAP2 ADD PUSH2 0x2A31 JUMP JUMPDEST PUSH1 0x1 PUSH1 0x1 PUSH1 0xA0 SHL SUB SWAP1 DUP2 PUSH32 0x0 AND SWAP2 PUSH2 0x1319 DUP4 ADDRESS EQ ISZERO PUSH2 0x2D01 JUMP JUMPDEST PUSH2 0x1348 PUSH32 0x360894A13BA1A3210667C828492DB98DCA3E2076CC3735A920A3CA505D382BBC SWAP4 DUP3 DUP6 SLOAD AND EQ PUSH2 0x2D73 JUMP JUMPDEST PUSH32 0x4910FDFA16FED3260ED0E7147F7CC6DA11A60208B5B9406D12A635614FFD9143 SLOAD PUSH1 0xFF AND ISZERO PUSH2 0x137E JUMPI POP POP POP PUSH2 0x20E SWAP1 PUSH2 0x2DE5 JUMP JUMPDEST DUP4 AND PUSH1 0x40 MLOAD SWAP3 PUSH4 0x52D1902D PUSH1 0xE0 SHL DUP5 MSTORE PUSH1 0x20 SWAP4 DUP5 DUP2 PUSH1 0x4 DUP2 DUP7 GAS STATICCALL PUSH1 0x0 SWAP2 DUP2 PUSH2 0x1535 JUMPI JUMPDEST POP PUSH2 0x1403 JUMPI PUSH1 0x40 MLOAD PUSH3 0x461BCD PUSH1 0xE5 SHL DUP2 MSTORE PUSH1 0x4 DUP2 ADD DUP7 SWAP1 MSTORE PUSH1 0x2E PUSH1 0x24 DUP3 ADD MSTORE PUSH32 0x45524331393637557067726164653A206E657720696D706C656D656E74617469 PUSH1 0x44 DUP3 ADD MSTORE PUSH14 0x6F6E206973206E6F742055555053 PUSH1 0x90 SHL PUSH1 0x64 DUP3 ADD MSTORE PUSH1 0x84 SWAP1 REVERT JUMPDEST SWAP4 SWAP3 SWAP4 SUB PUSH2 0x14DE JUMPI PUSH2 0x1414 DUP5 PUSH2 0x2DE5 JUMP JUMPDEST PUSH32 0xBC7CD75A20EE27FD9ADEBAB32041F755214DBC6BFFA90CC0225B39DA2E5C2D3B PUSH1 0x0 DUP1 LOG2 DUP2 MLOAD ISZERO DUP1 ISZERO SWAP1 PUSH2 0x14D6 JUMPI JUMPDEST PUSH2 0x144A JUMPI STOP JUMPDEST PUSH2 0x20E SWAP3 PUSH1 0x0 DUP1 PUSH1 0x40 MLOAD SWAP5 PUSH2 0x145E DUP7 PUSH2 0x28D1 JUMP JUMPDEST PUSH1 0x27 DUP7 MSTORE PUSH32 0x416464726573733A206C6F772D6C6576656C2064656C65676174652063616C6C DUP6 DUP8 ADD MSTORE PUSH7 0x819985A5B1959 PUSH1 0xCA SHL PUSH1 0x40 DUP8 ADD MSTORE DUP5 DUP2 MLOAD SWAP2 ADD DUP5 GAS DELEGATECALL SWAP1 RETURNDATASIZE ISZERO PUSH2 0x14CD JUMPI RETURNDATASIZE PUSH2 0x14B0 DUP2 PUSH2 0x2A15 JUMP JUMPDEST SWAP1 PUSH2 0x14BE PUSH1 0x40 MLOAD SWAP3 DUP4 PUSH2 0x28ED JUMP JUMPDEST DUP2 MSTORE PUSH1 0x0 DUP2 SWAP5 RETURNDATASIZE SWAP3 ADD RETURNDATACOPY PUSH2 0x2E93 JUMP JUMPDEST PUSH1 0x60 SWAP3 POP PUSH2 0x2E93 JUMP JUMPDEST POP PUSH1 0x1 PUSH2 0x1444 JUMP JUMPDEST PUSH1 0x40 MLOAD PUSH3 0x461BCD PUSH1 0xE5 SHL DUP2 MSTORE PUSH1 0x4 DUP2 ADD DUP4 SWAP1 MSTORE PUSH1 0x29 PUSH1 0x24 DUP3 ADD MSTORE PUSH32 0x45524331393637557067726164653A20756E737570706F727465642070726F78 PUSH1 0x44 DUP3 ADD MSTORE PUSH9 0x1A58589B1955555251 PUSH1 0xBA SHL PUSH1 0x64 DUP3 ADD MSTORE PUSH1 0x84 SWAP1 REVERT JUMPDEST SWAP1 SWAP2 POP DUP6 DUP2 DUP2 RETURNDATASIZE DUP4 GT PUSH2 0x155D JUMPI JUMPDEST PUSH2 0x154D DUP2 DUP4 PUSH2 0x28ED JUMP JUMPDEST DUP2 ADD SUB SLT PUSH2 0x1D0 JUMPI MLOAD SWAP1 DUP8 PUSH2 0x13A2 JUMP JUMPDEST POP RETURNDATASIZE PUSH2 0x1543 JUMP JUMPDEST PUSH1 0x20 DUP1 PUSH1 0x3 NOT CALLDATASIZE ADD SLT PUSH2 0x1D0 JUMPI PUSH1 0x4 CALLDATALOAD SWAP1 CALLER PUSH1 0x0 MSTORE PUSH1 0xCB DUP2 MSTORE PUSH2 0x1594 PUSH1 0xFF PUSH1 0x2 PUSH1 0x40 PUSH1 0x0 KECCAK256 ADD SLOAD PUSH1 0xA8 SHR AND PUSH2 0x3022 JUMP JUMPDEST PUSH2 0x15A1 PUSH1 0xC9 SLOAD DUP4 LT PUSH2 0x3108 JUMP JUMPDEST CALLER PUSH1 0x0 MSTORE PUSH1 0xCB DUP2 MSTORE PUSH2 0x15C3 PUSH1 0x1 PUSH1 0xFF PUSH1 0x2 PUSH1 0x40 PUSH1 0x0 KECCAK256 ADD SLOAD AND PUSH2 0x5C9 DUP2 PUSH2 0x29F5 JUMP JUMPDEST DUP2 PUSH1 0x0 MSTORE PUSH1 0xCC DUP2 MSTORE PUSH2 0x15E3 PUSH1 0xFF PUSH1 0xD PUSH1 0x40 PUSH1 0x0 KECCAK256 ADD SLOAD AND PUSH2 0x7E1 DUP2 PUSH2 0x29F5 JUMP JUMPDEST DUP2 PUSH1 0x0 MSTORE PUSH1 0xCC DUP2 MSTORE PUSH1 0x4 PUSH1 0x40 PUSH1 0x0 KECCAK256 ADD SLOAD TIMESTAMP LT ISZERO PUSH2 0x18B4 JUMPI DUP2 PUSH1 0x0 MSTORE PUSH1 0xCC DUP2 MSTORE PUSH1 0x40 PUSH1 0x0 KECCAK256 PUSH1 0xD DUP2 ADD SLOAD PUSH2 0x161D PUSH1 0xFF DUP3 AND PUSH2 0x7E1 DUP2 PUSH2 0x29F5 JUMP JUMPDEST PUSH1 0x4 DUP3 ADD SLOAD TIMESTAMP LT ISZERO PUSH2 0x186F JUMPI CALLVALUE ISZERO PUSH2 0x1804 JUMPI PUSH1 0x6 DUP3 ADD SLOAD CALLVALUE LT PUSH2 0x17B3 JUMPI PUSH1 0xFF PUSH2 0x164A SWAP2 PUSH1 0x10 SHR AND ISZERO PUSH2 0x31A0 JUMP JUMPDEST DUP3 PUSH1 0x0 MSTORE PUSH1 0xCD DUP3 MSTORE PUSH1 0x40 PUSH1 0x0 KECCAK256 CALLER PUSH1 0x0 MSTORE DUP3 MSTORE PUSH1 0x40 PUSH1 0x0 KECCAK256 PUSH2 0x166D CALLVALUE DUP3 SLOAD PUSH2 0x30EC JUMP JUMPDEST SWAP1 SSTORE PUSH1 0x2 DUP2 ADD PUSH2 0x167E CALLVALUE DUP3 SLOAD PUSH2 0x30EC JUMP JUMPDEST SWAP1 SSTORE DUP3 PUSH1 0x0 MSTORE PUSH1 0xCA DUP3 MSTORE PUSH1 0x40 PUSH1 0x0 KECCAK256 PUSH2 0x1697 DUP2 SLOAD PUSH2 0x30F9 JUMP JUMPDEST SWAP1 SSTORE DUP3 PUSH1 0x0 MSTORE PUSH1 0xCD DUP3 MSTORE PUSH1 0x40 PUSH1 0x0 KECCAK256 CALLER PUSH1 0x0 MSTORE DUP3 MSTORE CALLVALUE PUSH1 0x40 PUSH1 0x0 KECCAK256 SLOAD EQ PUSH2 0x1754 JUMPI JUMPDEST POP PUSH1 0x40 DUP1 MLOAD DUP4 DUP2 MSTORE CALLER PUSH1 0x20 DUP3 ADD MSTORE CALLVALUE SWAP2 DUP2 ADD SWAP2 SWAP1 SWAP2 MSTORE PUSH1 0xCC SWAP3 SWAP1 PUSH32 0xA4A91237423E0A1766A761C7CB029311D8B95D6B1B81DB1B949A70C98B4E08E SWAP1 PUSH1 0x60 SWAP1 LOG1 PUSH1 0x0 MSTORE MSTORE PUSH1 0x40 PUSH1 0x0 KECCAK256 TIMESTAMP PUSH1 0x4 DUP3 ADD SLOAD GT PUSH1 0x0 EQ PUSH2 0x171D JUMPI PUSH1 0xD ADD DUP1 SLOAD PUSH1 0xFF NOT AND SWAP1 SSTORE STOP JUMPDEST PUSH1 0x2 DUP2 ADD SLOAD PUSH1 0x1 DUP3 ADD SLOAD GT PUSH2 0x1744 JUMPI PUSH1 0xD DUP2 ADD DUP1 SLOAD PUSH1 0xFF NOT AND PUSH1 0x1 OR SWAP1 SSTORE TIMESTAMP PUSH1 0x5 SWAP1 SWAP2 ADD SSTORE STOP JUMPDEST PUSH1 0xD ADD DUP1 SLOAD PUSH1 0xFF NOT AND PUSH1 0x2 OR SWAP1 SSTORE STOP JUMPDEST PUSH1 0xC ADD SWAP2 DUP3 SLOAD SWAP3 PUSH9 0x10000000000000000 DUP5 LT ISZERO PUSH2 0x179D JUMPI DUP4 PUSH2 0x177E SWAP2 PUSH1 0x1 PUSH1 0xCC SWAP7 ADD DUP2 SSTORE PUSH2 0x3212 JUMP JUMPDEST DUP2 SLOAD SWAP1 PUSH1 0x3 SHL SWAP1 PUSH1 0x1 PUSH1 0x1 PUSH1 0xA0 SHL SUB CALLER DUP4 SHL SWAP3 SHL NOT AND OR SWAP1 SSTORE SWAP2 PUSH2 0x16B9 JUMP JUMPDEST PUSH4 0x4E487B71 PUSH1 0xE0 SHL PUSH1 0x0 MSTORE PUSH1 0x41 PUSH1 0x4 MSTORE PUSH1 0x24 PUSH1 0x0 REVERT JUMPDEST PUSH1 0x40 MLOAD PUSH3 0x461BCD PUSH1 0xE5 SHL DUP2 MSTORE PUSH1 0x4 DUP2 ADD DUP5 SWAP1 MSTORE PUSH1 0x23 PUSH1 0x24 DUP3 ADD MSTORE PUSH32 0x41206D696E756D756D20636F6E747269627574696F6E20697320726571756972 PUSH1 0x44 DUP3 ADD MSTORE PUSH3 0x32B217 PUSH1 0xE9 SHL PUSH1 0x64 DUP3 ADD MSTORE PUSH1 0x84 SWAP1 REVERT JUMPDEST PUSH1 0x40 MLOAD PUSH3 0x461BCD PUSH1 0xE5 SHL DUP2 MSTORE PUSH1 0x4 DUP2 ADD DUP5 SWAP1 MSTORE PUSH1 0x29 PUSH1 0x24 DUP3 ADD MSTORE PUSH32 0x446F6E6174696F6E20616D6F756E74206D757374206265206772656174657220 PUSH1 0x44 DUP3 ADD MSTORE PUSH32 0x7468616E207A65726F0000000000000000000000000000000000000000000000 PUSH1 0x64 DUP3 ADD MSTORE PUSH1 0x84 SWAP1 REVERT JUMPDEST PUSH1 0x40 MLOAD PUSH3 0x461BCD PUSH1 0xE5 SHL DUP2 MSTORE PUSH1 0x4 DUP2 ADD DUP5 SWAP1 MSTORE PUSH1 0x19 PUSH1 0x24 DUP3 ADD MSTORE PUSH32 0x43616D706169676E20706572696F642068617320656E64656400000000000000 PUSH1 0x44 DUP3 ADD MSTORE PUSH1 0x64 SWAP1 REVERT JUMPDEST PUSH1 0x64 SWAP1 PUSH1 0x40 MLOAD SWAP1 PUSH3 0x461BCD PUSH1 0xE5 SHL DUP3 MSTORE PUSH1 0x4 DUP3 ADD MSTORE PUSH1 0x15 PUSH1 0x24 DUP3 ADD MSTORE PUSH32 0x446561646C696E65206861732070617373656420210000000000000000000000 PUSH1 0x44 DUP3 ADD MSTORE REVERT JUMPDEST CALLVALUE PUSH2 0x1D0 JUMPI PUSH1 0x20 DUP1 PUSH1 0x3 NOT CALLDATASIZE ADD SLT PUSH2 0x1D0 JUMPI PUSH2 0x1912 PUSH2 0x2A86 JUMP JUMPDEST PUSH1 0x1 PUSH1 0x1 PUSH1 0xA0 SHL SUB SWAP2 DUP3 PUSH32 0x0 AND PUSH2 0x194A DUP2 ADDRESS EQ ISZERO PUSH2 0x2D01 JUMP JUMPDEST PUSH2 0x1979 PUSH32 0x360894A13BA1A3210667C828492DB98DCA3E2076CC3735A920A3CA505D382BBC SWAP2 DUP6 DUP4 SLOAD AND EQ PUSH2 0x2D73 JUMP JUMPDEST PUSH1 0x40 MLOAD SWAP1 DUP3 DUP3 ADD SWAP5 DUP3 DUP7 LT PUSH8 0xFFFFFFFFFFFFFFFF DUP8 GT OR PUSH2 0x179D JUMPI DUP6 PUSH1 0x40 MSTORE PUSH1 0x0 DUP4 MSTORE PUSH1 0xFF PUSH32 0x4910FDFA16FED3260ED0E7147F7CC6DA11A60208B5B9406D12A635614FFD9143 SLOAD AND PUSH1 0x0 EQ PUSH2 0x19D6 JUMPI POP POP POP POP PUSH2 0x20E SWAP2 POP PUSH2 0x2DE5 JUMP JUMPDEST DUP5 SWAP3 SWAP4 SWAP5 AND SWAP1 PUSH1 0x40 MLOAD PUSH4 0x52D1902D PUSH1 0xE0 SHL DUP2 MSTORE DUP6 DUP2 PUSH1 0x4 DUP2 DUP7 GAS STATICCALL PUSH1 0x0 SWAP2 DUP2 PUSH2 0x1B64 JUMPI JUMPDEST POP PUSH2 0x1A5B JUMPI PUSH1 0x40 MLOAD PUSH3 0x461BCD PUSH1 0xE5 SHL DUP2 MSTORE PUSH1 0x4 DUP2 ADD DUP8 SWAP1 MSTORE PUSH1 0x2E PUSH1 0x24 DUP3 ADD MSTORE PUSH32 0x45524331393637557067726164653A206E657720696D706C656D656E74617469 PUSH1 0x44 DUP3 ADD MSTORE PUSH14 0x6F6E206973206E6F742055555053 PUSH1 0x90 SHL PUSH1 0x64 DUP3 ADD MSTORE PUSH1 0x84 SWAP1 REVERT JUMPDEST SWAP5 SWAP4 SWAP5 SUB PUSH2 0x1B0D JUMPI PUSH2 0x1A6C DUP3 PUSH2 0x2DE5 JUMP JUMPDEST PUSH32 0xBC7CD75A20EE27FD9ADEBAB32041F755214DBC6BFFA90CC0225B39DA2E5C2D3B PUSH1 0x0 DUP1 LOG2 DUP3 MLOAD ISZERO DUP1 ISZERO SWAP1 PUSH2 0x1B05 JUMPI JUMPDEST PUSH2 0x1AA2 JUMPI STOP JUMPDEST PUSH1 0x0 DUP1 PUSH2 0x20E SWAP6 PUSH1 0x40 MLOAD SWAP6 PUSH2 0x1AB6 DUP8 PUSH2 0x28D1 JUMP JUMPDEST PUSH1 0x27 DUP8 MSTORE PUSH32 0x416464726573733A206C6F772D6C6576656C2064656C65676174652063616C6C DUP7 DUP9 ADD MSTORE PUSH7 0x819985A5B1959 PUSH1 0xCA SHL PUSH1 0x40 DUP9 ADD MSTORE MLOAD SWAP1 DUP5 GAS DELEGATECALL SWAP1 RETURNDATASIZE ISZERO PUSH2 0x14CD JUMPI RETURNDATASIZE PUSH2 0x14B0 DUP2 PUSH2 0x2A15 JUMP JUMPDEST POP PUSH1 0x0 PUSH2 0x1A9C JUMP JUMPDEST PUSH1 0x40 MLOAD PUSH3 0x461BCD PUSH1 0xE5 SHL DUP2 MSTORE PUSH1 0x4 DUP2 ADD DUP5 SWAP1 MSTORE PUSH1 0x29 PUSH1 0x24 DUP3 ADD MSTORE PUSH32 0x45524331393637557067726164653A20756E737570706F727465642070726F78 PUSH1 0x44 DUP3 ADD MSTORE PUSH9 0x1A58589B1955555251 PUSH1 0xBA SHL PUSH1 0x64 DUP3 ADD MSTORE PUSH1 0x84 SWAP1 REVERT JUMPDEST SWAP1 SWAP2 POP DUP7 DUP2 DUP2 RETURNDATASIZE DUP4 GT PUSH2 0x1B8C JUMPI JUMPDEST PUSH2 0x1B7C DUP2 DUP4 PUSH2 0x28ED JUMP JUMPDEST DUP2 ADD SUB SLT PUSH2 0x1D0 JUMPI MLOAD SWAP1 DUP9 PUSH2 0x19FA JUMP JUMPDEST POP RETURNDATASIZE PUSH2 0x1B72 JUMP JUMPDEST CALLVALUE PUSH2 0x1D0 JUMPI PUSH1 0x60 CALLDATASIZE PUSH1 0x3 NOT ADD SLT PUSH2 0x1D0 JUMPI PUSH1 0x4 CALLDATALOAD PUSH8 0xFFFFFFFFFFFFFFFF DUP2 GT PUSH2 0x1D0 JUMPI PUSH2 0x1BC4 SWAP1 CALLDATASIZE SWAP1 PUSH1 0x4 ADD PUSH2 0x2A68 JUMP JUMPDEST PUSH1 0x24 CALLDATALOAD PUSH8 0xFFFFFFFFFFFFFFFF DUP2 GT PUSH2 0x1D0 JUMPI PUSH2 0x1BE4 SWAP1 CALLDATASIZE SWAP1 PUSH1 0x4 ADD PUSH2 0x2A68 JUMP JUMPDEST SWAP1 PUSH1 0x44 CALLDATALOAD PUSH1 0x3 DUP2 LT ISZERO PUSH2 0x1D0 JUMPI DUP2 MLOAD ISZERO PUSH2 0x2072 JUMPI DUP3 MLOAD ISZERO PUSH2 0x202D JUMPI CALLER ISZERO PUSH2 0x1FE8 JUMPI CALLER PUSH1 0x0 MSTORE PUSH1 0xCB PUSH1 0x20 MSTORE PUSH1 0xFF PUSH1 0x2 PUSH1 0x40 PUSH1 0x0 KECCAK256 ADD SLOAD PUSH1 0xA8 SHR AND PUSH2 0x1FA3 JUMPI PUSH1 0x40 MLOAD SWAP3 PUSH1 0xA0 DUP5 ADD DUP5 DUP2 LT PUSH8 0xFFFFFFFFFFFFFFFF DUP3 GT OR PUSH2 0x179D JUMPI PUSH1 0x40 MSTORE DUP3 DUP5 MSTORE PUSH1 0x20 DUP5 ADD MSTORE PUSH2 0x1C50 DUP2 PUSH2 0x29F5 JUMP JUMPDEST PUSH1 0x40 DUP4 ADD MSTORE CALLER PUSH1 0x60 DUP4 ADD MSTORE PUSH1 0x1 PUSH1 0x80 DUP4 ADD MSTORE CALLER PUSH1 0x0 MSTORE PUSH1 0xCB PUSH1 0x20 MSTORE PUSH1 0x40 PUSH1 0x0 KECCAK256 SWAP1 DUP3 MLOAD SWAP3 DUP4 MLOAD PUSH8 0xFFFFFFFFFFFFFFFF DUP2 GT PUSH2 0x179D JUMPI PUSH2 0x1C8F DUP5 SLOAD PUSH2 0x287A JUMP JUMPDEST PUSH1 0x1F DUP2 GT PUSH2 0x1F5F JUMPI JUMPDEST POP PUSH1 0x20 PUSH1 0x1F DUP3 GT PUSH1 0x1 EQ PUSH2 0x1EF6 JUMPI DUP2 SWAP3 SWAP4 SWAP5 SWAP6 PUSH1 0x0 SWAP3 PUSH2 0x1EEB JUMPI JUMPDEST POP POP DUP2 PUSH1 0x1 SHL SWAP2 PUSH1 0x0 NOT SWAP1 PUSH1 0x3 SHL SHR NOT AND OR DUP4 SSTORE JUMPDEST PUSH1 0x20 DUP2 ADD MLOAD SWAP3 DUP4 MLOAD PUSH8 0xFFFFFFFFFFFFFFFF DUP2 GT PUSH2 0x179D JUMPI PUSH2 0x1CEC PUSH1 0x1 DUP4 ADD SLOAD PUSH2 0x287A JUMP JUMPDEST PUSH1 0x1F DUP2 GT PUSH2 0x1EA0 JUMPI JUMPDEST POP PUSH1 0x20 PUSH1 0x1F DUP3 GT PUSH1 0x1 EQ PUSH2 0x1E0A JUMPI SWAP2 DUP2 PUSH1 0x2 SWAP3 PUSH2 0x1DED SWAP7 SWAP6 SWAP5 PUSH32 0x427B59B30D98F86C6E6670DA78CFF4CBAA374E6642FF6D038FAA43CBB5FD8DE3 SWAP9 PUSH1 0x0 SWAP3 PUSH2 0x1DFF JUMPI JUMPDEST POP POP DUP2 PUSH1 0x1 SHL SWAP2 PUSH1 0x0 NOT SWAP1 PUSH1 0x3 SHL SHR NOT AND OR PUSH1 0x1 DUP3 ADD SSTORE JUMPDEST ADD SWAP1 PUSH1 0x40 DUP2 ADD MLOAD SWAP1 PUSH2 0x1D61 DUP3 PUSH2 0x29F5 JUMP JUMPDEST PUSH2 0x1D6A DUP3 PUSH2 0x29F5 JUMP JUMPDEST DUP3 SLOAD PUSH32 0xFFFFFFFFFFFFFFFFFFFF00000000000000000000000000000000000000000000 PUSH1 0xFF PUSH22 0xFF000000000000000000000000000000000000000000 PUSH1 0x80 PUSH21 0xFFFFFFFFFFFFFFFFFFFFFFFFFFFFFFFFFFFFFFFF00 PUSH1 0x60 DUP8 ADD MLOAD PUSH1 0x8 SHL AND SWAP6 ADD MLOAD ISZERO ISZERO PUSH1 0xA8 SHL AND SWAP5 AND SWAP2 AND OR OR OR SWAP1 SSTORE PUSH1 0x40 MLOAD SWAP2 DUP3 SWAP2 PUSH1 0x60 DUP4 MSTORE PUSH1 0x60 DUP4 ADD SWAP1 PUSH2 0x29B5 JUMP JUMPDEST PUSH1 0x1 PUSH1 0x20 DUP4 ADD MSTORE CALLER PUSH1 0x40 DUP4 ADD MSTORE SUB SWAP1 LOG1 STOP JUMPDEST ADD MLOAD SWAP1 POP DUP9 DUP1 PUSH2 0x1D38 JUMP JUMPDEST PUSH1 0x1F NOT DUP3 AND SWAP6 PUSH1 0x1 DUP5 ADD PUSH1 0x0 MSTORE PUSH1 0x20 PUSH1 0x0 KECCAK256 SWAP7 PUSH1 0x0 JUMPDEST DUP2 DUP2 LT PUSH2 0x1E88 JUMPI POP SWAP3 PUSH32 0x427B59B30D98F86C6E6670DA78CFF4CBAA374E6642FF6D038FAA43CBB5FD8DE3 SWAP8 PUSH2 0x1DED SWAP8 SWAP7 SWAP6 SWAP4 PUSH1 0x1 SWAP4 DUP4 PUSH1 0x2 SWAP8 LT PUSH2 0x1E6F JUMPI JUMPDEST POP POP POP DUP2 SHL ADD PUSH1 0x1 DUP3 ADD SSTORE PUSH2 0x1D50 JUMP JUMPDEST ADD MLOAD PUSH1 0x0 NOT PUSH1 0xF8 DUP5 PUSH1 0x3 SHL AND SHR NOT AND SWAP1 SSTORE DUP9 DUP1 DUP1 PUSH2 0x1E5F JUMP JUMPDEST DUP4 DUP4 ADD MLOAD DUP10 SSTORE PUSH1 0x1 SWAP1 SWAP9 ADD SWAP8 PUSH1 0x20 SWAP4 DUP5 ADD SWAP4 ADD PUSH2 0x1E20 JUMP JUMPDEST PUSH1 0x1 DUP4 ADD PUSH1 0x0 MSTORE PUSH1 0x20 PUSH1 0x0 KECCAK256 PUSH1 0x1F DUP4 ADD PUSH1 0x5 SHR DUP2 ADD SWAP2 PUSH1 0x20 DUP5 LT PUSH2 0x1EE1 JUMPI JUMPDEST PUSH1 0x1F ADD PUSH1 0x5 SHR ADD SWAP1 JUMPDEST DUP2 DUP2 LT PUSH2 0x1ED5 JUMPI POP PUSH2 0x1CF5 JUMP JUMPDEST PUSH1 0x0 DUP2 SSTORE PUSH1 0x1 ADD PUSH2 0x1EC8 JUMP JUMPDEST SWAP1 SWAP2 POP DUP2 SWAP1 PUSH2 0x1EBF JUMP JUMPDEST ADD MLOAD SWAP1 POP DUP6 DUP1 PUSH2 0x1CB3 JUMP JUMPDEST DUP5 PUSH1 0x0 MSTORE PUSH1 0x20 PUSH1 0x0 KECCAK256 SWAP1 PUSH1 0x0 JUMPDEST PUSH1 0x1F NOT DUP5 AND DUP2 LT PUSH2 0x1F47 JUMPI POP PUSH1 0x1 SWAP4 SWAP5 SWAP6 SWAP7 DUP4 PUSH1 0x1F NOT DUP2 AND LT PUSH2 0x1F2E JUMPI JUMPDEST POP POP POP DUP2 SHL ADD DUP4 SSTORE PUSH2 0x1CC8 JUMP JUMPDEST ADD MLOAD PUSH1 0x0 NOT PUSH1 0xF8 DUP5 PUSH1 0x3 SHL AND SHR NOT AND SWAP1 SSTORE DUP6 DUP1 DUP1 PUSH2 0x1F21 JUMP JUMPDEST SWAP1 SWAP2 PUSH1 0x20 PUSH1 0x1 DUP2 SWAP3 DUP6 DUP12 ADD MLOAD DUP2 SSTORE ADD SWAP4 ADD SWAP2 ADD PUSH2 0x1F03 JUMP JUMPDEST DUP5 PUSH1 0x0 MSTORE PUSH1 0x20 PUSH1 0x0 KECCAK256 PUSH1 0x1F DUP4 ADD PUSH1 0x5 SHR DUP2 ADD PUSH1 0x20 DUP5 LT PUSH2 0x1F9C JUMPI JUMPDEST PUSH1 0x1F DUP4 ADD PUSH1 0x5 SHR DUP3 ADD DUP2 LT PUSH2 0x1F90 JUMPI POP POP PUSH2 0x1C98 JUMP JUMPDEST PUSH1 0x0 DUP2 SSTORE PUSH1 0x1 ADD PUSH2 0x1F7A JUMP JUMPDEST POP DUP1 PUSH2 0x1F7A JUMP JUMPDEST PUSH1 0x40 MLOAD PUSH3 0x461BCD PUSH1 0xE5 SHL DUP2 MSTORE PUSH1 0x20 PUSH1 0x4 DUP3 ADD MSTORE PUSH1 0x1A PUSH1 0x24 DUP3 ADD MSTORE PUSH32 0x5573657220697320616C72656164792072656769737465726564000000000000 PUSH1 0x44 DUP3 ADD MSTORE PUSH1 0x64 SWAP1 REVERT JUMPDEST PUSH1 0x40 MLOAD PUSH3 0x461BCD PUSH1 0xE5 SHL DUP2 MSTORE PUSH1 0x20 PUSH1 0x4 DUP3 ADD MSTORE PUSH1 0x16 PUSH1 0x24 DUP3 ADD MSTORE PUSH32 0x496E76616C69642077616C6C6574206164647265737300000000000000000000 PUSH1 0x44 DUP3 ADD MSTORE PUSH1 0x64 SWAP1 REVERT JUMPDEST PUSH1 0x40 MLOAD PUSH3 0x461BCD PUSH1 0xE5 SHL DUP2 MSTORE PUSH1 0x20 PUSH1 0x4 DUP3 ADD MSTORE PUSH1 0x18 PUSH1 0x24 DUP3 ADD MSTORE PUSH32 0x50617373776F72642063616E6E6F7420626520656D7074790000000000000000 PUSH1 0x44 DUP3 ADD MSTORE PUSH1 0x64 SWAP1 REVERT JUMPDEST PUSH1 0x40 MLOAD PUSH3 0x461BCD PUSH1 0xE5 SHL DUP2 MSTORE PUSH1 0x20 PUSH1 0x4 DUP3 ADD MSTORE PUSH1 0x15 PUSH1 0x24 DUP3 ADD MSTORE PUSH32 0x456D61696C2063616E6E6F7420626520656D7074790000000000000000000000 PUSH1 0x44 DUP3 ADD MSTORE PUSH1 0x64 SWAP1 REVERT JUMPDEST CALLVALUE PUSH2 0x1D0 JUMPI PUSH1 0x40 CALLDATASIZE PUSH1 0x3 NOT ADD SLT PUSH2 0x1D0 JUMPI PUSH1 0x1 PUSH1 0x1 PUSH1 0xA0 SHL SUB PUSH2 0x20D8 PUSH2 0x2A86 JUMP JUMPDEST AND PUSH1 0x0 MSTORE PUSH1 0xCF PUSH1 0x20 MSTORE PUSH1 0x20 PUSH2 0x20F3 PUSH1 0x24 CALLDATALOAD PUSH1 0x40 PUSH1 0x0 KECCAK256 PUSH2 0x3212 JUMP JUMPDEST SWAP1 SLOAD PUSH1 0x40 MLOAD SWAP2 PUSH1 0x3 SHL SHR DUP2 MSTORE RETURN JUMPDEST CALLVALUE PUSH2 0x1D0 JUMPI PUSH1 0x40 CALLDATASIZE PUSH1 0x3 NOT ADD SLT PUSH2 0x1D0 JUMPI PUSH8 0xFFFFFFFFFFFFFFFF PUSH1 0x4 CALLDATALOAD DUP2 DUP2 GT PUSH2 0x1D0 JUMPI PUSH2 0x2133 SWAP1 CALLDATASIZE SWAP1 PUSH1 0x4 ADD PUSH2 0x2A68 JUMP JUMPDEST SWAP1 PUSH1 0x24 CALLDATALOAD SWAP1 DUP2 GT PUSH2 0x1D0 JUMPI PUSH1 0x20 SWAP2 PUSH2 0x2152 PUSH2 0x2158 SWAP3 CALLDATASIZE SWAP1 PUSH1 0x4 ADD PUSH2 0x2A68 JUMP JUMPDEST SWAP1 PUSH2 0x2FA2 JUMP JUMPDEST PUSH1 0x40 MLOAD SWAP1 ISZERO ISZERO DUP2 MSTORE RETURN JUMPDEST CALLVALUE PUSH2 0x1D0 JUMPI PUSH1 0xC0 CALLDATASIZE PUSH1 0x3 NOT ADD SLT PUSH2 0x1D0 JUMPI PUSH1 0x64 CALLDATALOAD PUSH8 0xFFFFFFFFFFFFFFFF DUP2 GT PUSH2 0x1D0 JUMPI PUSH2 0x2193 SWAP1 CALLDATASIZE SWAP1 PUSH1 0x4 ADD PUSH2 0x2A68 JUMP JUMPDEST PUSH1 0x84 CALLDATALOAD PUSH8 0xFFFFFFFFFFFFFFFF DUP2 GT PUSH2 0x1D0 JUMPI PUSH2 0x21B3 SWAP1 CALLDATASIZE SWAP1 PUSH1 0x4 ADD PUSH2 0x2A68 JUMP JUMPDEST SWAP1 PUSH1 0xA4 CALLDATALOAD PUSH8 0xFFFFFFFFFFFFFFFF DUP2 GT PUSH2 0x1D0 JUMPI PUSH2 0x21D4 SWAP1 CALLDATASIZE SWAP1 PUSH1 0x4 ADD PUSH2 0x2A68 JUMP JUMPDEST SWAP2 CALLER PUSH1 0x0 MSTORE PUSH1 0xCB PUSH1 0x20 MSTORE PUSH2 0x21F5 PUSH1 0xFF PUSH1 0x2 PUSH1 0x40 PUSH1 0x0 KECCAK256 ADD SLOAD PUSH1 0xA8 SHR AND PUSH2 0x3022 JUMP JUMPDEST CALLER PUSH1 0x0 MSTORE PUSH1 0xCB PUSH1 0x20 MSTORE PUSH2 0x2216 PUSH1 0xFF PUSH1 0x2 PUSH1 0x40 PUSH1 0x0 KECCAK256 ADD SLOAD AND PUSH2 0xD37 DUP2 PUSH2 0x29F5 JUMP JUMPDEST PUSH1 0x4 CALLDATALOAD ISZERO PUSH2 0x26E7 JUMPI PUSH2 0x222A PUSH1 0x24 CALLDATALOAD TIMESTAMP PUSH2 0x30EC JUMP JUMPDEST SWAP2 PUSH1 0xC9 SLOAD SWAP2 DUP3 PUSH1 0x0 MSTORE PUSH1 0xCC PUSH1 0x20 MSTORE PUSH1 0x40 PUSH1 0x0 KECCAK256 SWAP2 TIMESTAMP PUSH1 0x4 DUP5 ADD SLOAD LT ISZERO PUSH2 0x267C JUMPI DUP4 DUP4 SSTORE PUSH1 0xA DUP4 ADD CALLER PUSH1 0x1 PUSH1 0x1 PUSH1 0xA0 SHL SUB NOT DUP3 SLOAD AND OR SWAP1 SSTORE PUSH1 0x4 CALLDATALOAD PUSH1 0x1 DUP5 ADD SSTORE DUP1 MLOAD SWAP1 PUSH8 0xFFFFFFFFFFFFFFFF DUP3 GT PUSH2 0x179D JUMPI DUP2 SWAP1 PUSH2 0x228A PUSH1 0x7 DUP7 ADD SLOAD PUSH2 0x287A JUMP JUMPDEST PUSH1 0x1F DUP2 GT PUSH2 0x2629 JUMPI JUMPDEST POP PUSH1 0x20 SWAP1 PUSH1 0x1F DUP4 GT PUSH1 0x1 EQ PUSH2 0x25B7 JUMPI PUSH1 0x0 SWAP3 PUSH2 0x25AC JUMPI JUMPDEST POP POP DUP2 PUSH1 0x1 SHL SWAP2 PUSH1 0x0 NOT SWAP1 PUSH1 0x3 SHL SHR NOT AND OR PUSH1 0x7 DUP4 ADD SSTORE JUMPDEST DUP1 MLOAD SWAP1 PUSH8 0xFFFFFFFFFFFFFFFF DUP3 GT PUSH2 0x179D JUMPI DUP2 SWAP1 PUSH2 0x22E3 PUSH1 0x8 DUP6 ADD SLOAD PUSH2 0x287A JUMP JUMPDEST PUSH1 0x1F DUP2 GT PUSH2 0x2559 JUMPI JUMPDEST POP PUSH1 0x20 SWAP1 PUSH1 0x1F DUP4 GT PUSH1 0x1 EQ PUSH2 0x24EC JUMPI PUSH1 0x0 SWAP3 PUSH2 0x24E1 JUMPI JUMPDEST POP POP DUP2 PUSH1 0x1 SHL SWAP2 PUSH1 0x0 NOT SWAP1 PUSH1 0x3 SHL SHR NOT AND OR PUSH1 0x8 DUP3 ADD SSTORE JUMPDEST DUP4 MLOAD PUSH8 0xFFFFFFFFFFFFFFFF DUP2 GT PUSH2 0x179D JUMPI PUSH2 0x2339 PUSH1 0x9 DUP4 ADD SLOAD PUSH2 0x287A JUMP JUMPDEST PUSH1 0x1F DUP2 GT PUSH2 0x249A JUMPI JUMPDEST POP PUSH1 0x20 PUSH1 0x1F DUP3 GT PUSH1 0x1 EQ PUSH2 0x2426 JUMPI SWAP1 DUP1 PUSH1 0xD SWAP4 SWAP3 PUSH2 0x23B3 SWAP7 SWAP8 PUSH1 0x0 SWAP3 PUSH2 0x241B JUMPI JUMPDEST POP POP DUP2 PUSH1 0x1 SHL SWAP2 PUSH1 0x0 NOT SWAP1 PUSH1 0x3 SHL SHR NOT AND OR PUSH1 0x9 DUP3 ADD SSTORE JUMPDEST DUP5 PUSH1 0x4 DUP3 ADD SSTORE PUSH1 0x44 CALLDATALOAD PUSH1 0x6 DUP3 ADD SSTORE ADD PUSH1 0xFF NOT DUP2 SLOAD AND SWAP1 SSTORE PUSH2 0x239D PUSH1 0xC9 SLOAD PUSH2 0x30F9 JUMP JUMPDEST PUSH1 0xC9 SSTORE CALLER PUSH1 0x0 MSTORE PUSH1 0xCF PUSH1 0x20 MSTORE PUSH1 0x40 PUSH1 0x0 KECCAK256 PUSH2 0x34C8 JUMP JUMPDEST POP PUSH1 0xC9 SLOAD PUSH1 0x0 NOT DUP2 ADD SWAP2 SWAP1 DUP3 GT PUSH2 0x2405 JUMPI PUSH32 0x91B289A829E71D811B8C69E4A24BA2D40D115D8A236E9A724CB3BB2D43CF7223 SWAP2 PUSH1 0x80 SWAP2 PUSH1 0x40 MLOAD SWAP2 DUP3 MSTORE CALLER PUSH1 0x20 DUP4 ADD MSTORE PUSH1 0x4 CALLDATALOAD PUSH1 0x40 DUP4 ADD MSTORE PUSH1 0x60 DUP3 ADD MSTORE LOG1 STOP JUMPDEST PUSH4 0x4E487B71 PUSH1 0xE0 SHL PUSH1 0x0 MSTORE PUSH1 0x11 PUSH1 0x4 MSTORE PUSH1 0x24 PUSH1 0x0 REVERT JUMPDEST ADD MLOAD SWAP1 POP DUP8 DUP1 PUSH2 0x2363 JUMP JUMPDEST PUSH1 0x1F NOT DUP3 AND SWAP6 PUSH1 0x9 DUP5 ADD PUSH1 0x0 MSTORE PUSH1 0x20 PUSH1 0x0 KECCAK256 SWAP7 PUSH1 0x0 JUMPDEST DUP2 DUP2 LT PUSH2 0x2482 JUMPI POP SWAP7 PUSH1 0x1 SWAP3 DUP5 SWAP3 PUSH1 0xD SWAP7 SWAP6 PUSH2 0x23B3 SWAP10 SWAP11 LT PUSH2 0x2469 JUMPI JUMPDEST POP POP POP DUP2 SHL ADD PUSH1 0x9 DUP3 ADD SSTORE PUSH2 0x237B JUMP JUMPDEST ADD MLOAD PUSH1 0x0 NOT PUSH1 0xF8 DUP5 PUSH1 0x3 SHL AND SHR NOT AND SWAP1 SSTORE DUP8 DUP1 DUP1 PUSH2 0x2459 JUMP JUMPDEST DUP4 DUP4 ADD MLOAD DUP10 SSTORE PUSH1 0x1 SWAP1 SWAP9 ADD SWAP8 PUSH1 0x20 SWAP4 DUP5 ADD SWAP4 ADD PUSH2 0x243C JUMP JUMPDEST PUSH1 0x9 DUP4 ADD PUSH1 0x0 MSTORE PUSH1 0x20 PUSH1 0x0 KECCAK256 PUSH1 0x1F DUP4 ADD PUSH1 0x5 SHR DUP2 ADD PUSH1 0x20 DUP5 LT PUSH2 0x24DA JUMPI JUMPDEST PUSH1 0x1F DUP4 ADD PUSH1 0x5 SHR DUP3 ADD DUP2 LT PUSH2 0x24CE JUMPI POP POP PUSH2 0x2342 JUMP JUMPDEST PUSH1 0x0 DUP2 SSTORE PUSH1 0x1 ADD PUSH2 0x24B8 JUMP JUMPDEST POP DUP1 PUSH2 0x24B8 JUMP JUMPDEST ADD MLOAD SWAP1 POP DUP7 DUP1 PUSH2 0x2303 JUMP JUMPDEST PUSH1 0x8 DUP6 ADD PUSH1 0x0 SWAP1 DUP2 MSTORE PUSH1 0x20 DUP2 KECCAK256 SWAP4 POP PUSH1 0x1F NOT DUP6 AND SWAP1 JUMPDEST DUP2 DUP2 LT PUSH2 0x2541 JUMPI POP SWAP1 DUP5 PUSH1 0x1 SWAP6 SWAP5 SWAP4 SWAP3 LT PUSH2 0x2528 JUMPI JUMPDEST POP POP POP DUP2 SHL ADD PUSH1 0x8 DUP3 ADD SSTORE PUSH2 0x231B JUMP JUMPDEST ADD MLOAD PUSH1 0x0 NOT PUSH1 0xF8 DUP5 PUSH1 0x3 SHL AND SHR NOT AND SWAP1 SSTORE DUP7 DUP1 DUP1 PUSH2 0x2518 JUMP JUMPDEST SWAP3 SWAP4 PUSH1 0x20 PUSH1 0x1 DUP2 SWAP3 DUP8 DUP7 ADD MLOAD DUP2 SSTORE ADD SWAP6 ADD SWAP4 ADD PUSH2 0x2502 JUMP JUMPDEST SWAP1 SWAP2 POP PUSH1 0x8 DUP5 ADD PUSH1 0x0 MSTORE PUSH1 0x20 PUSH1 0x0 KECCAK256 PUSH1 0x1F DUP5 ADD PUSH1 0x5 SHR DUP2 ADD PUSH1 0x20 DUP6 LT PUSH2 0x25A5 JUMPI JUMPDEST SWAP1 DUP5 SWAP4 SWAP3 SWAP2 JUMPDEST PUSH1 0x1F DUP4 ADD PUSH1 0x5 SHR DUP3 ADD DUP2 LT PUSH2 0x2596 JUMPI POP POP PUSH2 0x22EC JUMP JUMPDEST PUSH1 0x0 DUP2 SSTORE DUP6 SWAP5 POP PUSH1 0x1 ADD PUSH2 0x2580 JUMP JUMPDEST POP DUP1 PUSH2 0x257A JUMP JUMPDEST ADD MLOAD SWAP1 POP DUP8 DUP1 PUSH2 0x22AA JUMP JUMPDEST SWAP3 POP PUSH1 0x7 DUP6 ADD PUSH1 0x0 MSTORE PUSH1 0x20 PUSH1 0x0 KECCAK256 SWAP1 PUSH1 0x0 SWAP4 JUMPDEST PUSH1 0x1F NOT DUP5 AND DUP6 LT PUSH2 0x260E JUMPI PUSH1 0x1 SWAP5 POP DUP4 PUSH1 0x1F NOT DUP2 AND LT PUSH2 0x25F5 JUMPI JUMPDEST POP POP POP DUP2 SHL ADD PUSH1 0x7 DUP4 ADD SSTORE PUSH2 0x22C2 JUMP JUMPDEST ADD MLOAD PUSH1 0x0 NOT PUSH1 0xF8 DUP5 PUSH1 0x3 SHL AND SHR NOT AND SWAP1 SSTORE DUP8 DUP1 DUP1 PUSH2 0x25E5 JUMP JUMPDEST DUP2 DUP2 ADD MLOAD DUP4 SSTORE PUSH1 0x20 SWAP5 DUP6 ADD SWAP5 PUSH1 0x1 SWAP1 SWAP4 ADD SWAP3 SWAP1 SWAP2 ADD SWAP1 PUSH2 0x25CA JUMP JUMPDEST SWAP1 SWAP2 POP PUSH1 0x7 DUP6 ADD PUSH1 0x0 MSTORE PUSH1 0x20 PUSH1 0x0 KECCAK256 PUSH1 0x1F DUP5 ADD PUSH1 0x5 SHR DUP2 ADD PUSH1 0x20 DUP6 LT PUSH2 0x2675 JUMPI JUMPDEST SWAP1 DUP5 SWAP4 SWAP3 SWAP2 JUMPDEST PUSH1 0x1F DUP4 ADD PUSH1 0x5 SHR DUP3 ADD DUP2 LT PUSH2 0x2666 JUMPI POP POP PUSH2 0x2293 JUMP JUMPDEST PUSH1 0x0 DUP2 SSTORE DUP6 SWAP5 POP PUSH1 0x1 ADD PUSH2 0x2650 JUMP JUMPDEST POP DUP1 PUSH2 0x264A JUMP JUMPDEST PUSH1 0x40 MLOAD PUSH3 0x461BCD PUSH1 0xE5 SHL DUP2 MSTORE PUSH1 0x20 PUSH1 0x4 DUP3 ADD MSTORE PUSH1 0x29 PUSH1 0x24 DUP3 ADD MSTORE PUSH32 0x5468652063616D706169676E206D7573742062652061206461746520696E2074 PUSH1 0x44 DUP3 ADD MSTORE PUSH32 0x6865206675747572650000000000000000000000000000000000000000000000 PUSH1 0x64 DUP3 ADD MSTORE PUSH1 0x84 SWAP1 REVERT JUMPDEST PUSH1 0x40 MLOAD PUSH3 0x461BCD PUSH1 0xE5 SHL DUP2 MSTORE PUSH1 0x20 PUSH1 0x4 DUP3 ADD MSTORE PUSH1 0x27 PUSH1 0x24 DUP3 ADD MSTORE PUSH32 0x54617267657420616D6F756E74206D7573742062652067726561746572207468 PUSH1 0x44 DUP3 ADD MSTORE PUSH32 0x616E207A65726F00000000000000000000000000000000000000000000000000 PUSH1 0x64 DUP3 ADD MSTORE PUSH1 0x84 SWAP1 REVERT JUMPDEST CALLVALUE PUSH2 0x1D0 JUMPI PUSH1 0x20 CALLDATASIZE PUSH1 0x3 NOT ADD SLT PUSH2 0x1D0 JUMPI PUSH1 0x4 CALLDATALOAD PUSH1 0x0 MSTORE PUSH1 0xCC PUSH1 0x20 MSTORE PUSH1 0x40 PUSH1 0x0 KECCAK256 DUP1 SLOAD PUSH1 0x1 DUP3 ADD SLOAD SWAP2 PUSH1 0x2 DUP2 ADD SLOAD PUSH1 0x3 DUP3 ADD SLOAD SWAP1 PUSH1 0x4 DUP4 ADD SLOAD SWAP3 PUSH1 0x5 DUP2 ADD SLOAD PUSH1 0x6 DUP3 ADD SLOAD PUSH1 0x7 DUP4 ADD PUSH2 0x27A3 SWAP1 PUSH2 0x290F JUMP JUMPDEST PUSH2 0x27AF PUSH1 0x8 DUP6 ADD PUSH2 0x290F JUMP JUMPDEST SWAP2 PUSH2 0x27BC PUSH1 0x9 DUP7 ADD PUSH2 0x290F JUMP JUMPDEST SWAP4 PUSH1 0x1 PUSH1 0x1 PUSH1 0xA0 SHL SUB SWAP9 DUP10 PUSH1 0xA DUP9 ADD SLOAD AND SWAP10 PUSH1 0xB DUP9 ADD SLOAD AND SWAP7 PUSH1 0xD ADD SLOAD SWAP9 PUSH1 0xFF DUP11 AND SWAP9 PUSH1 0x40 MLOAD SWAP14 DUP15 DUP1 SWAP15 DUP2 MSTORE PUSH1 0x20 ADD MSTORE PUSH1 0x40 DUP14 ADD MSTORE PUSH1 0x60 DUP13 ADD MSTORE PUSH1 0x80 DUP12 ADD MSTORE PUSH1 0xA0 DUP11 ADD MSTORE PUSH1 0xC0 DUP10 ADD MSTORE PUSH2 0x1E0 DUP1 PUSH1 0xE0 DUP11 ADD MSTORE DUP9 ADD PUSH2 0x2819 SWAP2 PUSH2 0x29B5 JUMP JUMPDEST DUP8 DUP2 SUB PUSH2 0x100 DUP10 ADD MSTORE PUSH2 0x282B SWAP2 PUSH2 0x29B5 JUMP JUMPDEST DUP7 DUP2 SUB PUSH2 0x120 DUP9 ADD MSTORE PUSH2 0x283D SWAP2 PUSH2 0x29B5 JUMP JUMPDEST SWAP4 PUSH2 0x140 DUP7 ADD MSTORE PUSH2 0x160 DUP6 ADD MSTORE PUSH2 0x2853 DUP2 PUSH2 0x29F5 JUMP JUMPDEST PUSH2 0x180 DUP5 ADD MSTORE DUP1 PUSH1 0x8 SHR PUSH1 0xFF AND ISZERO ISZERO PUSH2 0x1A0 DUP5 ADD MSTORE PUSH1 0x10 SHR PUSH1 0xFF AND ISZERO ISZERO PUSH2 0x1C0 DUP4 ADD MSTORE SUB SWAP1 RETURN JUMPDEST SWAP1 PUSH1 0x1 DUP3 DUP2 SHR SWAP3 AND DUP1 ISZERO PUSH2 0x28AA JUMPI JUMPDEST PUSH1 0x20 DUP4 LT EQ PUSH2 0x2894 JUMPI JUMP JUMPDEST PUSH4 0x4E487B71 PUSH1 0xE0 SHL PUSH1 0x0 MSTORE PUSH1 0x22 PUSH1 0x4 MSTORE PUSH1 0x24 PUSH1 0x0 REVERT JUMPDEST SWAP2 PUSH1 0x7F AND SWAP2 PUSH2 0x2889 JUMP JUMPDEST PUSH2 0x200 DUP2 ADD SWAP1 DUP2 LT PUSH8 0xFFFFFFFFFFFFFFFF DUP3 GT OR PUSH2 0x179D JUMPI PUSH1 0x40 MSTORE JUMP JUMPDEST PUSH1 0x60 DUP2 ADD SWAP1 DUP2 LT PUSH8 0xFFFFFFFFFFFFFFFF DUP3 GT OR PUSH2 0x179D JUMPI PUSH1 0x40 MSTORE JUMP JUMPDEST SWAP1 PUSH1 0x1F DUP1 NOT SWAP2 ADD AND DUP2 ADD SWAP1 DUP2 LT PUSH8 0xFFFFFFFFFFFFFFFF DUP3 GT OR PUSH2 0x179D JUMPI PUSH1 0x40 MSTORE JUMP JUMPDEST SWAP1 PUSH1 0x40 MLOAD SWAP2 DUP3 PUSH1 0x0 DUP3 SLOAD SWAP3 PUSH2 0x2923 DUP5 PUSH2 0x287A JUMP JUMPDEST SWAP1 DUP2 DUP5 MSTORE PUSH1 0x1 SWAP5 DUP6 DUP2 AND SWAP1 DUP2 PUSH1 0x0 EQ PUSH2 0x2992 JUMPI POP PUSH1 0x1 EQ PUSH2 0x294F JUMPI JUMPDEST POP POP PUSH2 0x294D SWAP3 POP SUB DUP4 PUSH2 0x28ED JUMP JUMPDEST JUMP JUMPDEST SWAP1 SWAP4 SWAP2 POP PUSH1 0x0 MSTORE PUSH1 0x20 SWAP1 DUP2 PUSH1 0x0 KECCAK256 SWAP4 PUSH1 0x0 SWAP2 JUMPDEST DUP2 DUP4 LT PUSH2 0x297A JUMPI POP POP PUSH2 0x294D SWAP4 POP DUP3 ADD ADD CODESIZE DUP1 PUSH2 0x293F JUMP JUMPDEST DUP6 SLOAD DUP9 DUP5 ADD DUP6 ADD MSTORE SWAP5 DUP6 ADD SWAP5 DUP8 SWAP5 POP SWAP2 DUP4 ADD SWAP2 PUSH2 0x2962 JUMP JUMPDEST SWAP2 POP POP PUSH2 0x294D SWAP5 POP PUSH1 0x20 SWAP3 POP PUSH1 0xFF NOT AND DUP3 DUP5 ADD MSTORE ISZERO ISZERO PUSH1 0x5 SHL DUP3 ADD ADD CODESIZE DUP1 PUSH2 0x293F JUMP JUMPDEST SWAP2 SWAP1 DUP3 MLOAD SWAP3 DUP4 DUP3 MSTORE PUSH1 0x0 JUMPDEST DUP5 DUP2 LT PUSH2 0x29E1 JUMPI POP POP DUP3 PUSH1 0x0 PUSH1 0x20 DUP1 SWAP5 SWAP6 DUP5 ADD ADD MSTORE PUSH1 0x1F DUP1 NOT SWAP2 ADD AND ADD ADD SWAP1 JUMP JUMPDEST PUSH1 0x20 DUP2 DUP4 ADD DUP2 ADD MLOAD DUP5 DUP4 ADD DUP3 ADD MSTORE ADD PUSH2 0x29C0 JUMP JUMPDEST PUSH1 0x3 GT ISZERO PUSH2 0x29FF JUMPI JUMP JUMPDEST PUSH4 0x4E487B71 PUSH1 0xE0 SHL PUSH1 0x0 MSTORE PUSH1 0x21 PUSH1 0x4 MSTORE PUSH1 0x24 PUSH1 0x0 REVERT JUMPDEST PUSH8 0xFFFFFFFFFFFFFFFF DUP2 GT PUSH2 0x179D JUMPI PUSH1 0x1F ADD PUSH1 0x1F NOT AND PUSH1 0x20 ADD SWAP1 JUMP JUMPDEST SWAP3 SWAP2 SWAP3 PUSH2 0x2A3D DUP3 PUSH2 0x2A15 JUMP JUMPDEST SWAP2 PUSH2 0x2A4B PUSH1 0x40 MLOAD SWAP4 DUP5 PUSH2 0x28ED JUMP JUMPDEST DUP3 SWAP5 DUP2 DUP5 MSTORE DUP2 DUP4 ADD GT PUSH2 0x1D0 JUMPI DUP3 DUP2 PUSH1 0x20 SWAP4 DUP5 PUSH1 0x0 SWAP7 ADD CALLDATACOPY ADD ADD MSTORE JUMP JUMPDEST SWAP1 DUP1 PUSH1 0x1F DUP4 ADD SLT ISZERO PUSH2 0x1D0 JUMPI DUP2 PUSH1 0x20 PUSH2 0x2A83 SWAP4 CALLDATALOAD SWAP2 ADD PUSH2 0x2A31 JUMP JUMPDEST SWAP1 JUMP JUMPDEST PUSH1 0x4 CALLDATALOAD SWAP1 PUSH1 0x1 PUSH1 0x1 PUSH1 0xA0 SHL SUB DUP3 AND DUP3 SUB PUSH2 0x1D0 JUMPI JUMP JUMPDEST SWAP1 DUP2 MLOAD DUP1 DUP3 MSTORE PUSH1 0x20 DUP1 DUP1 SWAP4 ADD SWAP4 ADD SWAP2 PUSH1 0x0 JUMPDEST DUP3 DUP2 LT PUSH2 0x2ABC JUMPI POP POP POP POP SWAP1 JUMP JUMPDEST DUP4 MLOAD PUSH1 0x1 PUSH1 0x1 PUSH1 0xA0 SHL SUB AND DUP6 MSTORE SWAP4 DUP2 ADD SWAP4 SWAP3 DUP2 ADD SWAP3 PUSH1 0x1 ADD PUSH2 0x2AAE JUMP JUMPDEST SWAP1 DUP2 MLOAD DUP1 DUP3 MSTORE PUSH1 0x20 DUP1 DUP1 SWAP4 ADD SWAP4 ADD SWAP2 PUSH1 0x0 JUMPDEST DUP3 DUP2 LT PUSH2 0x2AF9 JUMPI POP POP POP POP SWAP1 JUMP JUMPDEST DUP4 MLOAD DUP6 MSTORE SWAP4 DUP2 ADD SWAP4 SWAP3 DUP2 ADD SWAP3 PUSH1 0x1 ADD PUSH2 0x2AEB JUMP JUMPDEST SWAP1 DUP2 MLOAD DUP2 MSTORE PUSH1 0x20 DUP3 ADD MLOAD PUSH1 0x20 DUP3 ADD MSTORE PUSH1 0x40 DUP3 ADD MLOAD PUSH1 0x40 DUP3 ADD MSTORE PUSH1 0x60 DUP3 ADD MLOAD PUSH1 0x60 DUP3 ADD MSTORE PUSH1 0x80 DUP3 ADD MLOAD PUSH1 0x80 DUP3 ADD MSTORE PUSH1 0xA0 DUP3 ADD MLOAD PUSH1 0xA0 DUP3 ADD MSTORE PUSH1 0xC0 DUP3 ADD MLOAD PUSH1 0xC0 DUP3 ADD MSTORE PUSH2 0x2BCE PUSH2 0x2B98 PUSH2 0x2B84 PUSH2 0x2B70 PUSH1 0xE0 DUP7 ADD MLOAD PUSH2 0x200 DUP1 PUSH1 0xE0 DUP9 ADD MSTORE DUP7 ADD SWAP1 PUSH2 0x29B5 JUMP JUMPDEST PUSH2 0x100 DUP1 DUP8 ADD MLOAD SWAP1 DUP7 DUP4 SUB SWAP1 DUP8 ADD MSTORE PUSH2 0x29B5 JUMP JUMPDEST PUSH2 0x120 DUP1 DUP7 ADD MLOAD SWAP1 DUP6 DUP4 SUB SWAP1 DUP7 ADD MSTORE PUSH2 0x29B5 JUMP JUMPDEST PUSH1 0x1 PUSH1 0x1 PUSH1 0xA0 SHL SUB PUSH2 0x140 DUP2 DUP2 DUP8 ADD MLOAD AND SWAP1 DUP6 ADD MSTORE PUSH2 0x160 SWAP1 DUP2 DUP7 ADD MLOAD AND SWAP1 DUP5 ADD MSTORE PUSH2 0x180 DUP1 DUP6 ADD MLOAD SWAP1 DUP5 DUP4 SUB SWAP1 DUP6 ADD MSTORE PUSH2 0x2A9C JUMP JUMPDEST SWAP2 PUSH2 0x1A0 DUP1 DUP3 ADD MLOAD SWAP1 PUSH2 0x2BE0 DUP3 PUSH2 0x29F5 JUMP JUMPDEST DUP4 ADD MSTORE PUSH2 0x1C0 DUP1 DUP3 ADD MLOAD ISZERO ISZERO SWAP1 DUP4 ADD MSTORE PUSH2 0x1E0 DUP1 SWAP2 ADD MLOAD ISZERO ISZERO SWAP2 ADD MSTORE SWAP1 JUMP JUMPDEST PUSH1 0x20 DUP1 DUP3 ADD SWAP1 DUP1 DUP4 MSTORE DUP4 MLOAD DUP1 SWAP3 MSTORE PUSH1 0x40 DUP4 ADD SWAP3 DUP2 PUSH1 0x40 DUP5 PUSH1 0x5 SHL DUP4 ADD ADD SWAP6 ADD SWAP4 PUSH1 0x0 SWAP2 JUMPDEST DUP5 DUP4 LT PUSH2 0x2C33 JUMPI POP POP POP POP POP POP SWAP1 JUMP JUMPDEST SWAP1 SWAP2 SWAP3 SWAP4 SWAP5 SWAP6 DUP5 DUP1 PUSH2 0x2C51 PUSH1 0x1 SWAP4 PUSH1 0x3F NOT DUP7 DUP3 SUB ADD DUP8 MSTORE DUP11 MLOAD PUSH2 0x2B0D JUMP JUMPDEST SWAP9 ADD SWAP4 ADD SWAP4 ADD SWAP2 SWAP5 SWAP4 SWAP3 SWAP1 PUSH2 0x2C23 JUMP JUMPDEST PUSH1 0x1 PUSH1 0x1 PUSH1 0xA0 SHL SUB PUSH1 0x33 SLOAD AND CALLER SUB PUSH2 0x2C75 JUMPI JUMP JUMPDEST PUSH1 0x64 PUSH1 0x40 MLOAD PUSH3 0x461BCD PUSH1 0xE5 SHL DUP2 MSTORE PUSH1 0x20 PUSH1 0x4 DUP3 ADD MSTORE PUSH1 0x20 PUSH1 0x24 DUP3 ADD MSTORE PUSH32 0x4F776E61626C653A2063616C6C6572206973206E6F7420746865206F776E6572 PUSH1 0x44 DUP3 ADD MSTORE REVERT JUMPDEST PUSH1 0x33 SLOAD SWAP1 PUSH1 0x1 PUSH1 0x1 PUSH1 0xA0 SHL SUB DUP1 SWAP2 AND SWAP2 DUP3 PUSH1 0x1 PUSH1 0x1 PUSH1 0xA0 SHL SUB NOT DUP3 AND OR PUSH1 0x33 SSTORE AND PUSH32 0x8BE0079C531659141344CD1FD0A4F28419497F9722A3DAAFE3B4186F6B6457E0 PUSH1 0x0 DUP1 LOG3 JUMP JUMPDEST ISZERO PUSH2 0x2D08 JUMPI JUMP JUMPDEST PUSH1 0x40 MLOAD PUSH3 0x461BCD PUSH1 0xE5 SHL DUP2 MSTORE PUSH1 0x20 PUSH1 0x4 DUP3 ADD MSTORE PUSH1 0x2C PUSH1 0x24 DUP3 ADD MSTORE PUSH32 0x46756E6374696F6E206D7573742062652063616C6C6564207468726F75676820 PUSH1 0x44 DUP3 ADD MSTORE PUSH32 0x64656C656761746563616C6C0000000000000000000000000000000000000000 PUSH1 0x64 DUP3 ADD MSTORE PUSH1 0x84 SWAP1 REVERT JUMPDEST ISZERO PUSH2 0x2D7A JUMPI JUMP JUMPDEST PUSH1 0x40 MLOAD PUSH3 0x461BCD PUSH1 0xE5 SHL DUP2 MSTORE PUSH1 0x20 PUSH1 0x4 DUP3 ADD MSTORE PUSH1 0x2C PUSH1 0x24 DUP3 ADD MSTORE PUSH32 0x46756E6374696F6E206D7573742062652063616C6C6564207468726F75676820 PUSH1 0x44 DUP3 ADD MSTORE PUSH32 0x6163746976652070726F78790000000000000000000000000000000000000000 PUSH1 0x64 DUP3 ADD MSTORE PUSH1 0x84 SWAP1 REVERT JUMPDEST DUP1 EXTCODESIZE ISZERO PUSH2 0x2E28 JUMPI PUSH1 0x1 PUSH1 0x1 PUSH1 0xA0 SHL SUB PUSH32 0x360894A13BA1A3210667C828492DB98DCA3E2076CC3735A920A3CA505D382BBC SWAP2 AND PUSH1 0x1 PUSH1 0x1 PUSH1 0xA0 SHL SUB NOT DUP3 SLOAD AND OR SWAP1 SSTORE JUMP JUMPDEST PUSH1 0x40 MLOAD PUSH3 0x461BCD PUSH1 0xE5 SHL DUP2 MSTORE PUSH1 0x20 PUSH1 0x4 DUP3 ADD MSTORE PUSH1 0x2D PUSH1 0x24 DUP3 ADD MSTORE PUSH32 0x455243313936373A206E657720696D706C656D656E746174696F6E206973206E PUSH1 0x44 DUP3 ADD MSTORE PUSH32 0x6F74206120636F6E747261637400000000000000000000000000000000000000 PUSH1 0x64 DUP3 ADD MSTORE PUSH1 0x84 SWAP1 REVERT JUMPDEST SWAP2 SWAP3 SWAP1 ISZERO PUSH2 0x2EF5 JUMPI POP DUP2 MLOAD ISZERO PUSH2 0x2EA7 JUMPI POP SWAP1 JUMP JUMPDEST EXTCODESIZE ISZERO PUSH2 0x2EB0 JUMPI SWAP1 JUMP JUMPDEST PUSH1 0x40 MLOAD PUSH3 0x461BCD PUSH1 0xE5 SHL DUP2 MSTORE PUSH1 0x20 PUSH1 0x4 DUP3 ADD MSTORE PUSH1 0x1D PUSH1 0x24 DUP3 ADD MSTORE PUSH32 0x416464726573733A2063616C6C20746F206E6F6E2D636F6E7472616374000000 PUSH1 0x44 DUP3 ADD MSTORE PUSH1 0x64 SWAP1 REVERT JUMPDEST DUP3 MLOAD SWAP1 SWAP2 POP ISZERO PUSH2 0x2F08 JUMPI POP DUP1 MLOAD SWAP1 PUSH1 0x20 ADD REVERT JUMPDEST PUSH1 0x40 MLOAD PUSH3 0x461BCD PUSH1 0xE5 SHL DUP2 MSTORE PUSH1 0x20 PUSH1 0x4 DUP3 ADD MSTORE SWAP1 DUP2 SWAP1 PUSH2 0x2F2C SWAP1 PUSH1 0x24 DUP4 ADD SWAP1 PUSH2 0x29B5 JUMP JUMPDEST SUB SWAP1 REVERT JUMPDEST ISZERO PUSH2 0x2F37 JUMPI JUMP JUMPDEST PUSH1 0x40 MLOAD PUSH3 0x461BCD PUSH1 0xE5 SHL DUP2 MSTORE PUSH1 0x20 PUSH1 0x4 DUP3 ADD MSTORE PUSH1 0x2B PUSH1 0x24 DUP3 ADD MSTORE PUSH32 0x496E697469616C697A61626C653A20636F6E7472616374206973206E6F742069 PUSH1 0x44 DUP3 ADD MSTORE PUSH32 0x6E697469616C697A696E67000000000000000000000000000000000000000000 PUSH1 0x64 DUP3 ADD MSTORE PUSH1 0x84 SWAP1 REVERT JUMPDEST SWAP1 CALLER PUSH1 0x0 MSTORE PUSH1 0xCB PUSH1 0x20 MSTORE PUSH1 0x40 PUSH1 0x0 KECCAK256 PUSH1 0xFF PUSH1 0x2 DUP3 ADD SLOAD PUSH1 0xA8 SHR AND SWAP3 DUP4 PUSH2 0x2FFF JUMPI JUMPDEST POP DUP3 PUSH2 0x2FDA JUMPI JUMPDEST POP POP PUSH2 0x2FD5 JUMPI PUSH1 0x0 SWAP1 JUMP JUMPDEST PUSH1 0x1 SWAP1 JUMP JUMPDEST PUSH2 0x2FE8 SWAP2 SWAP3 POP PUSH1 0x1 ADD PUSH2 0x290F JUMP JUMPDEST PUSH1 0x20 DUP2 MLOAD SWAP2 ADD KECCAK256 SWAP1 PUSH1 0x20 DUP2 MLOAD SWAP2 ADD KECCAK256 EQ CODESIZE DUP1 PUSH2 0x2FCA JUMP JUMPDEST SWAP1 SWAP3 POP PUSH2 0x300B DUP4 PUSH2 0x290F JUMP JUMPDEST PUSH1 0x20 DUP2 MLOAD SWAP2 ADD KECCAK256 SWAP1 PUSH1 0x20 DUP2 MLOAD SWAP2 ADD KECCAK256 EQ SWAP2 CODESIZE PUSH2 0x2FC3 JUMP JUMPDEST ISZERO PUSH2 0x3029 JUMPI JUMP JUMPDEST PUSH1 0x40 MLOAD PUSH3 0x461BCD PUSH1 0xE5 SHL DUP2 MSTORE PUSH1 0x20 PUSH1 0x4 DUP3 ADD MSTORE PUSH1 0x23 PUSH1 0x24 DUP3 ADD MSTORE PUSH32 0x4F6E6C792076657269666965642075736572732063616E207061727469636970 PUSH1 0x44 DUP3 ADD MSTORE PUSH3 0x617465 PUSH1 0xE8 SHL PUSH1 0x64 DUP3 ADD MSTORE PUSH1 0x84 SWAP1 REVERT JUMPDEST ISZERO PUSH2 0x3081 JUMPI JUMP JUMPDEST PUSH1 0x40 MLOAD PUSH3 0x461BCD PUSH1 0xE5 SHL DUP2 MSTORE PUSH1 0x20 PUSH1 0x4 DUP3 ADD MSTORE PUSH1 0x3C PUSH1 0x24 DUP3 ADD MSTORE PUSH32 0x4F6E6C79207573657273206F6620746865207370656369666965642063617465 PUSH1 0x44 DUP3 ADD MSTORE PUSH32 0x676F72792063616E20706572666F726D207468697320616374696F6E00000000 PUSH1 0x64 DUP3 ADD MSTORE PUSH1 0x84 SWAP1 REVERT JUMPDEST SWAP2 SWAP1 DUP3 ADD DUP1 SWAP3 GT PUSH2 0x2405 JUMPI JUMP JUMPDEST PUSH1 0x0 NOT DUP2 EQ PUSH2 0x2405 JUMPI PUSH1 0x1 ADD SWAP1 JUMP JUMPDEST ISZERO PUSH2 0x310F JUMPI JUMP JUMPDEST PUSH1 0x40 MLOAD PUSH3 0x461BCD PUSH1 0xE5 SHL DUP2 MSTORE PUSH1 0x20 PUSH1 0x4 DUP3 ADD MSTORE PUSH1 0x17 PUSH1 0x24 DUP3 ADD MSTORE PUSH32 0x43616D706169676E20646F6573206E6F74206578697374000000000000000000 PUSH1 0x44 DUP3 ADD MSTORE PUSH1 0x64 SWAP1 REVERT JUMPDEST ISZERO PUSH2 0x315B JUMPI JUMP JUMPDEST PUSH1 0x40 MLOAD PUSH3 0x461BCD PUSH1 0xE5 SHL DUP2 MSTORE PUSH1 0x20 PUSH1 0x4 DUP3 ADD MSTORE PUSH1 0x17 PUSH1 0x24 DUP3 ADD MSTORE PUSH32 0x43616D706169676E206973206E6F74206F6E676F696E67000000000000000000 PUSH1 0x44 DUP3 ADD MSTORE PUSH1 0x64 SWAP1 REVERT JUMPDEST ISZERO PUSH2 0x31A7 JUMPI JUMP JUMPDEST PUSH1 0x40 MLOAD PUSH3 0x461BCD PUSH1 0xE5 SHL DUP2 MSTORE PUSH1 0x20 PUSH1 0x4 DUP3 ADD MSTORE PUSH1 0x33 PUSH1 0x24 DUP3 ADD MSTORE PUSH32 0x46756E647320666F7220746869732063616D706169676E206861766520616C72 PUSH1 0x44 DUP3 ADD MSTORE PUSH32 0x65616479206265656E2072656365697665642E00000000000000000000000000 PUSH1 0x64 DUP3 ADD MSTORE PUSH1 0x84 SWAP1 REVERT JUMPDEST DUP1 SLOAD DUP3 LT ISZERO PUSH2 0x322A JUMPI PUSH1 0x0 MSTORE PUSH1 0x20 PUSH1 0x0 KECCAK256 ADD SWAP1 PUSH1 0x0 SWAP1 JUMP JUMPDEST PUSH4 0x4E487B71 PUSH1 0xE0 SHL PUSH1 0x0 MSTORE PUSH1 0x32 PUSH1 0x4 MSTORE PUSH1 0x24 PUSH1 0x0 REVERT JUMPDEST PUSH8 0xFFFFFFFFFFFFFFFF DUP2 GT PUSH2 0x179D JUMPI PUSH1 0x5 SHL PUSH1 0x20 ADD SWAP1 JUMP JUMPDEST SWAP1 PUSH2 0x3262 DUP3 PUSH2 0x3240 JUMP JUMPDEST PUSH2 0x326F PUSH1 0x40 MLOAD SWAP2 DUP3 PUSH2 0x28ED JUMP JUMPDEST DUP3 DUP2 MSTORE DUP1 SWAP3 PUSH2 0x3280 PUSH1 0x1F NOT SWAP2 PUSH2 0x3240 JUMP JUMPDEST ADD SWAP1 PUSH1 0x20 CALLDATASIZE SWAP2 ADD CALLDATACOPY JUMP JUMPDEST DUP1 MLOAD DUP3 LT ISZERO PUSH2 0x322A JUMPI PUSH1 0x20 SWAP2 PUSH1 0x5 SHL ADD ADD SWAP1 JUMP JUMPDEST SWAP1 PUSH1 0x40 MLOAD SWAP2 DUP3 DUP2 SLOAD SWAP2 DUP3 DUP3 MSTORE PUSH1 0x20 SWAP3 DUP4 DUP4 ADD SWAP2 PUSH1 0x0 MSTORE DUP4 PUSH1 0x0 KECCAK256 SWAP4 PUSH1 0x0 SWAP1 JUMPDEST DUP3 DUP3 LT PUSH2 0x32D3 JUMPI POP POP POP PUSH2 0x294D SWAP3 POP SUB DUP4 PUSH2 0x28ED JUMP JUMPDEST DUP6 SLOAD PUSH1 0x1 PUSH1 0x1 PUSH1 0xA0 SHL SUB AND DUP5 MSTORE PUSH1 0x1 SWAP6 DUP7 ADD SWAP6 DUP9 SWAP6 POP SWAP4 DUP2 ADD SWAP4 SWAP1 SWAP2 ADD SWAP1 PUSH2 0x32BD JUMP JUMPDEST PUSH1 0x40 MLOAD SWAP1 PUSH2 0x3303 DUP3 PUSH2 0x28B4 JUMP JUMPDEST DUP2 PUSH2 0x1E0 PUSH1 0x0 SWAP2 DUP3 DUP2 MSTORE DUP3 PUSH1 0x20 DUP3 ADD MSTORE DUP3 PUSH1 0x40 DUP3 ADD MSTORE DUP3 PUSH1 0x60 DUP3 ADD MSTORE DUP3 PUSH1 0x80 DUP3 ADD MSTORE DUP3 PUSH1 0xA0 DUP3 ADD MSTORE DUP3 PUSH1 0xC0 DUP3 ADD MSTORE PUSH1 0x60 PUSH1 0xE0 DUP3 ADD MSTORE PUSH1 0x60 PUSH2 0x100 DUP3 ADD MSTORE PUSH1 0x60 PUSH2 0x120 DUP3 ADD MSTORE DUP3 PUSH2 0x140 DUP3 ADD MSTORE DUP3 PUSH2 0x160 DUP3 ADD MSTORE PUSH1 0x60 PUSH2 0x180 DUP3 ADD MSTORE DUP3 PUSH2 0x1A0 DUP3 ADD MSTORE DUP3 PUSH2 0x1C0 DUP3 ADD MSTORE ADD MSTORE JUMP JUMPDEST SWAP1 PUSH2 0x337A DUP3 PUSH2 0x3240 JUMP JUMPDEST PUSH2 0x3387 PUSH1 0x40 MLOAD SWAP2 DUP3 PUSH2 0x28ED JUMP JUMPDEST DUP3 DUP2 MSTORE DUP1 SWAP3 PUSH2 0x3398 PUSH1 0x1F NOT SWAP2 PUSH2 0x3240 JUMP JUMPDEST ADD SWAP1 PUSH1 0x0 JUMPDEST DUP3 DUP2 LT PUSH2 0x33A9 JUMPI POP POP POP JUMP JUMPDEST PUSH1 0x20 SWAP1 PUSH2 0x33B4 PUSH2 0x32F6 JUMP JUMPDEST DUP3 DUP3 DUP6 ADD ADD MSTORE ADD PUSH2 0x339D JUMP JUMPDEST ISZERO PUSH2 0x33C7 JUMPI JUMP JUMPDEST PUSH1 0x40 MLOAD PUSH3 0x461BCD PUSH1 0xE5 SHL DUP2 MSTORE PUSH1 0x20 PUSH1 0x4 DUP3 ADD MSTORE PUSH1 0x41 PUSH1 0x24 DUP3 ADD MSTORE PUSH32 0x5265717565737420686173206E6F74206265656E20617070726F766564206279 PUSH1 0x44 DUP3 ADD MSTORE PUSH32 0x20746865207265717569726564206E756D626572206F6620696E766573746F72 PUSH1 0x64 DUP3 ADD MSTORE PUSH1 0x73 PUSH1 0xF8 SHL PUSH1 0x84 DUP3 ADD MSTORE PUSH1 0xA4 SWAP1 REVERT JUMPDEST DUP1 SLOAD PUSH1 0x0 SWAP1 DUP2 MSTORE PUSH1 0x20 PUSH1 0xCA DUP2 MSTORE PUSH1 0x40 DUP1 DUP4 KECCAK256 SLOAD SWAP3 PUSH1 0xC DUP2 SWAP6 ADD SWAP3 DUP4 SLOAD SWAP4 DUP3 JUMPDEST DUP6 DUP2 LT PUSH2 0x3470 JUMPI POP POP POP POP POP POP PUSH1 0x1 SHR GT ISZERO SWAP1 JUMP JUMPDEST PUSH1 0x1 PUSH1 0x1 PUSH1 0xA0 SHL SUB PUSH2 0x3482 DUP3 DUP5 PUSH2 0x3212 JUMP JUMPDEST SWAP2 SWAP1 SLOAD DUP4 DUP8 MSTORE PUSH1 0xCE DUP7 MSTORE DUP8 DUP8 KECCAK256 SWAP3 PUSH1 0x3 SHL SHR AND DUP6 MSTORE DUP4 MSTORE PUSH1 0xFF DUP6 DUP6 KECCAK256 SLOAD AND PUSH2 0x34B3 JUMPI JUMPDEST PUSH2 0x34AE SWAP1 PUSH2 0x30F9 JUMP JUMPDEST PUSH2 0x345B JUMP JUMPDEST SWAP7 PUSH2 0x34C0 PUSH2 0x34AE SWAP2 PUSH2 0x30F9 JUMP JUMPDEST SWAP8 SWAP1 POP PUSH2 0x34A5 JUMP JUMPDEST SWAP2 SWAP1 PUSH1 0x1 DUP4 ADD PUSH1 0x0 SWAP1 DUP3 DUP3 MSTORE DUP1 PUSH1 0x20 MSTORE PUSH1 0x40 DUP3 KECCAK256 SLOAD ISZERO PUSH1 0x0 EQ PUSH2 0x3544 JUMPI DUP5 SLOAD SWAP5 PUSH9 0x10000000000000000 DUP7 LT ISZERO PUSH2 0x3530 JUMPI PUSH2 0x350D DUP7 PUSH1 0x1 PUSH1 0x40 SWAP7 SWAP8 SWAP9 ADD DUP4 SSTORE DUP3 PUSH2 0x3212 JUMP JUMPDEST DUP2 SLOAD SWAP1 PUSH1 0x3 SHL SWAP1 DUP8 DUP3 SHL SWAP2 PUSH1 0x0 NOT SWAP1 SHL NOT AND OR SWAP1 SSTORE SLOAD SWAP4 DUP3 MSTORE PUSH1 0x20 MSTORE KECCAK256 SSTORE PUSH1 0x1 SWAP1 JUMP JUMPDEST PUSH4 0x4E487B71 PUSH1 0xE0 SHL DUP4 MSTORE PUSH1 0x41 PUSH1 0x4 MSTORE PUSH1 0x24 DUP4 REVERT JUMPDEST POP SWAP3 POP POP JUMP INVALID LOG1 PUSH5 0x736F6C6343 STOP ADDMOD SLT STOP EXP "},"methodIdentifiers":{"_campaignOfEntrepreneurByIndex(address,uint256)":"24777746","approveFundReleaseRequest(uint256)":"a7247cd9","campaigns(uint256)":"141961bc","confirmFundsReceived(uint256)":"ae1f6802","createCampaign(uint256,uint256,uint256,string,string,string)":"1ad417bf","createFundReleaseRequest(uint256,uint256,address)":"70debcf7","donateToCampaign(uint256)":"42a4fda8","getAllDonations(uint256)":"ffa676d1","getAllDonators(uint256)":"e27883fb","getCampaignById(uint256)":"e6ffcaa1","getCampaigns()":"a6b03633","getCampaignsByEntrepreneur(address)":"efb80183","getInvestorDonations(uint256)":"67c2cbad","getTotalCampaignsByInvestor(address)":"8e5baa62","initialize()":"8129fc1c","loginUser(string,string)":"22ce12e5","owner()":"8da5cb5b","proxiableUUID()":"52d1902d","registerUser(string,string,uint8)":"2e17a931","releaseFundsToVendors(uint256)":"74c49fd5","renounceOwnership()":"715018a6","transferOwnership(address)":"f2fde38b","upgradeTo(address)":"3659cfe6","upgradeToAndCall(address,bytes)":"4f1ef286","users(address)":"a87430ba"}},"storageLayout":{"storage":[{"astId":503,"contract":"contracts/CampaignRegistry.sol:CampaignRegistry","label":"_initialized","offset":0,"slot":"0","type":"t_uint8"},{"astId":506,"contract":"contracts/CampaignRegistry.sol:CampaignRegistry","label":"_initializing","offset":1,"slot":"0","type":"t_bool"},{"astId":1172,"contract":"contracts/CampaignRegistry.sol:CampaignRegistry","label":"__gap","offset":0,"slot":"1","type":"t_array(t_uint256)50_storage"},{"astId":10,"contract":"contracts/CampaignRegistry.sol:CampaignRegistry","label":"_owner","offset":0,"slot":"51","type":"t_address"},{"astId":130,"contract":"contracts/CampaignRegistry.sol:CampaignRegistry","label":"__gap","offset":0,"slot":"52","type":"t_array(t_uint256)49_storage"},{"astId":485,"contract":"contracts/CampaignRegistry.sol:CampaignRegistry","label":"__gap","offset":0,"slot":"101","type":"t_array(t_uint256)50_storage"},{"astId":800,"contract":"contracts/CampaignRegistry.sol:CampaignRegistry","label":"__gap","offset":0,"slot":"151","type":"t_array(t_uint256)50_storage"},{"astId":1919,"contract":"contracts/CampaignRegistry.sol:CampaignRegistry","label":"campaignIdCounter","offset":0,"slot":"201","type":"t_uint256"},{"astId":1923,"contract":"contracts/CampaignRegistry.sol:CampaignRegistry","label":"donationCount","offset":0,"slot":"202","type":"t_mapping(t_uint256,t_uint256)"},{"astId":1929,"contract":"contracts/CampaignRegistry.sol:CampaignRegistry","label":"users","offset":0,"slot":"203","type":"t_mapping(t_address,t_struct(User)3290_storage)"},{"astId":1935,"contract":"contracts/CampaignRegistry.sol:CampaignRegistry","label":"campaigns","offset":0,"slot":"204","type":"t_mapping(t_uint256,t_struct(Campaign)3325_storage)"},{"astId":1941,"contract":"contracts/CampaignRegistry.sol:CampaignRegistry","label":"contributions","offset":0,"slot":"205","type":"t_mapping(t_uint256,t_mapping(t_address,t_uint256))"},{"astId":1947,"contract":"contracts/CampaignRegistry.sol:CampaignRegistry","label":"campaignInvestorApprovals","offset":0,"slot":"206","type":"t_mapping(t_uint256,t_mapping(t_address,t_bool))"},{"astId":1952,"contract":"contracts/CampaignRegistry.sol:CampaignRegistry","label":"_campaignsOwnedByEntrepreneur","offset":0,"slot":"207","type":"t_mapping(t_address,t_struct(UintSet)1766_storage)"}],"types":{"t_address":{"encoding":"inplace","label":"address","numberOfBytes":"20"},"t_address_payable":{"encoding":"inplace","label":"address payable","numberOfBytes":"20"},"t_array(t_address)dyn_storage":{"base":"t_address","encoding":"dynamic_array","label":"address[]","numberOfBytes":"32"},"t_array(t_bytes32)dyn_storage":{"base":"t_bytes32","encoding":"dynamic_array","label":"bytes32[]","numberOfBytes":"32"},"t_array(t_uint256)49_storage":{"base":"t_uint256","encoding":"inplace","label":"uint256[49]","numberOfBytes":"1568"},"t_array(t_uint256)50_storage":{"base":"t_uint256","encoding":"inplace","label":"uint256[50]","numberOfBytes":"1600"},"t_bool":{"encoding":"inplace","label":"bool","numberOfBytes":"1"},"t_bytes32":{"encoding":"inplace","label":"bytes32","numberOfBytes":"32"},"t_enum(CampaignStatus)3274":{"encoding":"inplace","label":"enum ICampaignRegistry.CampaignStatus","numberOfBytes":"1"},"t_enum(Category)3278":{"encoding":"inplace","label":"enum ICampaignRegistry.Category","numberOfBytes":"1"},"t_mapping(t_address,t_bool)":{"encoding":"mapping","key":"t_address","label":"mapping(address => bool)","numberOfBytes":"32","value":"t_bool"},"t_mapping(t_address,t_struct(UintSet)1766_storage)":{"encoding":"mapping","key":"t_address","label":"mapping(address => struct EnumerableSetUpgradeable.UintSet)","numberOfBytes":"32","value":"t_struct(UintSet)1766_storage"},"t_mapping(t_address,t_struct(User)3290_storage)":{"encoding":"mapping","key":"t_address","label":"mapping(address => struct ICampaignRegistry.User)","numberOfBytes":"32","value":"t_struct(User)3290_storage"},"t_mapping(t_address,t_uint256)":{"encoding":"mapping","key":"t_address","label":"mapping(address => uint256)","numberOfBytes":"32","value":"t_uint256"},"t_mapping(t_bytes32,t_uint256)":{"encoding":"mapping","key":"t_bytes32","label":"mapping(bytes32 => uint256)","numberOfBytes":"32","value":"t_uint256"},"t_mapping(t_uint256,t_mapping(t_address,t_bool))":{"encoding":"mapping","key":"t_uint256","label":"mapping(uint256 => mapping(address => bool))","numberOfBytes":"32","value":"t_mapping(t_address,t_bool)"},"t_mapping(t_uint256,t_mapping(t_address,t_uint256))":{"encoding":"mapping","key":"t_uint256","label":"mapping(uint256 => mapping(address => uint256))","numberOfBytes":"32","value":"t_mapping(t_address,t_uint256)"},"t_mapping(t_uint256,t_struct(Campaign)3325_storage)":{"encoding":"mapping","key":"t_uint256","label":"mapping(uint256 => struct ICampaignRegistry.Campaign)","numberOfBytes":"32","value":"t_struct(Campaign)3325_storage"},"t_mapping(t_uint256,t_uint256)":{"encoding":"mapping","key":"t_uint256","label":"mapping(uint256 => uint256)","numberOfBytes":"32","value":"t_uint256"},"t_string_storage":{"encoding":"bytes","label":"string","numberOfBytes":"32"},"t_struct(Campaign)3325_storage":{"encoding":"inplace","label":"struct ICampaignRegistry.Campaign","members":[{"astId":3292,"contract":"contracts/CampaignRegistry.sol:CampaignRegistry","label":"campaignId","offset":0,"slot":"0","type":"t_uint256"},{"astId":3294,"contract":"contracts/CampaignRegistry.sol:CampaignRegistry","label":"targetAmount","offset":0,"slot":"1","type":"t_uint256"},{"astId":3296,"contract":"contracts/CampaignRegistry.sol:CampaignRegistry","label":"raisedAmount","offset":0,"slot":"2","type":"t_uint256"},{"astId":3298,"contract":"contracts/CampaignRegistry.sol:CampaignRegistry","label":"requestAmount","offset":0,"slot":"3","type":"t_uint256"},{"astId":3300,"contract":"contracts/CampaignRegistry.sol:CampaignRegistry","label":"deadline","offset":0,"slot":"4","type":"t_uint256"},{"astId":3302,"contract":"contracts/CampaignRegistry.sol:CampaignRegistry","label":"completeAt","offset":0,"slot":"5","type":"t_uint256"},{"astId":3304,"contract":"contracts/CampaignRegistry.sol:CampaignRegistry","label":"minimumContribution","offset":0,"slot":"6","type":"t_uint256"},{"astId":3306,"contract":"contracts/CampaignRegistry.sol:CampaignRegistry","label":"imageUri","offset":0,"slot":"7","type":"t_string_storage"},{"astId":3308,"contract":"contracts/CampaignRegistry.sol:CampaignRegistry","label":"campaignTitle","offset":0,"slot":"8","type":"t_string_storage"},{"astId":3310,"contract":"contracts/CampaignRegistry.sol:CampaignRegistry","label":"campaignDescription","offset":0,"slot":"9","type":"t_string_storage"},{"astId":3312,"contract":"contracts/CampaignRegistry.sol:CampaignRegistry","label":"entrepreneur","offset":0,"slot":"10","type":"t_address"},{"astId":3314,"contract":"contracts/CampaignRegistry.sol:CampaignRegistry","label":"vendor","offset":0,"slot":"11","type":"t_address_payable"},{"astId":3317,"contract":"contracts/CampaignRegistry.sol:CampaignRegistry","label":"investors","offset":0,"slot":"12","type":"t_array(t_address)dyn_storage"},{"astId":3320,"contract":"contracts/CampaignRegistry.sol:CampaignRegistry","label":"status","offset":0,"slot":"13","type":"t_enum(CampaignStatus)3274"},{"astId":3322,"contract":"contracts/CampaignRegistry.sol:CampaignRegistry","label":"requestCreated","offset":1,"slot":"13","type":"t_bool"},{"astId":3324,"contract":"contracts/CampaignRegistry.sol:CampaignRegistry","label":"fundsReceived","offset":2,"slot":"13","type":"t_bool"}],"numberOfBytes":"448"},"t_struct(Set)1294_storage":{"encoding":"inplace","label":"struct EnumerableSetUpgradeable.Set","members":[{"astId":1289,"contract":"contracts/CampaignRegistry.sol:CampaignRegistry","label":"_values","offset":0,"slot":"0","type":"t_array(t_bytes32)dyn_storage"},{"astId":1293,"contract":"contracts/CampaignRegistry.sol:CampaignRegistry","label":"_indexes","offset":0,"slot":"1","type":"t_mapping(t_bytes32,t_uint256)"}],"numberOfBytes":"64"},"t_struct(UintSet)1766_storage":{"encoding":"inplace","label":"struct EnumerableSetUpgradeable.UintSet","members":[{"astId":1765,"contract":"contracts/CampaignRegistry.sol:CampaignRegistry","label":"_inner","offset":0,"slot":"0","type":"t_struct(Set)1294_storage"}],"numberOfBytes":"64"},"t_struct(User)3290_storage":{"encoding":"inplace","label":"struct ICampaignRegistry.User","members":[{"astId":3280,"contract":"contracts/CampaignRegistry.sol:CampaignRegistry","label":"email","offset":0,"slot":"0","type":"t_string_storage"},{"astId":3282,"contract":"contracts/CampaignRegistry.sol:CampaignRegistry","label":"password","offset":0,"slot":"1","type":"t_string_storage"},{"astId":3285,"contract":"contracts/CampaignRegistry.sol:CampaignRegistry","label":"category","offset":0,"slot":"2","type":"t_enum(Category)3278"},{"astId":3287,"contract":"contracts/CampaignRegistry.sol:CampaignRegistry","label":"walletAddress","offset":1,"slot":"2","type":"t_address"},{"astId":3289,"contract":"contracts/CampaignRegistry.sol:CampaignRegistry","label":"verified","offset":21,"slot":"2","type":"t_bool"}],"numberOfBytes":"96"},"t_uint256":{"encoding":"inplace","label":"uint256","numberOfBytes":"32"},"t_uint8":{"encoding":"inplace","label":"uint8","numberOfBytes":"1"}}}}}}