{"contracts/CampaignRegistry.sol":{"CampaignRegistry":{"abi":[{"anonymous":false,"inputs":[{"indexed":false,"internalType":"address","name":"previousAdmin","type":"address"},{"indexed":false,"internalType":"address","name":"newAdmin","type":"address"}],"name":"AdminChanged","type":"event"},{"anonymous":false,"inputs":[{"indexed":true,"internalType":"address","name":"beacon","type":"address"}],"name":"BeaconUpgraded","type":"event"},{"anonymous":false,"inputs":[{"indexed":false,"internalType":"uint256","name":"campaignId","type":"uint256"},{"indexed":false,"internalType":"address","name":"entrepreneur","type":"address"},{"indexed":false,"internalType":"uint256","name":"targetAmount","type":"uint256"},{"indexed":false,"internalType":"uint256","name":"deadline","type":"uint256"}],"name":"CampaignCreated","type":"event"},{"anonymous":false,"inputs":[{"indexed":false,"internalType":"uint256","name":"campaignId","type":"uint256"},{"indexed":false,"internalType":"address","name":"investor","type":"address"},{"indexed":false,"internalType":"uint256","name":"amount","type":"uint256"}],"name":"ContributionMade","type":"event"},{"anonymous":false,"inputs":[{"indexed":false,"internalType":"uint256","name":"campaignId","type":"uint256"},{"indexed":false,"internalType":"address","name":"vendor","type":"address"},{"indexed":false,"internalType":"uint256","name":"amount","type":"uint256"}],"name":"FundsReleased","type":"event"},{"anonymous":false,"inputs":[{"indexed":false,"internalType":"uint8","name":"version","type":"uint8"}],"name":"Initialized","type":"event"},{"anonymous":false,"inputs":[{"indexed":true,"internalType":"address","name":"previousOwner","type":"address"},{"indexed":true,"internalType":"address","name":"newOwner","type":"address"}],"name":"OwnershipTransferred","type":"event"},{"anonymous":false,"inputs":[{"indexed":false,"internalType":"uint256","name":"campaignId","type":"uint256"},{"indexed":false,"internalType":"address","name":"investor","type":"address"}],"name":"RequestApproved","type":"event"},{"anonymous":false,"inputs":[{"indexed":false,"internalType":"uint256","name":"campaignId","type":"uint256"},{"indexed":false,"internalType":"uint256","name":"requestAmount","type":"uint256"}],"name":"RequestCreated","type":"event"},{"anonymous":false,"inputs":[{"indexed":true,"internalType":"address","name":"implementation","type":"address"}],"name":"Upgraded","type":"event"},{"inputs":[{"internalType":"uint256","name":"_campaignId","type":"uint256"}],"name":"approveFundReleaseRequest","outputs":[],"stateMutability":"nonpayable","type":"function"},{"inputs":[{"internalType":"uint256","name":"","type":"uint256"}],"name":"campaigns","outputs":[{"internalType":"uint256","name":"targetAmount","type":"uint256"},{"internalType":"uint256","name":"raisedAmount","type":"uint256"},{"internalType":"uint256","name":"requestAmount","type":"uint256"},{"internalType":"uint256","name":"deadline","type":"uint256"},{"internalType":"uint256","name":"completeAt","type":"uint256"},{"internalType":"string","name":"image","type":"string"},{"internalType":"string","name":"campaignTitle","type":"string"},{"internalType":"string","name":"campaignDescription","type":"string"},{"internalType":"address","name":"entrepreneur","type":"address"},{"internalType":"enum ICampaignRegistry.CampaignStatus","name":"status","type":"uint8"},{"internalType":"bool","name":"requestCreated","type":"bool"}],"stateMutability":"view","type":"function"},{"inputs":[{"internalType":"uint256","name":"_targetAmount","type":"uint256"},{"internalType":"uint256","name":"_duration","type":"uint256"}],"name":"createCampaign","outputs":[],"stateMutability":"nonpayable","type":"function"},{"inputs":[{"internalType":"uint256","name":"_campaignId","type":"uint256"},{"internalType":"uint256","name":"_requestAmount","type":"uint256"}],"name":"createFundReleaseRequest","outputs":[],"stateMutability":"nonpayable","type":"function"},{"inputs":[{"internalType":"uint256","name":"_campaignId","type":"uint256"}],"name":"donateToCampaign","outputs":[],"stateMutability":"payable","type":"function"},{"inputs":[{"internalType":"uint256","name":"_campaignId","type":"uint256"}],"name":"getAllDonations","outputs":[{"internalType":"uint256[]","name":"","type":"uint256[]"}],"stateMutability":"view","type":"function"},{"inputs":[{"internalType":"uint256","name":"_campaignId","type":"uint256"}],"name":"getAllDonors","outputs":[{"internalType":"address[]","name":"","type":"address[]"}],"stateMutability":"view","type":"function"},{"inputs":[{"internalType":"uint256","name":"_campaignId","type":"uint256"}],"name":"getCampaignContributors","outputs":[{"internalType":"uint256","name":"","type":"uint256"}],"stateMutability":"view","type":"function"},{"inputs":[],"name":"getCampaignCount","outputs":[{"internalType":"uint256","name":"","type":"uint256"}],"stateMutability":"view","type":"function"},{"inputs":[],"name":"getCampaigns","outputs":[{"components":[{"internalType":"uint256","name":"targetAmount","type":"uint256"},{"internalType":"uint256","name":"raisedAmount","type":"uint256"},{"internalType":"uint256","name":"requestAmount","type":"uint256"},{"internalType":"uint256","name":"deadline","type":"uint256"},{"internalType":"uint256","name":"completeAt","type":"uint256"},{"internalType":"string","name":"image","type":"string"},{"internalType":"string","name":"campaignTitle","type":"string"},{"internalType":"string","name":"campaignDescription","type":"string"},{"internalType":"address","name":"entrepreneur","type":"address"},{"internalType":"enum ICampaignRegistry.CampaignStatus","name":"status","type":"uint8"},{"internalType":"address[]","name":"vendors","type":"address[]"},{"internalType":"bool","name":"requestCreated","type":"bool"}],"internalType":"struct ICampaignRegistry.Campaign[]","name":"","type":"tuple[]"}],"stateMutability":"view","type":"function"},{"inputs":[{"internalType":"uint256","name":"_campaignId","type":"uint256"},{"internalType":"address","name":"_contributor","type":"address"}],"name":"getContribution","outputs":[{"internalType":"uint256","name":"","type":"uint256"}],"stateMutability":"view","type":"function"},{"inputs":[{"internalType":"uint256","name":"_campaignId","type":"uint256"}],"name":"getDonations","outputs":[{"internalType":"address[]","name":"","type":"address[]"},{"internalType":"uint256[]","name":"","type":"uint256[]"}],"stateMutability":"view","type":"function"},{"inputs":[{"internalType":"address","name":"_investor","type":"address"}],"name":"getTotalCampaignsByInvestor","outputs":[{"internalType":"uint256","name":"","type":"uint256"}],"stateMutability":"view","type":"function"},{"inputs":[],"name":"initialize","outputs":[],"stateMutability":"nonpayable","type":"function"},{"inputs":[{"internalType":"string","name":"_email","type":"string"},{"internalType":"string","name":"_password","type":"string"}],"name":"loginUser","outputs":[{"internalType":"bool","name":"","type":"bool"}],"stateMutability":"view","type":"function"},{"inputs":[],"name":"owner","outputs":[{"internalType":"address","name":"","type":"address"}],"stateMutability":"view","type":"function"},{"inputs":[],"name":"proxiableUUID","outputs":[{"internalType":"bytes32","name":"","type":"bytes32"}],"stateMutability":"view","type":"function"},{"inputs":[{"internalType":"string","name":"_email","type":"string"},{"internalType":"string","name":"_password","type":"string"},{"internalType":"address","name":"_walletAddress","type":"address"},{"internalType":"enum ICampaignRegistry.Category","name":"_category","type":"uint8"}],"name":"registerUser","outputs":[],"stateMutability":"nonpayable","type":"function"},{"inputs":[],"name":"renounceOwnership","outputs":[],"stateMutability":"nonpayable","type":"function"},{"inputs":[{"internalType":"address","name":"newOwner","type":"address"}],"name":"transferOwnership","outputs":[],"stateMutability":"nonpayable","type":"function"},{"inputs":[{"internalType":"address","name":"newImplementation","type":"address"}],"name":"upgradeTo","outputs":[],"stateMutability":"nonpayable","type":"function"},{"inputs":[{"internalType":"address","name":"newImplementation","type":"address"},{"internalType":"bytes","name":"data","type":"bytes"}],"name":"upgradeToAndCall","outputs":[],"stateMutability":"payable","type":"function"},{"inputs":[{"internalType":"address","name":"","type":"address"}],"name":"users","outputs":[{"internalType":"string","name":"email","type":"string"},{"internalType":"string","name":"password","type":"string"},{"internalType":"enum ICampaignRegistry.Category","name":"category","type":"uint8"},{"internalType":"address","name":"walletAddress","type":"address"},{"internalType":"bool","name":"verified","type":"bool"}],"stateMutability":"view","type":"function"}],"evm":{"bytecode":{"linkReferences":{},"object":"60a06040523060805234801561001457600080fd5b5060805161374d61004c60003960008181610a9001528181610b1501528181610fee015281816110730152611154015261374d6000f3fe6080604052600436106101805760003560e01c806374a29cd2116100d6578063a87430ba1161007f578063e9dea52511610059578063e9dea52514610458578063f2fde38b14610485578063ffa676d1146104a557600080fd5b8063a87430ba146103c4578063d1233672146103f5578063e081dbf91461041557600080fd5b80638e5baa62116100b05780638e5baa6214610362578063a6b0363314610382578063a7247cd9146103a457600080fd5b806374a29cd2146103055780638129fc1c146103255780638da5cb5b1461033a57600080fd5b806342a4fda811610138578063596d9ce211610112578063596d9ce2146102ad5780636caa9218146102db578063715018a6146102f057600080fd5b806342a4fda8146102645780634f1ef2861461027757806352d1902d1461028a57600080fd5b806322ce12e51161016957806322ce12e5146101e75780632495efb8146102175780633659cfe61461024457600080fd5b8063141961bc1461018557806322502268146101c5575b600080fd5b34801561019157600080fd5b506101a56101a0366004612e76565b6104d2565b6040516101bc9b9a99989796959493929190612f20565b60405180910390f35b3480156101d157600080fd5b506101e56101e0366004612fb6565b6106d7565b005b3480156101f357600080fd5b50610207610202366004613084565b61098c565b60405190151581526020016101bc565b34801561022357600080fd5b50610237610232366004612e76565b610a14565b6040516101bc919061312c565b34801561025057600080fd5b506101e561025f36600461315b565b610a86565b6101e5610272366004612e76565b610bf8565b6101e5610285366004613176565b610fe4565b34801561029657600080fd5b5061029f611147565b6040519081526020016101bc565b3480156102b957600080fd5b506102cd6102c8366004612e76565b61120c565b6040516101bc9291906131fe565b3480156102e757600080fd5b5060c95461029f565b3480156102fc57600080fd5b506101e5611379565b34801561031157600080fd5b506101e5610320366004612fb6565b61138d565b34801561033157600080fd5b506101e56116e8565b34801561034657600080fd5b506033546040516001600160a01b0390911681526020016101bc565b34801561036e57600080fd5b5061029f61037d36600461315b565b61180f565b34801561038e57600080fd5b5061039761186d565b6040516101bc919061322c565b3480156103b057600080fd5b506101e56103bf366004612e76565b611bc5565b3480156103d057600080fd5b506103e46103df36600461315b565b611f30565b6040516101bc95949392919061336a565b34801561040157600080fd5b506101e56104103660046133c2565b612080565b34801561042157600080fd5b5061029f61043036600461344d565b600091825260cd602090815260408084206001600160a01b0393909316845291905290205490565b34801561046457600080fd5b5061029f610473366004612e76565b600090815260ca602052604090205490565b34801561049157600080fd5b506101e56104a036600461315b565b612306565b3480156104b157600080fd5b506104c56104c0366004612e76565b612393565b6040516101bc9190613479565b60cc6020528060005260406000206000915090508060000154908060010154908060020154908060030154908060040154908060050180546105139061348c565b80601f016020809104026020016040519081016040528092919081815260200182805461053f9061348c565b801561058c5780601f106105615761010080835404028352916020019161058c565b820191906000526020600020905b81548152906001019060200180831161056f57829003601f168201915b5050505050908060060180546105a19061348c565b80601f01602080910402602001604051908101604052809291908181526020018280546105cd9061348c565b801561061a5780601f106105ef5761010080835404028352916020019161061a565b820191906000526020600020905b8154815290600101906020018083116105fd57829003601f168201915b50505050509080600701805461062f9061348c565b80601f016020809104026020016040519081016040528092919081815260200182805461065b9061348c565b80156106a85780601f1061067d576101008083540402835291602001916106a8565b820191906000526020600020905b81548152906001019060200180831161068b57829003601f168201915b5050506008840154600a9094015492936001600160a01b0381169360ff600160a01b909204821693501690508b565b33600090815260cb6020526040902060020154600160a81b900460ff166107515760405162461bcd60e51b815260206004820152602360248201527f4f6e6c792076657269666965642075736572732063616e20706172746963697060448201526261746560e81b60648201526084015b60405180910390fd5b60008033600090815260cb6020526040902060029081015460ff169081111561077c5761077c612edf565b146107ef5760405162461bcd60e51b815260206004820152603c60248201527f4f6e6c79207573657273206f662074686520737065636966696564206361746560448201527f676f72792063616e20706572666f726d207468697320616374696f6e000000006064820152608401610748565b600083116108655760405162461bcd60e51b815260206004820152602760248201527f54617267657420616d6f756e74206d757374206265206772656174657220746860448201527f616e207a65726f000000000000000000000000000000000000000000000000006064820152608401610748565b600082116108c05760405162461bcd60e51b815260206004820152602260248201527f4475726174696f6e206d7573742062652067726561746572207468616e207a65604482015261726f60f01b6064820152608401610748565b60006108cc83426134d6565b60c98054600090815260cc60205260408120600881018054898355600383018690557fffffffffffffffffffffff000000000000000000000000000000000000000000163360ff60a01b1916179055825493945092919061092c836134e9565b91905055507f91b289a829e71d811b8c69e4a24ba2d40d115d8a236e9a724cb3bb2d43cf7223600160c9546109619190613502565b6040805191825233602083015281018790526060810184905260800160405180910390a15050505050565b33600090815260cb602052604081206002810154600160a81b900460ff1680156109d05750835160208501206040516109c6908390613515565b6040518091039020145b80156109f95750825160208401206040516109ef906001840190613515565b6040518091039020145b15610a08576001915050610a0e565b60009150505b92915050565b600081815260cc60209081526040918290206009810180548451818502810185019095528085526060949293830182828015610a7957602002820191906000526020600020905b81546001600160a01b03168152600190910190602001808311610a5b575b5050505050915050919050565b6001600160a01b037f0000000000000000000000000000000000000000000000000000000000000000163003610b135760405162461bcd60e51b815260206004820152602c60248201527f46756e6374696f6e206d7573742062652063616c6c6564207468726f7567682060448201526b19195b1959d85d1958d85b1b60a21b6064820152608401610748565b7f00000000000000000000000000000000000000000000000000000000000000006001600160a01b0316610b6e7f360894a13ba1a3210667c828492db98dca3e2076cc3735a920a3ca505d382bbc546001600160a01b031690565b6001600160a01b031614610bd95760405162461bcd60e51b815260206004820152602c60248201527f46756e6374696f6e206d7573742062652063616c6c6564207468726f7567682060448201526b6163746976652070726f787960a01b6064820152608401610748565b60408051600080825260208201909252610bf59183919061247e565b50565b33600090815260cb6020526040902060020154600160a81b900460ff16610c6d5760405162461bcd60e51b815260206004820152602360248201527f4f6e6c792076657269666965642075736572732063616e20706172746963697060448201526261746560e81b6064820152608401610748565b60018033600090815260cb6020526040902060029081015460ff1690811115610c9857610c98612edf565b14610d0b5760405162461bcd60e51b815260206004820152603c60248201527f4f6e6c79207573657273206f662074686520737065636966696564206361746560448201527f676f72792063616e20706572666f726d207468697320616374696f6e000000006064820152608401610748565b81600080600083815260cc6020526040902060080154600160a01b900460ff166002811115610d3c57610d3c612edf565b14610d895760405162461bcd60e51b815260206004820152600d60248201527f496e76616c6964207374617465000000000000000000000000000000000000006044820152606401610748565b600082815260cc60205260409020600301544210610de95760405162461bcd60e51b815260206004820152601560248201527f446561646c696e652068617320706173736564202100000000000000000000006044820152606401610748565b600084815260cc60205260408120906008820154600160a01b900460ff166002811115610e1857610e18612edf565b14610e655760405162461bcd60e51b815260206004820152601760248201527f43616d706169676e206973206e6f74206f6e676f696e670000000000000000006044820152606401610748565b80600301544210610eb85760405162461bcd60e51b815260206004820152601960248201527f43616d706169676e20706572696f642068617320656e646564000000000000006044820152606401610748565b60003411610f2e5760405162461bcd60e51b815260206004820152602960248201527f446f6e6174696f6e20616d6f756e74206d75737420626520677265617465722060448201527f7468616e207a65726f00000000000000000000000000000000000000000000006064820152608401610748565b600085815260cd6020908152604080832033845290915281208054349290610f579084906134d6565b9250508190555034816001016000828254610f7291906134d6565b9091555050600085815260ca60205260408120805491610f91836134e9565b909155505060408051868152336020820152348183015290517f0a4a91237423e0a1766a761c7cb029311d8b95d6b1b81db1b949a70c98b4e08e9181900360600190a1610fdd8561261e565b5050505050565b6001600160a01b037f00000000000000000000000000000000000000000000000000000000000000001630036110715760405162461bcd60e51b815260206004820152602c60248201527f46756e6374696f6e206d7573742062652063616c6c6564207468726f7567682060448201526b19195b1959d85d1958d85b1b60a21b6064820152608401610748565b7f00000000000000000000000000000000000000000000000000000000000000006001600160a01b03166110cc7f360894a13ba1a3210667c828492db98dca3e2076cc3735a920a3ca505d382bbc546001600160a01b031690565b6001600160a01b0316146111375760405162461bcd60e51b815260206004820152602c60248201527f46756e6374696f6e206d7573742062652063616c6c6564207468726f7567682060448201526b6163746976652070726f787960a01b6064820152608401610748565b6111438282600161247e565b5050565b6000306001600160a01b037f000000000000000000000000000000000000000000000000000000000000000016146111e75760405162461bcd60e51b815260206004820152603860248201527f555550535570677261646561626c653a206d757374206e6f742062652063616c60448201527f6c6564207468726f7567682064656c656761746563616c6c00000000000000006064820152608401610748565b507f360894a13ba1a3210667c828492db98dca3e2076cc3735a920a3ca505d382bbc90565b600081815260cc602052604081206009810154606092839291908167ffffffffffffffff81111561123f5761123f612fd8565b604051908082528060200260200182016040528015611268578160200160208202803683370190505b50905060008267ffffffffffffffff81111561128657611286612fd8565b6040519080825280602002602001820160405280156112af578160200160208202803683370190505b50905060005b8381101561136c5760008560090182815481106112d4576112d461358b565b9060005260206000200160009054906101000a90046001600160a01b03169050808483815181106113075761130761358b565b6001600160a01b0392831660209182029290920181019190915260008b815260cd825260408082209385168252929091522054835184908490811061134e5761134e61358b565b60209081029190910101525080611364816134e9565b9150506112b5565b5090969095509350505050565b6113816126c4565b61138b600061271e565b565b33600090815260cb6020526040902060020154600160a81b900460ff166114025760405162461bcd60e51b815260206004820152602360248201527f4f6e6c792076657269666965642075736572732063616e20706172746963697060448201526261746560e81b6064820152608401610748565b60008033600090815260cb6020526040902060029081015460ff169081111561142d5761142d612edf565b146114a05760405162461bcd60e51b815260206004820152603c60248201527f4f6e6c79207573657273206f662074686520737065636966696564206361746560448201527f676f72792063616e20706572666f726d207468697320616374696f6e000000006064820152608401610748565b600083815260cc60205260408120906008820154600160a01b900460ff1660028111156114cf576114cf612edf565b1461151c5760405162461bcd60e51b815260206004820152601760248201527f43616d706169676e206973206e6f74206f6e676f696e670000000000000000006044820152606401610748565b60088101546001600160a01b0316331461159e5760405162461bcd60e51b815260206004820152602a60248201527f4f6e6c792074686520656e7472657072656e6575722063616e2063726561746560448201527f20612072657175657374000000000000000000000000000000000000000000006064820152608401610748565b600a81015460ff16156116195760405162461bcd60e51b815260206004820152603460248201527f4120726571756573742068617320616c7265616479206265656e20637265617460448201527f656420666f7220746869732063616d706169676e0000000000000000000000006064820152608401610748565b80600101548311156116935760405162461bcd60e51b815260206004820152603e60248201527f5265717565737420616d6f756e74206d757374206265206c657373207468616e60448201527f206f7220657175616c20746f207468652072616973656420616d6f756e7400006064820152608401610748565b60028101839055600a8101805460ff1916600117905560408051858152602081018590527f99f063607b2d9f794eb8985daf4a0d3224e73b48e43228a183329e415dff077e910160405180910390a150505050565b600054610100900460ff16158080156117085750600054600160ff909116105b806117225750303b158015611722575060005460ff166001145b6117945760405162461bcd60e51b815260206004820152602e60248201527f496e697469616c697a61626c653a20636f6e747261637420697320616c72656160448201527f647920696e697469616c697a65640000000000000000000000000000000000006064820152608401610748565b6000805460ff1916600117905580156117b7576000805461ff0019166101001790555b6117bf61277d565b6117c76127f0565b8015610bf5576000805461ff0019169055604051600181527f7f26b83ff96e1f2b6a682f133852f6798a09c465da95921460cefb38474024989060200160405180910390a150565b600080805b60c95481101561186657600081815260cd602090815260408083206001600160a01b0388168452909152902054156118545781611850816134e9565b9250505b8061185e816134e9565b915050611814565b5092915050565b6060600060c95467ffffffffffffffff81111561188c5761188c612fd8565b6040519080825280602002602001820160405280156118c557816020015b6118b2612dfb565b8152602001906001900390816118aa5790505b50905060005b60c954811015611bbf5760cc60008281526020019081526020016000206040518061018001604052908160008201548152602001600182015481526020016002820154815260200160038201548152602001600482015481526020016005820180546119369061348c565b80601f01602080910402602001604051908101604052809291908181526020018280546119629061348c565b80156119af5780601f10611984576101008083540402835291602001916119af565b820191906000526020600020905b81548152906001019060200180831161199257829003601f168201915b505050505081526020016006820180546119c89061348c565b80601f01602080910402602001604051908101604052809291908181526020018280546119f49061348c565b8015611a415780601f10611a1657610100808354040283529160200191611a41565b820191906000526020600020905b815481529060010190602001808311611a2457829003601f168201915b50505050508152602001600782018054611a5a9061348c565b80601f0160208091040260200160405190810160405280929190818152602001828054611a869061348c565b8015611ad35780601f10611aa857610100808354040283529160200191611ad3565b820191906000526020600020905b815481529060010190602001808311611ab657829003601f168201915b505050918352505060088201546001600160a01b0381166020830152604090910190600160a01b900460ff166002811115611b1057611b10612edf565b6002811115611b2157611b21612edf565b815260200160098201805480602002602001604051908101604052809291908181526020018280548015611b7e57602002820191906000526020600020905b81546001600160a01b03168152600190910190602001808311611b60575b5050509183525050600a919091015460ff1615156020909101528251839083908110611bac57611bac61358b565b60209081029190910101526001016118cb565b50919050565b33600090815260cb6020526040902060020154600160a81b900460ff16611c3a5760405162461bcd60e51b815260206004820152602360248201527f4f6e6c792076657269666965642075736572732063616e20706172746963697060448201526261746560e81b6064820152608401610748565b60018033600090815260cb6020526040902060029081015460ff1690811115611c6557611c65612edf565b14611cd85760405162461bcd60e51b815260206004820152603c60248201527f4f6e6c79207573657273206f662074686520737065636966696564206361746560448201527f676f72792063616e20706572666f726d207468697320616374696f6e000000006064820152608401610748565b600082815260cc60205260408120906008820154600160a01b900460ff166002811115611d0757611d07612edf565b14611d545760405162461bcd60e51b815260206004820152601760248201527f43616d706169676e206973206e6f74206f6e676f696e670000000000000000006044820152606401610748565b600083815260cd60209081526040808320338452909152902054611dc65760405162461bcd60e51b8152602060048201526024808201527f4f6e6c7920696e766573746f72732063616e20617070726f76652061207265716044820152631d595cdd60e21b6064820152608401610748565b600a81015460ff16611e265760405162461bcd60e51b815260206004820152602360248201527f4e6f20726571756573742065786973747320666f7220746869732063616d706160448201526234b3b760e91b6064820152608401610748565b600083815260ce6020908152604080832033845290915290205460ff1615611eb65760405162461bcd60e51b815260206004820152602960248201527f496e766573746f722068617320616c726561647920617070726f76656420746860448201527f65207265717565737400000000000000000000000000000000000000000000006064820152608401610748565b600083815260ce602090815260408083203380855290835292819020805460ff191660011790558051868152918201929092527ff3dc904660a0ea05aba8dfa1e21fbc4fb2914be2a3029da7b0fdd3e5eee20ddb910160405180910390a1611f1d8161285b565b15611f2b57611f2b836128fe565b505050565b60cb60205260009081526040902080548190611f4b9061348c565b80601f0160208091040260200160405190810160405280929190818152602001828054611f779061348c565b8015611fc45780601f10611f9957610100808354040283529160200191611fc4565b820191906000526020600020905b815481529060010190602001808311611fa757829003601f168201915b505050505090806001018054611fd99061348c565b80601f01602080910402602001604051908101604052809291908181526020018280546120059061348c565b80156120525780601f1061202757610100808354040283529160200191612052565b820191906000526020600020905b81548152906001019060200180831161203557829003601f168201915b5050506002909301549192505060ff808216916001600160a01b0361010082041691600160a81b9091041685565b60008451116120d15760405162461bcd60e51b815260206004820152601560248201527f456d61696c2063616e6e6f7420626520656d70747900000000000000000000006044820152606401610748565b60008351116121225760405162461bcd60e51b815260206004820152601860248201527f50617373776f72642063616e6e6f7420626520656d70747900000000000000006044820152606401610748565b6001600160a01b0382166121785760405162461bcd60e51b815260206004820152601660248201527f496e76616c69642077616c6c65742061646472657373000000000000000000006044820152606401610748565b33600090815260cb6020526040902060020154600160a81b900460ff16156121e25760405162461bcd60e51b815260206004820152601a60248201527f5573657220697320616c726561647920726567697374657265640000000000006044820152606401610748565b6040518060a0016040528085815260200184815260200182600281111561220b5761220b612edf565b81526001600160a01b038416602080830191909152600160409283015233600090815260cb909152208151819061224290826135ef565b506020820151600182019061225790826135ef565b5060408201518160020160006101000a81548160ff0219169083600281111561228257612282612edf565b02179055506060820151600290910180546080909301511515600160a81b027fffffffffffffffffffff00ffffffffffffffffffffffffffffffffffffffffff6001600160a01b0390931661010002929092167fffffffffffffffffffff000000000000000000000000000000000000000000ff9093169290921717905550505050565b61230e6126c4565b6001600160a01b03811661238a5760405162461bcd60e51b815260206004820152602660248201527f4f776e61626c653a206e6577206f776e657220697320746865207a65726f206160448201527f64647265737300000000000000000000000000000000000000000000000000006064820152608401610748565b610bf58161271e565b600081815260cc6020526040812060098101546060928167ffffffffffffffff8111156123c2576123c2612fd8565b6040519080825280602002602001820160405280156123eb578160200160208202803683370190505b50905060005b828110156124755760008460090182815481106124105761241061358b565b600091825260208083209091015489835260cd825260408084206001600160a01b03909216808552919092529120548451919250908490849081106124575761245761358b565b6020908102919091010152508061246d816134e9565b9150506123f1565b50949350505050565b7f4910fdfa16fed3260ed0e7147f7cc6da11a60208b5b9406d12a635614ffd91435460ff16156124b157611f2b83612b02565b826001600160a01b03166352d1902d6040518163ffffffff1660e01b8152600401602060405180830381865afa92505050801561250b575060408051601f3d908101601f19168201909252612508918101906136af565b60015b61257d5760405162461bcd60e51b815260206004820152602e60248201527f45524331393637557067726164653a206e657720696d706c656d656e7461746960448201527f6f6e206973206e6f7420555550530000000000000000000000000000000000006064820152608401610748565b7f360894a13ba1a3210667c828492db98dca3e2076cc3735a920a3ca505d382bbc81146126125760405162461bcd60e51b815260206004820152602960248201527f45524331393637557067726164653a20756e737570706f727465642070726f7860448201527f6961626c655555494400000000000000000000000000000000000000000000006064820152608401610748565b50611f2b838383612bcd565b600081815260cc6020526040902080546001909101541061266057600081815260cc60205260409020600801805460ff60a01b1916600160a01b1790556126ad565b600081815260cc60205260409020600301544211156126ad57600081815260cc60205260409020600801805460ff60a01b1916740200000000000000000000000000000000000000001790555b600090815260cc6020526040902042600490910155565b6033546001600160a01b0316331461138b5760405162461bcd60e51b815260206004820181905260248201527f4f776e61626c653a2063616c6c6572206973206e6f7420746865206f776e65726044820152606401610748565b603380546001600160a01b0383811673ffffffffffffffffffffffffffffffffffffffff19831681179093556040519116919082907f8be0079c531659141344cd1fd0a4f28419497f9722a3daafe3b4186f6b6457e090600090a35050565b600054610100900460ff166127e85760405162461bcd60e51b815260206004820152602b60248201527f496e697469616c697a61626c653a20636f6e7472616374206973206e6f74206960448201526a6e697469616c697a696e6760a81b6064820152608401610748565b61138b612bf8565b600054610100900460ff1661138b5760405162461bcd60e51b815260206004820152602b60248201527f496e697469616c697a61626c653a20636f6e7472616374206973206e6f74206960448201526a6e697469616c697a696e6760a81b6064820152608401610748565b6000806002836001015461286f91906136c8565b90506000805b60098501548110156128f557600081815260ce60205260408120600987018054919291849081106128a8576128a861358b565b60009182526020808320909101546001600160a01b0316835282019290925260400190205460ff16156128e357816128df816134e9565b9250505b806128ed816134e9565b915050612875565b50101592915050565b600081815260cc60205260408120906008820154600160a01b900460ff16600281111561292d5761292d612edf565b1461297a5760405162461bcd60e51b815260206004820152601760248201527f43616d706169676e206973206e6f74206f6e676f696e670000000000000000006044820152606401610748565b6129838161285b565b6129ff5760405162461bcd60e51b815260206004820152604160248201527f5265717565737420686173206e6f74206265656e20617070726f76656420627960448201527f20746865207265717569726564206e756d626572206f6620696e766573746f726064820152607360f81b608482015260a401610748565b60005b6009820154811015612aea576000826009018281548110612a2557612a2561358b565b60009182526020808320919091015486835260cd825260408084206001600160a01b03909216808552919092528183208054908490559151909350909183916108fc84150291849190818181858888f19350505050158015612a8b573d6000803e3d6000fd5b50604080518681526001600160a01b03841660208201529081018290527f6e3c6096795c8298a218b2cfb8bde42726ff7c9a3d27b4d3ba41ab7f74feb5fb9060600160405180910390a150508080612ae2906134e9565b915050612a02565b50600801805460ff60a01b1916600160a01b17905550565b6001600160a01b0381163b612b7f5760405162461bcd60e51b815260206004820152602d60248201527f455243313936373a206e657720696d706c656d656e746174696f6e206973206e60448201527f6f74206120636f6e7472616374000000000000000000000000000000000000006064820152608401610748565b7f360894a13ba1a3210667c828492db98dca3e2076cc3735a920a3ca505d382bbc805473ffffffffffffffffffffffffffffffffffffffff19166001600160a01b0392909216919091179055565b612bd683612c6c565b600082511180612be35750805b15611f2b57612bf28383612cac565b50505050565b600054610100900460ff16612c635760405162461bcd60e51b815260206004820152602b60248201527f496e697469616c697a61626c653a20636f6e7472616374206973206e6f74206960448201526a6e697469616c697a696e6760a81b6064820152608401610748565b61138b3361271e565b612c7581612b02565b6040516001600160a01b038216907fbc7cd75a20ee27fd9adebab32041f755214dbc6bffa90cc0225b39da2e5c2d3b90600090a250565b6060612cd1838360405180606001604052806027815260200161371a60279139612cd8565b9392505050565b6060600080856001600160a01b031685604051612cf591906136ea565b600060405180830381855af49150503d8060008114612d30576040519150601f19603f3d011682016040523d82523d6000602084013e612d35565b606091505b5091509150612d4686838387612d50565b9695505050505050565b60608315612dbf578251600003612db8576001600160a01b0385163b612db85760405162461bcd60e51b815260206004820152601d60248201527f416464726573733a2063616c6c20746f206e6f6e2d636f6e74726163740000006044820152606401610748565b5081612dc9565b612dc98383612dd1565b949350505050565b815115612de15781518083602001fd5b8060405162461bcd60e51b81526004016107489190613706565b604051806101800160405280600081526020016000815260200160008152602001600081526020016000815260200160608152602001606081526020016060815260200160006001600160a01b0316815260200160006002811115612e6257612e62612edf565b815260606020820152600060409091015290565b600060208284031215612e8857600080fd5b5035919050565b60005b83811015612eaa578181015183820152602001612e92565b50506000910152565b60008151808452612ecb816020860160208601612e8f565b601f01601f19169290920160200192915050565b634e487b7160e01b600052602160045260246000fd5b60038110610bf557634e487b7160e01b600052602160045260246000fd5b612f1c81612ef5565b9052565b60006101608d83528c60208401528b60408401528a60608401528960808401528060a0840152612f528184018a612eb3565b905082810360c0840152612f668189612eb3565b905082810360e0840152612f7a8188612eb3565b9150506001600160a01b038516610100830152612f9684612ef5565b836101208301528215156101408301529c9b505050505050505050505050565b60008060408385031215612fc957600080fd5b50508035926020909101359150565b634e487b7160e01b600052604160045260246000fd5b600067ffffffffffffffff8084111561300957613009612fd8565b604051601f8501601f19908116603f0116810190828211818310171561303157613031612fd8565b8160405280935085815286868601111561304a57600080fd5b858560208301376000602087830101525050509392505050565b600082601f83011261307557600080fd5b612cd183833560208501612fee565b6000806040838503121561309757600080fd5b823567ffffffffffffffff808211156130af57600080fd5b6130bb86838701613064565b935060208501359150808211156130d157600080fd5b506130de85828601613064565b9150509250929050565b600081518084526020808501945080840160005b838110156131215781516001600160a01b0316875295820195908201906001016130fc565b509495945050505050565b602081526000612cd160208301846130e8565b80356001600160a01b038116811461315657600080fd5b919050565b60006020828403121561316d57600080fd5b612cd18261313f565b6000806040838503121561318957600080fd5b6131928361313f565b9150602083013567ffffffffffffffff8111156131ae57600080fd5b8301601f810185136131bf57600080fd5b6130de85823560208401612fee565b600081518084526020808501945080840160005b83811015613121578151875295820195908201906001016131e2565b60408152600061321160408301856130e8565b828103602084015261322381856131ce565b95945050505050565b60006020808301818452808551808352604092508286019150828160051b87010184880160005b8381101561335c57603f19898403018552815161018081518552888201518986015287820151888601526060808301518187015250608080830151818701525060a08083015182828801526132aa83880182612eb3565b9250505060c080830151868303828801526132c58382612eb3565b9250505060e080830151868303828801526132e08382612eb3565b92505050610100808301516132ff828801826001600160a01b03169052565b50506101208083015161331482880182612f13565b5050610140808301518683038288015261332e83826130e8565b925050506101608083015192506133488187018415159052565b509588019593505090860190600101613253565b509098975050505050505050565b60a08152600061337d60a0830188612eb3565b828103602084015261338f8188612eb3565b91505061339b85612ef5565b8460408301526001600160a01b038416606083015282151560808301529695505050505050565b600080600080608085870312156133d857600080fd5b843567ffffffffffffffff808211156133f057600080fd5b6133fc88838901613064565b9550602087013591508082111561341257600080fd5b5061341f87828801613064565b93505061342e6040860161313f565b915060608501356003811061344257600080fd5b939692955090935050565b6000806040838503121561346057600080fd5b823591506134706020840161313f565b90509250929050565b602081526000612cd160208301846131ce565b600181811c908216806134a057607f821691505b602082108103611bbf57634e487b7160e01b600052602260045260246000fd5b634e487b7160e01b600052601160045260246000fd5b80820180821115610a0e57610a0e6134c0565b6000600182016134fb576134fb6134c0565b5060010190565b81810381811115610a0e57610a0e6134c0565b60008083546135238161348c565b6001828116801561353b57600181146135505761357f565b60ff198416875282151583028701945061357f565b8760005260208060002060005b858110156135765781548a82015290840190820161355d565b50505082870194505b50929695505050505050565b634e487b7160e01b600052603260045260246000fd5b601f821115611f2b57600081815260208120601f850160051c810160208610156135c85750805b601f850160051c820191505b818110156135e7578281556001016135d4565b505050505050565b815167ffffffffffffffff81111561360957613609612fd8565b61361d81613617845461348c565b846135a1565b602080601f831160018114613652576000841561363a5750858301515b600019600386901b1c1916600185901b1785556135e7565b600085815260208120601f198616915b8281101561368157888601518255948401946001909101908401613662565b508582101561369f5787850151600019600388901b60f8161c191681555b5050505050600190811b01905550565b6000602082840312156136c157600080fd5b5051919050565b6000826136e557634e487b7160e01b600052601260045260246000fd5b500490565b600082516136fc818460208701612e8f565b9190910192915050565b602081526000612cd16020830184612eb356fe416464726573733a206c6f772d6c6576656c2064656c65676174652063616c6c206661696c6564a164736f6c6343000812000a","opcodes":"PUSH1 0xA0 PUSH1 0x40 MSTORE ADDRESS PUSH1 0x80 MSTORE CALLVALUE DUP1 ISZERO PUSH2 0x14 JUMPI PUSH1 0x0 DUP1 REVERT JUMPDEST POP PUSH1 0x80 MLOAD PUSH2 0x374D PUSH2 0x4C PUSH1 0x0 CODECOPY PUSH1 0x0 DUP2 DUP2 PUSH2 0xA90 ADD MSTORE DUP2 DUP2 PUSH2 0xB15 ADD MSTORE DUP2 DUP2 PUSH2 0xFEE ADD MSTORE DUP2 DUP2 PUSH2 0x1073 ADD MSTORE PUSH2 0x1154 ADD MSTORE PUSH2 0x374D PUSH1 0x0 RETURN INVALID PUSH1 0x80 PUSH1 0x40 MSTORE PUSH1 0x4 CALLDATASIZE LT PUSH2 0x180 JUMPI PUSH1 0x0 CALLDATALOAD PUSH1 0xE0 SHR DUP1 PUSH4 0x74A29CD2 GT PUSH2 0xD6 JUMPI DUP1 PUSH4 0xA87430BA GT PUSH2 0x7F JUMPI DUP1 PUSH4 0xE9DEA525 GT PUSH2 0x59 JUMPI DUP1 PUSH4 0xE9DEA525 EQ PUSH2 0x458 JUMPI DUP1 PUSH4 0xF2FDE38B EQ PUSH2 0x485 JUMPI DUP1 PUSH4 0xFFA676D1 EQ PUSH2 0x4A5 JUMPI PUSH1 0x0 DUP1 REVERT JUMPDEST DUP1 PUSH4 0xA87430BA EQ PUSH2 0x3C4 JUMPI DUP1 PUSH4 0xD1233672 EQ PUSH2 0x3F5 JUMPI DUP1 PUSH4 0xE081DBF9 EQ PUSH2 0x415 JUMPI PUSH1 0x0 DUP1 REVERT JUMPDEST DUP1 PUSH4 0x8E5BAA62 GT PUSH2 0xB0 JUMPI DUP1 PUSH4 0x8E5BAA62 EQ PUSH2 0x362 JUMPI DUP1 PUSH4 0xA6B03633 EQ PUSH2 0x382 JUMPI DUP1 PUSH4 0xA7247CD9 EQ PUSH2 0x3A4 JUMPI PUSH1 0x0 DUP1 REVERT JUMPDEST DUP1 PUSH4 0x74A29CD2 EQ PUSH2 0x305 JUMPI DUP1 PUSH4 0x8129FC1C EQ PUSH2 0x325 JUMPI DUP1 PUSH4 0x8DA5CB5B EQ PUSH2 0x33A JUMPI PUSH1 0x0 DUP1 REVERT JUMPDEST DUP1 PUSH4 0x42A4FDA8 GT PUSH2 0x138 JUMPI DUP1 PUSH4 0x596D9CE2 GT PUSH2 0x112 JUMPI DUP1 PUSH4 0x596D9CE2 EQ PUSH2 0x2AD JUMPI DUP1 PUSH4 0x6CAA9218 EQ PUSH2 0x2DB JUMPI DUP1 PUSH4 0x715018A6 EQ PUSH2 0x2F0 JUMPI PUSH1 0x0 DUP1 REVERT JUMPDEST DUP1 PUSH4 0x42A4FDA8 EQ PUSH2 0x264 JUMPI DUP1 PUSH4 0x4F1EF286 EQ PUSH2 0x277 JUMPI DUP1 PUSH4 0x52D1902D EQ PUSH2 0x28A JUMPI PUSH1 0x0 DUP1 REVERT JUMPDEST DUP1 PUSH4 0x22CE12E5 GT PUSH2 0x169 JUMPI DUP1 PUSH4 0x22CE12E5 EQ PUSH2 0x1E7 JUMPI DUP1 PUSH4 0x2495EFB8 EQ PUSH2 0x217 JUMPI DUP1 PUSH4 0x3659CFE6 EQ PUSH2 0x244 JUMPI PUSH1 0x0 DUP1 REVERT JUMPDEST DUP1 PUSH4 0x141961BC EQ PUSH2 0x185 JUMPI DUP1 PUSH4 0x22502268 EQ PUSH2 0x1C5 JUMPI JUMPDEST PUSH1 0x0 DUP1 REVERT JUMPDEST CALLVALUE DUP1 ISZERO PUSH2 0x191 JUMPI PUSH1 0x0 DUP1 REVERT JUMPDEST POP PUSH2 0x1A5 PUSH2 0x1A0 CALLDATASIZE PUSH1 0x4 PUSH2 0x2E76 JUMP JUMPDEST PUSH2 0x4D2 JUMP JUMPDEST PUSH1 0x40 MLOAD PUSH2 0x1BC SWAP12 SWAP11 SWAP10 SWAP9 SWAP8 SWAP7 SWAP6 SWAP5 SWAP4 SWAP3 SWAP2 SWAP1 PUSH2 0x2F20 JUMP JUMPDEST PUSH1 0x40 MLOAD DUP1 SWAP2 SUB SWAP1 RETURN JUMPDEST CALLVALUE DUP1 ISZERO PUSH2 0x1D1 JUMPI PUSH1 0x0 DUP1 REVERT JUMPDEST POP PUSH2 0x1E5 PUSH2 0x1E0 CALLDATASIZE PUSH1 0x4 PUSH2 0x2FB6 JUMP JUMPDEST PUSH2 0x6D7 JUMP JUMPDEST STOP JUMPDEST CALLVALUE DUP1 ISZERO PUSH2 0x1F3 JUMPI PUSH1 0x0 DUP1 REVERT JUMPDEST POP PUSH2 0x207 PUSH2 0x202 CALLDATASIZE PUSH1 0x4 PUSH2 0x3084 JUMP JUMPDEST PUSH2 0x98C JUMP JUMPDEST PUSH1 0x40 MLOAD SWAP1 ISZERO ISZERO DUP2 MSTORE PUSH1 0x20 ADD PUSH2 0x1BC JUMP JUMPDEST CALLVALUE DUP1 ISZERO PUSH2 0x223 JUMPI PUSH1 0x0 DUP1 REVERT JUMPDEST POP PUSH2 0x237 PUSH2 0x232 CALLDATASIZE PUSH1 0x4 PUSH2 0x2E76 JUMP JUMPDEST PUSH2 0xA14 JUMP JUMPDEST PUSH1 0x40 MLOAD PUSH2 0x1BC SWAP2 SWAP1 PUSH2 0x312C JUMP JUMPDEST CALLVALUE DUP1 ISZERO PUSH2 0x250 JUMPI PUSH1 0x0 DUP1 REVERT JUMPDEST POP PUSH2 0x1E5 PUSH2 0x25F CALLDATASIZE PUSH1 0x4 PUSH2 0x315B JUMP JUMPDEST PUSH2 0xA86 JUMP JUMPDEST PUSH2 0x1E5 PUSH2 0x272 CALLDATASIZE PUSH1 0x4 PUSH2 0x2E76 JUMP JUMPDEST PUSH2 0xBF8 JUMP JUMPDEST PUSH2 0x1E5 PUSH2 0x285 CALLDATASIZE PUSH1 0x4 PUSH2 0x3176 JUMP JUMPDEST PUSH2 0xFE4 JUMP JUMPDEST CALLVALUE DUP1 ISZERO PUSH2 0x296 JUMPI PUSH1 0x0 DUP1 REVERT JUMPDEST POP PUSH2 0x29F PUSH2 0x1147 JUMP JUMPDEST PUSH1 0x40 MLOAD SWAP1 DUP2 MSTORE PUSH1 0x20 ADD PUSH2 0x1BC JUMP JUMPDEST CALLVALUE DUP1 ISZERO PUSH2 0x2B9 JUMPI PUSH1 0x0 DUP1 REVERT JUMPDEST POP PUSH2 0x2CD PUSH2 0x2C8 CALLDATASIZE PUSH1 0x4 PUSH2 0x2E76 JUMP JUMPDEST PUSH2 0x120C JUMP JUMPDEST PUSH1 0x40 MLOAD PUSH2 0x1BC SWAP3 SWAP2 SWAP1 PUSH2 0x31FE JUMP JUMPDEST CALLVALUE DUP1 ISZERO PUSH2 0x2E7 JUMPI PUSH1 0x0 DUP1 REVERT JUMPDEST POP PUSH1 0xC9 SLOAD PUSH2 0x29F JUMP JUMPDEST CALLVALUE DUP1 ISZERO PUSH2 0x2FC JUMPI PUSH1 0x0 DUP1 REVERT JUMPDEST POP PUSH2 0x1E5 PUSH2 0x1379 JUMP JUMPDEST CALLVALUE DUP1 ISZERO PUSH2 0x311 JUMPI PUSH1 0x0 DUP1 REVERT JUMPDEST POP PUSH2 0x1E5 PUSH2 0x320 CALLDATASIZE PUSH1 0x4 PUSH2 0x2FB6 JUMP JUMPDEST PUSH2 0x138D JUMP JUMPDEST CALLVALUE DUP1 ISZERO PUSH2 0x331 JUMPI PUSH1 0x0 DUP1 REVERT JUMPDEST POP PUSH2 0x1E5 PUSH2 0x16E8 JUMP JUMPDEST CALLVALUE DUP1 ISZERO PUSH2 0x346 JUMPI PUSH1 0x0 DUP1 REVERT JUMPDEST POP PUSH1 0x33 SLOAD PUSH1 0x40 MLOAD PUSH1 0x1 PUSH1 0x1 PUSH1 0xA0 SHL SUB SWAP1 SWAP2 AND DUP2 MSTORE PUSH1 0x20 ADD PUSH2 0x1BC JUMP JUMPDEST CALLVALUE DUP1 ISZERO PUSH2 0x36E JUMPI PUSH1 0x0 DUP1 REVERT JUMPDEST POP PUSH2 0x29F PUSH2 0x37D CALLDATASIZE PUSH1 0x4 PUSH2 0x315B JUMP JUMPDEST PUSH2 0x180F JUMP JUMPDEST CALLVALUE DUP1 ISZERO PUSH2 0x38E JUMPI PUSH1 0x0 DUP1 REVERT JUMPDEST POP PUSH2 0x397 PUSH2 0x186D JUMP JUMPDEST PUSH1 0x40 MLOAD PUSH2 0x1BC SWAP2 SWAP1 PUSH2 0x322C JUMP JUMPDEST CALLVALUE DUP1 ISZERO PUSH2 0x3B0 JUMPI PUSH1 0x0 DUP1 REVERT JUMPDEST POP PUSH2 0x1E5 PUSH2 0x3BF CALLDATASIZE PUSH1 0x4 PUSH2 0x2E76 JUMP JUMPDEST PUSH2 0x1BC5 JUMP JUMPDEST CALLVALUE DUP1 ISZERO PUSH2 0x3D0 JUMPI PUSH1 0x0 DUP1 REVERT JUMPDEST POP PUSH2 0x3E4 PUSH2 0x3DF CALLDATASIZE PUSH1 0x4 PUSH2 0x315B JUMP JUMPDEST PUSH2 0x1F30 JUMP JUMPDEST PUSH1 0x40 MLOAD PUSH2 0x1BC SWAP6 SWAP5 SWAP4 SWAP3 SWAP2 SWAP1 PUSH2 0x336A JUMP JUMPDEST CALLVALUE DUP1 ISZERO PUSH2 0x401 JUMPI PUSH1 0x0 DUP1 REVERT JUMPDEST POP PUSH2 0x1E5 PUSH2 0x410 CALLDATASIZE PUSH1 0x4 PUSH2 0x33C2 JUMP JUMPDEST PUSH2 0x2080 JUMP JUMPDEST CALLVALUE DUP1 ISZERO PUSH2 0x421 JUMPI PUSH1 0x0 DUP1 REVERT JUMPDEST POP PUSH2 0x29F PUSH2 0x430 CALLDATASIZE PUSH1 0x4 PUSH2 0x344D JUMP JUMPDEST PUSH1 0x0 SWAP2 DUP3 MSTORE PUSH1 0xCD PUSH1 0x20 SWAP1 DUP2 MSTORE PUSH1 0x40 DUP1 DUP5 KECCAK256 PUSH1 0x1 PUSH1 0x1 PUSH1 0xA0 SHL SUB SWAP4 SWAP1 SWAP4 AND DUP5 MSTORE SWAP2 SWAP1 MSTORE SWAP1 KECCAK256 SLOAD SWAP1 JUMP JUMPDEST CALLVALUE DUP1 ISZERO PUSH2 0x464 JUMPI PUSH1 0x0 DUP1 REVERT JUMPDEST POP PUSH2 0x29F PUSH2 0x473 CALLDATASIZE PUSH1 0x4 PUSH2 0x2E76 JUMP JUMPDEST PUSH1 0x0 SWAP1 DUP2 MSTORE PUSH1 0xCA PUSH1 0x20 MSTORE PUSH1 0x40 SWAP1 KECCAK256 SLOAD SWAP1 JUMP JUMPDEST CALLVALUE DUP1 ISZERO PUSH2 0x491 JUMPI PUSH1 0x0 DUP1 REVERT JUMPDEST POP PUSH2 0x1E5 PUSH2 0x4A0 CALLDATASIZE PUSH1 0x4 PUSH2 0x315B JUMP JUMPDEST PUSH2 0x2306 JUMP JUMPDEST CALLVALUE DUP1 ISZERO PUSH2 0x4B1 JUMPI PUSH1 0x0 DUP1 REVERT JUMPDEST POP PUSH2 0x4C5 PUSH2 0x4C0 CALLDATASIZE PUSH1 0x4 PUSH2 0x2E76 JUMP JUMPDEST PUSH2 0x2393 JUMP JUMPDEST PUSH1 0x40 MLOAD PUSH2 0x1BC SWAP2 SWAP1 PUSH2 0x3479 JUMP JUMPDEST PUSH1 0xCC PUSH1 0x20 MSTORE DUP1 PUSH1 0x0 MSTORE PUSH1 0x40 PUSH1 0x0 KECCAK256 PUSH1 0x0 SWAP2 POP SWAP1 POP DUP1 PUSH1 0x0 ADD SLOAD SWAP1 DUP1 PUSH1 0x1 ADD SLOAD SWAP1 DUP1 PUSH1 0x2 ADD SLOAD SWAP1 DUP1 PUSH1 0x3 ADD SLOAD SWAP1 DUP1 PUSH1 0x4 ADD SLOAD SWAP1 DUP1 PUSH1 0x5 ADD DUP1 SLOAD PUSH2 0x513 SWAP1 PUSH2 0x348C JUMP JUMPDEST DUP1 PUSH1 0x1F ADD PUSH1 0x20 DUP1 SWAP2 DIV MUL PUSH1 0x20 ADD PUSH1 0x40 MLOAD SWAP1 DUP2 ADD PUSH1 0x40 MSTORE DUP1 SWAP3 SWAP2 SWAP1 DUP2 DUP2 MSTORE PUSH1 0x20 ADD DUP3 DUP1 SLOAD PUSH2 0x53F SWAP1 PUSH2 0x348C JUMP JUMPDEST DUP1 ISZERO PUSH2 0x58C JUMPI DUP1 PUSH1 0x1F LT PUSH2 0x561 JUMPI PUSH2 0x100 DUP1 DUP4 SLOAD DIV MUL DUP4 MSTORE SWAP2 PUSH1 0x20 ADD SWAP2 PUSH2 0x58C JUMP JUMPDEST DUP3 ADD SWAP2 SWAP1 PUSH1 0x0 MSTORE PUSH1 0x20 PUSH1 0x0 KECCAK256 SWAP1 JUMPDEST DUP2 SLOAD DUP2 MSTORE SWAP1 PUSH1 0x1 ADD SWAP1 PUSH1 0x20 ADD DUP1 DUP4 GT PUSH2 0x56F JUMPI DUP3 SWAP1 SUB PUSH1 0x1F AND DUP3 ADD SWAP2 JUMPDEST POP POP POP POP POP SWAP1 DUP1 PUSH1 0x6 ADD DUP1 SLOAD PUSH2 0x5A1 SWAP1 PUSH2 0x348C JUMP JUMPDEST DUP1 PUSH1 0x1F ADD PUSH1 0x20 DUP1 SWAP2 DIV MUL PUSH1 0x20 ADD PUSH1 0x40 MLOAD SWAP1 DUP2 ADD PUSH1 0x40 MSTORE DUP1 SWAP3 SWAP2 SWAP1 DUP2 DUP2 MSTORE PUSH1 0x20 ADD DUP3 DUP1 SLOAD PUSH2 0x5CD SWAP1 PUSH2 0x348C JUMP JUMPDEST DUP1 ISZERO PUSH2 0x61A JUMPI DUP1 PUSH1 0x1F LT PUSH2 0x5EF JUMPI PUSH2 0x100 DUP1 DUP4 SLOAD DIV MUL DUP4 MSTORE SWAP2 PUSH1 0x20 ADD SWAP2 PUSH2 0x61A JUMP JUMPDEST DUP3 ADD SWAP2 SWAP1 PUSH1 0x0 MSTORE PUSH1 0x20 PUSH1 0x0 KECCAK256 SWAP1 JUMPDEST DUP2 SLOAD DUP2 MSTORE SWAP1 PUSH1 0x1 ADD SWAP1 PUSH1 0x20 ADD DUP1 DUP4 GT PUSH2 0x5FD JUMPI DUP3 SWAP1 SUB PUSH1 0x1F AND DUP3 ADD SWAP2 JUMPDEST POP POP POP POP POP SWAP1 DUP1 PUSH1 0x7 ADD DUP1 SLOAD PUSH2 0x62F SWAP1 PUSH2 0x348C JUMP JUMPDEST DUP1 PUSH1 0x1F ADD PUSH1 0x20 DUP1 SWAP2 DIV MUL PUSH1 0x20 ADD PUSH1 0x40 MLOAD SWAP1 DUP2 ADD PUSH1 0x40 MSTORE DUP1 SWAP3 SWAP2 SWAP1 DUP2 DUP2 MSTORE PUSH1 0x20 ADD DUP3 DUP1 SLOAD PUSH2 0x65B SWAP1 PUSH2 0x348C JUMP JUMPDEST DUP1 ISZERO PUSH2 0x6A8 JUMPI DUP1 PUSH1 0x1F LT PUSH2 0x67D JUMPI PUSH2 0x100 DUP1 DUP4 SLOAD DIV MUL DUP4 MSTORE SWAP2 PUSH1 0x20 ADD SWAP2 PUSH2 0x6A8 JUMP JUMPDEST DUP3 ADD SWAP2 SWAP1 PUSH1 0x0 MSTORE PUSH1 0x20 PUSH1 0x0 KECCAK256 SWAP1 JUMPDEST DUP2 SLOAD DUP2 MSTORE SWAP1 PUSH1 0x1 ADD SWAP1 PUSH1 0x20 ADD DUP1 DUP4 GT PUSH2 0x68B JUMPI DUP3 SWAP1 SUB PUSH1 0x1F AND DUP3 ADD SWAP2 JUMPDEST POP POP POP PUSH1 0x8 DUP5 ADD SLOAD PUSH1 0xA SWAP1 SWAP5 ADD SLOAD SWAP3 SWAP4 PUSH1 0x1 PUSH1 0x1 PUSH1 0xA0 SHL SUB DUP2 AND SWAP4 PUSH1 0xFF PUSH1 0x1 PUSH1 0xA0 SHL SWAP1 SWAP3 DIV DUP3 AND SWAP4 POP AND SWAP1 POP DUP12 JUMP JUMPDEST CALLER PUSH1 0x0 SWAP1 DUP2 MSTORE PUSH1 0xCB PUSH1 0x20 MSTORE PUSH1 0x40 SWAP1 KECCAK256 PUSH1 0x2 ADD SLOAD PUSH1 0x1 PUSH1 0xA8 SHL SWAP1 DIV PUSH1 0xFF AND PUSH2 0x751 JUMPI PUSH1 0x40 MLOAD PUSH3 0x461BCD PUSH1 0xE5 SHL DUP2 MSTORE PUSH1 0x20 PUSH1 0x4 DUP3 ADD MSTORE PUSH1 0x23 PUSH1 0x24 DUP3 ADD MSTORE PUSH32 0x4F6E6C792076657269666965642075736572732063616E207061727469636970 PUSH1 0x44 DUP3 ADD MSTORE PUSH3 0x617465 PUSH1 0xE8 SHL PUSH1 0x64 DUP3 ADD MSTORE PUSH1 0x84 ADD JUMPDEST PUSH1 0x40 MLOAD DUP1 SWAP2 SUB SWAP1 REVERT JUMPDEST PUSH1 0x0 DUP1 CALLER PUSH1 0x0 SWAP1 DUP2 MSTORE PUSH1 0xCB PUSH1 0x20 MSTORE PUSH1 0x40 SWAP1 KECCAK256 PUSH1 0x2 SWAP1 DUP2 ADD SLOAD PUSH1 0xFF AND SWAP1 DUP2 GT ISZERO PUSH2 0x77C JUMPI PUSH2 0x77C PUSH2 0x2EDF JUMP JUMPDEST EQ PUSH2 0x7EF JUMPI PUSH1 0x40 MLOAD PUSH3 0x461BCD PUSH1 0xE5 SHL DUP2 MSTORE PUSH1 0x20 PUSH1 0x4 DUP3 ADD MSTORE PUSH1 0x3C PUSH1 0x24 DUP3 ADD MSTORE PUSH32 0x4F6E6C79207573657273206F6620746865207370656369666965642063617465 PUSH1 0x44 DUP3 ADD MSTORE PUSH32 0x676F72792063616E20706572666F726D207468697320616374696F6E00000000 PUSH1 0x64 DUP3 ADD MSTORE PUSH1 0x84 ADD PUSH2 0x748 JUMP JUMPDEST PUSH1 0x0 DUP4 GT PUSH2 0x865 JUMPI PUSH1 0x40 MLOAD PUSH3 0x461BCD PUSH1 0xE5 SHL DUP2 MSTORE PUSH1 0x20 PUSH1 0x4 DUP3 ADD MSTORE PUSH1 0x27 PUSH1 0x24 DUP3 ADD MSTORE PUSH32 0x54617267657420616D6F756E74206D7573742062652067726561746572207468 PUSH1 0x44 DUP3 ADD MSTORE PUSH32 0x616E207A65726F00000000000000000000000000000000000000000000000000 PUSH1 0x64 DUP3 ADD MSTORE PUSH1 0x84 ADD PUSH2 0x748 JUMP JUMPDEST PUSH1 0x0 DUP3 GT PUSH2 0x8C0 JUMPI PUSH1 0x40 MLOAD PUSH3 0x461BCD PUSH1 0xE5 SHL DUP2 MSTORE PUSH1 0x20 PUSH1 0x4 DUP3 ADD MSTORE PUSH1 0x22 PUSH1 0x24 DUP3 ADD MSTORE PUSH32 0x4475726174696F6E206D7573742062652067726561746572207468616E207A65 PUSH1 0x44 DUP3 ADD MSTORE PUSH2 0x726F PUSH1 0xF0 SHL PUSH1 0x64 DUP3 ADD MSTORE PUSH1 0x84 ADD PUSH2 0x748 JUMP JUMPDEST PUSH1 0x0 PUSH2 0x8CC DUP4 TIMESTAMP PUSH2 0x34D6 JUMP JUMPDEST PUSH1 0xC9 DUP1 SLOAD PUSH1 0x0 SWAP1 DUP2 MSTORE PUSH1 0xCC PUSH1 0x20 MSTORE PUSH1 0x40 DUP2 KECCAK256 PUSH1 0x8 DUP2 ADD DUP1 SLOAD DUP10 DUP4 SSTORE PUSH1 0x3 DUP4 ADD DUP7 SWAP1 SSTORE PUSH32 0xFFFFFFFFFFFFFFFFFFFFFF000000000000000000000000000000000000000000 AND CALLER PUSH1 0xFF PUSH1 0xA0 SHL NOT AND OR SWAP1 SSTORE DUP3 SLOAD SWAP4 SWAP5 POP SWAP3 SWAP2 SWAP1 PUSH2 0x92C DUP4 PUSH2 0x34E9 JUMP JUMPDEST SWAP2 SWAP1 POP SSTORE POP PUSH32 0x91B289A829E71D811B8C69E4A24BA2D40D115D8A236E9A724CB3BB2D43CF7223 PUSH1 0x1 PUSH1 0xC9 SLOAD PUSH2 0x961 SWAP2 SWAP1 PUSH2 0x3502 JUMP JUMPDEST PUSH1 0x40 DUP1 MLOAD SWAP2 DUP3 MSTORE CALLER PUSH1 0x20 DUP4 ADD MSTORE DUP2 ADD DUP8 SWAP1 MSTORE PUSH1 0x60 DUP2 ADD DUP5 SWAP1 MSTORE PUSH1 0x80 ADD PUSH1 0x40 MLOAD DUP1 SWAP2 SUB SWAP1 LOG1 POP POP POP POP POP JUMP JUMPDEST CALLER PUSH1 0x0 SWAP1 DUP2 MSTORE PUSH1 0xCB PUSH1 0x20 MSTORE PUSH1 0x40 DUP2 KECCAK256 PUSH1 0x2 DUP2 ADD SLOAD PUSH1 0x1 PUSH1 0xA8 SHL SWAP1 DIV PUSH1 0xFF AND DUP1 ISZERO PUSH2 0x9D0 JUMPI POP DUP4 MLOAD PUSH1 0x20 DUP6 ADD KECCAK256 PUSH1 0x40 MLOAD PUSH2 0x9C6 SWAP1 DUP4 SWAP1 PUSH2 0x3515 JUMP JUMPDEST PUSH1 0x40 MLOAD DUP1 SWAP2 SUB SWAP1 KECCAK256 EQ JUMPDEST DUP1 ISZERO PUSH2 0x9F9 JUMPI POP DUP3 MLOAD PUSH1 0x20 DUP5 ADD KECCAK256 PUSH1 0x40 MLOAD PUSH2 0x9EF SWAP1 PUSH1 0x1 DUP5 ADD SWAP1 PUSH2 0x3515 JUMP JUMPDEST PUSH1 0x40 MLOAD DUP1 SWAP2 SUB SWAP1 KECCAK256 EQ JUMPDEST ISZERO PUSH2 0xA08 JUMPI PUSH1 0x1 SWAP2 POP POP PUSH2 0xA0E JUMP JUMPDEST PUSH1 0x0 SWAP2 POP POP JUMPDEST SWAP3 SWAP2 POP POP JUMP JUMPDEST PUSH1 0x0 DUP2 DUP2 MSTORE PUSH1 0xCC PUSH1 0x20 SWAP1 DUP2 MSTORE PUSH1 0x40 SWAP2 DUP3 SWAP1 KECCAK256 PUSH1 0x9 DUP2 ADD DUP1 SLOAD DUP5 MLOAD DUP2 DUP6 MUL DUP2 ADD DUP6 ADD SWAP1 SWAP6 MSTORE DUP1 DUP6 MSTORE PUSH1 0x60 SWAP5 SWAP3 SWAP4 DUP4 ADD DUP3 DUP3 DUP1 ISZERO PUSH2 0xA79 JUMPI PUSH1 0x20 MUL DUP3 ADD SWAP2 SWAP1 PUSH1 0x0 MSTORE PUSH1 0x20 PUSH1 0x0 KECCAK256 SWAP1 JUMPDEST DUP2 SLOAD PUSH1 0x1 PUSH1 0x1 PUSH1 0xA0 SHL SUB AND DUP2 MSTORE PUSH1 0x1 SWAP1 SWAP2 ADD SWAP1 PUSH1 0x20 ADD DUP1 DUP4 GT PUSH2 0xA5B JUMPI JUMPDEST POP POP POP POP POP SWAP2 POP POP SWAP2 SWAP1 POP JUMP JUMPDEST PUSH1 0x1 PUSH1 0x1 PUSH1 0xA0 SHL SUB PUSH32 0x0 AND ADDRESS SUB PUSH2 0xB13 JUMPI PUSH1 0x40 MLOAD PUSH3 0x461BCD PUSH1 0xE5 SHL DUP2 MSTORE PUSH1 0x20 PUSH1 0x4 DUP3 ADD MSTORE PUSH1 0x2C PUSH1 0x24 DUP3 ADD MSTORE PUSH32 0x46756E6374696F6E206D7573742062652063616C6C6564207468726F75676820 PUSH1 0x44 DUP3 ADD MSTORE PUSH12 0x19195B1959D85D1958D85B1B PUSH1 0xA2 SHL PUSH1 0x64 DUP3 ADD MSTORE PUSH1 0x84 ADD PUSH2 0x748 JUMP JUMPDEST PUSH32 0x0 PUSH1 0x1 PUSH1 0x1 PUSH1 0xA0 SHL SUB AND PUSH2 0xB6E PUSH32 0x360894A13BA1A3210667C828492DB98DCA3E2076CC3735A920A3CA505D382BBC SLOAD PUSH1 0x1 PUSH1 0x1 PUSH1 0xA0 SHL SUB AND SWAP1 JUMP JUMPDEST PUSH1 0x1 PUSH1 0x1 PUSH1 0xA0 SHL SUB AND EQ PUSH2 0xBD9 JUMPI PUSH1 0x40 MLOAD PUSH3 0x461BCD PUSH1 0xE5 SHL DUP2 MSTORE PUSH1 0x20 PUSH1 0x4 DUP3 ADD MSTORE PUSH1 0x2C PUSH1 0x24 DUP3 ADD MSTORE PUSH32 0x46756E6374696F6E206D7573742062652063616C6C6564207468726F75676820 PUSH1 0x44 DUP3 ADD MSTORE PUSH12 0x6163746976652070726F7879 PUSH1 0xA0 SHL PUSH1 0x64 DUP3 ADD MSTORE PUSH1 0x84 ADD PUSH2 0x748 JUMP JUMPDEST PUSH1 0x40 DUP1 MLOAD PUSH1 0x0 DUP1 DUP3 MSTORE PUSH1 0x20 DUP3 ADD SWAP1 SWAP3 MSTORE PUSH2 0xBF5 SWAP2 DUP4 SWAP2 SWAP1 PUSH2 0x247E JUMP JUMPDEST POP JUMP JUMPDEST CALLER PUSH1 0x0 SWAP1 DUP2 MSTORE PUSH1 0xCB PUSH1 0x20 MSTORE PUSH1 0x40 SWAP1 KECCAK256 PUSH1 0x2 ADD SLOAD PUSH1 0x1 PUSH1 0xA8 SHL SWAP1 DIV PUSH1 0xFF AND PUSH2 0xC6D JUMPI PUSH1 0x40 MLOAD PUSH3 0x461BCD PUSH1 0xE5 SHL DUP2 MSTORE PUSH1 0x20 PUSH1 0x4 DUP3 ADD MSTORE PUSH1 0x23 PUSH1 0x24 DUP3 ADD MSTORE PUSH32 0x4F6E6C792076657269666965642075736572732063616E207061727469636970 PUSH1 0x44 DUP3 ADD MSTORE PUSH3 0x617465 PUSH1 0xE8 SHL PUSH1 0x64 DUP3 ADD MSTORE PUSH1 0x84 ADD PUSH2 0x748 JUMP JUMPDEST PUSH1 0x1 DUP1 CALLER PUSH1 0x0 SWAP1 DUP2 MSTORE PUSH1 0xCB PUSH1 0x20 MSTORE PUSH1 0x40 SWAP1 KECCAK256 PUSH1 0x2 SWAP1 DUP2 ADD SLOAD PUSH1 0xFF AND SWAP1 DUP2 GT ISZERO PUSH2 0xC98 JUMPI PUSH2 0xC98 PUSH2 0x2EDF JUMP JUMPDEST EQ PUSH2 0xD0B JUMPI PUSH1 0x40 MLOAD PUSH3 0x461BCD PUSH1 0xE5 SHL DUP2 MSTORE PUSH1 0x20 PUSH1 0x4 DUP3 ADD MSTORE PUSH1 0x3C PUSH1 0x24 DUP3 ADD MSTORE PUSH32 0x4F6E6C79207573657273206F6620746865207370656369666965642063617465 PUSH1 0x44 DUP3 ADD MSTORE PUSH32 0x676F72792063616E20706572666F726D207468697320616374696F6E00000000 PUSH1 0x64 DUP3 ADD MSTORE PUSH1 0x84 ADD PUSH2 0x748 JUMP JUMPDEST DUP2 PUSH1 0x0 DUP1 PUSH1 0x0 DUP4 DUP2 MSTORE PUSH1 0xCC PUSH1 0x20 MSTORE PUSH1 0x40 SWAP1 KECCAK256 PUSH1 0x8 ADD SLOAD PUSH1 0x1 PUSH1 0xA0 SHL SWAP1 DIV PUSH1 0xFF AND PUSH1 0x2 DUP2 GT ISZERO PUSH2 0xD3C JUMPI PUSH2 0xD3C PUSH2 0x2EDF JUMP JUMPDEST EQ PUSH2 0xD89 JUMPI PUSH1 0x40 MLOAD PUSH3 0x461BCD PUSH1 0xE5 SHL DUP2 MSTORE PUSH1 0x20 PUSH1 0x4 DUP3 ADD MSTORE PUSH1 0xD PUSH1 0x24 DUP3 ADD MSTORE PUSH32 0x496E76616C696420737461746500000000000000000000000000000000000000 PUSH1 0x44 DUP3 ADD MSTORE PUSH1 0x64 ADD PUSH2 0x748 JUMP JUMPDEST PUSH1 0x0 DUP3 DUP2 MSTORE PUSH1 0xCC PUSH1 0x20 MSTORE PUSH1 0x40 SWAP1 KECCAK256 PUSH1 0x3 ADD SLOAD TIMESTAMP LT PUSH2 0xDE9 JUMPI PUSH1 0x40 MLOAD PUSH3 0x461BCD PUSH1 0xE5 SHL DUP2 MSTORE PUSH1 0x20 PUSH1 0x4 DUP3 ADD MSTORE PUSH1 0x15 PUSH1 0x24 DUP3 ADD MSTORE PUSH32 0x446561646C696E65206861732070617373656420210000000000000000000000 PUSH1 0x44 DUP3 ADD MSTORE PUSH1 0x64 ADD PUSH2 0x748 JUMP JUMPDEST PUSH1 0x0 DUP5 DUP2 MSTORE PUSH1 0xCC PUSH1 0x20 MSTORE PUSH1 0x40 DUP2 KECCAK256 SWAP1 PUSH1 0x8 DUP3 ADD SLOAD PUSH1 0x1 PUSH1 0xA0 SHL SWAP1 DIV PUSH1 0xFF AND PUSH1 0x2 DUP2 GT ISZERO PUSH2 0xE18 JUMPI PUSH2 0xE18 PUSH2 0x2EDF JUMP JUMPDEST EQ PUSH2 0xE65 JUMPI PUSH1 0x40 MLOAD PUSH3 0x461BCD PUSH1 0xE5 SHL DUP2 MSTORE PUSH1 0x20 PUSH1 0x4 DUP3 ADD MSTORE PUSH1 0x17 PUSH1 0x24 DUP3 ADD MSTORE PUSH32 0x43616D706169676E206973206E6F74206F6E676F696E67000000000000000000 PUSH1 0x44 DUP3 ADD MSTORE PUSH1 0x64 ADD PUSH2 0x748 JUMP JUMPDEST DUP1 PUSH1 0x3 ADD SLOAD TIMESTAMP LT PUSH2 0xEB8 JUMPI PUSH1 0x40 MLOAD PUSH3 0x461BCD PUSH1 0xE5 SHL DUP2 MSTORE PUSH1 0x20 PUSH1 0x4 DUP3 ADD MSTORE PUSH1 0x19 PUSH1 0x24 DUP3 ADD MSTORE PUSH32 0x43616D706169676E20706572696F642068617320656E64656400000000000000 PUSH1 0x44 DUP3 ADD MSTORE PUSH1 0x64 ADD PUSH2 0x748 JUMP JUMPDEST PUSH1 0x0 CALLVALUE GT PUSH2 0xF2E JUMPI PUSH1 0x40 MLOAD PUSH3 0x461BCD PUSH1 0xE5 SHL DUP2 MSTORE PUSH1 0x20 PUSH1 0x4 DUP3 ADD MSTORE PUSH1 0x29 PUSH1 0x24 DUP3 ADD MSTORE PUSH32 0x446F6E6174696F6E20616D6F756E74206D757374206265206772656174657220 PUSH1 0x44 DUP3 ADD MSTORE PUSH32 0x7468616E207A65726F0000000000000000000000000000000000000000000000 PUSH1 0x64 DUP3 ADD MSTORE PUSH1 0x84 ADD PUSH2 0x748 JUMP JUMPDEST PUSH1 0x0 DUP6 DUP2 MSTORE PUSH1 0xCD PUSH1 0x20 SWAP1 DUP2 MSTORE PUSH1 0x40 DUP1 DUP4 KECCAK256 CALLER DUP5 MSTORE SWAP1 SWAP2 MSTORE DUP2 KECCAK256 DUP1 SLOAD CALLVALUE SWAP3 SWAP1 PUSH2 0xF57 SWAP1 DUP5 SWAP1 PUSH2 0x34D6 JUMP JUMPDEST SWAP3 POP POP DUP2 SWAP1 SSTORE POP CALLVALUE DUP2 PUSH1 0x1 ADD PUSH1 0x0 DUP3 DUP3 SLOAD PUSH2 0xF72 SWAP2 SWAP1 PUSH2 0x34D6 JUMP JUMPDEST SWAP1 SWAP2 SSTORE POP POP PUSH1 0x0 DUP6 DUP2 MSTORE PUSH1 0xCA PUSH1 0x20 MSTORE PUSH1 0x40 DUP2 KECCAK256 DUP1 SLOAD SWAP2 PUSH2 0xF91 DUP4 PUSH2 0x34E9 JUMP JUMPDEST SWAP1 SWAP2 SSTORE POP POP PUSH1 0x40 DUP1 MLOAD DUP7 DUP2 MSTORE CALLER PUSH1 0x20 DUP3 ADD MSTORE CALLVALUE DUP2 DUP4 ADD MSTORE SWAP1 MLOAD PUSH32 0xA4A91237423E0A1766A761C7CB029311D8B95D6B1B81DB1B949A70C98B4E08E SWAP2 DUP2 SWAP1 SUB PUSH1 0x60 ADD SWAP1 LOG1 PUSH2 0xFDD DUP6 PUSH2 0x261E JUMP JUMPDEST POP POP POP POP POP JUMP JUMPDEST PUSH1 0x1 PUSH1 0x1 PUSH1 0xA0 SHL SUB PUSH32 0x0 AND ADDRESS SUB PUSH2 0x1071 JUMPI PUSH1 0x40 MLOAD PUSH3 0x461BCD PUSH1 0xE5 SHL DUP2 MSTORE PUSH1 0x20 PUSH1 0x4 DUP3 ADD MSTORE PUSH1 0x2C PUSH1 0x24 DUP3 ADD MSTORE PUSH32 0x46756E6374696F6E206D7573742062652063616C6C6564207468726F75676820 PUSH1 0x44 DUP3 ADD MSTORE PUSH12 0x19195B1959D85D1958D85B1B PUSH1 0xA2 SHL PUSH1 0x64 DUP3 ADD MSTORE PUSH1 0x84 ADD PUSH2 0x748 JUMP JUMPDEST PUSH32 0x0 PUSH1 0x1 PUSH1 0x1 PUSH1 0xA0 SHL SUB AND PUSH2 0x10CC PUSH32 0x360894A13BA1A3210667C828492DB98DCA3E2076CC3735A920A3CA505D382BBC SLOAD PUSH1 0x1 PUSH1 0x1 PUSH1 0xA0 SHL SUB AND SWAP1 JUMP JUMPDEST PUSH1 0x1 PUSH1 0x1 PUSH1 0xA0 SHL SUB AND EQ PUSH2 0x1137 JUMPI PUSH1 0x40 MLOAD PUSH3 0x461BCD PUSH1 0xE5 SHL DUP2 MSTORE PUSH1 0x20 PUSH1 0x4 DUP3 ADD MSTORE PUSH1 0x2C PUSH1 0x24 DUP3 ADD MSTORE PUSH32 0x46756E6374696F6E206D7573742062652063616C6C6564207468726F75676820 PUSH1 0x44 DUP3 ADD MSTORE PUSH12 0x6163746976652070726F7879 PUSH1 0xA0 SHL PUSH1 0x64 DUP3 ADD MSTORE PUSH1 0x84 ADD PUSH2 0x748 JUMP JUMPDEST PUSH2 0x1143 DUP3 DUP3 PUSH1 0x1 PUSH2 0x247E JUMP JUMPDEST POP POP JUMP JUMPDEST PUSH1 0x0 ADDRESS PUSH1 0x1 PUSH1 0x1 PUSH1 0xA0 SHL SUB PUSH32 0x0 AND EQ PUSH2 0x11E7 JUMPI PUSH1 0x40 MLOAD PUSH3 0x461BCD PUSH1 0xE5 SHL DUP2 MSTORE PUSH1 0x20 PUSH1 0x4 DUP3 ADD MSTORE PUSH1 0x38 PUSH1 0x24 DUP3 ADD MSTORE PUSH32 0x555550535570677261646561626C653A206D757374206E6F742062652063616C PUSH1 0x44 DUP3 ADD MSTORE PUSH32 0x6C6564207468726F7567682064656C656761746563616C6C0000000000000000 PUSH1 0x64 DUP3 ADD MSTORE PUSH1 0x84 ADD PUSH2 0x748 JUMP JUMPDEST POP PUSH32 0x360894A13BA1A3210667C828492DB98DCA3E2076CC3735A920A3CA505D382BBC SWAP1 JUMP JUMPDEST PUSH1 0x0 DUP2 DUP2 MSTORE PUSH1 0xCC PUSH1 0x20 MSTORE PUSH1 0x40 DUP2 KECCAK256 PUSH1 0x9 DUP2 ADD SLOAD PUSH1 0x60 SWAP3 DUP4 SWAP3 SWAP2 SWAP1 DUP2 PUSH8 0xFFFFFFFFFFFFFFFF DUP2 GT ISZERO PUSH2 0x123F JUMPI PUSH2 0x123F PUSH2 0x2FD8 JUMP JUMPDEST PUSH1 0x40 MLOAD SWAP1 DUP1 DUP3 MSTORE DUP1 PUSH1 0x20 MUL PUSH1 0x20 ADD DUP3 ADD PUSH1 0x40 MSTORE DUP1 ISZERO PUSH2 0x1268 JUMPI DUP2 PUSH1 0x20 ADD PUSH1 0x20 DUP3 MUL DUP1 CALLDATASIZE DUP4 CALLDATACOPY ADD SWAP1 POP JUMPDEST POP SWAP1 POP PUSH1 0x0 DUP3 PUSH8 0xFFFFFFFFFFFFFFFF DUP2 GT ISZERO PUSH2 0x1286 JUMPI PUSH2 0x1286 PUSH2 0x2FD8 JUMP JUMPDEST PUSH1 0x40 MLOAD SWAP1 DUP1 DUP3 MSTORE DUP1 PUSH1 0x20 MUL PUSH1 0x20 ADD DUP3 ADD PUSH1 0x40 MSTORE DUP1 ISZERO PUSH2 0x12AF JUMPI DUP2 PUSH1 0x20 ADD PUSH1 0x20 DUP3 MUL DUP1 CALLDATASIZE DUP4 CALLDATACOPY ADD SWAP1 POP JUMPDEST POP SWAP1 POP PUSH1 0x0 JUMPDEST DUP4 DUP2 LT ISZERO PUSH2 0x136C JUMPI PUSH1 0x0 DUP6 PUSH1 0x9 ADD DUP3 DUP2 SLOAD DUP2 LT PUSH2 0x12D4 JUMPI PUSH2 0x12D4 PUSH2 0x358B JUMP JUMPDEST SWAP1 PUSH1 0x0 MSTORE PUSH1 0x20 PUSH1 0x0 KECCAK256 ADD PUSH1 0x0 SWAP1 SLOAD SWAP1 PUSH2 0x100 EXP SWAP1 DIV PUSH1 0x1 PUSH1 0x1 PUSH1 0xA0 SHL SUB AND SWAP1 POP DUP1 DUP5 DUP4 DUP2 MLOAD DUP2 LT PUSH2 0x1307 JUMPI PUSH2 0x1307 PUSH2 0x358B JUMP JUMPDEST PUSH1 0x1 PUSH1 0x1 PUSH1 0xA0 SHL SUB SWAP3 DUP4 AND PUSH1 0x20 SWAP2 DUP3 MUL SWAP3 SWAP1 SWAP3 ADD DUP2 ADD SWAP2 SWAP1 SWAP2 MSTORE PUSH1 0x0 DUP12 DUP2 MSTORE PUSH1 0xCD DUP3 MSTORE PUSH1 0x40 DUP1 DUP3 KECCAK256 SWAP4 DUP6 AND DUP3 MSTORE SWAP3 SWAP1 SWAP2 MSTORE KECCAK256 SLOAD DUP4 MLOAD DUP5 SWAP1 DUP5 SWAP1 DUP2 LT PUSH2 0x134E JUMPI PUSH2 0x134E PUSH2 0x358B JUMP JUMPDEST PUSH1 0x20 SWAP1 DUP2 MUL SWAP2 SWAP1 SWAP2 ADD ADD MSTORE POP DUP1 PUSH2 0x1364 DUP2 PUSH2 0x34E9 JUMP JUMPDEST SWAP2 POP POP PUSH2 0x12B5 JUMP JUMPDEST POP SWAP1 SWAP7 SWAP1 SWAP6 POP SWAP4 POP POP POP POP JUMP JUMPDEST PUSH2 0x1381 PUSH2 0x26C4 JUMP JUMPDEST PUSH2 0x138B PUSH1 0x0 PUSH2 0x271E JUMP JUMPDEST JUMP JUMPDEST CALLER PUSH1 0x0 SWAP1 DUP2 MSTORE PUSH1 0xCB PUSH1 0x20 MSTORE PUSH1 0x40 SWAP1 KECCAK256 PUSH1 0x2 ADD SLOAD PUSH1 0x1 PUSH1 0xA8 SHL SWAP1 DIV PUSH1 0xFF AND PUSH2 0x1402 JUMPI PUSH1 0x40 MLOAD PUSH3 0x461BCD PUSH1 0xE5 SHL DUP2 MSTORE PUSH1 0x20 PUSH1 0x4 DUP3 ADD MSTORE PUSH1 0x23 PUSH1 0x24 DUP3 ADD MSTORE PUSH32 0x4F6E6C792076657269666965642075736572732063616E207061727469636970 PUSH1 0x44 DUP3 ADD MSTORE PUSH3 0x617465 PUSH1 0xE8 SHL PUSH1 0x64 DUP3 ADD MSTORE PUSH1 0x84 ADD PUSH2 0x748 JUMP JUMPDEST PUSH1 0x0 DUP1 CALLER PUSH1 0x0 SWAP1 DUP2 MSTORE PUSH1 0xCB PUSH1 0x20 MSTORE PUSH1 0x40 SWAP1 KECCAK256 PUSH1 0x2 SWAP1 DUP2 ADD SLOAD PUSH1 0xFF AND SWAP1 DUP2 GT ISZERO PUSH2 0x142D JUMPI PUSH2 0x142D PUSH2 0x2EDF JUMP JUMPDEST EQ PUSH2 0x14A0 JUMPI PUSH1 0x40 MLOAD PUSH3 0x461BCD PUSH1 0xE5 SHL DUP2 MSTORE PUSH1 0x20 PUSH1 0x4 DUP3 ADD MSTORE PUSH1 0x3C PUSH1 0x24 DUP3 ADD MSTORE PUSH32 0x4F6E6C79207573657273206F6620746865207370656369666965642063617465 PUSH1 0x44 DUP3 ADD MSTORE PUSH32 0x676F72792063616E20706572666F726D207468697320616374696F6E00000000 PUSH1 0x64 DUP3 ADD MSTORE PUSH1 0x84 ADD PUSH2 0x748 JUMP JUMPDEST PUSH1 0x0 DUP4 DUP2 MSTORE PUSH1 0xCC PUSH1 0x20 MSTORE PUSH1 0x40 DUP2 KECCAK256 SWAP1 PUSH1 0x8 DUP3 ADD SLOAD PUSH1 0x1 PUSH1 0xA0 SHL SWAP1 DIV PUSH1 0xFF AND PUSH1 0x2 DUP2 GT ISZERO PUSH2 0x14CF JUMPI PUSH2 0x14CF PUSH2 0x2EDF JUMP JUMPDEST EQ PUSH2 0x151C JUMPI PUSH1 0x40 MLOAD PUSH3 0x461BCD PUSH1 0xE5 SHL DUP2 MSTORE PUSH1 0x20 PUSH1 0x4 DUP3 ADD MSTORE PUSH1 0x17 PUSH1 0x24 DUP3 ADD MSTORE PUSH32 0x43616D706169676E206973206E6F74206F6E676F696E67000000000000000000 PUSH1 0x44 DUP3 ADD MSTORE PUSH1 0x64 ADD PUSH2 0x748 JUMP JUMPDEST PUSH1 0x8 DUP2 ADD SLOAD PUSH1 0x1 PUSH1 0x1 PUSH1 0xA0 SHL SUB AND CALLER EQ PUSH2 0x159E JUMPI PUSH1 0x40 MLOAD PUSH3 0x461BCD PUSH1 0xE5 SHL DUP2 MSTORE PUSH1 0x20 PUSH1 0x4 DUP3 ADD MSTORE PUSH1 0x2A PUSH1 0x24 DUP3 ADD MSTORE PUSH32 0x4F6E6C792074686520656E7472657072656E6575722063616E20637265617465 PUSH1 0x44 DUP3 ADD MSTORE PUSH32 0x2061207265717565737400000000000000000000000000000000000000000000 PUSH1 0x64 DUP3 ADD MSTORE PUSH1 0x84 ADD PUSH2 0x748 JUMP JUMPDEST PUSH1 0xA DUP2 ADD SLOAD PUSH1 0xFF AND ISZERO PUSH2 0x1619 JUMPI PUSH1 0x40 MLOAD PUSH3 0x461BCD PUSH1 0xE5 SHL DUP2 MSTORE PUSH1 0x20 PUSH1 0x4 DUP3 ADD MSTORE PUSH1 0x34 PUSH1 0x24 DUP3 ADD MSTORE PUSH32 0x4120726571756573742068617320616C7265616479206265656E206372656174 PUSH1 0x44 DUP3 ADD MSTORE PUSH32 0x656420666F7220746869732063616D706169676E000000000000000000000000 PUSH1 0x64 DUP3 ADD MSTORE PUSH1 0x84 ADD PUSH2 0x748 JUMP JUMPDEST DUP1 PUSH1 0x1 ADD SLOAD DUP4 GT ISZERO PUSH2 0x1693 JUMPI PUSH1 0x40 MLOAD PUSH3 0x461BCD PUSH1 0xE5 SHL DUP2 MSTORE PUSH1 0x20 PUSH1 0x4 DUP3 ADD MSTORE PUSH1 0x3E PUSH1 0x24 DUP3 ADD MSTORE PUSH32 0x5265717565737420616D6F756E74206D757374206265206C657373207468616E PUSH1 0x44 DUP3 ADD MSTORE PUSH32 0x206F7220657175616C20746F207468652072616973656420616D6F756E740000 PUSH1 0x64 DUP3 ADD MSTORE PUSH1 0x84 ADD PUSH2 0x748 JUMP JUMPDEST PUSH1 0x2 DUP2 ADD DUP4 SWAP1 SSTORE PUSH1 0xA DUP2 ADD DUP1 SLOAD PUSH1 0xFF NOT AND PUSH1 0x1 OR SWAP1 SSTORE PUSH1 0x40 DUP1 MLOAD DUP6 DUP2 MSTORE PUSH1 0x20 DUP2 ADD DUP6 SWAP1 MSTORE PUSH32 0x99F063607B2D9F794EB8985DAF4A0D3224E73B48E43228A183329E415DFF077E SWAP2 ADD PUSH1 0x40 MLOAD DUP1 SWAP2 SUB SWAP1 LOG1 POP POP POP POP JUMP JUMPDEST PUSH1 0x0 SLOAD PUSH2 0x100 SWAP1 DIV PUSH1 0xFF AND ISZERO DUP1 DUP1 ISZERO PUSH2 0x1708 JUMPI POP PUSH1 0x0 SLOAD PUSH1 0x1 PUSH1 0xFF SWAP1 SWAP2 AND LT JUMPDEST DUP1 PUSH2 0x1722 JUMPI POP ADDRESS EXTCODESIZE ISZERO DUP1 ISZERO PUSH2 0x1722 JUMPI POP PUSH1 0x0 SLOAD PUSH1 0xFF AND PUSH1 0x1 EQ JUMPDEST PUSH2 0x1794 JUMPI PUSH1 0x40 MLOAD PUSH3 0x461BCD PUSH1 0xE5 SHL DUP2 MSTORE PUSH1 0x20 PUSH1 0x4 DUP3 ADD MSTORE PUSH1 0x2E PUSH1 0x24 DUP3 ADD MSTORE PUSH32 0x496E697469616C697A61626C653A20636F6E747261637420697320616C726561 PUSH1 0x44 DUP3 ADD MSTORE PUSH32 0x647920696E697469616C697A6564000000000000000000000000000000000000 PUSH1 0x64 DUP3 ADD MSTORE PUSH1 0x84 ADD PUSH2 0x748 JUMP JUMPDEST PUSH1 0x0 DUP1 SLOAD PUSH1 0xFF NOT AND PUSH1 0x1 OR SWAP1 SSTORE DUP1 ISZERO PUSH2 0x17B7 JUMPI PUSH1 0x0 DUP1 SLOAD PUSH2 0xFF00 NOT AND PUSH2 0x100 OR SWAP1 SSTORE JUMPDEST PUSH2 0x17BF PUSH2 0x277D JUMP JUMPDEST PUSH2 0x17C7 PUSH2 0x27F0 JUMP JUMPDEST DUP1 ISZERO PUSH2 0xBF5 JUMPI PUSH1 0x0 DUP1 SLOAD PUSH2 0xFF00 NOT AND SWAP1 SSTORE PUSH1 0x40 MLOAD PUSH1 0x1 DUP2 MSTORE PUSH32 0x7F26B83FF96E1F2B6A682F133852F6798A09C465DA95921460CEFB3847402498 SWAP1 PUSH1 0x20 ADD PUSH1 0x40 MLOAD DUP1 SWAP2 SUB SWAP1 LOG1 POP JUMP JUMPDEST PUSH1 0x0 DUP1 DUP1 JUMPDEST PUSH1 0xC9 SLOAD DUP2 LT ISZERO PUSH2 0x1866 JUMPI PUSH1 0x0 DUP2 DUP2 MSTORE PUSH1 0xCD PUSH1 0x20 SWAP1 DUP2 MSTORE PUSH1 0x40 DUP1 DUP4 KECCAK256 PUSH1 0x1 PUSH1 0x1 PUSH1 0xA0 SHL SUB DUP9 AND DUP5 MSTORE SWAP1 SWAP2 MSTORE SWAP1 KECCAK256 SLOAD ISZERO PUSH2 0x1854 JUMPI DUP2 PUSH2 0x1850 DUP2 PUSH2 0x34E9 JUMP JUMPDEST SWAP3 POP POP JUMPDEST DUP1 PUSH2 0x185E DUP2 PUSH2 0x34E9 JUMP JUMPDEST SWAP2 POP POP PUSH2 0x1814 JUMP JUMPDEST POP SWAP3 SWAP2 POP POP JUMP JUMPDEST PUSH1 0x60 PUSH1 0x0 PUSH1 0xC9 SLOAD PUSH8 0xFFFFFFFFFFFFFFFF DUP2 GT ISZERO PUSH2 0x188C JUMPI PUSH2 0x188C PUSH2 0x2FD8 JUMP JUMPDEST PUSH1 0x40 MLOAD SWAP1 DUP1 DUP3 MSTORE DUP1 PUSH1 0x20 MUL PUSH1 0x20 ADD DUP3 ADD PUSH1 0x40 MSTORE DUP1 ISZERO PUSH2 0x18C5 JUMPI DUP2 PUSH1 0x20 ADD JUMPDEST PUSH2 0x18B2 PUSH2 0x2DFB JUMP JUMPDEST DUP2 MSTORE PUSH1 0x20 ADD SWAP1 PUSH1 0x1 SWAP1 SUB SWAP1 DUP2 PUSH2 0x18AA JUMPI SWAP1 POP JUMPDEST POP SWAP1 POP PUSH1 0x0 JUMPDEST PUSH1 0xC9 SLOAD DUP2 LT ISZERO PUSH2 0x1BBF JUMPI PUSH1 0xCC PUSH1 0x0 DUP3 DUP2 MSTORE PUSH1 0x20 ADD SWAP1 DUP2 MSTORE PUSH1 0x20 ADD PUSH1 0x0 KECCAK256 PUSH1 0x40 MLOAD DUP1 PUSH2 0x180 ADD PUSH1 0x40 MSTORE SWAP1 DUP2 PUSH1 0x0 DUP3 ADD SLOAD DUP2 MSTORE PUSH1 0x20 ADD PUSH1 0x1 DUP3 ADD SLOAD DUP2 MSTORE PUSH1 0x20 ADD PUSH1 0x2 DUP3 ADD SLOAD DUP2 MSTORE PUSH1 0x20 ADD PUSH1 0x3 DUP3 ADD SLOAD DUP2 MSTORE PUSH1 0x20 ADD PUSH1 0x4 DUP3 ADD SLOAD DUP2 MSTORE PUSH1 0x20 ADD PUSH1 0x5 DUP3 ADD DUP1 SLOAD PUSH2 0x1936 SWAP1 PUSH2 0x348C JUMP JUMPDEST DUP1 PUSH1 0x1F ADD PUSH1 0x20 DUP1 SWAP2 DIV MUL PUSH1 0x20 ADD PUSH1 0x40 MLOAD SWAP1 DUP2 ADD PUSH1 0x40 MSTORE DUP1 SWAP3 SWAP2 SWAP1 DUP2 DUP2 MSTORE PUSH1 0x20 ADD DUP3 DUP1 SLOAD PUSH2 0x1962 SWAP1 PUSH2 0x348C JUMP JUMPDEST DUP1 ISZERO PUSH2 0x19AF JUMPI DUP1 PUSH1 0x1F LT PUSH2 0x1984 JUMPI PUSH2 0x100 DUP1 DUP4 SLOAD DIV MUL DUP4 MSTORE SWAP2 PUSH1 0x20 ADD SWAP2 PUSH2 0x19AF JUMP JUMPDEST DUP3 ADD SWAP2 SWAP1 PUSH1 0x0 MSTORE PUSH1 0x20 PUSH1 0x0 KECCAK256 SWAP1 JUMPDEST DUP2 SLOAD DUP2 MSTORE SWAP1 PUSH1 0x1 ADD SWAP1 PUSH1 0x20 ADD DUP1 DUP4 GT PUSH2 0x1992 JUMPI DUP3 SWAP1 SUB PUSH1 0x1F AND DUP3 ADD SWAP2 JUMPDEST POP POP POP POP POP DUP2 MSTORE PUSH1 0x20 ADD PUSH1 0x6 DUP3 ADD DUP1 SLOAD PUSH2 0x19C8 SWAP1 PUSH2 0x348C JUMP JUMPDEST DUP1 PUSH1 0x1F ADD PUSH1 0x20 DUP1 SWAP2 DIV MUL PUSH1 0x20 ADD PUSH1 0x40 MLOAD SWAP1 DUP2 ADD PUSH1 0x40 MSTORE DUP1 SWAP3 SWAP2 SWAP1 DUP2 DUP2 MSTORE PUSH1 0x20 ADD DUP3 DUP1 SLOAD PUSH2 0x19F4 SWAP1 PUSH2 0x348C JUMP JUMPDEST DUP1 ISZERO PUSH2 0x1A41 JUMPI DUP1 PUSH1 0x1F LT PUSH2 0x1A16 JUMPI PUSH2 0x100 DUP1 DUP4 SLOAD DIV MUL DUP4 MSTORE SWAP2 PUSH1 0x20 ADD SWAP2 PUSH2 0x1A41 JUMP JUMPDEST DUP3 ADD SWAP2 SWAP1 PUSH1 0x0 MSTORE PUSH1 0x20 PUSH1 0x0 KECCAK256 SWAP1 JUMPDEST DUP2 SLOAD DUP2 MSTORE SWAP1 PUSH1 0x1 ADD SWAP1 PUSH1 0x20 ADD DUP1 DUP4 GT PUSH2 0x1A24 JUMPI DUP3 SWAP1 SUB PUSH1 0x1F AND DUP3 ADD SWAP2 JUMPDEST POP POP POP POP POP DUP2 MSTORE PUSH1 0x20 ADD PUSH1 0x7 DUP3 ADD DUP1 SLOAD PUSH2 0x1A5A SWAP1 PUSH2 0x348C JUMP JUMPDEST DUP1 PUSH1 0x1F ADD PUSH1 0x20 DUP1 SWAP2 DIV MUL PUSH1 0x20 ADD PUSH1 0x40 MLOAD SWAP1 DUP2 ADD PUSH1 0x40 MSTORE DUP1 SWAP3 SWAP2 SWAP1 DUP2 DUP2 MSTORE PUSH1 0x20 ADD DUP3 DUP1 SLOAD PUSH2 0x1A86 SWAP1 PUSH2 0x348C JUMP JUMPDEST DUP1 ISZERO PUSH2 0x1AD3 JUMPI DUP1 PUSH1 0x1F LT PUSH2 0x1AA8 JUMPI PUSH2 0x100 DUP1 DUP4 SLOAD DIV MUL DUP4 MSTORE SWAP2 PUSH1 0x20 ADD SWAP2 PUSH2 0x1AD3 JUMP JUMPDEST DUP3 ADD SWAP2 SWAP1 PUSH1 0x0 MSTORE PUSH1 0x20 PUSH1 0x0 KECCAK256 SWAP1 JUMPDEST DUP2 SLOAD DUP2 MSTORE SWAP1 PUSH1 0x1 ADD SWAP1 PUSH1 0x20 ADD DUP1 DUP4 GT PUSH2 0x1AB6 JUMPI DUP3 SWAP1 SUB PUSH1 0x1F AND DUP3 ADD SWAP2 JUMPDEST POP POP POP SWAP2 DUP4 MSTORE POP POP PUSH1 0x8 DUP3 ADD SLOAD PUSH1 0x1 PUSH1 0x1 PUSH1 0xA0 SHL SUB DUP2 AND PUSH1 0x20 DUP4 ADD MSTORE PUSH1 0x40 SWAP1 SWAP2 ADD SWAP1 PUSH1 0x1 PUSH1 0xA0 SHL SWAP1 DIV PUSH1 0xFF AND PUSH1 0x2 DUP2 GT ISZERO PUSH2 0x1B10 JUMPI PUSH2 0x1B10 PUSH2 0x2EDF JUMP JUMPDEST PUSH1 0x2 DUP2 GT ISZERO PUSH2 0x1B21 JUMPI PUSH2 0x1B21 PUSH2 0x2EDF JUMP JUMPDEST DUP2 MSTORE PUSH1 0x20 ADD PUSH1 0x9 DUP3 ADD DUP1 SLOAD DUP1 PUSH1 0x20 MUL PUSH1 0x20 ADD PUSH1 0x40 MLOAD SWAP1 DUP2 ADD PUSH1 0x40 MSTORE DUP1 SWAP3 SWAP2 SWAP1 DUP2 DUP2 MSTORE PUSH1 0x20 ADD DUP3 DUP1 SLOAD DUP1 ISZERO PUSH2 0x1B7E JUMPI PUSH1 0x20 MUL DUP3 ADD SWAP2 SWAP1 PUSH1 0x0 MSTORE PUSH1 0x20 PUSH1 0x0 KECCAK256 SWAP1 JUMPDEST DUP2 SLOAD PUSH1 0x1 PUSH1 0x1 PUSH1 0xA0 SHL SUB AND DUP2 MSTORE PUSH1 0x1 SWAP1 SWAP2 ADD SWAP1 PUSH1 0x20 ADD DUP1 DUP4 GT PUSH2 0x1B60 JUMPI JUMPDEST POP POP POP SWAP2 DUP4 MSTORE POP POP PUSH1 0xA SWAP2 SWAP1 SWAP2 ADD SLOAD PUSH1 0xFF AND ISZERO ISZERO PUSH1 0x20 SWAP1 SWAP2 ADD MSTORE DUP3 MLOAD DUP4 SWAP1 DUP4 SWAP1 DUP2 LT PUSH2 0x1BAC JUMPI PUSH2 0x1BAC PUSH2 0x358B JUMP JUMPDEST PUSH1 0x20 SWAP1 DUP2 MUL SWAP2 SWAP1 SWAP2 ADD ADD MSTORE PUSH1 0x1 ADD PUSH2 0x18CB JUMP JUMPDEST POP SWAP2 SWAP1 POP JUMP JUMPDEST CALLER PUSH1 0x0 SWAP1 DUP2 MSTORE PUSH1 0xCB PUSH1 0x20 MSTORE PUSH1 0x40 SWAP1 KECCAK256 PUSH1 0x2 ADD SLOAD PUSH1 0x1 PUSH1 0xA8 SHL SWAP1 DIV PUSH1 0xFF AND PUSH2 0x1C3A JUMPI PUSH1 0x40 MLOAD PUSH3 0x461BCD PUSH1 0xE5 SHL DUP2 MSTORE PUSH1 0x20 PUSH1 0x4 DUP3 ADD MSTORE PUSH1 0x23 PUSH1 0x24 DUP3 ADD MSTORE PUSH32 0x4F6E6C792076657269666965642075736572732063616E207061727469636970 PUSH1 0x44 DUP3 ADD MSTORE PUSH3 0x617465 PUSH1 0xE8 SHL PUSH1 0x64 DUP3 ADD MSTORE PUSH1 0x84 ADD PUSH2 0x748 JUMP JUMPDEST PUSH1 0x1 DUP1 CALLER PUSH1 0x0 SWAP1 DUP2 MSTORE PUSH1 0xCB PUSH1 0x20 MSTORE PUSH1 0x40 SWAP1 KECCAK256 PUSH1 0x2 SWAP1 DUP2 ADD SLOAD PUSH1 0xFF AND SWAP1 DUP2 GT ISZERO PUSH2 0x1C65 JUMPI PUSH2 0x1C65 PUSH2 0x2EDF JUMP JUMPDEST EQ PUSH2 0x1CD8 JUMPI PUSH1 0x40 MLOAD PUSH3 0x461BCD PUSH1 0xE5 SHL DUP2 MSTORE PUSH1 0x20 PUSH1 0x4 DUP3 ADD MSTORE PUSH1 0x3C PUSH1 0x24 DUP3 ADD MSTORE PUSH32 0x4F6E6C79207573657273206F6620746865207370656369666965642063617465 PUSH1 0x44 DUP3 ADD MSTORE PUSH32 0x676F72792063616E20706572666F726D207468697320616374696F6E00000000 PUSH1 0x64 DUP3 ADD MSTORE PUSH1 0x84 ADD PUSH2 0x748 JUMP JUMPDEST PUSH1 0x0 DUP3 DUP2 MSTORE PUSH1 0xCC PUSH1 0x20 MSTORE PUSH1 0x40 DUP2 KECCAK256 SWAP1 PUSH1 0x8 DUP3 ADD SLOAD PUSH1 0x1 PUSH1 0xA0 SHL SWAP1 DIV PUSH1 0xFF AND PUSH1 0x2 DUP2 GT ISZERO PUSH2 0x1D07 JUMPI PUSH2 0x1D07 PUSH2 0x2EDF JUMP JUMPDEST EQ PUSH2 0x1D54 JUMPI PUSH1 0x40 MLOAD PUSH3 0x461BCD PUSH1 0xE5 SHL DUP2 MSTORE PUSH1 0x20 PUSH1 0x4 DUP3 ADD MSTORE PUSH1 0x17 PUSH1 0x24 DUP3 ADD MSTORE PUSH32 0x43616D706169676E206973206E6F74206F6E676F696E67000000000000000000 PUSH1 0x44 DUP3 ADD MSTORE PUSH1 0x64 ADD PUSH2 0x748 JUMP JUMPDEST PUSH1 0x0 DUP4 DUP2 MSTORE PUSH1 0xCD PUSH1 0x20 SWAP1 DUP2 MSTORE PUSH1 0x40 DUP1 DUP4 KECCAK256 CALLER DUP5 MSTORE SWAP1 SWAP2 MSTORE SWAP1 KECCAK256 SLOAD PUSH2 0x1DC6 JUMPI PUSH1 0x40 MLOAD PUSH3 0x461BCD PUSH1 0xE5 SHL DUP2 MSTORE PUSH1 0x20 PUSH1 0x4 DUP3 ADD MSTORE PUSH1 0x24 DUP1 DUP3 ADD MSTORE PUSH32 0x4F6E6C7920696E766573746F72732063616E20617070726F7665206120726571 PUSH1 0x44 DUP3 ADD MSTORE PUSH4 0x1D595CDD PUSH1 0xE2 SHL PUSH1 0x64 DUP3 ADD MSTORE PUSH1 0x84 ADD PUSH2 0x748 JUMP JUMPDEST PUSH1 0xA DUP2 ADD SLOAD PUSH1 0xFF AND PUSH2 0x1E26 JUMPI PUSH1 0x40 MLOAD PUSH3 0x461BCD PUSH1 0xE5 SHL DUP2 MSTORE PUSH1 0x20 PUSH1 0x4 DUP3 ADD MSTORE PUSH1 0x23 PUSH1 0x24 DUP3 ADD MSTORE PUSH32 0x4E6F20726571756573742065786973747320666F7220746869732063616D7061 PUSH1 0x44 DUP3 ADD MSTORE PUSH3 0x34B3B7 PUSH1 0xE9 SHL PUSH1 0x64 DUP3 ADD MSTORE PUSH1 0x84 ADD PUSH2 0x748 JUMP JUMPDEST PUSH1 0x0 DUP4 DUP2 MSTORE PUSH1 0xCE PUSH1 0x20 SWAP1 DUP2 MSTORE PUSH1 0x40 DUP1 DUP4 KECCAK256 CALLER DUP5 MSTORE SWAP1 SWAP2 MSTORE SWAP1 KECCAK256 SLOAD PUSH1 0xFF AND ISZERO PUSH2 0x1EB6 JUMPI PUSH1 0x40 MLOAD PUSH3 0x461BCD PUSH1 0xE5 SHL DUP2 MSTORE PUSH1 0x20 PUSH1 0x4 DUP3 ADD MSTORE PUSH1 0x29 PUSH1 0x24 DUP3 ADD MSTORE PUSH32 0x496E766573746F722068617320616C726561647920617070726F766564207468 PUSH1 0x44 DUP3 ADD MSTORE PUSH32 0x6520726571756573740000000000000000000000000000000000000000000000 PUSH1 0x64 DUP3 ADD MSTORE PUSH1 0x84 ADD PUSH2 0x748 JUMP JUMPDEST PUSH1 0x0 DUP4 DUP2 MSTORE PUSH1 0xCE PUSH1 0x20 SWAP1 DUP2 MSTORE PUSH1 0x40 DUP1 DUP4 KECCAK256 CALLER DUP1 DUP6 MSTORE SWAP1 DUP4 MSTORE SWAP3 DUP2 SWAP1 KECCAK256 DUP1 SLOAD PUSH1 0xFF NOT AND PUSH1 0x1 OR SWAP1 SSTORE DUP1 MLOAD DUP7 DUP2 MSTORE SWAP2 DUP3 ADD SWAP3 SWAP1 SWAP3 MSTORE PUSH32 0xF3DC904660A0EA05ABA8DFA1E21FBC4FB2914BE2A3029DA7B0FDD3E5EEE20DDB SWAP2 ADD PUSH1 0x40 MLOAD DUP1 SWAP2 SUB SWAP1 LOG1 PUSH2 0x1F1D DUP2 PUSH2 0x285B JUMP JUMPDEST ISZERO PUSH2 0x1F2B JUMPI PUSH2 0x1F2B DUP4 PUSH2 0x28FE JUMP JUMPDEST POP POP POP JUMP JUMPDEST PUSH1 0xCB PUSH1 0x20 MSTORE PUSH1 0x0 SWAP1 DUP2 MSTORE PUSH1 0x40 SWAP1 KECCAK256 DUP1 SLOAD DUP2 SWAP1 PUSH2 0x1F4B SWAP1 PUSH2 0x348C JUMP JUMPDEST DUP1 PUSH1 0x1F ADD PUSH1 0x20 DUP1 SWAP2 DIV MUL PUSH1 0x20 ADD PUSH1 0x40 MLOAD SWAP1 DUP2 ADD PUSH1 0x40 MSTORE DUP1 SWAP3 SWAP2 SWAP1 DUP2 DUP2 MSTORE PUSH1 0x20 ADD DUP3 DUP1 SLOAD PUSH2 0x1F77 SWAP1 PUSH2 0x348C JUMP JUMPDEST DUP1 ISZERO PUSH2 0x1FC4 JUMPI DUP1 PUSH1 0x1F LT PUSH2 0x1F99 JUMPI PUSH2 0x100 DUP1 DUP4 SLOAD DIV MUL DUP4 MSTORE SWAP2 PUSH1 0x20 ADD SWAP2 PUSH2 0x1FC4 JUMP JUMPDEST DUP3 ADD SWAP2 SWAP1 PUSH1 0x0 MSTORE PUSH1 0x20 PUSH1 0x0 KECCAK256 SWAP1 JUMPDEST DUP2 SLOAD DUP2 MSTORE SWAP1 PUSH1 0x1 ADD SWAP1 PUSH1 0x20 ADD DUP1 DUP4 GT PUSH2 0x1FA7 JUMPI DUP3 SWAP1 SUB PUSH1 0x1F AND DUP3 ADD SWAP2 JUMPDEST POP POP POP POP POP SWAP1 DUP1 PUSH1 0x1 ADD DUP1 SLOAD PUSH2 0x1FD9 SWAP1 PUSH2 0x348C JUMP JUMPDEST DUP1 PUSH1 0x1F ADD PUSH1 0x20 DUP1 SWAP2 DIV MUL PUSH1 0x20 ADD PUSH1 0x40 MLOAD SWAP1 DUP2 ADD PUSH1 0x40 MSTORE DUP1 SWAP3 SWAP2 SWAP1 DUP2 DUP2 MSTORE PUSH1 0x20 ADD DUP3 DUP1 SLOAD PUSH2 0x2005 SWAP1 PUSH2 0x348C JUMP JUMPDEST DUP1 ISZERO PUSH2 0x2052 JUMPI DUP1 PUSH1 0x1F LT PUSH2 0x2027 JUMPI PUSH2 0x100 DUP1 DUP4 SLOAD DIV MUL DUP4 MSTORE SWAP2 PUSH1 0x20 ADD SWAP2 PUSH2 0x2052 JUMP JUMPDEST DUP3 ADD SWAP2 SWAP1 PUSH1 0x0 MSTORE PUSH1 0x20 PUSH1 0x0 KECCAK256 SWAP1 JUMPDEST DUP2 SLOAD DUP2 MSTORE SWAP1 PUSH1 0x1 ADD SWAP1 PUSH1 0x20 ADD DUP1 DUP4 GT PUSH2 0x2035 JUMPI DUP3 SWAP1 SUB PUSH1 0x1F AND DUP3 ADD SWAP2 JUMPDEST POP POP POP PUSH1 0x2 SWAP1 SWAP4 ADD SLOAD SWAP2 SWAP3 POP POP PUSH1 0xFF DUP1 DUP3 AND SWAP2 PUSH1 0x1 PUSH1 0x1 PUSH1 0xA0 SHL SUB PUSH2 0x100 DUP3 DIV AND SWAP2 PUSH1 0x1 PUSH1 0xA8 SHL SWAP1 SWAP2 DIV AND DUP6 JUMP JUMPDEST PUSH1 0x0 DUP5 MLOAD GT PUSH2 0x20D1 JUMPI PUSH1 0x40 MLOAD PUSH3 0x461BCD PUSH1 0xE5 SHL DUP2 MSTORE PUSH1 0x20 PUSH1 0x4 DUP3 ADD MSTORE PUSH1 0x15 PUSH1 0x24 DUP3 ADD MSTORE PUSH32 0x456D61696C2063616E6E6F7420626520656D7074790000000000000000000000 PUSH1 0x44 DUP3 ADD MSTORE PUSH1 0x64 ADD PUSH2 0x748 JUMP JUMPDEST PUSH1 0x0 DUP4 MLOAD GT PUSH2 0x2122 JUMPI PUSH1 0x40 MLOAD PUSH3 0x461BCD PUSH1 0xE5 SHL DUP2 MSTORE PUSH1 0x20 PUSH1 0x4 DUP3 ADD MSTORE PUSH1 0x18 PUSH1 0x24 DUP3 ADD MSTORE PUSH32 0x50617373776F72642063616E6E6F7420626520656D7074790000000000000000 PUSH1 0x44 DUP3 ADD MSTORE PUSH1 0x64 ADD PUSH2 0x748 JUMP JUMPDEST PUSH1 0x1 PUSH1 0x1 PUSH1 0xA0 SHL SUB DUP3 AND PUSH2 0x2178 JUMPI PUSH1 0x40 MLOAD PUSH3 0x461BCD PUSH1 0xE5 SHL DUP2 MSTORE PUSH1 0x20 PUSH1 0x4 DUP3 ADD MSTORE PUSH1 0x16 PUSH1 0x24 DUP3 ADD MSTORE PUSH32 0x496E76616C69642077616C6C6574206164647265737300000000000000000000 PUSH1 0x44 DUP3 ADD MSTORE PUSH1 0x64 ADD PUSH2 0x748 JUMP JUMPDEST CALLER PUSH1 0x0 SWAP1 DUP2 MSTORE PUSH1 0xCB PUSH1 0x20 MSTORE PUSH1 0x40 SWAP1 KECCAK256 PUSH1 0x2 ADD SLOAD PUSH1 0x1 PUSH1 0xA8 SHL SWAP1 DIV PUSH1 0xFF AND ISZERO PUSH2 0x21E2 JUMPI PUSH1 0x40 MLOAD PUSH3 0x461BCD PUSH1 0xE5 SHL DUP2 MSTORE PUSH1 0x20 PUSH1 0x4 DUP3 ADD MSTORE PUSH1 0x1A PUSH1 0x24 DUP3 ADD MSTORE PUSH32 0x5573657220697320616C72656164792072656769737465726564000000000000 PUSH1 0x44 DUP3 ADD MSTORE PUSH1 0x64 ADD PUSH2 0x748 JUMP JUMPDEST PUSH1 0x40 MLOAD DUP1 PUSH1 0xA0 ADD PUSH1 0x40 MSTORE DUP1 DUP6 DUP2 MSTORE PUSH1 0x20 ADD DUP5 DUP2 MSTORE PUSH1 0x20 ADD DUP3 PUSH1 0x2 DUP2 GT ISZERO PUSH2 0x220B JUMPI PUSH2 0x220B PUSH2 0x2EDF JUMP JUMPDEST DUP2 MSTORE PUSH1 0x1 PUSH1 0x1 PUSH1 0xA0 SHL SUB DUP5 AND PUSH1 0x20 DUP1 DUP4 ADD SWAP2 SWAP1 SWAP2 MSTORE PUSH1 0x1 PUSH1 0x40 SWAP3 DUP4 ADD MSTORE CALLER PUSH1 0x0 SWAP1 DUP2 MSTORE PUSH1 0xCB SWAP1 SWAP2 MSTORE KECCAK256 DUP2 MLOAD DUP2 SWAP1 PUSH2 0x2242 SWAP1 DUP3 PUSH2 0x35EF JUMP JUMPDEST POP PUSH1 0x20 DUP3 ADD MLOAD PUSH1 0x1 DUP3 ADD SWAP1 PUSH2 0x2257 SWAP1 DUP3 PUSH2 0x35EF JUMP JUMPDEST POP PUSH1 0x40 DUP3 ADD MLOAD DUP2 PUSH1 0x2 ADD PUSH1 0x0 PUSH2 0x100 EXP DUP2 SLOAD DUP2 PUSH1 0xFF MUL NOT AND SWAP1 DUP4 PUSH1 0x2 DUP2 GT ISZERO PUSH2 0x2282 JUMPI PUSH2 0x2282 PUSH2 0x2EDF JUMP JUMPDEST MUL OR SWAP1 SSTORE POP PUSH1 0x60 DUP3 ADD MLOAD PUSH1 0x2 SWAP1 SWAP2 ADD DUP1 SLOAD PUSH1 0x80 SWAP1 SWAP4 ADD MLOAD ISZERO ISZERO PUSH1 0x1 PUSH1 0xA8 SHL MUL PUSH32 0xFFFFFFFFFFFFFFFFFFFF00FFFFFFFFFFFFFFFFFFFFFFFFFFFFFFFFFFFFFFFFFF PUSH1 0x1 PUSH1 0x1 PUSH1 0xA0 SHL SUB SWAP1 SWAP4 AND PUSH2 0x100 MUL SWAP3 SWAP1 SWAP3 AND PUSH32 0xFFFFFFFFFFFFFFFFFFFF000000000000000000000000000000000000000000FF SWAP1 SWAP4 AND SWAP3 SWAP1 SWAP3 OR OR SWAP1 SSTORE POP POP POP POP JUMP JUMPDEST PUSH2 0x230E PUSH2 0x26C4 JUMP JUMPDEST PUSH1 0x1 PUSH1 0x1 PUSH1 0xA0 SHL SUB DUP2 AND PUSH2 0x238A JUMPI PUSH1 0x40 MLOAD PUSH3 0x461BCD PUSH1 0xE5 SHL DUP2 MSTORE PUSH1 0x20 PUSH1 0x4 DUP3 ADD MSTORE PUSH1 0x26 PUSH1 0x24 DUP3 ADD MSTORE PUSH32 0x4F776E61626C653A206E6577206F776E657220697320746865207A65726F2061 PUSH1 0x44 DUP3 ADD MSTORE PUSH32 0x6464726573730000000000000000000000000000000000000000000000000000 PUSH1 0x64 DUP3 ADD MSTORE PUSH1 0x84 ADD PUSH2 0x748 JUMP JUMPDEST PUSH2 0xBF5 DUP2 PUSH2 0x271E JUMP JUMPDEST PUSH1 0x0 DUP2 DUP2 MSTORE PUSH1 0xCC PUSH1 0x20 MSTORE PUSH1 0x40 DUP2 KECCAK256 PUSH1 0x9 DUP2 ADD SLOAD PUSH1 0x60 SWAP3 DUP2 PUSH8 0xFFFFFFFFFFFFFFFF DUP2 GT ISZERO PUSH2 0x23C2 JUMPI PUSH2 0x23C2 PUSH2 0x2FD8 JUMP JUMPDEST PUSH1 0x40 MLOAD SWAP1 DUP1 DUP3 MSTORE DUP1 PUSH1 0x20 MUL PUSH1 0x20 ADD DUP3 ADD PUSH1 0x40 MSTORE DUP1 ISZERO PUSH2 0x23EB JUMPI DUP2 PUSH1 0x20 ADD PUSH1 0x20 DUP3 MUL DUP1 CALLDATASIZE DUP4 CALLDATACOPY ADD SWAP1 POP JUMPDEST POP SWAP1 POP PUSH1 0x0 JUMPDEST DUP3 DUP2 LT ISZERO PUSH2 0x2475 JUMPI PUSH1 0x0 DUP5 PUSH1 0x9 ADD DUP3 DUP2 SLOAD DUP2 LT PUSH2 0x2410 JUMPI PUSH2 0x2410 PUSH2 0x358B JUMP JUMPDEST PUSH1 0x0 SWAP2 DUP3 MSTORE PUSH1 0x20 DUP1 DUP4 KECCAK256 SWAP1 SWAP2 ADD SLOAD DUP10 DUP4 MSTORE PUSH1 0xCD DUP3 MSTORE PUSH1 0x40 DUP1 DUP5 KECCAK256 PUSH1 0x1 PUSH1 0x1 PUSH1 0xA0 SHL SUB SWAP1 SWAP3 AND DUP1 DUP6 MSTORE SWAP2 SWAP1 SWAP3 MSTORE SWAP2 KECCAK256 SLOAD DUP5 MLOAD SWAP2 SWAP3 POP SWAP1 DUP5 SWAP1 DUP5 SWAP1 DUP2 LT PUSH2 0x2457 JUMPI PUSH2 0x2457 PUSH2 0x358B JUMP JUMPDEST PUSH1 0x20 SWAP1 DUP2 MUL SWAP2 SWAP1 SWAP2 ADD ADD MSTORE POP DUP1 PUSH2 0x246D DUP2 PUSH2 0x34E9 JUMP JUMPDEST SWAP2 POP POP PUSH2 0x23F1 JUMP JUMPDEST POP SWAP5 SWAP4 POP POP POP POP JUMP JUMPDEST PUSH32 0x4910FDFA16FED3260ED0E7147F7CC6DA11A60208B5B9406D12A635614FFD9143 SLOAD PUSH1 0xFF AND ISZERO PUSH2 0x24B1 JUMPI PUSH2 0x1F2B DUP4 PUSH2 0x2B02 JUMP JUMPDEST DUP3 PUSH1 0x1 PUSH1 0x1 PUSH1 0xA0 SHL SUB AND PUSH4 0x52D1902D PUSH1 0x40 MLOAD DUP2 PUSH4 0xFFFFFFFF AND PUSH1 0xE0 SHL DUP2 MSTORE PUSH1 0x4 ADD PUSH1 0x20 PUSH1 0x40 MLOAD DUP1 DUP4 SUB DUP2 DUP7 GAS STATICCALL SWAP3 POP POP POP DUP1 ISZERO PUSH2 0x250B JUMPI POP PUSH1 0x40 DUP1 MLOAD PUSH1 0x1F RETURNDATASIZE SWAP1 DUP2 ADD PUSH1 0x1F NOT AND DUP3 ADD SWAP1 SWAP3 MSTORE PUSH2 0x2508 SWAP2 DUP2 ADD SWAP1 PUSH2 0x36AF JUMP JUMPDEST PUSH1 0x1 JUMPDEST PUSH2 0x257D JUMPI PUSH1 0x40 MLOAD PUSH3 0x461BCD PUSH1 0xE5 SHL DUP2 MSTORE PUSH1 0x20 PUSH1 0x4 DUP3 ADD MSTORE PUSH1 0x2E PUSH1 0x24 DUP3 ADD MSTORE PUSH32 0x45524331393637557067726164653A206E657720696D706C656D656E74617469 PUSH1 0x44 DUP3 ADD MSTORE PUSH32 0x6F6E206973206E6F742055555053000000000000000000000000000000000000 PUSH1 0x64 DUP3 ADD MSTORE PUSH1 0x84 ADD PUSH2 0x748 JUMP JUMPDEST PUSH32 0x360894A13BA1A3210667C828492DB98DCA3E2076CC3735A920A3CA505D382BBC DUP2 EQ PUSH2 0x2612 JUMPI PUSH1 0x40 MLOAD PUSH3 0x461BCD PUSH1 0xE5 SHL DUP2 MSTORE PUSH1 0x20 PUSH1 0x4 DUP3 ADD MSTORE PUSH1 0x29 PUSH1 0x24 DUP3 ADD MSTORE PUSH32 0x45524331393637557067726164653A20756E737570706F727465642070726F78 PUSH1 0x44 DUP3 ADD MSTORE PUSH32 0x6961626C65555549440000000000000000000000000000000000000000000000 PUSH1 0x64 DUP3 ADD MSTORE PUSH1 0x84 ADD PUSH2 0x748 JUMP JUMPDEST POP PUSH2 0x1F2B DUP4 DUP4 DUP4 PUSH2 0x2BCD JUMP JUMPDEST PUSH1 0x0 DUP2 DUP2 MSTORE PUSH1 0xCC PUSH1 0x20 MSTORE PUSH1 0x40 SWAP1 KECCAK256 DUP1 SLOAD PUSH1 0x1 SWAP1 SWAP2 ADD SLOAD LT PUSH2 0x2660 JUMPI PUSH1 0x0 DUP2 DUP2 MSTORE PUSH1 0xCC PUSH1 0x20 MSTORE PUSH1 0x40 SWAP1 KECCAK256 PUSH1 0x8 ADD DUP1 SLOAD PUSH1 0xFF PUSH1 0xA0 SHL NOT AND PUSH1 0x1 PUSH1 0xA0 SHL OR SWAP1 SSTORE PUSH2 0x26AD JUMP JUMPDEST PUSH1 0x0 DUP2 DUP2 MSTORE PUSH1 0xCC PUSH1 0x20 MSTORE PUSH1 0x40 SWAP1 KECCAK256 PUSH1 0x3 ADD SLOAD TIMESTAMP GT ISZERO PUSH2 0x26AD JUMPI PUSH1 0x0 DUP2 DUP2 MSTORE PUSH1 0xCC PUSH1 0x20 MSTORE PUSH1 0x40 SWAP1 KECCAK256 PUSH1 0x8 ADD DUP1 SLOAD PUSH1 0xFF PUSH1 0xA0 SHL NOT AND PUSH21 0x20000000000000000000000000000000000000000 OR SWAP1 SSTORE JUMPDEST PUSH1 0x0 SWAP1 DUP2 MSTORE PUSH1 0xCC PUSH1 0x20 MSTORE PUSH1 0x40 SWAP1 KECCAK256 TIMESTAMP PUSH1 0x4 SWAP1 SWAP2 ADD SSTORE JUMP JUMPDEST PUSH1 0x33 SLOAD PUSH1 0x1 PUSH1 0x1 PUSH1 0xA0 SHL SUB AND CALLER EQ PUSH2 0x138B JUMPI PUSH1 0x40 MLOAD PUSH3 0x461BCD PUSH1 0xE5 SHL DUP2 MSTORE PUSH1 0x20 PUSH1 0x4 DUP3 ADD DUP2 SWAP1 MSTORE PUSH1 0x24 DUP3 ADD MSTORE PUSH32 0x4F776E61626C653A2063616C6C6572206973206E6F7420746865206F776E6572 PUSH1 0x44 DUP3 ADD MSTORE PUSH1 0x64 ADD PUSH2 0x748 JUMP JUMPDEST PUSH1 0x33 DUP1 SLOAD PUSH1 0x1 PUSH1 0x1 PUSH1 0xA0 SHL SUB DUP4 DUP2 AND PUSH20 0xFFFFFFFFFFFFFFFFFFFFFFFFFFFFFFFFFFFFFFFF NOT DUP4 AND DUP2 OR SWAP1 SWAP4 SSTORE PUSH1 0x40 MLOAD SWAP2 AND SWAP2 SWAP1 DUP3 SWAP1 PUSH32 0x8BE0079C531659141344CD1FD0A4F28419497F9722A3DAAFE3B4186F6B6457E0 SWAP1 PUSH1 0x0 SWAP1 LOG3 POP POP JUMP JUMPDEST PUSH1 0x0 SLOAD PUSH2 0x100 SWAP1 DIV PUSH1 0xFF AND PUSH2 0x27E8 JUMPI PUSH1 0x40 MLOAD PUSH3 0x461BCD PUSH1 0xE5 SHL DUP2 MSTORE PUSH1 0x20 PUSH1 0x4 DUP3 ADD MSTORE PUSH1 0x2B PUSH1 0x24 DUP3 ADD MSTORE PUSH32 0x496E697469616C697A61626C653A20636F6E7472616374206973206E6F742069 PUSH1 0x44 DUP3 ADD MSTORE PUSH11 0x6E697469616C697A696E67 PUSH1 0xA8 SHL PUSH1 0x64 DUP3 ADD MSTORE PUSH1 0x84 ADD PUSH2 0x748 JUMP JUMPDEST PUSH2 0x138B PUSH2 0x2BF8 JUMP JUMPDEST PUSH1 0x0 SLOAD PUSH2 0x100 SWAP1 DIV PUSH1 0xFF AND PUSH2 0x138B JUMPI PUSH1 0x40 MLOAD PUSH3 0x461BCD PUSH1 0xE5 SHL DUP2 MSTORE PUSH1 0x20 PUSH1 0x4 DUP3 ADD MSTORE PUSH1 0x2B PUSH1 0x24 DUP3 ADD MSTORE PUSH32 0x496E697469616C697A61626C653A20636F6E7472616374206973206E6F742069 PUSH1 0x44 DUP3 ADD MSTORE PUSH11 0x6E697469616C697A696E67 PUSH1 0xA8 SHL PUSH1 0x64 DUP3 ADD MSTORE PUSH1 0x84 ADD PUSH2 0x748 JUMP JUMPDEST PUSH1 0x0 DUP1 PUSH1 0x2 DUP4 PUSH1 0x1 ADD SLOAD PUSH2 0x286F SWAP2 SWAP1 PUSH2 0x36C8 JUMP JUMPDEST SWAP1 POP PUSH1 0x0 DUP1 JUMPDEST PUSH1 0x9 DUP6 ADD SLOAD DUP2 LT ISZERO PUSH2 0x28F5 JUMPI PUSH1 0x0 DUP2 DUP2 MSTORE PUSH1 0xCE PUSH1 0x20 MSTORE PUSH1 0x40 DUP2 KECCAK256 PUSH1 0x9 DUP8 ADD DUP1 SLOAD SWAP2 SWAP3 SWAP2 DUP5 SWAP1 DUP2 LT PUSH2 0x28A8 JUMPI PUSH2 0x28A8 PUSH2 0x358B JUMP JUMPDEST PUSH1 0x0 SWAP2 DUP3 MSTORE PUSH1 0x20 DUP1 DUP4 KECCAK256 SWAP1 SWAP2 ADD SLOAD PUSH1 0x1 PUSH1 0x1 PUSH1 0xA0 SHL SUB AND DUP4 MSTORE DUP3 ADD SWAP3 SWAP1 SWAP3 MSTORE PUSH1 0x40 ADD SWAP1 KECCAK256 SLOAD PUSH1 0xFF AND ISZERO PUSH2 0x28E3 JUMPI DUP2 PUSH2 0x28DF DUP2 PUSH2 0x34E9 JUMP JUMPDEST SWAP3 POP POP JUMPDEST DUP1 PUSH2 0x28ED DUP2 PUSH2 0x34E9 JUMP JUMPDEST SWAP2 POP POP PUSH2 0x2875 JUMP JUMPDEST POP LT ISZERO SWAP3 SWAP2 POP POP JUMP JUMPDEST PUSH1 0x0 DUP2 DUP2 MSTORE PUSH1 0xCC PUSH1 0x20 MSTORE PUSH1 0x40 DUP2 KECCAK256 SWAP1 PUSH1 0x8 DUP3 ADD SLOAD PUSH1 0x1 PUSH1 0xA0 SHL SWAP1 DIV PUSH1 0xFF AND PUSH1 0x2 DUP2 GT ISZERO PUSH2 0x292D JUMPI PUSH2 0x292D PUSH2 0x2EDF JUMP JUMPDEST EQ PUSH2 0x297A JUMPI PUSH1 0x40 MLOAD PUSH3 0x461BCD PUSH1 0xE5 SHL DUP2 MSTORE PUSH1 0x20 PUSH1 0x4 DUP3 ADD MSTORE PUSH1 0x17 PUSH1 0x24 DUP3 ADD MSTORE PUSH32 0x43616D706169676E206973206E6F74206F6E676F696E67000000000000000000 PUSH1 0x44 DUP3 ADD MSTORE PUSH1 0x64 ADD PUSH2 0x748 JUMP JUMPDEST PUSH2 0x2983 DUP2 PUSH2 0x285B JUMP JUMPDEST PUSH2 0x29FF JUMPI PUSH1 0x40 MLOAD PUSH3 0x461BCD PUSH1 0xE5 SHL DUP2 MSTORE PUSH1 0x20 PUSH1 0x4 DUP3 ADD MSTORE PUSH1 0x41 PUSH1 0x24 DUP3 ADD MSTORE PUSH32 0x5265717565737420686173206E6F74206265656E20617070726F766564206279 PUSH1 0x44 DUP3 ADD MSTORE PUSH32 0x20746865207265717569726564206E756D626572206F6620696E766573746F72 PUSH1 0x64 DUP3 ADD MSTORE PUSH1 0x73 PUSH1 0xF8 SHL PUSH1 0x84 DUP3 ADD MSTORE PUSH1 0xA4 ADD PUSH2 0x748 JUMP JUMPDEST PUSH1 0x0 JUMPDEST PUSH1 0x9 DUP3 ADD SLOAD DUP2 LT ISZERO PUSH2 0x2AEA JUMPI PUSH1 0x0 DUP3 PUSH1 0x9 ADD DUP3 DUP2 SLOAD DUP2 LT PUSH2 0x2A25 JUMPI PUSH2 0x2A25 PUSH2 0x358B JUMP JUMPDEST PUSH1 0x0 SWAP2 DUP3 MSTORE PUSH1 0x20 DUP1 DUP4 KECCAK256 SWAP2 SWAP1 SWAP2 ADD SLOAD DUP7 DUP4 MSTORE PUSH1 0xCD DUP3 MSTORE PUSH1 0x40 DUP1 DUP5 KECCAK256 PUSH1 0x1 PUSH1 0x1 PUSH1 0xA0 SHL SUB SWAP1 SWAP3 AND DUP1 DUP6 MSTORE SWAP2 SWAP1 SWAP3 MSTORE DUP2 DUP4 KECCAK256 DUP1 SLOAD SWAP1 DUP5 SWAP1 SSTORE SWAP2 MLOAD SWAP1 SWAP4 POP SWAP1 SWAP2 DUP4 SWAP2 PUSH2 0x8FC DUP5 ISZERO MUL SWAP2 DUP5 SWAP2 SWAP1 DUP2 DUP2 DUP2 DUP6 DUP9 DUP9 CALL SWAP4 POP POP POP POP ISZERO DUP1 ISZERO PUSH2 0x2A8B JUMPI RETURNDATASIZE PUSH1 0x0 DUP1 RETURNDATACOPY RETURNDATASIZE PUSH1 0x0 REVERT JUMPDEST POP PUSH1 0x40 DUP1 MLOAD DUP7 DUP2 MSTORE PUSH1 0x1 PUSH1 0x1 PUSH1 0xA0 SHL SUB DUP5 AND PUSH1 0x20 DUP3 ADD MSTORE SWAP1 DUP2 ADD DUP3 SWAP1 MSTORE PUSH32 0x6E3C6096795C8298A218B2CFB8BDE42726FF7C9A3D27B4D3BA41AB7F74FEB5FB SWAP1 PUSH1 0x60 ADD PUSH1 0x40 MLOAD DUP1 SWAP2 SUB SWAP1 LOG1 POP POP DUP1 DUP1 PUSH2 0x2AE2 SWAP1 PUSH2 0x34E9 JUMP JUMPDEST SWAP2 POP POP PUSH2 0x2A02 JUMP JUMPDEST POP PUSH1 0x8 ADD DUP1 SLOAD PUSH1 0xFF PUSH1 0xA0 SHL NOT AND PUSH1 0x1 PUSH1 0xA0 SHL OR SWAP1 SSTORE POP JUMP JUMPDEST PUSH1 0x1 PUSH1 0x1 PUSH1 0xA0 SHL SUB DUP2 AND EXTCODESIZE PUSH2 0x2B7F JUMPI PUSH1 0x40 MLOAD PUSH3 0x461BCD PUSH1 0xE5 SHL DUP2 MSTORE PUSH1 0x20 PUSH1 0x4 DUP3 ADD MSTORE PUSH1 0x2D PUSH1 0x24 DUP3 ADD MSTORE PUSH32 0x455243313936373A206E657720696D706C656D656E746174696F6E206973206E PUSH1 0x44 DUP3 ADD MSTORE PUSH32 0x6F74206120636F6E747261637400000000000000000000000000000000000000 PUSH1 0x64 DUP3 ADD MSTORE PUSH1 0x84 ADD PUSH2 0x748 JUMP JUMPDEST PUSH32 0x360894A13BA1A3210667C828492DB98DCA3E2076CC3735A920A3CA505D382BBC DUP1 SLOAD PUSH20 0xFFFFFFFFFFFFFFFFFFFFFFFFFFFFFFFFFFFFFFFF NOT AND PUSH1 0x1 PUSH1 0x1 PUSH1 0xA0 SHL SUB SWAP3 SWAP1 SWAP3 AND SWAP2 SWAP1 SWAP2 OR SWAP1 SSTORE JUMP JUMPDEST PUSH2 0x2BD6 DUP4 PUSH2 0x2C6C JUMP JUMPDEST PUSH1 0x0 DUP3 MLOAD GT DUP1 PUSH2 0x2BE3 JUMPI POP DUP1 JUMPDEST ISZERO PUSH2 0x1F2B JUMPI PUSH2 0x2BF2 DUP4 DUP4 PUSH2 0x2CAC JUMP JUMPDEST POP POP POP POP JUMP JUMPDEST PUSH1 0x0 SLOAD PUSH2 0x100 SWAP1 DIV PUSH1 0xFF AND PUSH2 0x2C63 JUMPI PUSH1 0x40 MLOAD PUSH3 0x461BCD PUSH1 0xE5 SHL DUP2 MSTORE PUSH1 0x20 PUSH1 0x4 DUP3 ADD MSTORE PUSH1 0x2B PUSH1 0x24 DUP3 ADD MSTORE PUSH32 0x496E697469616C697A61626C653A20636F6E7472616374206973206E6F742069 PUSH1 0x44 DUP3 ADD MSTORE PUSH11 0x6E697469616C697A696E67 PUSH1 0xA8 SHL PUSH1 0x64 DUP3 ADD MSTORE PUSH1 0x84 ADD PUSH2 0x748 JUMP JUMPDEST PUSH2 0x138B CALLER PUSH2 0x271E JUMP JUMPDEST PUSH2 0x2C75 DUP2 PUSH2 0x2B02 JUMP JUMPDEST PUSH1 0x40 MLOAD PUSH1 0x1 PUSH1 0x1 PUSH1 0xA0 SHL SUB DUP3 AND SWAP1 PUSH32 0xBC7CD75A20EE27FD9ADEBAB32041F755214DBC6BFFA90CC0225B39DA2E5C2D3B SWAP1 PUSH1 0x0 SWAP1 LOG2 POP JUMP JUMPDEST PUSH1 0x60 PUSH2 0x2CD1 DUP4 DUP4 PUSH1 0x40 MLOAD DUP1 PUSH1 0x60 ADD PUSH1 0x40 MSTORE DUP1 PUSH1 0x27 DUP2 MSTORE PUSH1 0x20 ADD PUSH2 0x371A PUSH1 0x27 SWAP2 CODECOPY PUSH2 0x2CD8 JUMP JUMPDEST SWAP4 SWAP3 POP POP POP JUMP JUMPDEST PUSH1 0x60 PUSH1 0x0 DUP1 DUP6 PUSH1 0x1 PUSH1 0x1 PUSH1 0xA0 SHL SUB AND DUP6 PUSH1 0x40 MLOAD PUSH2 0x2CF5 SWAP2 SWAP1 PUSH2 0x36EA JUMP JUMPDEST PUSH1 0x0 PUSH1 0x40 MLOAD DUP1 DUP4 SUB DUP2 DUP6 GAS DELEGATECALL SWAP2 POP POP RETURNDATASIZE DUP1 PUSH1 0x0 DUP2 EQ PUSH2 0x2D30 JUMPI PUSH1 0x40 MLOAD SWAP2 POP PUSH1 0x1F NOT PUSH1 0x3F RETURNDATASIZE ADD AND DUP3 ADD PUSH1 0x40 MSTORE RETURNDATASIZE DUP3 MSTORE RETURNDATASIZE PUSH1 0x0 PUSH1 0x20 DUP5 ADD RETURNDATACOPY PUSH2 0x2D35 JUMP JUMPDEST PUSH1 0x60 SWAP2 POP JUMPDEST POP SWAP2 POP SWAP2 POP PUSH2 0x2D46 DUP7 DUP4 DUP4 DUP8 PUSH2 0x2D50 JUMP JUMPDEST SWAP7 SWAP6 POP POP POP POP POP POP JUMP JUMPDEST PUSH1 0x60 DUP4 ISZERO PUSH2 0x2DBF JUMPI DUP3 MLOAD PUSH1 0x0 SUB PUSH2 0x2DB8 JUMPI PUSH1 0x1 PUSH1 0x1 PUSH1 0xA0 SHL SUB DUP6 AND EXTCODESIZE PUSH2 0x2DB8 JUMPI PUSH1 0x40 MLOAD PUSH3 0x461BCD PUSH1 0xE5 SHL DUP2 MSTORE PUSH1 0x20 PUSH1 0x4 DUP3 ADD MSTORE PUSH1 0x1D PUSH1 0x24 DUP3 ADD MSTORE PUSH32 0x416464726573733A2063616C6C20746F206E6F6E2D636F6E7472616374000000 PUSH1 0x44 DUP3 ADD MSTORE PUSH1 0x64 ADD PUSH2 0x748 JUMP JUMPDEST POP DUP2 PUSH2 0x2DC9 JUMP JUMPDEST PUSH2 0x2DC9 DUP4 DUP4 PUSH2 0x2DD1 JUMP JUMPDEST SWAP5 SWAP4 POP POP POP POP JUMP JUMPDEST DUP2 MLOAD ISZERO PUSH2 0x2DE1 JUMPI DUP2 MLOAD DUP1 DUP4 PUSH1 0x20 ADD REVERT JUMPDEST DUP1 PUSH1 0x40 MLOAD PUSH3 0x461BCD PUSH1 0xE5 SHL DUP2 MSTORE PUSH1 0x4 ADD PUSH2 0x748 SWAP2 SWAP1 PUSH2 0x3706 JUMP JUMPDEST PUSH1 0x40 MLOAD DUP1 PUSH2 0x180 ADD PUSH1 0x40 MSTORE DUP1 PUSH1 0x0 DUP2 MSTORE PUSH1 0x20 ADD PUSH1 0x0 DUP2 MSTORE PUSH1 0x20 ADD PUSH1 0x0 DUP2 MSTORE PUSH1 0x20 ADD PUSH1 0x0 DUP2 MSTORE PUSH1 0x20 ADD PUSH1 0x0 DUP2 MSTORE PUSH1 0x20 ADD PUSH1 0x60 DUP2 MSTORE PUSH1 0x20 ADD PUSH1 0x60 DUP2 MSTORE PUSH1 0x20 ADD PUSH1 0x60 DUP2 MSTORE PUSH1 0x20 ADD PUSH1 0x0 PUSH1 0x1 PUSH1 0x1 PUSH1 0xA0 SHL SUB AND DUP2 MSTORE PUSH1 0x20 ADD PUSH1 0x0 PUSH1 0x2 DUP2 GT ISZERO PUSH2 0x2E62 JUMPI PUSH2 0x2E62 PUSH2 0x2EDF JUMP JUMPDEST DUP2 MSTORE PUSH1 0x60 PUSH1 0x20 DUP3 ADD MSTORE PUSH1 0x0 PUSH1 0x40 SWAP1 SWAP2 ADD MSTORE SWAP1 JUMP JUMPDEST PUSH1 0x0 PUSH1 0x20 DUP3 DUP5 SUB SLT ISZERO PUSH2 0x2E88 JUMPI PUSH1 0x0 DUP1 REVERT JUMPDEST POP CALLDATALOAD SWAP2 SWAP1 POP JUMP JUMPDEST PUSH1 0x0 JUMPDEST DUP4 DUP2 LT ISZERO PUSH2 0x2EAA JUMPI DUP2 DUP2 ADD MLOAD DUP4 DUP3 ADD MSTORE PUSH1 0x20 ADD PUSH2 0x2E92 JUMP JUMPDEST POP POP PUSH1 0x0 SWAP2 ADD MSTORE JUMP JUMPDEST PUSH1 0x0 DUP2 MLOAD DUP1 DUP5 MSTORE PUSH2 0x2ECB DUP2 PUSH1 0x20 DUP7 ADD PUSH1 0x20 DUP7 ADD PUSH2 0x2E8F JUMP JUMPDEST PUSH1 0x1F ADD PUSH1 0x1F NOT AND SWAP3 SWAP1 SWAP3 ADD PUSH1 0x20 ADD SWAP3 SWAP2 POP POP JUMP JUMPDEST PUSH4 0x4E487B71 PUSH1 0xE0 SHL PUSH1 0x0 MSTORE PUSH1 0x21 PUSH1 0x4 MSTORE PUSH1 0x24 PUSH1 0x0 REVERT JUMPDEST PUSH1 0x3 DUP2 LT PUSH2 0xBF5 JUMPI PUSH4 0x4E487B71 PUSH1 0xE0 SHL PUSH1 0x0 MSTORE PUSH1 0x21 PUSH1 0x4 MSTORE PUSH1 0x24 PUSH1 0x0 REVERT JUMPDEST PUSH2 0x2F1C DUP2 PUSH2 0x2EF5 JUMP JUMPDEST SWAP1 MSTORE JUMP JUMPDEST PUSH1 0x0 PUSH2 0x160 DUP14 DUP4 MSTORE DUP13 PUSH1 0x20 DUP5 ADD MSTORE DUP12 PUSH1 0x40 DUP5 ADD MSTORE DUP11 PUSH1 0x60 DUP5 ADD MSTORE DUP10 PUSH1 0x80 DUP5 ADD MSTORE DUP1 PUSH1 0xA0 DUP5 ADD MSTORE PUSH2 0x2F52 DUP2 DUP5 ADD DUP11 PUSH2 0x2EB3 JUMP JUMPDEST SWAP1 POP DUP3 DUP2 SUB PUSH1 0xC0 DUP5 ADD MSTORE PUSH2 0x2F66 DUP2 DUP10 PUSH2 0x2EB3 JUMP JUMPDEST SWAP1 POP DUP3 DUP2 SUB PUSH1 0xE0 DUP5 ADD MSTORE PUSH2 0x2F7A DUP2 DUP9 PUSH2 0x2EB3 JUMP JUMPDEST SWAP2 POP POP PUSH1 0x1 PUSH1 0x1 PUSH1 0xA0 SHL SUB DUP6 AND PUSH2 0x100 DUP4 ADD MSTORE PUSH2 0x2F96 DUP5 PUSH2 0x2EF5 JUMP JUMPDEST DUP4 PUSH2 0x120 DUP4 ADD MSTORE DUP3 ISZERO ISZERO PUSH2 0x140 DUP4 ADD MSTORE SWAP13 SWAP12 POP POP POP POP POP POP POP POP POP POP POP POP JUMP JUMPDEST PUSH1 0x0 DUP1 PUSH1 0x40 DUP4 DUP6 SUB SLT ISZERO PUSH2 0x2FC9 JUMPI PUSH1 0x0 DUP1 REVERT JUMPDEST POP POP DUP1 CALLDATALOAD SWAP3 PUSH1 0x20 SWAP1 SWAP2 ADD CALLDATALOAD SWAP2 POP JUMP JUMPDEST PUSH4 0x4E487B71 PUSH1 0xE0 SHL PUSH1 0x0 MSTORE PUSH1 0x41 PUSH1 0x4 MSTORE PUSH1 0x24 PUSH1 0x0 REVERT JUMPDEST PUSH1 0x0 PUSH8 0xFFFFFFFFFFFFFFFF DUP1 DUP5 GT ISZERO PUSH2 0x3009 JUMPI PUSH2 0x3009 PUSH2 0x2FD8 JUMP JUMPDEST PUSH1 0x40 MLOAD PUSH1 0x1F DUP6 ADD PUSH1 0x1F NOT SWAP1 DUP2 AND PUSH1 0x3F ADD AND DUP2 ADD SWAP1 DUP3 DUP3 GT DUP2 DUP4 LT OR ISZERO PUSH2 0x3031 JUMPI PUSH2 0x3031 PUSH2 0x2FD8 JUMP JUMPDEST DUP2 PUSH1 0x40 MSTORE DUP1 SWAP4 POP DUP6 DUP2 MSTORE DUP7 DUP7 DUP7 ADD GT ISZERO PUSH2 0x304A JUMPI PUSH1 0x0 DUP1 REVERT JUMPDEST DUP6 DUP6 PUSH1 0x20 DUP4 ADD CALLDATACOPY PUSH1 0x0 PUSH1 0x20 DUP8 DUP4 ADD ADD MSTORE POP POP POP SWAP4 SWAP3 POP POP POP JUMP JUMPDEST PUSH1 0x0 DUP3 PUSH1 0x1F DUP4 ADD SLT PUSH2 0x3075 JUMPI PUSH1 0x0 DUP1 REVERT JUMPDEST PUSH2 0x2CD1 DUP4 DUP4 CALLDATALOAD PUSH1 0x20 DUP6 ADD PUSH2 0x2FEE JUMP JUMPDEST PUSH1 0x0 DUP1 PUSH1 0x40 DUP4 DUP6 SUB SLT ISZERO PUSH2 0x3097 JUMPI PUSH1 0x0 DUP1 REVERT JUMPDEST DUP3 CALLDATALOAD PUSH8 0xFFFFFFFFFFFFFFFF DUP1 DUP3 GT ISZERO PUSH2 0x30AF JUMPI PUSH1 0x0 DUP1 REVERT JUMPDEST PUSH2 0x30BB DUP7 DUP4 DUP8 ADD PUSH2 0x3064 JUMP JUMPDEST SWAP4 POP PUSH1 0x20 DUP6 ADD CALLDATALOAD SWAP2 POP DUP1 DUP3 GT ISZERO PUSH2 0x30D1 JUMPI PUSH1 0x0 DUP1 REVERT JUMPDEST POP PUSH2 0x30DE DUP6 DUP3 DUP7 ADD PUSH2 0x3064 JUMP JUMPDEST SWAP2 POP POP SWAP3 POP SWAP3 SWAP1 POP JUMP JUMPDEST PUSH1 0x0 DUP2 MLOAD DUP1 DUP5 MSTORE PUSH1 0x20 DUP1 DUP6 ADD SWAP5 POP DUP1 DUP5 ADD PUSH1 0x0 JUMPDEST DUP4 DUP2 LT ISZERO PUSH2 0x3121 JUMPI DUP2 MLOAD PUSH1 0x1 PUSH1 0x1 PUSH1 0xA0 SHL SUB AND DUP8 MSTORE SWAP6 DUP3 ADD SWAP6 SWAP1 DUP3 ADD SWAP1 PUSH1 0x1 ADD PUSH2 0x30FC JUMP JUMPDEST POP SWAP5 SWAP6 SWAP5 POP POP POP POP POP JUMP JUMPDEST PUSH1 0x20 DUP2 MSTORE PUSH1 0x0 PUSH2 0x2CD1 PUSH1 0x20 DUP4 ADD DUP5 PUSH2 0x30E8 JUMP JUMPDEST DUP1 CALLDATALOAD PUSH1 0x1 PUSH1 0x1 PUSH1 0xA0 SHL SUB DUP2 AND DUP2 EQ PUSH2 0x3156 JUMPI PUSH1 0x0 DUP1 REVERT JUMPDEST SWAP2 SWAP1 POP JUMP JUMPDEST PUSH1 0x0 PUSH1 0x20 DUP3 DUP5 SUB SLT ISZERO PUSH2 0x316D JUMPI PUSH1 0x0 DUP1 REVERT JUMPDEST PUSH2 0x2CD1 DUP3 PUSH2 0x313F JUMP JUMPDEST PUSH1 0x0 DUP1 PUSH1 0x40 DUP4 DUP6 SUB SLT ISZERO PUSH2 0x3189 JUMPI PUSH1 0x0 DUP1 REVERT JUMPDEST PUSH2 0x3192 DUP4 PUSH2 0x313F JUMP JUMPDEST SWAP2 POP PUSH1 0x20 DUP4 ADD CALLDATALOAD PUSH8 0xFFFFFFFFFFFFFFFF DUP2 GT ISZERO PUSH2 0x31AE JUMPI PUSH1 0x0 DUP1 REVERT JUMPDEST DUP4 ADD PUSH1 0x1F DUP2 ADD DUP6 SGT PUSH2 0x31BF JUMPI PUSH1 0x0 DUP1 REVERT JUMPDEST PUSH2 0x30DE DUP6 DUP3 CALLDATALOAD PUSH1 0x20 DUP5 ADD PUSH2 0x2FEE JUMP JUMPDEST PUSH1 0x0 DUP2 MLOAD DUP1 DUP5 MSTORE PUSH1 0x20 DUP1 DUP6 ADD SWAP5 POP DUP1 DUP5 ADD PUSH1 0x0 JUMPDEST DUP4 DUP2 LT ISZERO PUSH2 0x3121 JUMPI DUP2 MLOAD DUP8 MSTORE SWAP6 DUP3 ADD SWAP6 SWAP1 DUP3 ADD SWAP1 PUSH1 0x1 ADD PUSH2 0x31E2 JUMP JUMPDEST PUSH1 0x40 DUP2 MSTORE PUSH1 0x0 PUSH2 0x3211 PUSH1 0x40 DUP4 ADD DUP6 PUSH2 0x30E8 JUMP JUMPDEST DUP3 DUP2 SUB PUSH1 0x20 DUP5 ADD MSTORE PUSH2 0x3223 DUP2 DUP6 PUSH2 0x31CE JUMP JUMPDEST SWAP6 SWAP5 POP POP POP POP POP JUMP JUMPDEST PUSH1 0x0 PUSH1 0x20 DUP1 DUP4 ADD DUP2 DUP5 MSTORE DUP1 DUP6 MLOAD DUP1 DUP4 MSTORE PUSH1 0x40 SWAP3 POP DUP3 DUP7 ADD SWAP2 POP DUP3 DUP2 PUSH1 0x5 SHL DUP8 ADD ADD DUP5 DUP9 ADD PUSH1 0x0 JUMPDEST DUP4 DUP2 LT ISZERO PUSH2 0x335C JUMPI PUSH1 0x3F NOT DUP10 DUP5 SUB ADD DUP6 MSTORE DUP2 MLOAD PUSH2 0x180 DUP2 MLOAD DUP6 MSTORE DUP9 DUP3 ADD MLOAD DUP10 DUP7 ADD MSTORE DUP8 DUP3 ADD MLOAD DUP9 DUP7 ADD MSTORE PUSH1 0x60 DUP1 DUP4 ADD MLOAD DUP2 DUP8 ADD MSTORE POP PUSH1 0x80 DUP1 DUP4 ADD MLOAD DUP2 DUP8 ADD MSTORE POP PUSH1 0xA0 DUP1 DUP4 ADD MLOAD DUP3 DUP3 DUP9 ADD MSTORE PUSH2 0x32AA DUP4 DUP9 ADD DUP3 PUSH2 0x2EB3 JUMP JUMPDEST SWAP3 POP POP POP PUSH1 0xC0 DUP1 DUP4 ADD MLOAD DUP7 DUP4 SUB DUP3 DUP9 ADD MSTORE PUSH2 0x32C5 DUP4 DUP3 PUSH2 0x2EB3 JUMP JUMPDEST SWAP3 POP POP POP PUSH1 0xE0 DUP1 DUP4 ADD MLOAD DUP7 DUP4 SUB DUP3 DUP9 ADD MSTORE PUSH2 0x32E0 DUP4 DUP3 PUSH2 0x2EB3 JUMP JUMPDEST SWAP3 POP POP POP PUSH2 0x100 DUP1 DUP4 ADD MLOAD PUSH2 0x32FF DUP3 DUP9 ADD DUP3 PUSH1 0x1 PUSH1 0x1 PUSH1 0xA0 SHL SUB AND SWAP1 MSTORE JUMP JUMPDEST POP POP PUSH2 0x120 DUP1 DUP4 ADD MLOAD PUSH2 0x3314 DUP3 DUP9 ADD DUP3 PUSH2 0x2F13 JUMP JUMPDEST POP POP PUSH2 0x140 DUP1 DUP4 ADD MLOAD DUP7 DUP4 SUB DUP3 DUP9 ADD MSTORE PUSH2 0x332E DUP4 DUP3 PUSH2 0x30E8 JUMP JUMPDEST SWAP3 POP POP POP PUSH2 0x160 DUP1 DUP4 ADD MLOAD SWAP3 POP PUSH2 0x3348 DUP2 DUP8 ADD DUP5 ISZERO ISZERO SWAP1 MSTORE JUMP JUMPDEST POP SWAP6 DUP9 ADD SWAP6 SWAP4 POP POP SWAP1 DUP7 ADD SWAP1 PUSH1 0x1 ADD PUSH2 0x3253 JUMP JUMPDEST POP SWAP1 SWAP9 SWAP8 POP POP POP POP POP POP POP POP JUMP JUMPDEST PUSH1 0xA0 DUP2 MSTORE PUSH1 0x0 PUSH2 0x337D PUSH1 0xA0 DUP4 ADD DUP9 PUSH2 0x2EB3 JUMP JUMPDEST DUP3 DUP2 SUB PUSH1 0x20 DUP5 ADD MSTORE PUSH2 0x338F DUP2 DUP9 PUSH2 0x2EB3 JUMP JUMPDEST SWAP2 POP POP PUSH2 0x339B DUP6 PUSH2 0x2EF5 JUMP JUMPDEST DUP5 PUSH1 0x40 DUP4 ADD MSTORE PUSH1 0x1 PUSH1 0x1 PUSH1 0xA0 SHL SUB DUP5 AND PUSH1 0x60 DUP4 ADD MSTORE DUP3 ISZERO ISZERO PUSH1 0x80 DUP4 ADD MSTORE SWAP7 SWAP6 POP POP POP POP POP POP JUMP JUMPDEST PUSH1 0x0 DUP1 PUSH1 0x0 DUP1 PUSH1 0x80 DUP6 DUP8 SUB SLT ISZERO PUSH2 0x33D8 JUMPI PUSH1 0x0 DUP1 REVERT JUMPDEST DUP5 CALLDATALOAD PUSH8 0xFFFFFFFFFFFFFFFF DUP1 DUP3 GT ISZERO PUSH2 0x33F0 JUMPI PUSH1 0x0 DUP1 REVERT JUMPDEST PUSH2 0x33FC DUP9 DUP4 DUP10 ADD PUSH2 0x3064 JUMP JUMPDEST SWAP6 POP PUSH1 0x20 DUP8 ADD CALLDATALOAD SWAP2 POP DUP1 DUP3 GT ISZERO PUSH2 0x3412 JUMPI PUSH1 0x0 DUP1 REVERT JUMPDEST POP PUSH2 0x341F DUP8 DUP3 DUP9 ADD PUSH2 0x3064 JUMP JUMPDEST SWAP4 POP POP PUSH2 0x342E PUSH1 0x40 DUP7 ADD PUSH2 0x313F JUMP JUMPDEST SWAP2 POP PUSH1 0x60 DUP6 ADD CALLDATALOAD PUSH1 0x3 DUP2 LT PUSH2 0x3442 JUMPI PUSH1 0x0 DUP1 REVERT JUMPDEST SWAP4 SWAP7 SWAP3 SWAP6 POP SWAP1 SWAP4 POP POP JUMP JUMPDEST PUSH1 0x0 DUP1 PUSH1 0x40 DUP4 DUP6 SUB SLT ISZERO PUSH2 0x3460 JUMPI PUSH1 0x0 DUP1 REVERT JUMPDEST DUP3 CALLDATALOAD SWAP2 POP PUSH2 0x3470 PUSH1 0x20 DUP5 ADD PUSH2 0x313F JUMP JUMPDEST SWAP1 POP SWAP3 POP SWAP3 SWAP1 POP JUMP JUMPDEST PUSH1 0x20 DUP2 MSTORE PUSH1 0x0 PUSH2 0x2CD1 PUSH1 0x20 DUP4 ADD DUP5 PUSH2 0x31CE JUMP JUMPDEST PUSH1 0x1 DUP2 DUP2 SHR SWAP1 DUP3 AND DUP1 PUSH2 0x34A0 JUMPI PUSH1 0x7F DUP3 AND SWAP2 POP JUMPDEST PUSH1 0x20 DUP3 LT DUP2 SUB PUSH2 0x1BBF JUMPI PUSH4 0x4E487B71 PUSH1 0xE0 SHL PUSH1 0x0 MSTORE PUSH1 0x22 PUSH1 0x4 MSTORE PUSH1 0x24 PUSH1 0x0 REVERT JUMPDEST PUSH4 0x4E487B71 PUSH1 0xE0 SHL PUSH1 0x0 MSTORE PUSH1 0x11 PUSH1 0x4 MSTORE PUSH1 0x24 PUSH1 0x0 REVERT JUMPDEST DUP1 DUP3 ADD DUP1 DUP3 GT ISZERO PUSH2 0xA0E JUMPI PUSH2 0xA0E PUSH2 0x34C0 JUMP JUMPDEST PUSH1 0x0 PUSH1 0x1 DUP3 ADD PUSH2 0x34FB JUMPI PUSH2 0x34FB PUSH2 0x34C0 JUMP JUMPDEST POP PUSH1 0x1 ADD SWAP1 JUMP JUMPDEST DUP2 DUP2 SUB DUP2 DUP2 GT ISZERO PUSH2 0xA0E JUMPI PUSH2 0xA0E PUSH2 0x34C0 JUMP JUMPDEST PUSH1 0x0 DUP1 DUP4 SLOAD PUSH2 0x3523 DUP2 PUSH2 0x348C JUMP JUMPDEST PUSH1 0x1 DUP3 DUP2 AND DUP1 ISZERO PUSH2 0x353B JUMPI PUSH1 0x1 DUP2 EQ PUSH2 0x3550 JUMPI PUSH2 0x357F JUMP JUMPDEST PUSH1 0xFF NOT DUP5 AND DUP8 MSTORE DUP3 ISZERO ISZERO DUP4 MUL DUP8 ADD SWAP5 POP PUSH2 0x357F JUMP JUMPDEST DUP8 PUSH1 0x0 MSTORE PUSH1 0x20 DUP1 PUSH1 0x0 KECCAK256 PUSH1 0x0 JUMPDEST DUP6 DUP2 LT ISZERO PUSH2 0x3576 JUMPI DUP2 SLOAD DUP11 DUP3 ADD MSTORE SWAP1 DUP5 ADD SWAP1 DUP3 ADD PUSH2 0x355D JUMP JUMPDEST POP POP POP DUP3 DUP8 ADD SWAP5 POP JUMPDEST POP SWAP3 SWAP7 SWAP6 POP POP POP POP POP POP JUMP JUMPDEST PUSH4 0x4E487B71 PUSH1 0xE0 SHL PUSH1 0x0 MSTORE PUSH1 0x32 PUSH1 0x4 MSTORE PUSH1 0x24 PUSH1 0x0 REVERT JUMPDEST PUSH1 0x1F DUP3 GT ISZERO PUSH2 0x1F2B JUMPI PUSH1 0x0 DUP2 DUP2 MSTORE PUSH1 0x20 DUP2 KECCAK256 PUSH1 0x1F DUP6 ADD PUSH1 0x5 SHR DUP2 ADD PUSH1 0x20 DUP7 LT ISZERO PUSH2 0x35C8 JUMPI POP DUP1 JUMPDEST PUSH1 0x1F DUP6 ADD PUSH1 0x5 SHR DUP3 ADD SWAP2 POP JUMPDEST DUP2 DUP2 LT ISZERO PUSH2 0x35E7 JUMPI DUP3 DUP2 SSTORE PUSH1 0x1 ADD PUSH2 0x35D4 JUMP JUMPDEST POP POP POP POP POP POP JUMP JUMPDEST DUP2 MLOAD PUSH8 0xFFFFFFFFFFFFFFFF DUP2 GT ISZERO PUSH2 0x3609 JUMPI PUSH2 0x3609 PUSH2 0x2FD8 JUMP JUMPDEST PUSH2 0x361D DUP2 PUSH2 0x3617 DUP5 SLOAD PUSH2 0x348C JUMP JUMPDEST DUP5 PUSH2 0x35A1 JUMP JUMPDEST PUSH1 0x20 DUP1 PUSH1 0x1F DUP4 GT PUSH1 0x1 DUP2 EQ PUSH2 0x3652 JUMPI PUSH1 0x0 DUP5 ISZERO PUSH2 0x363A JUMPI POP DUP6 DUP4 ADD MLOAD JUMPDEST PUSH1 0x0 NOT PUSH1 0x3 DUP7 SWAP1 SHL SHR NOT AND PUSH1 0x1 DUP6 SWAP1 SHL OR DUP6 SSTORE PUSH2 0x35E7 JUMP JUMPDEST PUSH1 0x0 DUP6 DUP2 MSTORE PUSH1 0x20 DUP2 KECCAK256 PUSH1 0x1F NOT DUP7 AND SWAP2 JUMPDEST DUP3 DUP2 LT ISZERO PUSH2 0x3681 JUMPI DUP9 DUP7 ADD MLOAD DUP3 SSTORE SWAP5 DUP5 ADD SWAP5 PUSH1 0x1 SWAP1 SWAP2 ADD SWAP1 DUP5 ADD PUSH2 0x3662 JUMP JUMPDEST POP DUP6 DUP3 LT ISZERO PUSH2 0x369F JUMPI DUP8 DUP6 ADD MLOAD PUSH1 0x0 NOT PUSH1 0x3 DUP9 SWAP1 SHL PUSH1 0xF8 AND SHR NOT AND DUP2 SSTORE JUMPDEST POP POP POP POP POP PUSH1 0x1 SWAP1 DUP2 SHL ADD SWAP1 SSTORE POP JUMP JUMPDEST PUSH1 0x0 PUSH1 0x20 DUP3 DUP5 SUB SLT ISZERO PUSH2 0x36C1 JUMPI PUSH1 0x0 DUP1 REVERT JUMPDEST POP MLOAD SWAP2 SWAP1 POP JUMP JUMPDEST PUSH1 0x0 DUP3 PUSH2 0x36E5 JUMPI PUSH4 0x4E487B71 PUSH1 0xE0 SHL PUSH1 0x0 MSTORE PUSH1 0x12 PUSH1 0x4 MSTORE PUSH1 0x24 PUSH1 0x0 REVERT JUMPDEST POP DIV SWAP1 JUMP JUMPDEST PUSH1 0x0 DUP3 MLOAD PUSH2 0x36FC DUP2 DUP5 PUSH1 0x20 DUP8 ADD PUSH2 0x2E8F JUMP JUMPDEST SWAP2 SWAP1 SWAP2 ADD SWAP3 SWAP2 POP POP JUMP JUMPDEST PUSH1 0x20 DUP2 MSTORE PUSH1 0x0 PUSH2 0x2CD1 PUSH1 0x20 DUP4 ADD DUP5 PUSH2 0x2EB3 JUMP INVALID COINBASE PUSH5 0x6472657373 GASPRICE KECCAK256 PUSH13 0x6F772D6C6576656C2064656C65 PUSH8 0x6174652063616C6C KECCAK256 PUSH7 0x61696C6564A164 PUSH20 0x6F6C6343000812000A0000000000000000000000 "},"methodIdentifiers":{"approveFundReleaseRequest(uint256)":"a7247cd9","campaigns(uint256)":"141961bc","createCampaign(uint256,uint256)":"22502268","createFundReleaseRequest(uint256,uint256)":"74a29cd2","donateToCampaign(uint256)":"42a4fda8","getAllDonations(uint256)":"ffa676d1","getAllDonors(uint256)":"2495efb8","getCampaignContributors(uint256)":"e9dea525","getCampaignCount()":"6caa9218","getCampaigns()":"a6b03633","getContribution(uint256,address)":"e081dbf9","getDonations(uint256)":"596d9ce2","getTotalCampaignsByInvestor(address)":"8e5baa62","initialize()":"8129fc1c","loginUser(string,string)":"22ce12e5","owner()":"8da5cb5b","proxiableUUID()":"52d1902d","registerUser(string,string,address,uint8)":"d1233672","renounceOwnership()":"715018a6","transferOwnership(address)":"f2fde38b","upgradeTo(address)":"3659cfe6","upgradeToAndCall(address,bytes)":"4f1ef286","users(address)":"a87430ba"}},"storageLayout":{"storage":[{"astId":503,"contract":"contracts/CampaignRegistry.sol:CampaignRegistry","label":"_initialized","offset":0,"slot":"0","type":"t_uint8"},{"astId":506,"contract":"contracts/CampaignRegistry.sol:CampaignRegistry","label":"_initializing","offset":1,"slot":"0","type":"t_bool"},{"astId":1172,"contract":"contracts/CampaignRegistry.sol:CampaignRegistry","label":"__gap","offset":0,"slot":"1","type":"t_array(t_uint256)50_storage"},{"astId":10,"contract":"contracts/CampaignRegistry.sol:CampaignRegistry","label":"_owner","offset":0,"slot":"51","type":"t_address"},{"astId":130,"contract":"contracts/CampaignRegistry.sol:CampaignRegistry","label":"__gap","offset":0,"slot":"52","type":"t_array(t_uint256)49_storage"},{"astId":485,"contract":"contracts/CampaignRegistry.sol:CampaignRegistry","label":"__gap","offset":0,"slot":"101","type":"t_array(t_uint256)50_storage"},{"astId":800,"contract":"contracts/CampaignRegistry.sol:CampaignRegistry","label":"__gap","offset":0,"slot":"151","type":"t_array(t_uint256)50_storage"},{"astId":1300,"contract":"contracts/CampaignRegistry.sol:CampaignRegistry","label":"campaignIdCounter","offset":0,"slot":"201","type":"t_uint256"},{"astId":1304,"contract":"contracts/CampaignRegistry.sol:CampaignRegistry","label":"campaignContributorCount","offset":0,"slot":"202","type":"t_mapping(t_uint256,t_uint256)"},{"astId":1310,"contract":"contracts/CampaignRegistry.sol:CampaignRegistry","label":"users","offset":0,"slot":"203","type":"t_mapping(t_address,t_struct(User)2364_storage)"},{"astId":1316,"contract":"contracts/CampaignRegistry.sol:CampaignRegistry","label":"campaigns","offset":0,"slot":"204","type":"t_mapping(t_uint256,t_struct(Campaign)2396_storage)"},{"astId":1322,"contract":"contracts/CampaignRegistry.sol:CampaignRegistry","label":"contributions","offset":0,"slot":"205","type":"t_mapping(t_uint256,t_mapping(t_address,t_uint256))"},{"astId":1328,"contract":"contracts/CampaignRegistry.sol:CampaignRegistry","label":"investorApprovals","offset":0,"slot":"206","type":"t_mapping(t_uint256,t_mapping(t_address,t_bool))"}],"types":{"t_address":{"encoding":"inplace","label":"address","numberOfBytes":"20"},"t_array(t_address)dyn_storage":{"base":"t_address","encoding":"dynamic_array","label":"address[]","numberOfBytes":"32"},"t_array(t_uint256)49_storage":{"base":"t_uint256","encoding":"inplace","label":"uint256[49]","numberOfBytes":"1568"},"t_array(t_uint256)50_storage":{"base":"t_uint256","encoding":"inplace","label":"uint256[50]","numberOfBytes":"1600"},"t_bool":{"encoding":"inplace","label":"bool","numberOfBytes":"1"},"t_enum(CampaignStatus)2348":{"encoding":"inplace","label":"enum ICampaignRegistry.CampaignStatus","numberOfBytes":"1"},"t_enum(Category)2352":{"encoding":"inplace","label":"enum ICampaignRegistry.Category","numberOfBytes":"1"},"t_mapping(t_address,t_bool)":{"encoding":"mapping","key":"t_address","label":"mapping(address => bool)","numberOfBytes":"32","value":"t_bool"},"t_mapping(t_address,t_struct(User)2364_storage)":{"encoding":"mapping","key":"t_address","label":"mapping(address => struct ICampaignRegistry.User)","numberOfBytes":"32","value":"t_struct(User)2364_storage"},"t_mapping(t_address,t_uint256)":{"encoding":"mapping","key":"t_address","label":"mapping(address => uint256)","numberOfBytes":"32","value":"t_uint256"},"t_mapping(t_uint256,t_mapping(t_address,t_bool))":{"encoding":"mapping","key":"t_uint256","label":"mapping(uint256 => mapping(address => bool))","numberOfBytes":"32","value":"t_mapping(t_address,t_bool)"},"t_mapping(t_uint256,t_mapping(t_address,t_uint256))":{"encoding":"mapping","key":"t_uint256","label":"mapping(uint256 => mapping(address => uint256))","numberOfBytes":"32","value":"t_mapping(t_address,t_uint256)"},"t_mapping(t_uint256,t_struct(Campaign)2396_storage)":{"encoding":"mapping","key":"t_uint256","label":"mapping(uint256 => struct ICampaignRegistry.Campaign)","numberOfBytes":"32","value":"t_struct(Campaign)2396_storage"},"t_mapping(t_uint256,t_uint256)":{"encoding":"mapping","key":"t_uint256","label":"mapping(uint256 => uint256)","numberOfBytes":"32","value":"t_uint256"},"t_string_storage":{"encoding":"bytes","label":"string","numberOfBytes":"32"},"t_struct(Campaign)2396_storage":{"encoding":"inplace","label":"struct ICampaignRegistry.Campaign","members":[{"astId":2371,"contract":"contracts/CampaignRegistry.sol:CampaignRegistry","label":"targetAmount","offset":0,"slot":"0","type":"t_uint256"},{"astId":2373,"contract":"contracts/CampaignRegistry.sol:CampaignRegistry","label":"raisedAmount","offset":0,"slot":"1","type":"t_uint256"},{"astId":2375,"contract":"contracts/CampaignRegistry.sol:CampaignRegistry","label":"requestAmount","offset":0,"slot":"2","type":"t_uint256"},{"astId":2377,"contract":"contracts/CampaignRegistry.sol:CampaignRegistry","label":"deadline","offset":0,"slot":"3","type":"t_uint256"},{"astId":2379,"contract":"contracts/CampaignRegistry.sol:CampaignRegistry","label":"completeAt","offset":0,"slot":"4","type":"t_uint256"},{"astId":2381,"contract":"contracts/CampaignRegistry.sol:CampaignRegistry","label":"image","offset":0,"slot":"5","type":"t_string_storage"},{"astId":2383,"contract":"contracts/CampaignRegistry.sol:CampaignRegistry","label":"campaignTitle","offset":0,"slot":"6","type":"t_string_storage"},{"astId":2385,"contract":"contracts/CampaignRegistry.sol:CampaignRegistry","label":"campaignDescription","offset":0,"slot":"7","type":"t_string_storage"},{"astId":2387,"contract":"contracts/CampaignRegistry.sol:CampaignRegistry","label":"entrepreneur","offset":0,"slot":"8","type":"t_address"},{"astId":2390,"contract":"contracts/CampaignRegistry.sol:CampaignRegistry","label":"status","offset":20,"slot":"8","type":"t_enum(CampaignStatus)2348"},{"astId":2393,"contract":"contracts/CampaignRegistry.sol:CampaignRegistry","label":"vendors","offset":0,"slot":"9","type":"t_array(t_address)dyn_storage"},{"astId":2395,"contract":"contracts/CampaignRegistry.sol:CampaignRegistry","label":"requestCreated","offset":0,"slot":"10","type":"t_bool"}],"numberOfBytes":"352"},"t_struct(User)2364_storage":{"encoding":"inplace","label":"struct ICampaignRegistry.User","members":[{"astId":2354,"contract":"contracts/CampaignRegistry.sol:CampaignRegistry","label":"email","offset":0,"slot":"0","type":"t_string_storage"},{"astId":2356,"contract":"contracts/CampaignRegistry.sol:CampaignRegistry","label":"password","offset":0,"slot":"1","type":"t_string_storage"},{"astId":2359,"contract":"contracts/CampaignRegistry.sol:CampaignRegistry","label":"category","offset":0,"slot":"2","type":"t_enum(Category)2352"},{"astId":2361,"contract":"contracts/CampaignRegistry.sol:CampaignRegistry","label":"walletAddress","offset":1,"slot":"2","type":"t_address"},{"astId":2363,"contract":"contracts/CampaignRegistry.sol:CampaignRegistry","label":"verified","offset":21,"slot":"2","type":"t_bool"}],"numberOfBytes":"96"},"t_uint256":{"encoding":"inplace","label":"uint256","numberOfBytes":"32"},"t_uint8":{"encoding":"inplace","label":"uint8","numberOfBytes":"1"}}}}}}