{
  "_format": "hh-sol-artifact-1",
  "contractName": "CampaignRegistry",
  "sourceName": "contracts/CampaignRegistry.sol",
  "abi": [
    {
      "anonymous": false,
      "inputs": [
        {
          "indexed": false,
          "internalType": "address",
          "name": "previousAdmin",
          "type": "address"
        },
        {
          "indexed": false,
          "internalType": "address",
          "name": "newAdmin",
          "type": "address"
        }
      ],
      "name": "AdminChanged",
      "type": "event"
    },
    {
      "anonymous": false,
      "inputs": [
        {
          "indexed": true,
          "internalType": "address",
          "name": "beacon",
          "type": "address"
        }
      ],
      "name": "BeaconUpgraded",
      "type": "event"
    },
    {
      "anonymous": false,
      "inputs": [
        {
          "indexed": false,
          "internalType": "uint256",
          "name": "campaignId",
          "type": "uint256"
        },
        {
          "indexed": false,
          "internalType": "address",
          "name": "entrepreneur",
          "type": "address"
        },
        {
          "indexed": false,
          "internalType": "uint256",
          "name": "targetAmount",
          "type": "uint256"
        },
        {
          "indexed": false,
          "internalType": "uint256",
          "name": "deadline",
          "type": "uint256"
        }
      ],
      "name": "CampaignCreated",
      "type": "event"
    },
    {
      "anonymous": false,
      "inputs": [
        {
          "indexed": false,
          "internalType": "uint256",
          "name": "campaignId",
          "type": "uint256"
        },
        {
          "indexed": false,
          "internalType": "address",
          "name": "investor",
          "type": "address"
        },
        {
          "indexed": false,
          "internalType": "uint256",
          "name": "amount",
          "type": "uint256"
        }
      ],
      "name": "ContributionMade",
      "type": "event"
    },
    {
      "anonymous": false,
      "inputs": [
        {
          "indexed": false,
          "internalType": "uint256",
          "name": "campaignId",
          "type": "uint256"
        },
        {
          "indexed": false,
          "internalType": "address",
          "name": "vendor",
          "type": "address"
        },
        {
          "indexed": false,
          "internalType": "uint256",
          "name": "amount",
          "type": "uint256"
        }
      ],
      "name": "FundsReleased",
      "type": "event"
    },
    {
      "anonymous": false,
      "inputs": [
        {
          "indexed": false,
          "internalType": "uint8",
          "name": "version",
          "type": "uint8"
        }
      ],
      "name": "Initialized",
      "type": "event"
    },
    {
      "anonymous": false,
      "inputs": [
        {
          "indexed": true,
          "internalType": "address",
          "name": "previousOwner",
          "type": "address"
        },
        {
          "indexed": true,
          "internalType": "address",
          "name": "newOwner",
          "type": "address"
        }
      ],
      "name": "OwnershipTransferred",
      "type": "event"
    },
    {
      "anonymous": false,
      "inputs": [
        {
          "indexed": false,
          "internalType": "uint256",
          "name": "campaignId",
          "type": "uint256"
        },
        {
          "indexed": false,
          "internalType": "address",
          "name": "investor",
          "type": "address"
        }
      ],
      "name": "RequestApproved",
      "type": "event"
    },
    {
      "anonymous": false,
      "inputs": [
        {
          "indexed": false,
          "internalType": "uint256",
          "name": "campaignId",
          "type": "uint256"
        },
        {
          "indexed": false,
          "internalType": "uint256",
          "name": "requestAmount",
          "type": "uint256"
        }
      ],
      "name": "RequestCreated",
      "type": "event"
    },
    {
      "anonymous": false,
      "inputs": [
        {
          "indexed": true,
          "internalType": "address",
          "name": "implementation",
          "type": "address"
        }
      ],
      "name": "Upgraded",
      "type": "event"
    },
    {
      "inputs": [
        {
          "internalType": "uint256",
          "name": "_campaignId",
          "type": "uint256"
        }
      ],
      "name": "approveFundReleaseRequest",
      "outputs": [],
      "stateMutability": "nonpayable",
      "type": "function"
    },
    {
      "inputs": [
        {
          "internalType": "uint256",
          "name": "",
          "type": "uint256"
        }
      ],
      "name": "campaigns",
      "outputs": [
        {
          "internalType": "uint256",
          "name": "campaignId",
          "type": "uint256"
        },
        {
          "internalType": "uint256",
          "name": "targetAmount",
          "type": "uint256"
        },
        {
          "internalType": "uint256",
          "name": "raisedAmount",
          "type": "uint256"
        },
        {
          "internalType": "uint256",
          "name": "requestAmount",
          "type": "uint256"
        },
        {
          "internalType": "uint256",
          "name": "deadline",
          "type": "uint256"
        },
        {
          "internalType": "uint256",
          "name": "completeAt",
          "type": "uint256"
        },
        {
          "internalType": "uint256",
          "name": "startAt",
          "type": "uint256"
        },
        {
          "internalType": "string",
          "name": "imageUri",
          "type": "string"
        },
        {
          "internalType": "string",
          "name": "campaignTitle",
          "type": "string"
        },
        {
          "internalType": "string",
          "name": "campaignDescription",
          "type": "string"
        },
        {
          "internalType": "address",
          "name": "entrepreneur",
          "type": "address"
        },
        {
          "internalType": "address payable",
          "name": "vendor",
          "type": "address"
        },
        {
          "internalType": "enum ICampaignRegistry.CampaignStatus",
          "name": "status",
          "type": "uint8"
        },
        {
          "internalType": "bool",
          "name": "requestCreated",
          "type": "bool"
        }
      ],
      "stateMutability": "view",
      "type": "function"
    },
    {
      "inputs": [
        {
          "internalType": "uint256",
          "name": "_targetAmount",
          "type": "uint256"
        },
        {
          "internalType": "uint256",
          "name": "_deadline",
          "type": "uint256"
        },
        {
          "internalType": "string",
          "name": "_imageUri",
          "type": "string"
        },
        {
          "internalType": "string",
          "name": "_campaignTitle",
          "type": "string"
        },
        {
          "internalType": "string",
          "name": "_campaignDescription",
          "type": "string"
        }
      ],
      "name": "createCampaign",
      "outputs": [],
      "stateMutability": "nonpayable",
      "type": "function"
    },
    {
      "inputs": [
        {
          "internalType": "uint256",
          "name": "_campaignId",
          "type": "uint256"
        },
        {
          "internalType": "uint256",
          "name": "_requestAmount",
          "type": "uint256"
        },
        {
          "internalType": "address payable",
          "name": "_vendorAddress",
          "type": "address"
        }
      ],
      "name": "createFundReleaseRequest",
      "outputs": [],
      "stateMutability": "nonpayable",
      "type": "function"
    },
    {
      "inputs": [
        {
          "internalType": "uint256",
          "name": "_campaignId",
          "type": "uint256"
        }
      ],
      "name": "donateToCampaign",
      "outputs": [],
      "stateMutability": "payable",
      "type": "function"
    },
    {
      "inputs": [
        {
          "internalType": "uint256",
          "name": "_campaignId",
          "type": "uint256"
        }
      ],
      "name": "getAllDonations",
      "outputs": [
        {
          "internalType": "uint256[]",
          "name": "",
          "type": "uint256[]"
        }
      ],
      "stateMutability": "view",
      "type": "function"
    },
    {
      "inputs": [
        {
          "internalType": "uint256",
          "name": "_campaignId",
          "type": "uint256"
        }
      ],
      "name": "getAllDonators",
      "outputs": [
        {
          "internalType": "address[]",
          "name": "",
          "type": "address[]"
        }
      ],
      "stateMutability": "view",
      "type": "function"
    },
    {
      "inputs": [],
      "name": "getCampaigns",
      "outputs": [
        {
          "components": [
            {
              "internalType": "uint256",
              "name": "campaignId",
              "type": "uint256"
            },
            {
              "internalType": "uint256",
              "name": "targetAmount",
              "type": "uint256"
            },
            {
              "internalType": "uint256",
              "name": "raisedAmount",
              "type": "uint256"
            },
            {
              "internalType": "uint256",
              "name": "requestAmount",
              "type": "uint256"
            },
            {
              "internalType": "uint256",
              "name": "deadline",
              "type": "uint256"
            },
            {
              "internalType": "uint256",
              "name": "completeAt",
              "type": "uint256"
            },
            {
              "internalType": "uint256",
              "name": "startAt",
              "type": "uint256"
            },
            {
              "internalType": "string",
              "name": "imageUri",
              "type": "string"
            },
            {
              "internalType": "string",
              "name": "campaignTitle",
              "type": "string"
            },
            {
              "internalType": "string",
              "name": "campaignDescription",
              "type": "string"
            },
            {
              "internalType": "address",
              "name": "entrepreneur",
              "type": "address"
            },
            {
              "internalType": "address payable",
              "name": "vendor",
              "type": "address"
            },
            {
              "internalType": "address[]",
              "name": "investors",
              "type": "address[]"
            },
            {
              "internalType": "enum ICampaignRegistry.CampaignStatus",
              "name": "status",
              "type": "uint8"
            },
            {
              "internalType": "bool",
              "name": "requestCreated",
              "type": "bool"
            }
          ],
          "internalType": "struct ICampaignRegistry.Campaign[]",
          "name": "",
          "type": "tuple[]"
        }
      ],
      "stateMutability": "view",
      "type": "function"
    },
    {
      "inputs": [
        {
          "internalType": "uint256",
          "name": "_campaignId",
          "type": "uint256"
        }
      ],
      "name": "getInvestorDonations",
      "outputs": [
        {
          "internalType": "address[]",
          "name": "",
          "type": "address[]"
        },
        {
          "internalType": "uint256[]",
          "name": "",
          "type": "uint256[]"
        }
      ],
      "stateMutability": "view",
      "type": "function"
    },
    {
      "inputs": [
        {
          "internalType": "address",
          "name": "_investor",
          "type": "address"
        }
      ],
      "name": "getTotalCampaignsByInvestor",
      "outputs": [
        {
          "internalType": "uint256",
          "name": "",
          "type": "uint256"
        }
      ],
      "stateMutability": "view",
      "type": "function"
    },
    {
      "inputs": [],
      "name": "initialize",
      "outputs": [],
      "stateMutability": "nonpayable",
      "type": "function"
    },
    {
      "inputs": [
        {
          "internalType": "string",
          "name": "_email",
          "type": "string"
        },
        {
          "internalType": "string",
          "name": "_password",
          "type": "string"
        }
      ],
      "name": "loginUser",
      "outputs": [
        {
          "internalType": "bool",
          "name": "",
          "type": "bool"
        }
      ],
      "stateMutability": "view",
      "type": "function"
    },
    {
      "inputs": [],
      "name": "owner",
      "outputs": [
        {
          "internalType": "address",
          "name": "",
          "type": "address"
        }
      ],
      "stateMutability": "view",
      "type": "function"
    },
    {
      "inputs": [],
      "name": "proxiableUUID",
      "outputs": [
        {
          "internalType": "bytes32",
          "name": "",
          "type": "bytes32"
        }
      ],
      "stateMutability": "view",
      "type": "function"
    },
    {
      "inputs": [
        {
          "internalType": "string",
          "name": "_email",
          "type": "string"
        },
        {
          "internalType": "string",
          "name": "_password",
          "type": "string"
        },
        {
          "internalType": "enum ICampaignRegistry.Category",
          "name": "_category",
          "type": "uint8"
        }
      ],
      "name": "registerUser",
      "outputs": [],
      "stateMutability": "nonpayable",
      "type": "function"
    },
    {
      "inputs": [],
      "name": "renounceOwnership",
      "outputs": [],
      "stateMutability": "nonpayable",
      "type": "function"
    },
    {
      "inputs": [
        {
          "internalType": "address",
          "name": "newOwner",
          "type": "address"
        }
      ],
      "name": "transferOwnership",
      "outputs": [],
      "stateMutability": "nonpayable",
      "type": "function"
    },
    {
      "inputs": [
        {
          "internalType": "address",
          "name": "newImplementation",
          "type": "address"
        }
      ],
      "name": "upgradeTo",
      "outputs": [],
      "stateMutability": "nonpayable",
      "type": "function"
    },
    {
      "inputs": [
        {
          "internalType": "address",
          "name": "newImplementation",
          "type": "address"
        },
        {
          "internalType": "bytes",
          "name": "data",
          "type": "bytes"
        }
      ],
      "name": "upgradeToAndCall",
      "outputs": [],
      "stateMutability": "payable",
      "type": "function"
    },
    {
      "inputs": [
        {
          "internalType": "address",
          "name": "",
          "type": "address"
        }
      ],
      "name": "users",
      "outputs": [
        {
          "internalType": "string",
          "name": "email",
          "type": "string"
        },
        {
          "internalType": "string",
          "name": "password",
          "type": "string"
        },
        {
          "internalType": "enum ICampaignRegistry.Category",
          "name": "category",
          "type": "uint8"
        },
        {
          "internalType": "address",
          "name": "walletAddress",
          "type": "address"
        },
        {
          "internalType": "bool",
          "name": "verified",
          "type": "bool"
        }
      ],
      "stateMutability": "view",
      "type": "function"
    }
  ],
  "bytecode": "0x60a06040523060805234801561001457600080fd5b5060805161393061004c6000396000818161094d015281816109d201528181610f900152818161101501526110f601526139306000f3fe60806040526004361061015f5760003560e01c806371572a56116100c0578063a7247cd911610074578063e27883fb11610059578063e27883fb146103b5578063f2fde38b146103e2578063ffa676d11461040257600080fd5b8063a7247cd914610364578063a87430ba1461038457600080fd5b80638da5cb5b116100a55780638da5cb5b146102fa5780638e5baa6214610322578063a6b036331461034257600080fd5b806371572a56146102c55780638129fc1c146102e557600080fd5b80634f1ef2861161011757806367c2cbad116100fc57806367c2cbad1461026257806370debcf714610290578063715018a6146102b057600080fd5b80634f1ef2861461022c57806352d1902d1461023f57600080fd5b80632e17a931116101485780632e17a931146101d75780633659cfe6146101f957806342a4fda81461021957600080fd5b8063141961bc1461016457806322ce12e5146101a7575b600080fd5b34801561017057600080fd5b5061018461017f366004612fa9565b61042f565b60405161019e9e9d9c9b9a99989796959493929190613053565b60405180910390f35b3480156101b357600080fd5b506101c76101c23660046131b9565b610646565b604051901515815260200161019e565b3480156101e357600080fd5b506101f76101f236600461321d565b6106ce565b005b34801561020557600080fd5b506101f76102143660046132ae565b610943565b6101f7610227366004612fa9565b610ab5565b6101f761023a3660046132cb565b610f86565b34801561024b57600080fd5b506102546110e9565b60405190815260200161019e565b34801561026e57600080fd5b5061028261027d366004612fa9565b6111ae565b60405161019e929190613399565b34801561029c57600080fd5b506101f76102ab3660046133c7565b61131b565b3480156102bc57600080fd5b506101f76116e9565b3480156102d157600080fd5b506101f76102e03660046133f5565b6116fd565b3480156102f157600080fd5b506101f76119f9565b34801561030657600080fd5b506033546040516001600160a01b03909116815260200161019e565b34801561032e57600080fd5b5061025461033d3660046132ae565b611b20565b34801561034e57600080fd5b50610357611b7e565b60405161019e9190613491565b34801561037057600080fd5b506101f761037f366004612fa9565b611f01565b34801561039057600080fd5b506103a461039f3660046132ae565b6122bd565b60405161019e9594939291906135f1565b3480156103c157600080fd5b506103d56103d0366004612fa9565b61240d565b60405161019e9190613649565b3480156103ee57600080fd5b506101f76103fd3660046132ae565b61247f565b34801561040e57600080fd5b5061042261041d366004612fa9565b61250c565b60405161019e919061365c565b60cc60205280600052604060002060009150905080600001549080600101549080600201549080600301549080600401549080600501549080600601549080600701805461047c9061366f565b80601f01602080910402602001604051908101604052809291908181526020018280546104a89061366f565b80156104f55780601f106104ca576101008083540402835291602001916104f5565b820191906000526020600020905b8154815290600101906020018083116104d857829003601f168201915b50505050509080600801805461050a9061366f565b80601f01602080910402602001604051908101604052809291908181526020018280546105369061366f565b80156105835780601f1061055857610100808354040283529160200191610583565b820191906000526020600020905b81548152906001019060200180831161056657829003601f168201915b5050505050908060090180546105989061366f565b80601f01602080910402602001604051908101604052809291908181526020018280546105c49061366f565b80156106115780601f106105e657610100808354040283529160200191610611565b820191906000526020600020905b8154815290600101906020018083116105f457829003601f168201915b50505050600a830154600b840154600d9094015492936001600160a01b03918216939116915060ff808216916101009004168e565b33600090815260cb602052604081206002810154600160a81b900460ff16801561068a5750835160208501206040516106809083906136a3565b6040518091039020145b80156106b35750825160208401206040516106a99060018401906136a3565b6040518091039020145b156106c25760019150506106c8565b60009150505b92915050565b60008351116107245760405162461bcd60e51b815260206004820152601560248201527f456d61696c2063616e6e6f7420626520656d707479000000000000000000000060448201526064015b60405180910390fd5b60008251116107755760405162461bcd60e51b815260206004820152601860248201527f50617373776f72642063616e6e6f7420626520656d7074790000000000000000604482015260640161071b565b336107c25760405162461bcd60e51b815260206004820152601660248201527f496e76616c69642077616c6c6574206164647265737300000000000000000000604482015260640161071b565b33600090815260cb6020526040902060020154600160a81b900460ff161561082c5760405162461bcd60e51b815260206004820152601a60248201527f5573657220697320616c72656164792072656769737465726564000000000000604482015260640161071b565b6040518060a0016040528084815260200183815260200182600281111561085557610855613012565b81523360208083018290526001604093840152600091825260cb905220815181906108809082613767565b50602082015160018201906108959082613767565b5060408201518160020160006101000a81548160ff021916908360028111156108c0576108c0613012565b02179055506060820151600290910180546080909301511515600160a81b027fffffffffffffffffffff00ffffffffffffffffffffffffffffffffffffffffff6001600160a01b0390931661010002929092167fffffffffffffffffffff000000000000000000000000000000000000000000ff90931692909217179055505050565b6001600160a01b037f00000000000000000000000000000000000000000000000000000000000000001630036109d05760405162461bcd60e51b815260206004820152602c60248201527f46756e6374696f6e206d7573742062652063616c6c6564207468726f7567682060448201526b19195b1959d85d1958d85b1b60a21b606482015260840161071b565b7f00000000000000000000000000000000000000000000000000000000000000006001600160a01b0316610a2b7f360894a13ba1a3210667c828492db98dca3e2076cc3735a920a3ca505d382bbc546001600160a01b031690565b6001600160a01b031614610a965760405162461bcd60e51b815260206004820152602c60248201527f46756e6374696f6e206d7573742062652063616c6c6564207468726f7567682060448201526b6163746976652070726f787960a01b606482015260840161071b565b60408051600080825260208201909252610ab2918391906125f7565b50565b33600090815260cb6020526040902060020154600160a81b900460ff16610b2a5760405162461bcd60e51b815260206004820152602360248201527f4f6e6c792076657269666965642075736572732063616e20706172746963697060448201526261746560e81b606482015260840161071b565b8060c9548110610b7c5760405162461bcd60e51b815260206004820152601760248201527f43616d706169676e20646f6573206e6f74206578697374000000000000000000604482015260640161071b565b60018033600090815260cb6020526040902060029081015460ff1690811115610ba757610ba7613012565b14610c1a5760405162461bcd60e51b815260206004820152603c60248201527f4f6e6c79207573657273206f662074686520737065636966696564206361746560448201527f676f72792063616e20706572666f726d207468697320616374696f6e00000000606482015260840161071b565b82600080600083815260cc60205260409020600d015460ff166002811115610c4457610c44613012565b14610c915760405162461bcd60e51b815260206004820152600d60248201527f496e76616c696420737461746500000000000000000000000000000000000000604482015260640161071b565b600082815260cc60205260409020600401544210610cf15760405162461bcd60e51b815260206004820152601560248201527f446561646c696e65206861732070617373656420210000000000000000000000604482015260640161071b565b600085815260cc6020526040812090600d82015460ff166002811115610d1957610d19613012565b14610d665760405162461bcd60e51b815260206004820152601760248201527f43616d706169676e206973206e6f74206f6e676f696e67000000000000000000604482015260640161071b565b80600401544210610db95760405162461bcd60e51b815260206004820152601960248201527f43616d706169676e20706572696f642068617320656e64656400000000000000604482015260640161071b565b60003411610e2f5760405162461bcd60e51b815260206004820152602960248201527f446f6e6174696f6e20616d6f756e74206d75737420626520677265617465722060448201527f7468616e207a65726f0000000000000000000000000000000000000000000000606482015260840161071b565b8060060154421015610e835760405162461bcd60e51b815260206004820152601c60248201527f43616d706169676e20686173206e6f7420537461727465642079657400000000604482015260640161071b565b600086815260cd60209081526040808320338452909152812080543492839291610eae90849061383d565b9250508190555080826002016000828254610ec9919061383d565b9091555050600087815260ca60205260408120805491610ee883613850565b9091555050600087815260cd60209081526040808320338452909152902054819003610f3657600c82018054600181018255600091825260209091200180546001600160a01b031916331790555b60408051888152336020820152348183015290517f0a4a91237423e0a1766a761c7cb029311d8b95d6b1b81db1b949a70c98b4e08e9181900360600190a1610f7d8761279c565b50505050505050565b6001600160a01b037f00000000000000000000000000000000000000000000000000000000000000001630036110135760405162461bcd60e51b815260206004820152602c60248201527f46756e6374696f6e206d7573742062652063616c6c6564207468726f7567682060448201526b19195b1959d85d1958d85b1b60a21b606482015260840161071b565b7f00000000000000000000000000000000000000000000000000000000000000006001600160a01b031661106e7f360894a13ba1a3210667c828492db98dca3e2076cc3735a920a3ca505d382bbc546001600160a01b031690565b6001600160a01b0316146110d95760405162461bcd60e51b815260206004820152602c60248201527f46756e6374696f6e206d7573742062652063616c6c6564207468726f7567682060448201526b6163746976652070726f787960a01b606482015260840161071b565b6110e5828260016125f7565b5050565b6000306001600160a01b037f000000000000000000000000000000000000000000000000000000000000000016146111895760405162461bcd60e51b815260206004820152603860248201527f555550535570677261646561626c653a206d757374206e6f742062652063616c60448201527f6c6564207468726f7567682064656c656761746563616c6c0000000000000000606482015260840161071b565b507f360894a13ba1a3210667c828492db98dca3e2076cc3735a920a3ca505d382bbc90565b600081815260cc60205260408120600c810154606092839291908167ffffffffffffffff8111156111e1576111e161310d565b60405190808252806020026020018201604052801561120a578160200160208202803683370190505b50905060008267ffffffffffffffff8111156112285761122861310d565b604051908082528060200260200182016040528015611251578160200160208202803683370190505b50905060005b8381101561130e57600085600c01828154811061127657611276613869565b9060005260206000200160009054906101000a90046001600160a01b03169050808483815181106112a9576112a9613869565b6001600160a01b0392831660209182029290920181019190915260008b815260cd82526040808220938516825292909152205483518490849081106112f0576112f0613869565b6020908102919091010152508061130681613850565b915050611257565b5090969095509350505050565b33600090815260cb6020526040902060020154600160a81b900460ff166113905760405162461bcd60e51b815260206004820152602360248201527f4f6e6c792076657269666965642075736572732063616e20706172746963697060448201526261746560e81b606482015260840161071b565b8260c95481106113e25760405162461bcd60e51b815260206004820152601760248201527f43616d706169676e20646f6573206e6f74206578697374000000000000000000604482015260640161071b565b60008033600090815260cb6020526040902060029081015460ff169081111561140d5761140d613012565b146114805760405162461bcd60e51b815260206004820152603c60248201527f4f6e6c79207573657273206f662074686520737065636966696564206361746560448201527f676f72792063616e20706572666f726d207468697320616374696f6e00000000606482015260840161071b565b600085815260cc6020526040812090600d82015460ff1660028111156114a8576114a8613012565b146114f55760405162461bcd60e51b815260206004820152601760248201527f43616d706169676e206973206e6f74206f6e676f696e67000000000000000000604482015260640161071b565b600a8101546001600160a01b031633146115775760405162461bcd60e51b815260206004820152602a60248201527f4f6e6c792074686520656e7472657072656e6575722063616e2063726561746560448201527f2061207265717565737400000000000000000000000000000000000000000000606482015260840161071b565b600d810154610100900460ff16156115f75760405162461bcd60e51b815260206004820152603460248201527f4120726571756573742068617320616c7265616479206265656e20637265617460448201527f656420666f7220746869732063616d706169676e000000000000000000000000606482015260840161071b565b80600201548511156116715760405162461bcd60e51b815260206004820152603e60248201527f5265717565737420616d6f756e74206d757374206265206c657373207468616e60448201527f206f7220657175616c20746f207468652072616973656420616d6f756e740000606482015260840161071b565b60038101859055600d8101805461010061ff0019909116179055600b810180546001600160a01b0319166001600160a01b03861617905560408051878152602081018790527f99f063607b2d9f794eb8985daf4a0d3224e73b48e43228a183329e415dff077e910160405180910390a1505050505050565b6116f1612828565b6116fb6000612882565b565b33600090815260cb6020526040902060020154600160a81b900460ff166117725760405162461bcd60e51b815260206004820152602360248201527f4f6e6c792076657269666965642075736572732063616e20706172746963697060448201526261746560e81b606482015260840161071b565b60008033600090815260cb6020526040902060029081015460ff169081111561179d5761179d613012565b146118105760405162461bcd60e51b815260206004820152603c60248201527f4f6e6c79207573657273206f662074686520737065636966696564206361746560448201527f676f72792063616e20706572666f726d207468697320616374696f6e00000000606482015260840161071b565b600086116118865760405162461bcd60e51b815260206004820152602760248201527f54617267657420616d6f756e74206d757374206265206772656174657220746860448201527f616e207a65726f00000000000000000000000000000000000000000000000000606482015260840161071b565b6000611892864261383d565b60c954600090815260cc6020526040902060048101549192509042116119205760405162461bcd60e51b815260206004820152602960248201527f5468652063616d706169676e206d7573742062652061206461746520696e207460448201527f6865206675747572650000000000000000000000000000000000000000000000606482015260840161071b565b60c9548155600a810180546001600160a01b03191633179055600181018890556007810161194e8782613767565b506008810161195d8682613767565b506009810161196c8582613767565b5060048101829055426006820155600d8101805460ff1916905560c9805490600061199683613850565b91905055507f91b289a829e71d811b8c69e4a24ba2d40d115d8a236e9a724cb3bb2d43cf7223600160c9546119cb919061387f565b6040805191825233602083015281018a90526060810184905260800160405180910390a15050505050505050565b600054610100900460ff1615808015611a195750600054600160ff909116105b80611a335750303b158015611a33575060005460ff166001145b611aa55760405162461bcd60e51b815260206004820152602e60248201527f496e697469616c697a61626c653a20636f6e747261637420697320616c72656160448201527f647920696e697469616c697a6564000000000000000000000000000000000000606482015260840161071b565b6000805460ff191660011790558015611ac8576000805461ff0019166101001790555b611ad06128d4565b611ad8612947565b8015610ab2576000805461ff0019169055604051600181527f7f26b83ff96e1f2b6a682f133852f6798a09c465da95921460cefb38474024989060200160405180910390a150565b600080805b60c954811015611b7757600081815260cd602090815260408083206001600160a01b038816845290915290205415611b655781611b6181613850565b9250505b80611b6f81613850565b915050611b25565b5092915050565b6060600060c95467ffffffffffffffff811115611b9d57611b9d61310d565b604051908082528060200260200182016040528015611bd657816020015b611bc3612f10565b815260200190600190039081611bbb5790505b50905060005b60c954811015611efb5760cc6000828152602001908152602001600020604051806101e001604052908160008201548152602001600182015481526020016002820154815260200160038201548152602001600482015481526020016005820154815260200160068201548152602001600782018054611c5b9061366f565b80601f0160208091040260200160405190810160405280929190818152602001828054611c879061366f565b8015611cd45780601f10611ca957610100808354040283529160200191611cd4565b820191906000526020600020905b815481529060010190602001808311611cb757829003601f168201915b50505050508152602001600882018054611ced9061366f565b80601f0160208091040260200160405190810160405280929190818152602001828054611d199061366f565b8015611d665780601f10611d3b57610100808354040283529160200191611d66565b820191906000526020600020905b815481529060010190602001808311611d4957829003601f168201915b50505050508152602001600982018054611d7f9061366f565b80601f0160208091040260200160405190810160405280929190818152602001828054611dab9061366f565b8015611df85780601f10611dcd57610100808354040283529160200191611df8565b820191906000526020600020905b815481529060010190602001808311611ddb57829003601f168201915b5050509183525050600a8201546001600160a01b03908116602080840191909152600b840154909116604080840191909152600c840180548251818502810185019093528083526060909401939192909190830182828015611e8357602002820191906000526020600020905b81546001600160a01b03168152600190910190602001808311611e65575b5050509183525050600d82015460209091019060ff166002811115611eaa57611eaa613012565b6002811115611ebb57611ebb613012565b8152600d9190910154610100900460ff1615156020909101528251839083908110611ee857611ee8613869565b6020908102919091010152600101611bdc565b50919050565b33600090815260cb6020526040902060020154600160a81b900460ff16611f765760405162461bcd60e51b815260206004820152602360248201527f4f6e6c792076657269666965642075736572732063616e20706172746963697060448201526261746560e81b606482015260840161071b565b8060c9548110611fc85760405162461bcd60e51b815260206004820152601760248201527f43616d706169676e20646f6573206e6f74206578697374000000000000000000604482015260640161071b565b60018033600090815260cb6020526040902060029081015460ff1690811115611ff357611ff3613012565b146120665760405162461bcd60e51b815260206004820152603c60248201527f4f6e6c79207573657273206f662074686520737065636966696564206361746560448201527f676f72792063616e20706572666f726d207468697320616374696f6e00000000606482015260840161071b565b600083815260cc6020526040812090600d82015460ff16600281111561208e5761208e613012565b146120db5760405162461bcd60e51b815260206004820152601760248201527f43616d706169676e206973206e6f74206f6e676f696e67000000000000000000604482015260640161071b565b600084815260cd6020908152604080832033845290915290205461214d5760405162461bcd60e51b8152602060048201526024808201527f4f6e6c7920696e766573746f72732063616e20617070726f76652061207265716044820152631d595cdd60e21b606482015260840161071b565b600d810154610100900460ff166121b25760405162461bcd60e51b815260206004820152602360248201527f4e6f20726571756573742065786973747320666f7220746869732063616d706160448201526234b3b760e91b606482015260840161071b565b600084815260ce6020908152604080832033845290915290205460ff16156122425760405162461bcd60e51b815260206004820152602960248201527f496e766573746f722068617320616c726561647920617070726f76656420746860448201527f6520726571756573740000000000000000000000000000000000000000000000606482015260840161071b565b600084815260ce602090815260408083203380855290835292819020805460ff191660011790558051878152918201929092527ff3dc904660a0ea05aba8dfa1e21fbc4fb2914be2a3029da7b0fdd3e5eee20ddb910160405180910390a16122a9816129b2565b156122b7576122b784612a5f565b50505050565b60cb602052600090815260409020805481906122d89061366f565b80601f01602080910402602001604051908101604052809291908181526020018280546123049061366f565b80156123515780601f1061232657610100808354040283529160200191612351565b820191906000526020600020905b81548152906001019060200180831161233457829003601f168201915b5050505050908060010180546123669061366f565b80601f01602080910402602001604051908101604052809291908181526020018280546123929061366f565b80156123df5780601f106123b4576101008083540402835291602001916123df565b820191906000526020600020905b8154815290600101906020018083116123c257829003601f168201915b5050506002909301549192505060ff808216916001600160a01b0361010082041691600160a81b9091041685565b600081815260cc6020908152604091829020600c81018054845181850281018501909552808552606094929383018282801561247257602002820191906000526020600020905b81546001600160a01b03168152600190910190602001808311612454575b5050505050915050919050565b612487612828565b6001600160a01b0381166125035760405162461bcd60e51b815260206004820152602660248201527f4f776e61626c653a206e6577206f776e657220697320746865207a65726f206160448201527f6464726573730000000000000000000000000000000000000000000000000000606482015260840161071b565b610ab281612882565b600081815260cc60205260408120600c8101546060928167ffffffffffffffff81111561253b5761253b61310d565b604051908082528060200260200182016040528015612564578160200160208202803683370190505b50905060005b828110156125ee57600084600c01828154811061258957612589613869565b600091825260208083209091015489835260cd825260408084206001600160a01b03909216808552919092529120548451919250908490849081106125d0576125d0613869565b602090810291909101015250806125e681613850565b91505061256a565b50949350505050565b7f4910fdfa16fed3260ed0e7147f7cc6da11a60208b5b9406d12a635614ffd91435460ff161561262f5761262a83612c2a565b505050565b826001600160a01b03166352d1902d6040518163ffffffff1660e01b8152600401602060405180830381865afa925050508015612689575060408051601f3d908101601f1916820190925261268691810190613892565b60015b6126fb5760405162461bcd60e51b815260206004820152602e60248201527f45524331393637557067726164653a206e657720696d706c656d656e7461746960448201527f6f6e206973206e6f742055555053000000000000000000000000000000000000606482015260840161071b565b7f360894a13ba1a3210667c828492db98dca3e2076cc3735a920a3ca505d382bbc81146127905760405162461bcd60e51b815260206004820152602960248201527f45524331393637557067726164653a20756e737570706f727465642070726f7860448201527f6961626c65555549440000000000000000000000000000000000000000000000606482015260840161071b565b5061262a838383612ce8565b600081815260cc602052604090206001810154600290910154106127db57600081815260cc60205260409020600d01805460ff19166001179055612811565b600081815260cc602052604090206004015442111561281157600081815260cc60205260409020600d01805460ff191660021790555b600090815260cc6020526040902042600590910155565b6033546001600160a01b031633146116fb5760405162461bcd60e51b815260206004820181905260248201527f4f776e61626c653a2063616c6c6572206973206e6f7420746865206f776e6572604482015260640161071b565b603380546001600160a01b038381166001600160a01b0319831681179093556040519116919082907f8be0079c531659141344cd1fd0a4f28419497f9722a3daafe3b4186f6b6457e090600090a35050565b600054610100900460ff1661293f5760405162461bcd60e51b815260206004820152602b60248201527f496e697469616c697a61626c653a20636f6e7472616374206973206e6f74206960448201526a6e697469616c697a696e6760a81b606482015260840161071b565b6116fb612d0d565b600054610100900460ff166116fb5760405162461bcd60e51b815260206004820152602b60248201527f496e697469616c697a61626c653a20636f6e7472616374206973206e6f74206960448201526a6e697469616c697a696e6760a81b606482015260840161071b565b8054600090815260ca6020526040812054816129cf6002836138ab565b90506000805b600c860154811015612a5557600081815260ce60205260408120600c8801805491929184908110612a0857612a08613869565b60009182526020808320909101546001600160a01b0316835282019290925260400190205460ff1615612a435781612a3f81613850565b9250505b80612a4d81613850565b9150506129d5565b5010159392505050565b600081815260cc6020526040812090600d82015460ff166002811115612a8757612a87613012565b14612ad45760405162461bcd60e51b815260206004820152601760248201527f43616d706169676e206973206e6f74206f6e676f696e67000000000000000000604482015260640161071b565b612add816129b2565b612b595760405162461bcd60e51b815260206004820152604160248201527f5265717565737420686173206e6f74206265656e20617070726f76656420627960448201527f20746865207265717569726564206e756d626572206f6620696e766573746f726064820152607360f81b608482015260a40161071b565b60005b600c820154811015612c1857600081815260cc6020526040808220600b81015460029091015491516001600160a01b0390911692839183156108fc0291849190818181858888f19350505050158015612bb9573d6000803e3d6000fd5b50604080518681526001600160a01b03841660208201529081018290527f6e3c6096795c8298a218b2cfb8bde42726ff7c9a3d27b4d3ba41ab7f74feb5fb9060600160405180910390a150508080612c1090613850565b915050612b5c565b50600d01805460ff1916600117905550565b6001600160a01b0381163b612ca75760405162461bcd60e51b815260206004820152602d60248201527f455243313936373a206e657720696d706c656d656e746174696f6e206973206e60448201527f6f74206120636f6e747261637400000000000000000000000000000000000000606482015260840161071b565b7f360894a13ba1a3210667c828492db98dca3e2076cc3735a920a3ca505d382bbc80546001600160a01b0319166001600160a01b0392909216919091179055565b612cf183612d81565b600082511180612cfe5750805b1561262a576122b78383612dc1565b600054610100900460ff16612d785760405162461bcd60e51b815260206004820152602b60248201527f496e697469616c697a61626c653a20636f6e7472616374206973206e6f74206960448201526a6e697469616c697a696e6760a81b606482015260840161071b565b6116fb33612882565b612d8a81612c2a565b6040516001600160a01b038216907fbc7cd75a20ee27fd9adebab32041f755214dbc6bffa90cc0225b39da2e5c2d3b90600090a250565b6060612de683836040518060600160405280602781526020016138fd60279139612ded565b9392505050565b6060600080856001600160a01b031685604051612e0a91906138cd565b600060405180830381855af49150503d8060008114612e45576040519150601f19603f3d011682016040523d82523d6000602084013e612e4a565b606091505b5091509150612e5b86838387612e65565b9695505050505050565b60608315612ed4578251600003612ecd576001600160a01b0385163b612ecd5760405162461bcd60e51b815260206004820152601d60248201527f416464726573733a2063616c6c20746f206e6f6e2d636f6e7472616374000000604482015260640161071b565b5081612ede565b612ede8383612ee6565b949350505050565b815115612ef65781518083602001fd5b8060405162461bcd60e51b815260040161071b91906138e9565b604051806101e001604052806000815260200160008152602001600081526020016000815260200160008152602001600081526020016000815260200160608152602001606081526020016060815260200160006001600160a01b0316815260200160006001600160a01b031681526020016060815260200160006002811115612f9c57612f9c613012565b8152600060209091015290565b600060208284031215612fbb57600080fd5b5035919050565b60005b83811015612fdd578181015183820152602001612fc5565b50506000910152565b60008151808452612ffe816020860160208601612fc2565b601f01601f19169290920160200192915050565b634e487b7160e01b600052602160045260246000fd5b60038110610ab257634e487b7160e01b600052602160045260246000fd5b61304f81613028565b9052565b8e81528d60208201528c60408201528b60608201528a60808201528960a08201528860c08201526101c060e082015260006130926101c083018a612fe6565b8281036101008401526130a5818a612fe6565b90508281036101208401526130ba8189612fe6565b9150506130d36101408301876001600160a01b03169052565b6001600160a01b0385166101608301526130f1610180830185613046565b8215156101a08301529f9e505050505050505050505050505050565b634e487b7160e01b600052604160045260246000fd5b600067ffffffffffffffff8084111561313e5761313e61310d565b604051601f8501601f19908116603f011681019082821181831017156131665761316661310d565b8160405280935085815286868601111561317f57600080fd5b858560208301376000602087830101525050509392505050565b600082601f8301126131aa57600080fd5b612de683833560208501613123565b600080604083850312156131cc57600080fd5b823567ffffffffffffffff808211156131e457600080fd5b6131f086838701613199565b9350602085013591508082111561320657600080fd5b5061321385828601613199565b9150509250929050565b60008060006060848603121561323257600080fd5b833567ffffffffffffffff8082111561324a57600080fd5b61325687838801613199565b9450602086013591508082111561326c57600080fd5b5061327986828701613199565b92505060408401356003811061328e57600080fd5b809150509250925092565b6001600160a01b0381168114610ab257600080fd5b6000602082840312156132c057600080fd5b8135612de681613299565b600080604083850312156132de57600080fd5b82356132e981613299565b9150602083013567ffffffffffffffff81111561330557600080fd5b8301601f8101851361331657600080fd5b61321385823560208401613123565b600081518084526020808501945080840160005b8381101561335e5781516001600160a01b031687529582019590820190600101613339565b509495945050505050565b600081518084526020808501945080840160005b8381101561335e5781518752958201959082019060010161337d565b6040815260006133ac6040830185613325565b82810360208401526133be8185613369565b95945050505050565b6000806000606084860312156133dc57600080fd5b8335925060208401359150604084013561328e81613299565b600080600080600060a0868803121561340d57600080fd5b8535945060208601359350604086013567ffffffffffffffff8082111561343357600080fd5b61343f89838a01613199565b9450606088013591508082111561345557600080fd5b61346189838a01613199565b9350608088013591508082111561347757600080fd5b5061348488828901613199565b9150509295509295909350565b60006020808301818452808551808352604092508286019150828160051b87010184880160005b838110156135e357888303603f1901855281518051845287810151888501528681015187850152606080820151908501526080808201519085015260a0808201519085015260c0808201519085015260e0808201516101e0828701819052919061352483880182612fe6565b9250505061010080830151868303828801526135408382612fe6565b92505050610120808301518683038288015261355c8382612fe6565b925050506101408083015161357b828801826001600160a01b03169052565b5050610160828101516001600160a01b03169086015261018080830151868303828801526135a98382613325565b925050506101a0808301516135c082880182613046565b50506101c0918201511515949091019390935293860193908601906001016134b8565b509098975050505050505050565b60a08152600061360460a0830188612fe6565b82810360208401526136168188612fe6565b91505061362285613028565b8460408301526001600160a01b038416606083015282151560808301529695505050505050565b602081526000612de66020830184613325565b602081526000612de66020830184613369565b600181811c9082168061368357607f821691505b602082108103611efb57634e487b7160e01b600052602260045260246000fd5b60008083546136b18161366f565b600182811680156136c957600181146136de5761370d565b60ff198416875282151583028701945061370d565b8760005260208060002060005b858110156137045781548a8201529084019082016136eb565b50505082870194505b50929695505050505050565b601f82111561262a57600081815260208120601f850160051c810160208610156137405750805b601f850160051c820191505b8181101561375f5782815560010161374c565b505050505050565b815167ffffffffffffffff8111156137815761378161310d565b6137958161378f845461366f565b84613719565b602080601f8311600181146137ca57600084156137b25750858301515b600019600386901b1c1916600185901b17855561375f565b600085815260208120601f198616915b828110156137f9578886015182559484019460019091019084016137da565b50858210156138175787850151600019600388901b60f8161c191681555b5050505050600190811b01905550565b634e487b7160e01b600052601160045260246000fd5b808201808211156106c8576106c8613827565b60006001820161386257613862613827565b5060010190565b634e487b7160e01b600052603260045260246000fd5b818103818111156106c8576106c8613827565b6000602082840312156138a457600080fd5b5051919050565b6000826138c857634e487b7160e01b600052601260045260246000fd5b500490565b600082516138df818460208701612fc2565b9190910192915050565b602081526000612de66020830184612fe656fe416464726573733a206c6f772d6c6576656c2064656c65676174652063616c6c206661696c6564a164736f6c6343000812000a",
  "linkReferences": {},
  "deployedLinkReferences": {}
}