{
  "_format": "hh-sol-artifact-1",
  "contractName": "CampaignRegistry",
  "sourceName": "contracts/CampaignRegistry.sol",
  "abi": [
    {
      "anonymous": false,
      "inputs": [
        {
          "indexed": false,
          "internalType": "address",
          "name": "previousAdmin",
          "type": "address"
        },
        {
          "indexed": false,
          "internalType": "address",
          "name": "newAdmin",
          "type": "address"
        }
      ],
      "name": "AdminChanged",
      "type": "event"
    },
    {
      "anonymous": false,
      "inputs": [
        {
          "indexed": true,
          "internalType": "address",
          "name": "beacon",
          "type": "address"
        }
      ],
      "name": "BeaconUpgraded",
      "type": "event"
    },
    {
      "anonymous": false,
      "inputs": [
        {
          "indexed": false,
          "internalType": "uint256",
          "name": "campaignId",
          "type": "uint256"
        },
        {
          "indexed": false,
          "internalType": "address",
          "name": "entrepreneur",
          "type": "address"
        },
        {
          "indexed": false,
          "internalType": "uint256",
          "name": "targetAmount",
          "type": "uint256"
        },
        {
          "indexed": false,
          "internalType": "uint256",
          "name": "deadline",
          "type": "uint256"
        }
      ],
      "name": "CampaignCreated",
      "type": "event"
    },
    {
      "anonymous": false,
      "inputs": [
        {
          "indexed": false,
          "internalType": "uint256",
          "name": "campaignId",
          "type": "uint256"
        },
        {
          "indexed": false,
          "internalType": "address",
          "name": "investor",
          "type": "address"
        },
        {
          "indexed": false,
          "internalType": "uint256",
          "name": "amount",
          "type": "uint256"
        }
      ],
      "name": "ContributionMade",
      "type": "event"
    },
    {
      "anonymous": false,
      "inputs": [
        {
          "indexed": false,
          "internalType": "uint256",
          "name": "campaignId",
          "type": "uint256"
        }
      ],
      "name": "FundReleaseDeclined",
      "type": "event"
    },
    {
      "anonymous": false,
      "inputs": [
        {
          "indexed": false,
          "internalType": "uint256",
          "name": "campaignId",
          "type": "uint256"
        }
      ],
      "name": "FundsReceived",
      "type": "event"
    },
    {
      "anonymous": false,
      "inputs": [
        {
          "indexed": false,
          "internalType": "uint256",
          "name": "campaignId",
          "type": "uint256"
        },
        {
          "indexed": false,
          "internalType": "address",
          "name": "vendor",
          "type": "address"
        },
        {
          "indexed": false,
          "internalType": "uint256",
          "name": "amount",
          "type": "uint256"
        }
      ],
      "name": "FundsReleased",
      "type": "event"
    },
    {
      "anonymous": false,
      "inputs": [
        {
          "indexed": false,
          "internalType": "uint256",
          "name": "campaignId",
          "type": "uint256"
        },
        {
          "indexed": false,
          "internalType": "address",
          "name": "investor",
          "type": "address"
        }
      ],
      "name": "FundsWithdrawn",
      "type": "event"
    },
    {
      "anonymous": false,
      "inputs": [
        {
          "indexed": false,
          "internalType": "uint8",
          "name": "version",
          "type": "uint8"
        }
      ],
      "name": "Initialized",
      "type": "event"
    },
    {
      "anonymous": false,
      "inputs": [
        {
          "indexed": true,
          "internalType": "address",
          "name": "previousOwner",
          "type": "address"
        },
        {
          "indexed": true,
          "internalType": "address",
          "name": "newOwner",
          "type": "address"
        }
      ],
      "name": "OwnershipTransferred",
      "type": "event"
    },
    {
      "anonymous": false,
      "inputs": [
        {
          "indexed": false,
          "internalType": "uint256",
          "name": "campaignId",
          "type": "uint256"
        },
        {
          "indexed": false,
          "internalType": "address",
          "name": "investor",
          "type": "address"
        }
      ],
      "name": "RequestApproved",
      "type": "event"
    },
    {
      "anonymous": false,
      "inputs": [
        {
          "indexed": false,
          "internalType": "uint256",
          "name": "campaignId",
          "type": "uint256"
        },
        {
          "indexed": false,
          "internalType": "uint256",
          "name": "requestAmount",
          "type": "uint256"
        }
      ],
      "name": "RequestCreated",
      "type": "event"
    },
    {
      "anonymous": false,
      "inputs": [
        {
          "indexed": true,
          "internalType": "address",
          "name": "implementation",
          "type": "address"
        }
      ],
      "name": "Upgraded",
      "type": "event"
    },
    {
      "anonymous": false,
      "inputs": [
        {
          "indexed": false,
          "internalType": "string",
          "name": "email",
          "type": "string"
        },
        {
          "indexed": false,
          "internalType": "bool",
          "name": "verified",
          "type": "bool"
        },
        {
          "indexed": false,
          "internalType": "address",
          "name": "walletAddress",
          "type": "address"
        }
      ],
      "name": "UserRegistered",
      "type": "event"
    },
    {
      "inputs": [
        {
          "internalType": "address",
          "name": "_owner",
          "type": "address"
        },
        {
          "internalType": "uint256",
          "name": "index",
          "type": "uint256"
        }
      ],
      "name": "_campaignOfEntrepreneurByIndex",
      "outputs": [
        {
          "internalType": "uint256",
          "name": "",
          "type": "uint256"
        }
      ],
      "stateMutability": "view",
      "type": "function"
    },
    {
      "inputs": [
        {
          "internalType": "uint256",
          "name": "_campaignId",
          "type": "uint256"
        }
      ],
      "name": "approveFundReleaseRequest",
      "outputs": [],
      "stateMutability": "nonpayable",
      "type": "function"
    },
    {
      "inputs": [
        {
          "internalType": "uint256",
          "name": "",
          "type": "uint256"
        }
      ],
      "name": "campaigns",
      "outputs": [
        {
          "internalType": "uint256",
          "name": "campaignId",
          "type": "uint256"
        },
        {
          "internalType": "uint256",
          "name": "targetAmount",
          "type": "uint256"
        },
        {
          "internalType": "uint256",
          "name": "raisedAmount",
          "type": "uint256"
        },
        {
          "internalType": "uint256",
          "name": "requestAmount",
          "type": "uint256"
        },
        {
          "internalType": "uint256",
          "name": "deadline",
          "type": "uint256"
        },
        {
          "internalType": "uint256",
          "name": "completeAt",
          "type": "uint256"
        },
        {
          "internalType": "uint256",
          "name": "minimumContribution",
          "type": "uint256"
        },
        {
          "internalType": "string",
          "name": "imageUri",
          "type": "string"
        },
        {
          "internalType": "string",
          "name": "campaignTitle",
          "type": "string"
        },
        {
          "internalType": "string",
          "name": "campaignDescription",
          "type": "string"
        },
        {
          "internalType": "address",
          "name": "entrepreneur",
          "type": "address"
        },
        {
          "internalType": "address payable",
          "name": "vendor",
          "type": "address"
        },
        {
          "internalType": "enum ICampaignRegistry.CampaignStatus",
          "name": "status",
          "type": "uint8"
        },
        {
          "internalType": "bool",
          "name": "requestCreated",
          "type": "bool"
        },
        {
          "internalType": "bool",
          "name": "fundsReceived",
          "type": "bool"
        }
      ],
      "stateMutability": "view",
      "type": "function"
    },
    {
      "inputs": [
        {
          "internalType": "uint256",
          "name": "_campaignId",
          "type": "uint256"
        }
      ],
      "name": "confirmFundsReceived",
      "outputs": [],
      "stateMutability": "nonpayable",
      "type": "function"
    },
    {
      "inputs": [
        {
          "internalType": "uint256",
          "name": "_targetAmount",
          "type": "uint256"
        },
        {
          "internalType": "uint256",
          "name": "_deadline",
          "type": "uint256"
        },
        {
          "internalType": "uint256",
          "name": "minimumContribution",
          "type": "uint256"
        },
        {
          "internalType": "string",
          "name": "_imageUri",
          "type": "string"
        },
        {
          "internalType": "string",
          "name": "_campaignTitle",
          "type": "string"
        },
        {
          "internalType": "string",
          "name": "_campaignDescription",
          "type": "string"
        }
      ],
      "name": "createCampaign",
      "outputs": [],
      "stateMutability": "nonpayable",
      "type": "function"
    },
    {
      "inputs": [
        {
          "internalType": "uint256",
          "name": "_campaignId",
          "type": "uint256"
        },
        {
          "internalType": "uint256",
          "name": "_requestAmount",
          "type": "uint256"
        },
        {
          "internalType": "address payable",
          "name": "_vendorAddress",
          "type": "address"
        }
      ],
      "name": "createFundReleaseRequest",
      "outputs": [],
      "stateMutability": "nonpayable",
      "type": "function"
    },
    {
      "inputs": [
        {
          "internalType": "uint256",
          "name": "_campaignId",
          "type": "uint256"
        }
      ],
      "name": "declineFundRelease",
      "outputs": [],
      "stateMutability": "nonpayable",
      "type": "function"
    },
    {
      "inputs": [
        {
          "internalType": "uint256",
          "name": "_campaignId",
          "type": "uint256"
        }
      ],
      "name": "donateToCampaign",
      "outputs": [],
      "stateMutability": "payable",
      "type": "function"
    },
    {
      "inputs": [
        {
          "internalType": "uint256",
          "name": "_campaignId",
          "type": "uint256"
        }
      ],
      "name": "getAllDonations",
      "outputs": [
        {
          "internalType": "uint256[]",
          "name": "",
          "type": "uint256[]"
        }
      ],
      "stateMutability": "view",
      "type": "function"
    },
    {
      "inputs": [
        {
          "internalType": "uint256",
          "name": "_campaignId",
          "type": "uint256"
        }
      ],
      "name": "getAllDonators",
      "outputs": [
        {
          "internalType": "address[]",
          "name": "",
          "type": "address[]"
        }
      ],
      "stateMutability": "view",
      "type": "function"
    },
    {
      "inputs": [
        {
          "internalType": "uint256",
          "name": "_campaignId",
          "type": "uint256"
        }
      ],
      "name": "getCampaignById",
      "outputs": [
        {
          "components": [
            {
              "internalType": "uint256",
              "name": "campaignId",
              "type": "uint256"
            },
            {
              "internalType": "uint256",
              "name": "targetAmount",
              "type": "uint256"
            },
            {
              "internalType": "uint256",
              "name": "raisedAmount",
              "type": "uint256"
            },
            {
              "internalType": "uint256",
              "name": "requestAmount",
              "type": "uint256"
            },
            {
              "internalType": "uint256",
              "name": "deadline",
              "type": "uint256"
            },
            {
              "internalType": "uint256",
              "name": "completeAt",
              "type": "uint256"
            },
            {
              "internalType": "uint256",
              "name": "minimumContribution",
              "type": "uint256"
            },
            {
              "internalType": "string",
              "name": "imageUri",
              "type": "string"
            },
            {
              "internalType": "string",
              "name": "campaignTitle",
              "type": "string"
            },
            {
              "internalType": "string",
              "name": "campaignDescription",
              "type": "string"
            },
            {
              "internalType": "address",
              "name": "entrepreneur",
              "type": "address"
            },
            {
              "internalType": "address payable",
              "name": "vendor",
              "type": "address"
            },
            {
              "internalType": "address[]",
              "name": "investors",
              "type": "address[]"
            },
            {
              "internalType": "enum ICampaignRegistry.CampaignStatus",
              "name": "status",
              "type": "uint8"
            },
            {
              "internalType": "bool",
              "name": "requestCreated",
              "type": "bool"
            },
            {
              "internalType": "bool",
              "name": "fundsReceived",
              "type": "bool"
            }
          ],
          "internalType": "struct ICampaignRegistry.Campaign",
          "name": "",
          "type": "tuple"
        }
      ],
      "stateMutability": "view",
      "type": "function"
    },
    {
      "inputs": [],
      "name": "getCampaigns",
      "outputs": [
        {
          "components": [
            {
              "internalType": "uint256",
              "name": "campaignId",
              "type": "uint256"
            },
            {
              "internalType": "uint256",
              "name": "targetAmount",
              "type": "uint256"
            },
            {
              "internalType": "uint256",
              "name": "raisedAmount",
              "type": "uint256"
            },
            {
              "internalType": "uint256",
              "name": "requestAmount",
              "type": "uint256"
            },
            {
              "internalType": "uint256",
              "name": "deadline",
              "type": "uint256"
            },
            {
              "internalType": "uint256",
              "name": "completeAt",
              "type": "uint256"
            },
            {
              "internalType": "uint256",
              "name": "minimumContribution",
              "type": "uint256"
            },
            {
              "internalType": "string",
              "name": "imageUri",
              "type": "string"
            },
            {
              "internalType": "string",
              "name": "campaignTitle",
              "type": "string"
            },
            {
              "internalType": "string",
              "name": "campaignDescription",
              "type": "string"
            },
            {
              "internalType": "address",
              "name": "entrepreneur",
              "type": "address"
            },
            {
              "internalType": "address payable",
              "name": "vendor",
              "type": "address"
            },
            {
              "internalType": "address[]",
              "name": "investors",
              "type": "address[]"
            },
            {
              "internalType": "enum ICampaignRegistry.CampaignStatus",
              "name": "status",
              "type": "uint8"
            },
            {
              "internalType": "bool",
              "name": "requestCreated",
              "type": "bool"
            },
            {
              "internalType": "bool",
              "name": "fundsReceived",
              "type": "bool"
            }
          ],
          "internalType": "struct ICampaignRegistry.Campaign[]",
          "name": "",
          "type": "tuple[]"
        }
      ],
      "stateMutability": "view",
      "type": "function"
    },
    {
      "inputs": [
        {
          "internalType": "address",
          "name": "_entrepreneur",
          "type": "address"
        }
      ],
      "name": "getCampaignsByEntrepreneur",
      "outputs": [
        {
          "components": [
            {
              "internalType": "uint256",
              "name": "campaignId",
              "type": "uint256"
            },
            {
              "internalType": "uint256",
              "name": "targetAmount",
              "type": "uint256"
            },
            {
              "internalType": "uint256",
              "name": "raisedAmount",
              "type": "uint256"
            },
            {
              "internalType": "uint256",
              "name": "requestAmount",
              "type": "uint256"
            },
            {
              "internalType": "uint256",
              "name": "deadline",
              "type": "uint256"
            },
            {
              "internalType": "uint256",
              "name": "completeAt",
              "type": "uint256"
            },
            {
              "internalType": "uint256",
              "name": "minimumContribution",
              "type": "uint256"
            },
            {
              "internalType": "string",
              "name": "imageUri",
              "type": "string"
            },
            {
              "internalType": "string",
              "name": "campaignTitle",
              "type": "string"
            },
            {
              "internalType": "string",
              "name": "campaignDescription",
              "type": "string"
            },
            {
              "internalType": "address",
              "name": "entrepreneur",
              "type": "address"
            },
            {
              "internalType": "address payable",
              "name": "vendor",
              "type": "address"
            },
            {
              "internalType": "address[]",
              "name": "investors",
              "type": "address[]"
            },
            {
              "internalType": "enum ICampaignRegistry.CampaignStatus",
              "name": "status",
              "type": "uint8"
            },
            {
              "internalType": "bool",
              "name": "requestCreated",
              "type": "bool"
            },
            {
              "internalType": "bool",
              "name": "fundsReceived",
              "type": "bool"
            }
          ],
          "internalType": "struct ICampaignRegistry.Campaign[]",
          "name": "",
          "type": "tuple[]"
        }
      ],
      "stateMutability": "view",
      "type": "function"
    },
    {
      "inputs": [
        {
          "internalType": "uint256",
          "name": "_campaignId",
          "type": "uint256"
        }
      ],
      "name": "getInvestorDonations",
      "outputs": [
        {
          "internalType": "address[]",
          "name": "",
          "type": "address[]"
        },
        {
          "internalType": "uint256[]",
          "name": "",
          "type": "uint256[]"
        }
      ],
      "stateMutability": "view",
      "type": "function"
    },
    {
      "inputs": [
        {
          "internalType": "address",
          "name": "_investor",
          "type": "address"
        }
      ],
      "name": "getTotalCampaignsByInvestor",
      "outputs": [
        {
          "internalType": "uint256",
          "name": "",
          "type": "uint256"
        }
      ],
      "stateMutability": "view",
      "type": "function"
    },
    {
      "inputs": [
        {
          "internalType": "address",
          "name": "_walltetAddress",
          "type": "address"
        }
      ],
      "name": "getUserByAddress",
      "outputs": [
        {
          "components": [
            {
              "internalType": "string",
              "name": "email",
              "type": "string"
            },
            {
              "internalType": "string",
              "name": "password",
              "type": "string"
            },
            {
              "internalType": "enum ICampaignRegistry.Category",
              "name": "category",
              "type": "uint8"
            },
            {
              "internalType": "address",
              "name": "walletAddress",
              "type": "address"
            },
            {
              "internalType": "bool",
              "name": "verified",
              "type": "bool"
            }
          ],
          "internalType": "struct ICampaignRegistry.User",
          "name": "",
          "type": "tuple"
        }
      ],
      "stateMutability": "view",
      "type": "function"
    },
    {
      "inputs": [],
      "name": "initialize",
      "outputs": [],
      "stateMutability": "nonpayable",
      "type": "function"
    },
    {
      "inputs": [
        {
          "internalType": "string",
          "name": "_email",
          "type": "string"
        },
        {
          "internalType": "string",
          "name": "_password",
          "type": "string"
        }
      ],
      "name": "loginUser",
      "outputs": [
        {
          "internalType": "bool",
          "name": "",
          "type": "bool"
        }
      ],
      "stateMutability": "view",
      "type": "function"
    },
    {
      "inputs": [],
      "name": "owner",
      "outputs": [
        {
          "internalType": "address",
          "name": "",
          "type": "address"
        }
      ],
      "stateMutability": "view",
      "type": "function"
    },
    {
      "inputs": [],
      "name": "proxiableUUID",
      "outputs": [
        {
          "internalType": "bytes32",
          "name": "",
          "type": "bytes32"
        }
      ],
      "stateMutability": "view",
      "type": "function"
    },
    {
      "inputs": [
        {
          "internalType": "string",
          "name": "_email",
          "type": "string"
        },
        {
          "internalType": "string",
          "name": "_password",
          "type": "string"
        },
        {
          "internalType": "enum ICampaignRegistry.Category",
          "name": "_category",
          "type": "uint8"
        }
      ],
      "name": "registerUser",
      "outputs": [],
      "stateMutability": "nonpayable",
      "type": "function"
    },
    {
      "inputs": [
        {
          "internalType": "uint256",
          "name": "_campaignId",
          "type": "uint256"
        }
      ],
      "name": "releaseFundsToVendors",
      "outputs": [],
      "stateMutability": "nonpayable",
      "type": "function"
    },
    {
      "inputs": [],
      "name": "renounceOwnership",
      "outputs": [],
      "stateMutability": "nonpayable",
      "type": "function"
    },
    {
      "inputs": [
        {
          "internalType": "address",
          "name": "newOwner",
          "type": "address"
        }
      ],
      "name": "transferOwnership",
      "outputs": [],
      "stateMutability": "nonpayable",
      "type": "function"
    },
    {
      "inputs": [
        {
          "internalType": "address",
          "name": "newImplementation",
          "type": "address"
        }
      ],
      "name": "upgradeTo",
      "outputs": [],
      "stateMutability": "nonpayable",
      "type": "function"
    },
    {
      "inputs": [
        {
          "internalType": "address",
          "name": "newImplementation",
          "type": "address"
        },
        {
          "internalType": "bytes",
          "name": "data",
          "type": "bytes"
        }
      ],
      "name": "upgradeToAndCall",
      "outputs": [],
      "stateMutability": "payable",
      "type": "function"
    },
    {
      "inputs": [
        {
          "internalType": "address",
          "name": "",
          "type": "address"
        }
      ],
      "name": "users",
      "outputs": [
        {
          "internalType": "string",
          "name": "email",
          "type": "string"
        },
        {
          "internalType": "string",
          "name": "password",
          "type": "string"
        },
        {
          "internalType": "enum ICampaignRegistry.Category",
          "name": "category",
          "type": "uint8"
        },
        {
          "internalType": "address",
          "name": "walletAddress",
          "type": "address"
        },
        {
          "internalType": "bool",
          "name": "verified",
          "type": "bool"
        }
      ],
      "stateMutability": "view",
      "type": "function"
    },
    {
      "inputs": [
        {
          "internalType": "uint256",
          "name": "_campaignId",
          "type": "uint256"
        }
      ],
      "name": "withdrawFunds",
      "outputs": [],
      "stateMutability": "nonpayable",
      "type": "function"
    }
  ],
  "bytecode": "0x60a080604052346100315730608052613c4b90816100378239608051818181610b8501528181610e360152610f9d0152f35b600080fdfe6080604052600436101561001257600080fd5b60003560e01c8063141961bc146101d7578063155dd5ee146101d25780631ad417bf146101cd57806322ce12e5146101c857806324777746146101c35780632e17a931146101be5780633659cfe6146101b957806342a4fda8146101b45780634f1ef286146101af57806352d1902d146101aa57806367c2cbad146101a557806369c212f6146101a057806370debcf71461019b578063715018a61461019657806373f130161461019157806374c49fd51461018c5780638129fc1c146101875780638da5cb5b146101825780638e5baa621461017d578063a6b0363314610178578063a7247cd914610173578063a87430ba1461016e578063ae1f680214610169578063e27883fb14610164578063e6ffcaa11461015f578063efb801831461015a578063f2fde38b146101555763ffa676d11461015057600080fd5b612238565b61217f565b6120d1565b611f9c565b611f48565b611de8565b611d41565b611bef565b611a70565b611894565b61186d565b611787565b61160e565b6114a8565b611449565b6112f9565b61123a565b6110ef565b610f82565b610de0565b610cf8565b610b5c565b6109eb565b61099d565b61092b565b61077f565b610545565b61047a565b90600182811c9216801561020c575b60208310146101f657565b634e487b7160e01b600052602260045260246000fd5b91607f16916101eb565b634e487b7160e01b600052604160045260246000fd5b60a0810190811067ffffffffffffffff82111761024857604052565b610216565b6020810190811067ffffffffffffffff82111761024857604052565b6060810190811067ffffffffffffffff82111761024857604052565b90601f8019910116810190811067ffffffffffffffff82111761024857604052565b90604051918260008254926102bb846101dc565b90818452600194858116908160001461032a57506001146102e7575b50506102e592500383610285565b565b9093915060005260209081600020936000915b8183106103125750506102e5935082010138806102d7565b855488840185015294850194879450918301916102fa565b9150506102e594506020925060ff191682840152151560051b82010138806102d7565b919082519283825260005b848110610379575050826000602080949584010152601f8019910116010190565b602081830181015184830182015201610358565b6003111561039757565b634e487b7160e01b600052602160045260246000fd5b906103b78261038d565b52565b9a9f9e9c969861041b6102e59f9a996104689a6101c09f988f6104729f979b60c09261044c9b6104399b61045d9f61042a9b8652602086015260408501526060840152608083015260a082015201528d6101e0908160e0820152019061034d565b8c81036101008e01529061034d565b908a82036101208c015261034d565b6001600160a01b03909d16610140890152565b6001600160a01b0316610160870152565b6101808501906103ad565b15156101a0830152565b019015159052565b346105405760203660031901126105405760043560005260cc602052604060002080549060018101546002820154906003830154926004810154946005820154916006810154600782016104cd906102a7565b6104d9600884016102a7565b6104e5600985016102a7565b91600a8501546104fb906001600160a01b031690565b93600b860154610511906001600160a01b031690565b95600d0154976040519c8d9c8d9c8b60101c60ff169c8c60081c60ff169c60ff169b61053c9f6103ba565b0390f35b600080fd5b346105405760203660031901126105405760043560009033825260cb60205261057a60ff600260408520015460a81c16612d26565b61058760c9548210612f1a565b33825260cb6020526105ae600160ff6002604086200154166105a88161038d565b14612d7e565b818080806105c68560005260cc602052604060002090565b6106016105f9336105e18960005260cd602052604060002090565b906001600160a01b0316600052602052604060002090565b541515613866565b6106236002610614600d84015460ff1690565b61061d8161038d565b146138d8565b61063260048201544211613924565b600261064c336105e18960005260cd602052604060002090565b549161065f610659613996565b84613be6565b83610678336105e18b60005260cd602052604060002090565b5501610685828254612f0d565b90558181156106d7575b3390f1156106d257604080519182523360208301527f6141b54b56b8a52a8c6f5cd2a857f6117b18ffbf4d46bd3106f300a839cbf5ea9190819081015b0390a180f35b61246a565b506108fc61068f565b604051906102e58261022c565b60405190610200820182811067ffffffffffffffff82111761024857604052565b67ffffffffffffffff811161024857601f01601f191660200190565b9291926107368261070e565b916107446040519384610285565b829481845281830111610540578281602093846000960137010152565b9080601f830112156105405781602061077c9335910161072a565b90565b346105405760c03660031901126105405767ffffffffffffffff602435600435606435838111610540576107b7903690600401610761565b92608435818111610540576107d0903690600401610761565b9060a435908111610540576107e9903690600401610761565b908360009533875260cb602052604087206002015460a81c60ff1661080d90612d26565b33875260cb602052604087206002015460ff166108298161038d565b1561083390612d7e565b61083e851515612df0565b60c954936108568560005260cc602052604060002090565b9360048501928354421161086990612e62565b868655600a860180546001600160a01b031916331790558760018701556007860190610894916129d4565b6108a190600886016129d4565b6108ae90600985016129d4565b556044356006820155600d01805460ff1916905560c9546108ce90612eea565b60c9556108db9033613b5d565b60c9546108e790612efe565b6040805191825233602083015281019190915260608101919091527f91b289a829e71d811b8c69e4a24ba2d40d115d8a236e9a724cb3bb2d43cf722390608090a180f35b346105405760403660031901126105405767ffffffffffffffff6004358181116105405761095d903690600401610761565b906024359081116105405760209161097c610982923690600401610761565b90612ca6565b6040519015158152f35b6001600160a01b0381160361054057565b34610540576040366003190112610540576001600160a01b036004356109c28161098c565b1660005260cf60205260206109dd602435604060002061315d565b90546040519160031b1c8152f35b346105405760603660031901126105405767ffffffffffffffff60043581811161054057610a1d903690600401610761565b9060243590811161054057610a36903690600401610761565b60443591600383101561054057805115610b1757610b0482610ae37f427b59b30d98f86c6e6670da78cff4cbaa374e6642ff6d038faa43cbb5fd8de395610a82610b1296511515612893565b610a8d3315156128df565b610ac9610ac4610ac06002610ab5336001600160a01b031660005260cb602052604060002090565b015460a81c60ff1690565b1590565b61292b565b610ad16106e0565b92858452602084015260408301612977565b3360608201526001608082015233600090815260cb60205260409020612abb565b604051918291339083612c78565b0390a1005b60405162461bcd60e51b815260206004820152601560248201527f456d61696c2063616e6e6f7420626520656d70747900000000000000000000006044820152606490fd5b3461054057602036600319011261054057600435610b798161098c565b6001600160a01b0390817f00000000000000000000000000000000000000000000000000000000000000001691610bb283301415612377565b610be17f360894a13ba1a3210667c828492db98dca3e2076cc3735a920a3ca505d382bbc9382855416146123e9565b60405190610bee8261024d565b600082527f4910fdfa16fed3260ed0e7147f7cc6da11a60208b5b9406d12a635614ffd91435460ff1615610c2a575050610c2891506124e8565b005b6020600491604094939451928380926352d1902d60e01b825286165afa60009181610cc8575b50610cb55760405162461bcd60e51b815260206004820152602e60248201527f45524331393637557067726164653a206e657720696d706c656d656e7461746960448201526d6f6e206973206e6f74205555505360901b6064820152608490fd5b0390fd5b610c2893610cc39114612476565b612596565b610cea91925060203d8111610cf1575b610ce28183610285565b81019061245b565b9038610c50565b503d610cd8565b6020806003193601126105405760043560009133835260cb8152610d2860ff600260408620015460a81c16612d26565b610d3560c9548310612f1a565b33835260cb8152610d55600160ff6002604087200154166105a88161038d565b81835260cc8152610d7960ff600d60408620015416610d738161038d565b15612f66565b81835260cc81526004604084200154421015610d9c5750610d99906131bb565b80f35b6064906040519062461bcd60e51b82526004820152601560248201527f446561646c696e652068617320706173736564202100000000000000000000006044820152fd5b604036600319011261054057600435610df88161098c565b60243567ffffffffffffffff8111610540573660238201121561054057610e2990369060248160040135910161072a565b906001600160a01b0391827f00000000000000000000000000000000000000000000000000000000000000001692610e6384301415612377565b610e927f360894a13ba1a3210667c828492db98dca3e2076cc3735a920a3ca505d382bbc9482865416146123e9565b7f4910fdfa16fed3260ed0e7147f7cc6da11a60208b5b9406d12a635614ffd91435460ff1615610ec8575050610c2891506124e8565b6020600491604094939451928380926352d1902d60e01b825286165afa60009181610f62575b50610f4f5760405162461bcd60e51b815260206004820152602e60248201527f45524331393637557067726164653a206e657720696d706c656d656e7461746960448201526d6f6e206973206e6f74205555505360901b6064820152608490fd5b610c2893610f5d9114612476565b612691565b610f7b91925060203d8111610cf157610ce28183610285565b9038610eee565b34610540576000366003190112610540576001600160a01b037f0000000000000000000000000000000000000000000000000000000000000000163003610fee576040517f360894a13ba1a3210667c828492db98dca3e2076cc3735a920a3ca505d382bbc8152602090f35b60405162461bcd60e51b815260206004820152603860248201527f555550535570677261646561626c653a206d757374206e6f742062652063616c60448201527f6c6564207468726f7567682064656c656761746563616c6c00000000000000006064820152608490fd5b90815180825260208080930193019160005b828110611079575050505090565b83516001600160a01b03168552938101939281019260010161106b565b90815180825260208080930193019160005b8281106110b6575050505090565b8351855293810193928101926001016110a8565b90916110e161077c93604084526040840190611059565b916020818403910152611096565b34610540576020366003190112610540576004358060005260cc602052600c60406000200190815461112081613302565b9161112e6040519384610285565b818352601f1961113d83613302565b0136602085013761114d8261331a565b9360005b838110611167576040518061053c8888836110ca565b806111be61118e61117b6111cf948661315d565b90546001600160a01b039160031b1c1690565b6111aa8161119c858b61334c565b906001600160a01b03169052565b6105e18660005260cd602052604060002090565b546111c9828961334c565b52612eea565b611151565b6020815260a0608061120a6111f4855184602087015260c086019061034d565b6020860151858203601f1901604087015261034d565b9360408101516112198161038d565b60608501526001600160a01b03606082015116828501520151151591015290565b346105405760203660031901126105405761053c60043561125a8161098c565b604060006080825161126b8161022c565b6060815260606020820152828482015282606082015201526001600160a01b0380921660005260cb60205260ff816000209260028351946112ab8661022c565b6112b4816102a7565b86526112c2600182016102a7565b60208701520154908282166112d68161038d565b848601528160081c16606085015260a81c161515608083015251918291826111d4565b34610540576060366003190112610540576044357f99f063607b2d9f794eb8985daf4a0d3224e73b48e43228a183329e415dff077e60243560043561133d8461098c565b61143060009433865260cb60205261136160ff600260408920015460a81c16612d26565b61136e60c9548410612f1a565b33865260cb60205261139360ff60026040892001541661138d8161038d565b15612d7e565b82865260cc602052600b60408720611414600d82016113ef60ff82546113be828216610d738161038d565b6113e5336001600160a01b036113de600a8a01546001600160a01b031690565b1614613572565b60081c16156135e4565b6113ff6002840154891115613656565b87600384015561010061ff0019825416179055565b01906001600160a01b03166001600160a01b0319825416179055565b60408051918252602082019290925290819081016106cc565b34610540576000806003193601126114a5576114636122d7565b806001600160a01b036033546001600160a01b03198116603355167f8be0079c531659141344cd1fd0a4f28419497f9722a3daafe3b4186f6b6457e08280a380f35b80fd5b34610540576020806003193601126105405760043560009133835260cb81526040906114df60ff6002848720015460a81c16612d26565b6114ec60c9548410612f1a565b33845260cb815261150b600160ff60028588200154166105a88161038d565b82845260cc8152600d82852001549061152a60ff8316610d738161038d565b83855260cd815261155033848720906001600160a01b0316600052602052604060002090565b54156115bf5750916106cc9161158c60ff7fbb447f2506f46702f313360e42b26bacac341b607c973ef8fe11ee7eb901bea19560081c16613720565b6115b16115a7336105e18560005260ce602052604060002090565b805460ff19169055565b519081529081906020820190565b60849083519062461bcd60e51b825260048201526024808201527f4f6e6c7920696e766573746f72732063616e206465636c696e652061207265716044820152631d595cdd60e21b6064820152fd5b346105405760203660031901126105405760043560009033825260cb60205261164360ff600260408520015460a81c16612d26565b61165060c9548210612f1a565b33825260cb60205261166f60ff60026040852001541661138d8161038d565b80825260cc60205260408220906116a86116a3600d84019361169e611695865460ff1690565b610d738161038d565b613abd565b6137ea565b6116de6116d2600b6116c48460005260cc602052604060002090565b01546001600160a01b031690565b6001600160a01b031690565b9060026116f58260005260cc602052604060002090565b01549284808080876117196116d2600b6116c48a60005260cc602052604060002090565b82821561177e575bf1156106d257805460ff191660011790557f6e3c6096795c8298a218b2cfb8bde42726ff7c9a3d27b4d3ba41ab7f74feb5fb926106cc90604051938493846001600160a01b03604092959493606083019683521660208201520152565b506108fc611721565b34610540576000806003193601126114a55780546117bc60ff8260081c16158092819361185f575b811561183f575b5061277f565b806117cf600160ff196000541617600055565b611826575b6117dc6127f1565b6117e35780f35b6117f361ff001960005416600055565b604051600181527f7f26b83ff96e1f2b6a682f133852f6798a09c465da95921460cefb38474024989080602081016106cc565b61183a61010061ff00196000541617600055565b6117d4565b303b15915081611851575b50386117b6565b6001915060ff16143861184a565b600160ff82161091506117af565b346105405760003660031901126105405760206001600160a01b0360335416604051908152f35b3461054057602080600319360112610540576004356118b28161098c565b60c954600091825b8281106118cc57505050604051908152f35b600081815260cd865260408082206001600160a01b03851683526020529020546118ff575b6118fa90612eea565b6118ba565b9261190c6118fa91612eea565b9390506118f1565b9061077c90825181526020830151602082015260408301516040820152606083015160608201526080830151608082015260a083015160a082015260c083015160c08201526119df6119a361198f61197b60e08701516102008060e088015286019061034d565b61010080880151908683039087015261034d565b61012080870151908583039086015261034d565b610140858101516001600160a01b031690840152610160858101516001600160a01b031690840152610180808601519084830390850152611059565b926119f36101a080830151908401906103ad565b6101c0818101511515908301526101e0908101511515910152565b602080820190808352835180925260408301928160408460051b8301019501936000915b848310611a425750505050505090565b9091929394958480611a60600193603f198682030187528a51611914565b9801930193019194939290611a32565b34610540576000806003193601126114a55760c954611a8e8161342d565b90825b818110611aa6576040518061053c8582611a0e565b80845260209060cc82526040611bd3611bc5828820611ac36106ed565b938154855260019687830154908601526002820154908501526003810154606085015260048101546080850152600581015460a0850152600681015460c0850152611b10600782016102a7565b60e0850152600d600891611b258382016102a7565b610100870152611b37600982016102a7565b610120870152611b65611b54600a8301546001600160a01b031690565b6001600160a01b0316610140880152565b611b8d611b7c600b8301546001600160a01b031690565b6001600160a01b0316610160880152565b611b99600c8201613360565b610180870152015491829160ff938491611bb98383166101a08a01612977565b1c1615156101c0860152565b60101c1615156101e0830152565b611bdd828661334c565b52611be8818561334c565b5001611a91565b34610540576020366003190112610540576004357ff3dc904660a0ea05aba8dfa1e21fbc4fb2914be2a3029da7b0fdd3e5eee20ddb6106cc60009233845260cb602052611c4860ff600260408720015460a81c16612d26565b611c5560c9548210612f1a565b33845260cb602052611c76600160ff6002604088200154166105a88161038d565b80845260cc602052611cd660ff600d604087200154611c9a828216610d738161038d565b83875260cd602052611ccd611cc53360408a20906001600160a01b0316600052602052604060002090565b5415156136c8565b60081c16613720565b611d03611cfe610ac0611cf7336105e18660005260ce602052604060002090565b5460ff1690565b613778565b611d2b611d1e336105e18460005260ce602052604060002090565b805460ff19166001179055565b6040805191825233602083015290918291820190565b3461054057602036600319011261054057611db2600435611d618161098c565b6001600160a01b0380911660005260cb602052604060002060ff611d84826102a7565b926002611d93600185016102a7565b93015490611dc08383169460405197889760a0895260a089019061034d565b90878203602089015261034d565b93611dca8161038d565b60408601528160081c16606085015260a81c16151560808301520390f35b346105405760203660031901126105405760043560009033825260cb602052611e1d60ff600260408520015460a81c16612d26565b611e2a60c9548210612f1a565b33825260cb602052611e4a600260ff81604086200154166105a88161038d565b80825260cc60205260408220336001600160a01b03600b8301541603611edd577fbcdc7071c1beb6dcf2744621e0b29a2f2432ee20812d9ca5e3d5e8f9308d93a391611ecd600d83611ea16116a36106cc96613abd565b01611ebc611eb7610ac0835460ff9060101c1690565b6130c8565b805462ff0000191662010000179055565b6040519081529081906020820190565b60405162461bcd60e51b815260206004820152603460248201527f4f6e6c79207468652063616d706169676e2076656e646f722063616e20636f6e60448201527f6669726d2066756e64732072656365697665642e0000000000000000000000006064820152608490fd5b346105405760203660031901126105405760043560005260cc60205261053c611f77600c604060002001613360565b604051918291602083526020830190611059565b90602061077c928181520190611914565b3461054057602036600319011261054057611fb56133b8565b5060043560005260cc60205261053c60406000206120c560ff600d611fd86106ed565b938054855260018101546020860152600281015460408601526003810154606086015260048101546080860152600581015460a0860152600681015460c0860152612025600782016102a7565b60e0860152612036600882016102a7565b610100860152612048600982016102a7565b610120860152612076612065600a8301546001600160a01b031690565b6001600160a01b0316610140870152565b61208d61044c600b8301546001600160a01b031690565b612099600c8201613360565b61018086015201546120b18282166101a08601612977565b600881901c821615156101c0850152611bc5565b60405191829182611f8b565b3461054057602080600319360112610540576001600160a01b036004356120f78161098c565b1660009181835260cf9081815260409182852054916121158361342d565b94865b84811061212c5785518061053c8982611a0e565b60019082895284845261216361215e612147838a8d2061315d565b90549060031b1c60005260cc602052604060002090565b61347d565b61216d828a61334c565b52612178818961334c565b5001612118565b346105405760203660031901126105405760043561219c8161098c565b6121a46122d7565b6001600160a01b038116156121bc57610c289061232f565b60405162461bcd60e51b815260206004820152602660248201527f4f776e61626c653a206e6577206f776e657220697320746865207a65726f206160448201527f64647265737300000000000000000000000000000000000000000000000000006064820152608490fd5b90602061077c928181520190611096565b34610540576020806003193601126105405760043560009181835260cc8152604092600c848220019283549261226d8461331a565b94835b8581106122845787518061053c8982612227565b806122c76001600160a01b0361229d6122d2948661315d565b905490888a5260cd885260031b1c168a8820906001600160a01b0316600052602052604060002090565b546111c9828a61334c565b612270565b6001600160a01b036033541633036122eb57565b606460405162461bcd60e51b815260206004820152602060248201527f4f776e61626c653a2063616c6c6572206973206e6f7420746865206f776e65726044820152fd5b603354906001600160a01b0380911691826001600160a01b0319821617603355167f8be0079c531659141344cd1fd0a4f28419497f9722a3daafe3b4186f6b6457e0600080a3565b1561237e57565b60405162461bcd60e51b815260206004820152602c60248201527f46756e6374696f6e206d7573742062652063616c6c6564207468726f7567682060448201527f64656c656761746563616c6c00000000000000000000000000000000000000006064820152608490fd5b156123f057565b60405162461bcd60e51b815260206004820152602c60248201527f46756e6374696f6e206d7573742062652063616c6c6564207468726f7567682060448201527f6163746976652070726f787900000000000000000000000000000000000000006064820152608490fd5b90816020910312610540575190565b6040513d6000823e3d90fd5b1561247d57565b60405162461bcd60e51b815260206004820152602960248201527f45524331393637557067726164653a20756e737570706f727465642070726f7860448201527f6961626c655555494400000000000000000000000000000000000000000000006064820152608490fd5b803b1561252b576001600160a01b037f360894a13ba1a3210667c828492db98dca3e2076cc3735a920a3ca505d382bbc91166001600160a01b0319825416179055565b60405162461bcd60e51b815260206004820152602d60248201527f455243313936373a206e657720696d706c656d656e746174696f6e206973206e60448201527f6f74206120636f6e7472616374000000000000000000000000000000000000006064820152608490fd5b906125a0826124e8565b60006001600160a01b0383167fbc7cd75a20ee27fd9adebab32041f755214dbc6bffa90cc0225b39da2e5c2d3b8280a281511580159061268a575b6125e457505050565b61267e928180604051946125f786610269565b602786527f416464726573733a206c6f772d6c6576656c2064656c65676174652063616c6c60208701527f206661696c6564000000000000000000000000000000000000000000000000006040870152602081519101845af4903d15612681573d6126618161070e565b9061266f6040519283610285565b8152809360203d92013e6126e6565b50565b606092506126e6565b50806125db565b9061269b826124e8565b60006001600160a01b0383167fbc7cd75a20ee27fd9adebab32041f755214dbc6bffa90cc0225b39da2e5c2d3b8280a28151158015906126de576125e457505050565b5060016125db565b9192901561274857508151156126fa575090565b3b156127035790565b60405162461bcd60e51b815260206004820152601d60248201527f416464726573733a2063616c6c20746f206e6f6e2d636f6e74726163740000006044820152606490fd5b82519091501561275b5750805190602001fd5b60405162461bcd60e51b815260206004820152908190610cb190602483019061034d565b1561278657565b60405162461bcd60e51b815260206004820152602e60248201527f496e697469616c697a61626c653a20636f6e747261637420697320616c72656160448201527f647920696e697469616c697a65640000000000000000000000000000000000006064820152608490fd5b61280b60ff60005460081c1661280681612821565b612821565b6128143361232f565b6102e560ff60005460081c165b1561282857565b60405162461bcd60e51b815260206004820152602b60248201527f496e697469616c697a61626c653a20636f6e7472616374206973206e6f74206960448201527f6e697469616c697a696e670000000000000000000000000000000000000000006064820152608490fd5b1561289a57565b60405162461bcd60e51b815260206004820152601860248201527f50617373776f72642063616e6e6f7420626520656d70747900000000000000006044820152606490fd5b156128e657565b60405162461bcd60e51b815260206004820152601660248201527f496e76616c69642077616c6c65742061646472657373000000000000000000006044820152606490fd5b1561293257565b60405162461bcd60e51b815260206004820152601a60248201527f5573657220697320616c726561647920726567697374657265640000000000006044820152606490fd5b6103b78261038d565b90601f811161298e57505050565b600091825260208220906020601f850160051c830194106129ca575b601f0160051c01915b8281106129bf57505050565b8181556001016129b3565b90925082906129aa565b919091825167ffffffffffffffff8111610248576129fc816129f684546101dc565b84612980565b602080601f8311600114612a38575081929394600092612a2d575b50508160011b916000199060031b1c1916179055565b015190503880612a17565b90601f19831695612a4e85600052602060002090565b926000905b888210612a8b57505083600195969710612a72575b505050811b019055565b015160001960f88460031b161c19169055388080612a68565b80600185968294968601518155019501930190612a53565b90612aad8161038d565b60ff80198354169116179055565b9190805192835167ffffffffffffffff811161024857612adf816129f684546101dc565b6020948590601f8311600114612bfb5792612b2c6102e5969784608095600295612ba998600092612bf0575b50508160011b916000199060031b1c19161783555b860151600183016129d4565b0192612b456040820151612b3f8161038d565b85612aa3565b612ba2612b5c60608301516001600160a01b031690565b85547fffffffffffffffffffffff0000000000000000000000000000000000000000ff1660089190911b74ffffffffffffffffffffffffffffffffffffffff0016178555565b0151151590565b81547fffffffffffffffffffff00ffffffffffffffffffffffffffffffffffffffffff1690151560a81b75ff00000000000000000000000000000000000000000016179055565b015190503880612b0b565b90601f19831691612c1185600052602060002090565b9260005b818110612c61575097600185600295612ba99895612b2c956080996102e59d9e10612c48575b505050811b018355612b20565b015160001960f88460031b161c19169055388080612c3b565b929389600181928786015181550195019301612c15565b906001600160a01b03612c9860409295949560608552606085019061034d565b946001602085015216910152565b903360005260cb602052604060002060ff600282015460a81c169283612d03575b5082612cde575b5050612cd957600090565b600190565b612cec9192506001016102a7565b602081519101209060208151910120143880612cce565b909250612d0f836102a7565b602081519101209060208151910120149138612cc7565b15612d2d57565b60405162461bcd60e51b815260206004820152602360248201527f4f6e6c792076657269666965642075736572732063616e20706172746963697060448201526261746560e81b6064820152608490fd5b15612d8557565b60405162461bcd60e51b815260206004820152603c60248201527f4f6e6c79207573657273206f662074686520737065636966696564206361746560448201527f676f72792063616e20706572666f726d207468697320616374696f6e000000006064820152608490fd5b15612df757565b60405162461bcd60e51b815260206004820152602760248201527f54617267657420616d6f756e74206d757374206265206772656174657220746860448201527f616e207a65726f000000000000000000000000000000000000000000000000006064820152608490fd5b15612e6957565b60405162461bcd60e51b815260206004820152602960248201527f5468652063616d706169676e206d7573742062652061206461746520696e207460448201527f68652066757475726500000000000000000000000000000000000000000000006064820152608490fd5b634e487b7160e01b600052601160045260246000fd5b6000198114612ef95760010190565b612ed4565b600019810191908211612ef957565b91908203918211612ef957565b15612f2157565b60405162461bcd60e51b815260206004820152601760248201527f43616d706169676e20646f6573206e6f742065786973740000000000000000006044820152606490fd5b15612f6d57565b60405162461bcd60e51b815260206004820152601760248201527f43616d706169676e206973206e6f74206f6e676f696e670000000000000000006044820152606490fd5b15612fb957565b60405162461bcd60e51b815260206004820152601960248201527f43616d706169676e20706572696f642068617320656e646564000000000000006044820152606490fd5b1561300557565b60405162461bcd60e51b815260206004820152602960248201527f446f6e6174696f6e20616d6f756e74206d75737420626520677265617465722060448201527f7468616e207a65726f00000000000000000000000000000000000000000000006064820152608490fd5b1561307757565b60405162461bcd60e51b815260206004820152602360248201527f41206d696e756d756d20636f6e747269627574696f6e2069732072657175697260448201526232b21760e91b6064820152608490fd5b156130cf57565b60405162461bcd60e51b815260206004820152603360248201527f46756e647320666f7220746869732063616d706169676e206861766520616c7260448201527f65616479206265656e2072656365697665642e000000000000000000000000006064820152608490fd5b91908201809211612ef957565b634e487b7160e01b600052603260045260246000fd5b80548210156131755760005260206000200190600090565b613147565b8054680100000000000000008110156102485761319c9160018201815561315d565b819291549060031b916001600160a01b03809116831b921b1916179055565b6102e5906131d38160005260cc602052604060002090565b61322060ff600d8301546131ec828216610d738161038d565b6131fb60048501544210612fb2565b613206341515612ffe565b6132166006850154341015613070565b60101c16156130c8565b61324f6132378360005260cd602052604060002090565b336001600160a01b0316600052602052604060002090565b61325a34825461313a565b90556002810161326b34825461313a565b90556132818260005260ca602052604060002090565b61328b8154612eea565b9055346132a6336105e18560005260cd602052604060002090565b54146132ee575b506040805182815233602082015234918101919091527f0a4a91237423e0a1766a761c7cb029311d8b95d6b1b81db1b949a70c98b4e08e90606090a16139e0565b6132fc90600c33910161317a565b386132ad565b67ffffffffffffffff81116102485760051b60200190565b9061332482613302565b6133316040519182610285565b8281528092613342601f1991613302565b0190602036910137565b80518210156131755760209160051b010190565b9060405191828154918282526020928383019160005283600020936000905b828210613395575050506102e592500383610285565b85546001600160a01b03168452600195860195889550938101939091019061337f565b6133c06106ed565b9060008083528060208401528060408401528060608401528060808401528060a08401528060c0840152606060e08401526060610100840152606061012084015280610140840152806101608401526060610180840152806101a0840152806101c08401526101e0830152565b9061343782613302565b6134446040519182610285565b8281528092613455601f1991613302565b019060005b82811061346657505050565b6020906134716133b8565b8282850101520161345a565b906102e560ff600d61348d6106ed565b948054865260018101546020870152600281015460408701526003810154606087015260048101546080870152600581015460a0870152600681015460c08701526134da600782016102a7565b60e08701526134eb600882016102a7565b6101008701526134fd600982016102a7565b61012087015261351a611b54600a8301546001600160a01b031690565b613531611b7c600b8301546001600160a01b031690565b61353d600c8201613360565b61018087015201546135558282166101a08701612977565b600881901c821615156101c086015260101c1615156101e0840152565b1561357957565b60405162461bcd60e51b815260206004820152602a60248201527f4f6e6c792074686520656e7472657072656e6575722063616e2063726561746560448201527f20612072657175657374000000000000000000000000000000000000000000006064820152608490fd5b156135eb57565b60405162461bcd60e51b815260206004820152603460248201527f4120726571756573742068617320616c7265616479206265656e20637265617460448201527f656420666f7220746869732063616d706169676e0000000000000000000000006064820152608490fd5b1561365d57565b60405162461bcd60e51b815260206004820152603e60248201527f5265717565737420616d6f756e74206d757374206265206c657373207468616e60448201527f206f7220657175616c20746f207468652072616973656420616d6f756e7400006064820152608490fd5b156136cf57565b60405162461bcd60e51b8152602060048201526024808201527f4f6e6c7920696e766573746f72732063616e20617070726f76652061207265716044820152631d595cdd60e21b6064820152608490fd5b1561372757565b60405162461bcd60e51b815260206004820152602360248201527f4e6f20726571756573742065786973747320666f7220746869732063616d706160448201526234b3b760e91b6064820152608490fd5b1561377f57565b60405162461bcd60e51b815260206004820152602960248201527f496e766573746f722068617320616c726561647920617070726f76656420746860448201527f65207265717565737400000000000000000000000000000000000000000000006064820152608490fd5b156137f157565b60405162461bcd60e51b815260206004820152604160248201527f5265717565737420686173206e6f74206265656e20617070726f76656420627960448201527f20746865207265717569726564206e756d626572206f6620696e766573746f726064820152607360f81b608482015260a490fd5b1561386d57565b60405162461bcd60e51b815260206004820152602a60248201527f596f752068617665206e6f7420636f6e747269627574656420746f207468697360448201527f2063616d706169676e2e000000000000000000000000000000000000000000006064820152608490fd5b156138df57565b60405162461bcd60e51b815260206004820152601d60248201527f43616d706169676e20686173206e6f742065787069726564207965742e0000006044820152606490fd5b1561392b57565b60405162461bcd60e51b815260206004820152602560248201527f43616d706169676e20646561646c696e6520686173206e6f742070617373656460448201527f207965742e0000000000000000000000000000000000000000000000000000006064820152608490fd5b604051906040820182811067ffffffffffffffff82111761024857604052601082527f616d6f756e74546f5769746864726177000000000000000000000000000000006020830152565b8060005260cc6020526004604060002001544210600014613a1f57600d613a146102e59260005260cc602052604060002090565b01805460ff19169055565b6002613a358260005260cc602052604060002090565b01546001613a4d8360005260cc602052604060002090565b015411613a9657613a7b600d613a6d8360005260cc602052604060002090565b01805460ff19166001179055565b6005613a92429260005260cc602052604060002090565b0155565b600d613aaf6102e59260005260cc602052604060002090565b01805460ff19166002179055565b80546000908152602060ca81526040918281205492600c82950192835493835b858110613af25750505050505060011c111590565b60ff613b336001600160a01b03613b09848661315d565b905490858a5260ce885260031b1c16868820906001600160a01b0316600052602052604060002090565b5416613b48575b613b4390612eea565b613add565b96613b55613b4391612eea565b979050613b3a565b906001600160a01b0361267e921660005260cf60205260406000206001810190826000528160205260406000205415600014613bde5780546801000000000000000081101561024857806001613bb6920183558261315d565b81549060031b9085821b91600019901b19161790555491600052602052604060002055600190565b505050600090565b60009190613c1d613c2b8493604051928391602083019563643fd0df60e01b8752602484015260406044840152606483019061034d565b03601f198101835282610285565b51906a636f6e736f6c652e6c6f675afa5056fea164736f6c6343000812000a",
  "linkReferences": {},
  "deployedLinkReferences": {}
}