{
  "_format": "hh-sol-artifact-1",
  "contractName": "CampaignRegistry",
  "sourceName": "contracts/CampaignRegistry.sol",
  "abi": [
    {
      "anonymous": false,
      "inputs": [
        {
          "indexed": false,
          "internalType": "address",
          "name": "previousAdmin",
          "type": "address"
        },
        {
          "indexed": false,
          "internalType": "address",
          "name": "newAdmin",
          "type": "address"
        }
      ],
      "name": "AdminChanged",
      "type": "event"
    },
    {
      "anonymous": false,
      "inputs": [
        {
          "indexed": true,
          "internalType": "address",
          "name": "beacon",
          "type": "address"
        }
      ],
      "name": "BeaconUpgraded",
      "type": "event"
    },
    {
      "anonymous": false,
      "inputs": [
        {
          "indexed": false,
          "internalType": "uint256",
          "name": "campaignId",
          "type": "uint256"
        },
        {
          "indexed": false,
          "internalType": "address",
          "name": "entrepreneur",
          "type": "address"
        },
        {
          "indexed": false,
          "internalType": "uint256",
          "name": "targetAmount",
          "type": "uint256"
        },
        {
          "indexed": false,
          "internalType": "uint256",
          "name": "deadline",
          "type": "uint256"
        }
      ],
      "name": "CampaignCreated",
      "type": "event"
    },
    {
      "anonymous": false,
      "inputs": [
        {
          "indexed": false,
          "internalType": "uint256",
          "name": "campaignId",
          "type": "uint256"
        },
        {
          "indexed": false,
          "internalType": "address",
          "name": "investor",
          "type": "address"
        },
        {
          "indexed": false,
          "internalType": "uint256",
          "name": "amount",
          "type": "uint256"
        }
      ],
      "name": "ContributionMade",
      "type": "event"
    },
    {
      "anonymous": false,
      "inputs": [
        {
          "indexed": false,
          "internalType": "uint256",
          "name": "campaignId",
          "type": "uint256"
        }
      ],
      "name": "FundsReceived",
      "type": "event"
    },
    {
      "anonymous": false,
      "inputs": [
        {
          "indexed": false,
          "internalType": "uint256",
          "name": "campaignId",
          "type": "uint256"
        },
        {
          "indexed": false,
          "internalType": "address",
          "name": "vendor",
          "type": "address"
        },
        {
          "indexed": false,
          "internalType": "uint256",
          "name": "amount",
          "type": "uint256"
        }
      ],
      "name": "FundsReleased",
      "type": "event"
    },
    {
      "anonymous": false,
      "inputs": [
        {
          "indexed": false,
          "internalType": "uint8",
          "name": "version",
          "type": "uint8"
        }
      ],
      "name": "Initialized",
      "type": "event"
    },
    {
      "anonymous": false,
      "inputs": [
        {
          "indexed": true,
          "internalType": "address",
          "name": "previousOwner",
          "type": "address"
        },
        {
          "indexed": true,
          "internalType": "address",
          "name": "newOwner",
          "type": "address"
        }
      ],
      "name": "OwnershipTransferred",
      "type": "event"
    },
    {
      "anonymous": false,
      "inputs": [
        {
          "indexed": false,
          "internalType": "uint256",
          "name": "campaignId",
          "type": "uint256"
        },
        {
          "indexed": false,
          "internalType": "address",
          "name": "investor",
          "type": "address"
        }
      ],
      "name": "RequestApproved",
      "type": "event"
    },
    {
      "anonymous": false,
      "inputs": [
        {
          "indexed": false,
          "internalType": "uint256",
          "name": "campaignId",
          "type": "uint256"
        },
        {
          "indexed": false,
          "internalType": "uint256",
          "name": "requestAmount",
          "type": "uint256"
        }
      ],
      "name": "RequestCreated",
      "type": "event"
    },
    {
      "anonymous": false,
      "inputs": [
        {
          "indexed": true,
          "internalType": "address",
          "name": "implementation",
          "type": "address"
        }
      ],
      "name": "Upgraded",
      "type": "event"
    },
    {
      "anonymous": false,
      "inputs": [
        {
          "indexed": false,
          "internalType": "string",
          "name": "email",
          "type": "string"
        },
        {
          "indexed": false,
          "internalType": "bool",
          "name": "verified",
          "type": "bool"
        },
        {
          "indexed": false,
          "internalType": "address",
          "name": "walletAddress",
          "type": "address"
        }
      ],
      "name": "UserRegistered",
      "type": "event"
    },
    {
      "inputs": [
        {
          "internalType": "address",
          "name": "_owner",
          "type": "address"
        },
        {
          "internalType": "uint256",
          "name": "index",
          "type": "uint256"
        }
      ],
      "name": "_campaignOfEntrepreneurByIndex",
      "outputs": [
        {
          "internalType": "uint256",
          "name": "",
          "type": "uint256"
        }
      ],
      "stateMutability": "view",
      "type": "function"
    },
    {
      "inputs": [
        {
          "internalType": "uint256",
          "name": "_campaignId",
          "type": "uint256"
        }
      ],
      "name": "approveFundReleaseRequest",
      "outputs": [],
      "stateMutability": "nonpayable",
      "type": "function"
    },
    {
      "inputs": [
        {
          "internalType": "uint256",
          "name": "",
          "type": "uint256"
        }
      ],
      "name": "campaigns",
      "outputs": [
        {
          "internalType": "uint256",
          "name": "campaignId",
          "type": "uint256"
        },
        {
          "internalType": "uint256",
          "name": "targetAmount",
          "type": "uint256"
        },
        {
          "internalType": "uint256",
          "name": "raisedAmount",
          "type": "uint256"
        },
        {
          "internalType": "uint256",
          "name": "requestAmount",
          "type": "uint256"
        },
        {
          "internalType": "uint256",
          "name": "deadline",
          "type": "uint256"
        },
        {
          "internalType": "uint256",
          "name": "completeAt",
          "type": "uint256"
        },
        {
          "internalType": "uint256",
          "name": "minimumContribution",
          "type": "uint256"
        },
        {
          "internalType": "string",
          "name": "imageUri",
          "type": "string"
        },
        {
          "internalType": "string",
          "name": "campaignTitle",
          "type": "string"
        },
        {
          "internalType": "string",
          "name": "campaignDescription",
          "type": "string"
        },
        {
          "internalType": "address",
          "name": "entrepreneur",
          "type": "address"
        },
        {
          "internalType": "address payable",
          "name": "vendor",
          "type": "address"
        },
        {
          "internalType": "enum ICampaignRegistry.CampaignStatus",
          "name": "status",
          "type": "uint8"
        },
        {
          "internalType": "bool",
          "name": "requestCreated",
          "type": "bool"
        },
        {
          "internalType": "bool",
          "name": "fundsReceived",
          "type": "bool"
        }
      ],
      "stateMutability": "view",
      "type": "function"
    },
    {
      "inputs": [
        {
          "internalType": "uint256",
          "name": "_campaignId",
          "type": "uint256"
        }
      ],
      "name": "confirmFundsReceived",
      "outputs": [],
      "stateMutability": "nonpayable",
      "type": "function"
    },
    {
      "inputs": [
        {
          "internalType": "uint256",
          "name": "_targetAmount",
          "type": "uint256"
        },
        {
          "internalType": "uint256",
          "name": "_deadline",
          "type": "uint256"
        },
        {
          "internalType": "uint256",
          "name": "minimumContribution",
          "type": "uint256"
        },
        {
          "internalType": "string",
          "name": "_imageUri",
          "type": "string"
        },
        {
          "internalType": "string",
          "name": "_campaignTitle",
          "type": "string"
        },
        {
          "internalType": "string",
          "name": "_campaignDescription",
          "type": "string"
        }
      ],
      "name": "createCampaign",
      "outputs": [],
      "stateMutability": "nonpayable",
      "type": "function"
    },
    {
      "inputs": [
        {
          "internalType": "uint256",
          "name": "_campaignId",
          "type": "uint256"
        },
        {
          "internalType": "uint256",
          "name": "_requestAmount",
          "type": "uint256"
        },
        {
          "internalType": "address payable",
          "name": "_vendorAddress",
          "type": "address"
        }
      ],
      "name": "createFundReleaseRequest",
      "outputs": [],
      "stateMutability": "nonpayable",
      "type": "function"
    },
    {
      "inputs": [
        {
          "internalType": "uint256",
          "name": "_campaignId",
          "type": "uint256"
        }
      ],
      "name": "donateToCampaign",
      "outputs": [],
      "stateMutability": "payable",
      "type": "function"
    },
    {
      "inputs": [
        {
          "internalType": "uint256",
          "name": "_campaignId",
          "type": "uint256"
        }
      ],
      "name": "getAllDonations",
      "outputs": [
        {
          "internalType": "uint256[]",
          "name": "",
          "type": "uint256[]"
        }
      ],
      "stateMutability": "view",
      "type": "function"
    },
    {
      "inputs": [
        {
          "internalType": "uint256",
          "name": "_campaignId",
          "type": "uint256"
        }
      ],
      "name": "getAllDonators",
      "outputs": [
        {
          "internalType": "address[]",
          "name": "",
          "type": "address[]"
        }
      ],
      "stateMutability": "view",
      "type": "function"
    },
    {
      "inputs": [
        {
          "internalType": "uint256",
          "name": "_campaignId",
          "type": "uint256"
        }
      ],
      "name": "getCampaignById",
      "outputs": [
        {
          "components": [
            {
              "internalType": "uint256",
              "name": "campaignId",
              "type": "uint256"
            },
            {
              "internalType": "uint256",
              "name": "targetAmount",
              "type": "uint256"
            },
            {
              "internalType": "uint256",
              "name": "raisedAmount",
              "type": "uint256"
            },
            {
              "internalType": "uint256",
              "name": "requestAmount",
              "type": "uint256"
            },
            {
              "internalType": "uint256",
              "name": "deadline",
              "type": "uint256"
            },
            {
              "internalType": "uint256",
              "name": "completeAt",
              "type": "uint256"
            },
            {
              "internalType": "uint256",
              "name": "minimumContribution",
              "type": "uint256"
            },
            {
              "internalType": "string",
              "name": "imageUri",
              "type": "string"
            },
            {
              "internalType": "string",
              "name": "campaignTitle",
              "type": "string"
            },
            {
              "internalType": "string",
              "name": "campaignDescription",
              "type": "string"
            },
            {
              "internalType": "address",
              "name": "entrepreneur",
              "type": "address"
            },
            {
              "internalType": "address payable",
              "name": "vendor",
              "type": "address"
            },
            {
              "internalType": "address[]",
              "name": "investors",
              "type": "address[]"
            },
            {
              "internalType": "enum ICampaignRegistry.CampaignStatus",
              "name": "status",
              "type": "uint8"
            },
            {
              "internalType": "bool",
              "name": "requestCreated",
              "type": "bool"
            },
            {
              "internalType": "bool",
              "name": "fundsReceived",
              "type": "bool"
            }
          ],
          "internalType": "struct ICampaignRegistry.Campaign",
          "name": "",
          "type": "tuple"
        }
      ],
      "stateMutability": "view",
      "type": "function"
    },
    {
      "inputs": [],
      "name": "getCampaigns",
      "outputs": [
        {
          "components": [
            {
              "internalType": "uint256",
              "name": "campaignId",
              "type": "uint256"
            },
            {
              "internalType": "uint256",
              "name": "targetAmount",
              "type": "uint256"
            },
            {
              "internalType": "uint256",
              "name": "raisedAmount",
              "type": "uint256"
            },
            {
              "internalType": "uint256",
              "name": "requestAmount",
              "type": "uint256"
            },
            {
              "internalType": "uint256",
              "name": "deadline",
              "type": "uint256"
            },
            {
              "internalType": "uint256",
              "name": "completeAt",
              "type": "uint256"
            },
            {
              "internalType": "uint256",
              "name": "minimumContribution",
              "type": "uint256"
            },
            {
              "internalType": "string",
              "name": "imageUri",
              "type": "string"
            },
            {
              "internalType": "string",
              "name": "campaignTitle",
              "type": "string"
            },
            {
              "internalType": "string",
              "name": "campaignDescription",
              "type": "string"
            },
            {
              "internalType": "address",
              "name": "entrepreneur",
              "type": "address"
            },
            {
              "internalType": "address payable",
              "name": "vendor",
              "type": "address"
            },
            {
              "internalType": "address[]",
              "name": "investors",
              "type": "address[]"
            },
            {
              "internalType": "enum ICampaignRegistry.CampaignStatus",
              "name": "status",
              "type": "uint8"
            },
            {
              "internalType": "bool",
              "name": "requestCreated",
              "type": "bool"
            },
            {
              "internalType": "bool",
              "name": "fundsReceived",
              "type": "bool"
            }
          ],
          "internalType": "struct ICampaignRegistry.Campaign[]",
          "name": "",
          "type": "tuple[]"
        }
      ],
      "stateMutability": "view",
      "type": "function"
    },
    {
      "inputs": [
        {
          "internalType": "address",
          "name": "_entrepreneur",
          "type": "address"
        }
      ],
      "name": "getCampaignsByEntrepreneur",
      "outputs": [
        {
          "components": [
            {
              "internalType": "uint256",
              "name": "campaignId",
              "type": "uint256"
            },
            {
              "internalType": "uint256",
              "name": "targetAmount",
              "type": "uint256"
            },
            {
              "internalType": "uint256",
              "name": "raisedAmount",
              "type": "uint256"
            },
            {
              "internalType": "uint256",
              "name": "requestAmount",
              "type": "uint256"
            },
            {
              "internalType": "uint256",
              "name": "deadline",
              "type": "uint256"
            },
            {
              "internalType": "uint256",
              "name": "completeAt",
              "type": "uint256"
            },
            {
              "internalType": "uint256",
              "name": "minimumContribution",
              "type": "uint256"
            },
            {
              "internalType": "string",
              "name": "imageUri",
              "type": "string"
            },
            {
              "internalType": "string",
              "name": "campaignTitle",
              "type": "string"
            },
            {
              "internalType": "string",
              "name": "campaignDescription",
              "type": "string"
            },
            {
              "internalType": "address",
              "name": "entrepreneur",
              "type": "address"
            },
            {
              "internalType": "address payable",
              "name": "vendor",
              "type": "address"
            },
            {
              "internalType": "address[]",
              "name": "investors",
              "type": "address[]"
            },
            {
              "internalType": "enum ICampaignRegistry.CampaignStatus",
              "name": "status",
              "type": "uint8"
            },
            {
              "internalType": "bool",
              "name": "requestCreated",
              "type": "bool"
            },
            {
              "internalType": "bool",
              "name": "fundsReceived",
              "type": "bool"
            }
          ],
          "internalType": "struct ICampaignRegistry.Campaign[]",
          "name": "",
          "type": "tuple[]"
        }
      ],
      "stateMutability": "view",
      "type": "function"
    },
    {
      "inputs": [
        {
          "internalType": "uint256",
          "name": "_campaignId",
          "type": "uint256"
        }
      ],
      "name": "getInvestorDonations",
      "outputs": [
        {
          "internalType": "address[]",
          "name": "",
          "type": "address[]"
        },
        {
          "internalType": "uint256[]",
          "name": "",
          "type": "uint256[]"
        }
      ],
      "stateMutability": "view",
      "type": "function"
    },
    {
      "inputs": [
        {
          "internalType": "address",
          "name": "_investor",
          "type": "address"
        }
      ],
      "name": "getTotalCampaignsByInvestor",
      "outputs": [
        {
          "internalType": "uint256",
          "name": "",
          "type": "uint256"
        }
      ],
      "stateMutability": "view",
      "type": "function"
    },
    {
      "inputs": [],
      "name": "initialize",
      "outputs": [],
      "stateMutability": "nonpayable",
      "type": "function"
    },
    {
      "inputs": [
        {
          "internalType": "string",
          "name": "_email",
          "type": "string"
        },
        {
          "internalType": "string",
          "name": "_password",
          "type": "string"
        }
      ],
      "name": "loginUser",
      "outputs": [
        {
          "internalType": "bool",
          "name": "",
          "type": "bool"
        }
      ],
      "stateMutability": "view",
      "type": "function"
    },
    {
      "inputs": [],
      "name": "owner",
      "outputs": [
        {
          "internalType": "address",
          "name": "",
          "type": "address"
        }
      ],
      "stateMutability": "view",
      "type": "function"
    },
    {
      "inputs": [],
      "name": "proxiableUUID",
      "outputs": [
        {
          "internalType": "bytes32",
          "name": "",
          "type": "bytes32"
        }
      ],
      "stateMutability": "view",
      "type": "function"
    },
    {
      "inputs": [
        {
          "internalType": "string",
          "name": "_email",
          "type": "string"
        },
        {
          "internalType": "string",
          "name": "_password",
          "type": "string"
        },
        {
          "internalType": "enum ICampaignRegistry.Category",
          "name": "_category",
          "type": "uint8"
        }
      ],
      "name": "registerUser",
      "outputs": [],
      "stateMutability": "nonpayable",
      "type": "function"
    },
    {
      "inputs": [
        {
          "internalType": "uint256",
          "name": "_campaignId",
          "type": "uint256"
        }
      ],
      "name": "releaseFundsToVendors",
      "outputs": [],
      "stateMutability": "nonpayable",
      "type": "function"
    },
    {
      "inputs": [],
      "name": "renounceOwnership",
      "outputs": [],
      "stateMutability": "nonpayable",
      "type": "function"
    },
    {
      "inputs": [
        {
          "internalType": "address",
          "name": "newOwner",
          "type": "address"
        }
      ],
      "name": "transferOwnership",
      "outputs": [],
      "stateMutability": "nonpayable",
      "type": "function"
    },
    {
      "inputs": [
        {
          "internalType": "address",
          "name": "newImplementation",
          "type": "address"
        }
      ],
      "name": "upgradeTo",
      "outputs": [],
      "stateMutability": "nonpayable",
      "type": "function"
    },
    {
      "inputs": [
        {
          "internalType": "address",
          "name": "newImplementation",
          "type": "address"
        },
        {
          "internalType": "bytes",
          "name": "data",
          "type": "bytes"
        }
      ],
      "name": "upgradeToAndCall",
      "outputs": [],
      "stateMutability": "payable",
      "type": "function"
    },
    {
      "inputs": [
        {
          "internalType": "address",
          "name": "",
          "type": "address"
        }
      ],
      "name": "users",
      "outputs": [
        {
          "internalType": "string",
          "name": "email",
          "type": "string"
        },
        {
          "internalType": "string",
          "name": "password",
          "type": "string"
        },
        {
          "internalType": "enum ICampaignRegistry.Category",
          "name": "category",
          "type": "uint8"
        },
        {
          "internalType": "address",
          "name": "walletAddress",
          "type": "address"
        },
        {
          "internalType": "bool",
          "name": "verified",
          "type": "bool"
        }
      ],
      "stateMutability": "view",
      "type": "function"
    }
  ],
  "bytecode": "0x60a080604052346100315730608052613539908161003782396080518181816111e0015281816112ec015261191e0152f35b600080fdfe6080604052600436101561001257600080fd5b60003560e01c8063141961bc146127345780631ad417bf1461216257806322ce12e51461210157806324777746146120b75780632e17a93114611b935780633659cfe6146118f857806342a4fda8146115645780634f1ef2861461129b57806352d1902d146111c557806367c2cbad146110e257806370debcf714610e85578063715018a614610e2a57806374c49fd514610cd55780638129fc1c14610b805780638da5cb5b14610b595780638e5baa6214610adb578063a6b036331461098e578063a7247cd91461075c578063a87430ba146106ba578063ae1f680214610566578063e27883fb14610523578063e6ffcaa1146103fb578063efb801831461027b578063f2fde38b146101d55763ffa676d11461012f57600080fd5b346101d0576020806003193601126101d057600435908160005260cc8152600c604060002001918254906101628261323a565b9360005b838110610184576040518581528061018081880189612abb565b0390f35b806001600160a01b0361019a6101cb93856131f4565b9190548660005260cd895260406000209260031b1c1660005286526040600020546101c5828961326c565b526130ce565b610166565b600080fd5b346101d05760203660031901126101d0576101ee612a68565b6101f6612c43565b6001600160a01b038116156102105761020e90612c9b565b005b60405162461bcd60e51b815260206004820152602660248201527f4f776e61626c653a206e6577206f776e657220697320746865207a65726f206160448201527f64647265737300000000000000000000000000000000000000000000000000006064820152608490fd5b346101d0576020806003193601126101d0576001600160a01b038061029e612a68565b16908160005260cf90818452604060002054916102ba83613352565b9360005b8481106102d357604051806101808882612be1565b816000528287526102e88160406000206131f4565b919054600392831b1c60005260cc885260406000206040519061030a82612896565b80548252600193848201548b84015260028201546040840152810154606083015260048101546080830152600581015460a0830152600681015460c0830152610355600782016128f1565b60e0830152600d60089161036a8382016128f1565b61010085015261037c600982016128f1565b61012085015288600a8201541661014085015288600b820154166101608501526103a8600c8201613280565b6101808501520154809160ff9283918282166103c3816129d7565b6101a08701521c1615156101c084015260101c1615156101e08201526103e9828961326c565b526103f4818861326c565b50016102be565b346101d05760203660031901126101d0576104146132d8565b5060043560005260cc602052610180604060002060ff600d6040519261043984612896565b8054845260018101546020850152600281015460408501526003810154606085015260048101546080850152600581015460a0850152600681015460c0850152610485600782016128f1565b60e0850152610496600882016128f1565b6101008501526104a8600982016128f1565b6101208501526001600160a01b0380600a83015416610140860152600b820154166101608501526104db600c8201613280565b61018085015201548181166104ef816129d7565b6101a0840152818160081c1615156101c084015260101c1615156101e0820152604051918291602083526020830190612aef565b346101d05760203660031901126101d05760043560005260cc602052610180610552600c604060002001613280565b604051918291602083526020830190612a7e565b346101d0576020806003193601126101d057600435903360005260cb815261059b60ff60026040600020015460a81c16613004565b6105a860c95483106130dd565b3360005260cb81526105cf600260ff8160406000200154166105c9816129d7565b1461305c565b8160005260cc8152604060002091336001600160a01b03600b850154160361064f57600d836106266106217fbcdc7071c1beb6dcf2744621e0b29a2f2432ee20812d9ca5e3d5e8f9308d93a39661341e565b6133a2565b0162010000815461063d60ff8260101c1615613175565b62ff00001916179055604051908152a1005b60405162461bcd60e51b815260048101839052603460248201527f4f6e6c79207468652063616d706169676e2076656e646f722063616e20636f6e60448201527f6669726d2066756e64732072656365697665642e0000000000000000000000006064820152608490fd5b346101d05760203660031901126101d0576107266001600160a01b03806106df612a68565b1660005260cb602052604060002060ff6106f8826128f1565b926002610707600185016128f1565b930154906107348383169460405197889760a0895260a0890190612997565b908782036020890152612997565b9361073e816129d7565b60408601528160081c16606085015260a81c16151560808301520390f35b346101d0576020806003193601126101d057600435903360005260cb815261079160ff60026040600020015460a81c16613004565b61079e60c95483106130dd565b3360005260cb81526107c0600160ff600260406000200154166105c9816129d7565b8160005260cc8152600d604060002001546107e760ff82166107e1816129d7565b15613129565b8260005260cd825260406000203360005282526040600020541561093d5760081c60ff16156108ed578160005260ce8152604060002033600052815260ff6040600020541661088357816040917ff3dc904660a0ea05aba8dfa1e21fbc4fb2914be2a3029da7b0fdd3e5eee20ddb9360005260ce81528260002033600052815282600020600160ff1982541617905582519182523390820152a1005b6084906040519062461bcd60e51b82526004820152602960248201527f496e766573746f722068617320616c726561647920617070726f76656420746860448201527f65207265717565737400000000000000000000000000000000000000000000006064820152fd5b6084906040519062461bcd60e51b82526004820152602360248201527f4e6f20726571756573742065786973747320666f7220746869732063616d706160448201526234b3b760e91b6064820152fd5b60405162461bcd60e51b8152600481018390526024808201527f4f6e6c7920696e766573746f72732063616e20617070726f76652061207265716044820152631d595cdd60e21b6064820152608490fd5b346101d05760003660031901126101d05760c9546109ab81613352565b9060005b8181106109c457604051806101808582612be1565b8060005260209060cc82526040600020604051906109e182612896565b805482526001938482015490830152600281015460408301526003810154606083015260048101546080830152600581015460a0830152600681015460c0830152610a2e600782016128f1565b60e0830152600d600891610a438382016128f1565b610100850152610a55600982016128f1565b6101208501526001600160a01b0380600a83015416610140860152600b82015416610160850152610a88600c8201613280565b6101808501520154809160ff928391828216610aa3816129d7565b6101a08701521c1615156101c084015260101c1615156101e0820152610ac9828661326c565b52610ad4818561326c565b50016109af565b346101d0576020806003193601126101d057610af5612a68565b60c9546000916001600160a01b0316825b828110610b1857505050604051908152f35b8060005260cd85526040600020826000528552604060002054610b44575b610b3f906130ce565b610b06565b92610b51610b3f916130ce565b939050610b36565b346101d05760003660031901126101d05760206001600160a01b0360335416604051908152f35b346101d05760003660031901126101d05760005460ff8160081c161590818092610cc8575b8015610cb1575b15610c465760ff19811660011760005581610c34575b50610bdd60ff60005460081c16610bd881612f12565b612f12565b610be633612c9b565b60005490610bf960ff8360081c16612f12565b610bff57005b61ff0019166000557f7f26b83ff96e1f2b6a682f133852f6798a09c465da95921460cefb3847402498602060405160018152a1005b61ffff19166101011760005581610bc2565b60405162461bcd60e51b815260206004820152602e60248201527f496e697469616c697a61626c653a20636f6e747261637420697320616c72656160448201527f647920696e697469616c697a65640000000000000000000000000000000000006064820152608490fd5b50303b158015610bac5750600160ff821614610bac565b50600160ff821610610ba5565b346101d0576020806003193601126101d057600435903360005260cb8152610d0a60ff60026040600020015460a81c16613004565b610d1760c95483106130dd565b3360005260cb8152610d3d60ff60026040600020015416610d37816129d7565b1561305c565b8160005260cc8152604060002091610d6c610621600d850194610d6760ff8754166107e1816129d7565b61341e565b8060005260cc825260406000209160026001600160a01b03600b85015416930154600081858115610e20575b600092839283928392f115610e145760cc610e0f927f6e3c6096795c8298a218b2cfb8bde42726ff7c9a3d27b4d3ba41ab7f74feb5fb96600160ff19825416179055846000525260006002604082200155604051938493846001600160a01b03604092959493606083019683521660208201520152565b0390a1005b6040513d6000823e3d90fd5b6108fc9250610d98565b346101d05760003660031901126101d057610e43612c43565b60006001600160a01b036033546001600160a01b03198116603355167f8be0079c531659141344cd1fd0a4f28419497f9722a3daafe3b4186f6b6457e08280a3005b346101d05760603660031901126101d0576001600160a01b03600435602435604435838116908190036101d0573360005260209360cb8552610ed460ff60026040600020015460a81c16613004565b610ee160c95485106130dd565b3360005260cb8552610f0160ff60026040600020015416610d37816129d7565b8360005260cc8552604060002090600d820190815490610f2760ff83166107e1816129d7565b3390600a85015416036110775760ff8160081c1661100c5760028301548511610fa1576003830185905561ff001916610100179055600b0180546001600160a01b031916909117905560408051928352928201527f99f063607b2d9f794eb8985daf4a0d3224e73b48e43228a183329e415dff077e9190a1005b60405162461bcd60e51b815260048101889052603e60248201527f5265717565737420616d6f756e74206d757374206265206c657373207468616e60448201527f206f7220657175616c20746f207468652072616973656420616d6f756e7400006064820152608490fd5b60405162461bcd60e51b815260048101889052603460248201527f4120726571756573742068617320616c7265616479206265656e20637265617460448201527f656420666f7220746869732063616d706169676e0000000000000000000000006064820152608490fd5b60405162461bcd60e51b815260048101889052602a60248201527f4f6e6c792074686520656e7472657072656e6575722063616e2063726561746560448201527f20612072657175657374000000000000000000000000000000000000000000006064820152608490fd5b346101d0576020806003193601126101d0576004358060005260cc8252600c604060002001805461111281613222565b9261112060405194856128cf565b818452601f1961112f83613222565b01368686013761113e8261323a565b9260005b83811061117357611166866101808988604051948594604086526040860190612a7e565b9184830390850152612abb565b806001600160a01b036111896111c093856131f4565b90549060031b1c168061119c838a61326c565b528460005260cd895260406000209060005288526040600020546101c5828861326c565b611142565b346101d05760003660031901126101d0576001600160a01b037f00000000000000000000000000000000000000000000000000000000000000001630036112305760206040517f360894a13ba1a3210667c828492db98dca3e2076cc3735a920a3ca505d382bbc8152f35b60405162461bcd60e51b815260206004820152603860248201527f555550535570677261646561626c653a206d757374206e6f742062652063616c60448201527f6c6564207468726f7567682064656c656761746563616c6c00000000000000006064820152608490fd5b60403660031901126101d0576112af612a68565b60243567ffffffffffffffff81116101d057366023820112156101d0576112e0903690602481600401359101612a13565b6001600160a01b0390817f0000000000000000000000000000000000000000000000000000000000000000169161131983301415612ce3565b6113487f360894a13ba1a3210667c828492db98dca3e2076cc3735a920a3ca505d382bbc938285541614612d55565b7f4910fdfa16fed3260ed0e7147f7cc6da11a60208b5b9406d12a635614ffd91435460ff161561137e5750505061020e90612dc7565b8316604051926352d1902d60e01b84526020938481600481865afa60009181611535575b506114035760405162461bcd60e51b815260048101869052602e60248201527f45524331393637557067726164653a206e657720696d706c656d656e7461746960448201526d6f6e206973206e6f74205555505360901b6064820152608490fd5b939293036114de5761141484612dc7565b7fbc7cd75a20ee27fd9adebab32041f755214dbc6bffa90cc0225b39da2e5c2d3b600080a28151158015906114d6575b61144a57005b61020e926000806040519461145e866128b3565b602786527f416464726573733a206c6f772d6c6576656c2064656c65676174652063616c6c85870152660819985a5b195960ca1b60408701528481519101845af4903d156114cd573d6114b0816129f7565b906114be60405192836128cf565b8152600081943d92013e612e75565b60609250612e75565b506001611444565b60405162461bcd60e51b815260048101839052602960248201527f45524331393637557067726164653a20756e737570706f727465642070726f786044820152681a58589b195555525160ba1b6064820152608490fd5b9091508581813d831161155d575b61154d81836128cf565b810103126101d0575190876113a2565b503d611543565b6020806003193601126101d057600435903360005260cb815261159460ff60026040600020015460a81c16613004565b6115a160c95483106130dd565b3360005260cb81526115c3600160ff600260406000200154166105c9816129d7565b8160005260cc81526115e360ff600d60406000200154166107e1816129d7565b8160005260cc81526004604060002001544210156118b4578160005260cc81526040600020600d81015461161d60ff82166107e1816129d7565b600482015442101561186f57341561180457600682015434106117b35760ff61164a9160101c1615613175565b8260005260cd82526040600020336000528252604060002061166d3482546131e7565b90556002810161167e3482546131e7565b90558260005260ca8252604060002061169781546130ce565b90558260005260cd825260406000203360005282523460406000205414611754575b5060408051838152336020820152349181019190915260cc92907f0a4a91237423e0a1766a761c7cb029311d8b95d6b1b81db1b949a70c98b4e08e90606090a16000525260406000204260048201541160001461171d57600d01805460ff19169055005b600281015460018201541161174457600d8101805460ff1916600117905542600590910155005b600d01805460ff19166002179055005b600c01918254926801000000000000000084101561179d578361177e91600160cc960181556131f4565b81549060031b906001600160a01b0333831b921b1916179055916116b9565b634e487b7160e01b600052604160045260246000fd5b60405162461bcd60e51b815260048101849052602360248201527f41206d696e756d756d20636f6e747269627574696f6e2069732072657175697260448201526232b21760e91b6064820152608490fd5b60405162461bcd60e51b815260048101849052602960248201527f446f6e6174696f6e20616d6f756e74206d75737420626520677265617465722060448201527f7468616e207a65726f00000000000000000000000000000000000000000000006064820152608490fd5b60405162461bcd60e51b815260048101849052601960248201527f43616d706169676e20706572696f642068617320656e646564000000000000006044820152606490fd5b6064906040519062461bcd60e51b82526004820152601560248201527f446561646c696e652068617320706173736564202100000000000000000000006044820152fd5b346101d0576020806003193601126101d057611912612a68565b6001600160a01b0391827f00000000000000000000000000000000000000000000000000000000000000001661194a81301415612ce3565b6119797f360894a13ba1a3210667c828492db98dca3e2076cc3735a920a3ca505d382bbc918583541614612d55565b604051908282019482861067ffffffffffffffff87111761179d57856040526000835260ff7f4910fdfa16fed3260ed0e7147f7cc6da11a60208b5b9406d12a635614ffd914354166000146119d6575050505061020e9150612dc7565b8492939416906040516352d1902d60e01b81528581600481865afa60009181611b64575b50611a5b5760405162461bcd60e51b815260048101879052602e60248201527f45524331393637557067726164653a206e657720696d706c656d656e7461746960448201526d6f6e206973206e6f74205555505360901b6064820152608490fd5b94939403611b0d57611a6c82612dc7565b7fbc7cd75a20ee27fd9adebab32041f755214dbc6bffa90cc0225b39da2e5c2d3b600080a2825115801590611b05575b611aa257005b60008061020e9560405195611ab6876128b3565b602787527f416464726573733a206c6f772d6c6576656c2064656c65676174652063616c6c86880152660819985a5b195960ca1b60408801525190845af4903d156114cd573d6114b0816129f7565b506000611a9c565b60405162461bcd60e51b815260048101849052602960248201527f45524331393637557067726164653a20756e737570706f727465642070726f786044820152681a58589b195555525160ba1b6064820152608490fd5b9091508681813d8311611b8c575b611b7c81836128cf565b810103126101d0575190886119fa565b503d611b72565b346101d05760603660031901126101d05760043567ffffffffffffffff81116101d057611bc4903690600401612a4a565b60243567ffffffffffffffff81116101d057611be4903690600401612a4a565b9060443560038110156101d0578151156120725782511561202d573315611fe8573360005260cb60205260ff60026040600020015460a81c16611fa3576040519260a0840184811067ffffffffffffffff82111761179d576040528284526020840152611c50816129d7565b6040830152336060830152600160808301523360005260cb602052604060002090825192835167ffffffffffffffff811161179d57611c8f845461285c565b601f8111611f5f575b506020601f8211600114611ef6578192939495600092611eeb575b50508160011b916000199060031b1c19161783555b602081015192835167ffffffffffffffff811161179d57611cec600183015461285c565b601f8111611ea0575b506020601f8211600114611e0a579181600292611ded9695947f427b59b30d98f86c6e6670da78cff4cbaa374e6642ff6d038faa43cbb5fd8de398600092611dff575b50508160011b916000199060031b1c19161760018201555b0190604081015190611d61826129d7565b611d6a826129d7565b82547fffffffffffffffffffff0000000000000000000000000000000000000000000060ff75ff000000000000000000000000000000000000000000608074ffffffffffffffffffffffffffffffffffffffff00606087015160081b16950151151560a81b16941691161717179055604051918291606083526060830190612997565b600160208301523360408301520390a1005b015190508880611d38565b601f198216956001840160005260206000209660005b818110611e885750927f427b59b30d98f86c6e6670da78cff4cbaa374e6642ff6d038faa43cbb5fd8de397611ded979695936001938360029710611e6f575b505050811b016001820155611d50565b015160001960f88460031b161c19169055888080611e5f565b83830151895560019098019760209384019301611e20565b600183016000526020600020601f830160051c81019160208410611ee1575b601f0160051c01905b818110611ed55750611cf5565b60008155600101611ec8565b9091508190611ebf565b015190508580611cb3565b8460005260206000209060005b601f1984168110611f47575060019394959683601f19811610611f2e575b505050811b018355611cc8565b015160001960f88460031b161c19169055858080611f21565b9091602060018192858b015181550193019101611f03565b846000526020600020601f830160051c810160208410611f9c575b601f830160051c82018110611f90575050611c98565b60008155600101611f7a565b5080611f7a565b60405162461bcd60e51b815260206004820152601a60248201527f5573657220697320616c726561647920726567697374657265640000000000006044820152606490fd5b60405162461bcd60e51b815260206004820152601660248201527f496e76616c69642077616c6c65742061646472657373000000000000000000006044820152606490fd5b60405162461bcd60e51b815260206004820152601860248201527f50617373776f72642063616e6e6f7420626520656d70747900000000000000006044820152606490fd5b60405162461bcd60e51b815260206004820152601560248201527f456d61696c2063616e6e6f7420626520656d70747900000000000000000000006044820152606490fd5b346101d05760403660031901126101d0576001600160a01b036120d8612a68565b1660005260cf60205260206120f360243560406000206131f4565b90546040519160031b1c8152f35b346101d05760403660031901126101d05767ffffffffffffffff6004358181116101d057612133903690600401612a4a565b906024359081116101d057602091612152612158923690600401612a4a565b90612f84565b6040519015158152f35b346101d05760c03660031901126101d05760643567ffffffffffffffff81116101d057612193903690600401612a4a565b60843567ffffffffffffffff81116101d0576121b3903690600401612a4a565b9060a43567ffffffffffffffff81116101d0576121d4903690600401612a4a565b903360005260cb6020526121f560ff60026040600020015460a81c16613004565b3360005260cb60205261221660ff60026040600020015416610d37816129d7565b600435156126c95760c9548060005260cc602052604060002091600483015442111561265e57818355600a8301336001600160a01b0319825416179055600435600184015580519067ffffffffffffffff821161179d57819061227c600786015461285c565b601f811161260b575b50602090601f83116001146125995760009261258e575b50508160011b916000199060031b1c19161760078301555b835167ffffffffffffffff811161179d576122d2600884015461285c565b601f8111612545575b506020601f82116001146124d65781929394956000926124cb575b50508160011b916000199060031b1c19161760088301555b825167ffffffffffffffff811161179d57600983019061232e825461285c565b601f8111612485575b506020601f821160011461241a5781906123a7959660009261240f575b50508160011b916000199060031b1c19161790555b600d6024359384600482015560443560068201550160ff19815416905561239160c9546130ce565b60c9553360005260cf60205260406000206134aa565b5060c9546000198101919082116123f9577f91b289a829e71d811b8c69e4a24ba2d40d115d8a236e9a724cb3bb2d43cf72239160809160405191825233602083015260043560408301526060820152a1005b634e487b7160e01b600052601160045260246000fd5b015190508680612354565b601f198216958360005260206000209660005b81811061246d5750916123a7969791846001959410612454575b505050811b019055612369565b015160001960f88460031b161c19169055868080612447565b8383015189556001909801976020938401930161242d565b826000526020600020601f830160051c8101602084106124c4575b601f90920160051c01905b8181106124b85750612337565b600081556001016124ab565b50806124a0565b0151905085806122f6565b6008840160005260206000209060005b601f198416811061252d575060019394959683601f19811610612514575b505050811b01600883015561230e565b015160001960f88460031b161c19169055858080612504565b9091602060018192858b0151815501930191016124e6565b600884016000526020600020601f830160051c810160208410612587575b601f90920160051c01905b81811061257b57506122db565b6000815560010161256e565b5080612563565b01519050868061229c565b9250600785016000526020600020906000935b601f19841685106125f0576001945083601f198116106125d7575b505050811b0160078301556122b4565b015160001960f88460031b161c191690558680806125c7565b818101518355602094850194600190930192909101906125ac565b909150600785016000526020600020601f840160051c810160208510612657575b90849392915b601f830160051c82018110612648575050612285565b60008155859450600101612632565b508061262c565b60405162461bcd60e51b815260206004820152602960248201527f5468652063616d706169676e206d7573742062652061206461746520696e207460448201527f68652066757475726500000000000000000000000000000000000000000000006064820152608490fd5b60405162461bcd60e51b815260206004820152602760248201527f54617267657420616d6f756e74206d757374206265206772656174657220746860448201527f616e207a65726f000000000000000000000000000000000000000000000000006064820152608490fd5b346101d05760203660031901126101d05760043560005260cc6020526040600020805460018201549160028101546003820154906004830154926005810154600682015460078301612785906128f1565b612791600885016128f1565b9161279e600986016128f1565b936001600160a01b039889600a8801541699600b8801541696600d01549860ff8a16986040519d8e809e81526020015260408d015260608c015260808b015260a08a015260c08901526101e08060e08a015288016127fb91612997565b87810361010089015261280d91612997565b86810361012088015261281f91612997565b93610140860152610160850152612835816129d7565b6101808401528060081c60ff1615156101a084015260101c60ff1615156101c08301520390f35b90600182811c9216801561288c575b602083101461287657565b634e487b7160e01b600052602260045260246000fd5b91607f169161286b565b610200810190811067ffffffffffffffff82111761179d57604052565b6060810190811067ffffffffffffffff82111761179d57604052565b90601f8019910116810190811067ffffffffffffffff82111761179d57604052565b90604051918260008254926129058461285c565b9081845260019485811690816000146129745750600114612931575b505061292f925003836128cf565b565b9093915060005260209081600020936000915b81831061295c57505061292f93508201013880612921565b85548884018501529485019487945091830191612944565b91505061292f94506020925060ff191682840152151560051b8201013880612921565b919082519283825260005b8481106129c3575050826000602080949584010152601f8019910116010190565b6020818301810151848301820152016129a2565b600311156129e157565b634e487b7160e01b600052602160045260246000fd5b67ffffffffffffffff811161179d57601f01601f191660200190565b929192612a1f826129f7565b91612a2d60405193846128cf565b8294818452818301116101d0578281602093846000960137010152565b9080601f830112156101d057816020612a6593359101612a13565b90565b600435906001600160a01b03821682036101d057565b90815180825260208080930193019160005b828110612a9e575050505090565b83516001600160a01b031685529381019392810192600101612a90565b90815180825260208080930193019160005b828110612adb575050505090565b835185529381019392810192600101612acd565b90815181526020820151602082015260408201516040820152606082015160608201526080820151608082015260a082015160a082015260c082015160c0820152612bb0612b7a612b66612b5260e08601516102008060e0880152860190612997565b610100808701519086830390870152612997565b610120808601519085830390860152612997565b6001600160a01b036101408181870151169085015261016090818601511690840152610180808501519084830390850152612a7e565b916101a08082015190612bc2826129d7565b8301526101c0808201511515908301526101e080910151151591015290565b602080820190808352835180925260408301928160408460051b8301019501936000915b848310612c155750505050505090565b9091929394958480612c33600193603f198682030187528a51612aef565b9801930193019194939290612c05565b6001600160a01b03603354163303612c5757565b606460405162461bcd60e51b815260206004820152602060248201527f4f776e61626c653a2063616c6c6572206973206e6f7420746865206f776e65726044820152fd5b603354906001600160a01b0380911691826001600160a01b0319821617603355167f8be0079c531659141344cd1fd0a4f28419497f9722a3daafe3b4186f6b6457e0600080a3565b15612cea57565b60405162461bcd60e51b815260206004820152602c60248201527f46756e6374696f6e206d7573742062652063616c6c6564207468726f7567682060448201527f64656c656761746563616c6c00000000000000000000000000000000000000006064820152608490fd5b15612d5c57565b60405162461bcd60e51b815260206004820152602c60248201527f46756e6374696f6e206d7573742062652063616c6c6564207468726f7567682060448201527f6163746976652070726f787900000000000000000000000000000000000000006064820152608490fd5b803b15612e0a576001600160a01b037f360894a13ba1a3210667c828492db98dca3e2076cc3735a920a3ca505d382bbc91166001600160a01b0319825416179055565b60405162461bcd60e51b815260206004820152602d60248201527f455243313936373a206e657720696d706c656d656e746174696f6e206973206e60448201527f6f74206120636f6e7472616374000000000000000000000000000000000000006064820152608490fd5b91929015612ed75750815115612e89575090565b3b15612e925790565b60405162461bcd60e51b815260206004820152601d60248201527f416464726573733a2063616c6c20746f206e6f6e2d636f6e74726163740000006044820152606490fd5b825190915015612eea5750805190602001fd5b60405162461bcd60e51b815260206004820152908190612f0e906024830190612997565b0390fd5b15612f1957565b60405162461bcd60e51b815260206004820152602b60248201527f496e697469616c697a61626c653a20636f6e7472616374206973206e6f74206960448201527f6e697469616c697a696e670000000000000000000000000000000000000000006064820152608490fd5b903360005260cb602052604060002060ff600282015460a81c169283612fe1575b5082612fbc575b5050612fb757600090565b600190565b612fca9192506001016128f1565b602081519101209060208151910120143880612fac565b909250612fed836128f1565b602081519101209060208151910120149138612fa5565b1561300b57565b60405162461bcd60e51b815260206004820152602360248201527f4f6e6c792076657269666965642075736572732063616e20706172746963697060448201526261746560e81b6064820152608490fd5b1561306357565b60405162461bcd60e51b815260206004820152603c60248201527f4f6e6c79207573657273206f662074686520737065636966696564206361746560448201527f676f72792063616e20706572666f726d207468697320616374696f6e000000006064820152608490fd5b60001981146123f95760010190565b156130e457565b60405162461bcd60e51b815260206004820152601760248201527f43616d706169676e20646f6573206e6f742065786973740000000000000000006044820152606490fd5b1561313057565b60405162461bcd60e51b815260206004820152601760248201527f43616d706169676e206973206e6f74206f6e676f696e670000000000000000006044820152606490fd5b1561317c57565b60405162461bcd60e51b815260206004820152603360248201527f46756e647320666f7220746869732063616d706169676e206861766520616c7260448201527f65616479206265656e2072656365697665642e000000000000000000000000006064820152608490fd5b919082018092116123f957565b805482101561320c5760005260206000200190600090565b634e487b7160e01b600052603260045260246000fd5b67ffffffffffffffff811161179d5760051b60200190565b9061324482613222565b61325160405191826128cf565b8281528092613262601f1991613222565b0190602036910137565b805182101561320c5760209160051b010190565b9060405191828154918282526020928383019160005283600020936000905b8282106132b55750505061292f925003836128cf565b85546001600160a01b03168452600195860195889550938101939091019061329f565b604051906132e582612896565b816101e06000918281528260208201528260408201528260608201528260808201528260a08201528260c0820152606060e08201526060610100820152606061012082015282610140820152826101608201526060610180820152826101a0820152826101c08201520152565b9061335c82613222565b61336960405191826128cf565b828152809261337a601f1991613222565b019060005b82811061338b57505050565b6020906133966132d8565b8282850101520161337f565b156133a957565b60405162461bcd60e51b815260206004820152604160248201527f5265717565737420686173206e6f74206265656e20617070726f76656420627960448201527f20746865207265717569726564206e756d626572206f6620696e766573746f726064820152607360f81b608482015260a490fd5b80546000908152602060ca815260408083205492600c81950192835493825b8581106134525750505050505060011c111590565b6001600160a01b0361346482846131f4565b91905483875260ce86528787209260031b1c168552835260ff8585205416613495575b613490906130ce565b61343d565b966134a2613490916130ce565b979050613487565b919060018301600090828252806020526040822054156000146135265784549468010000000000000000861015613512576134ef8660016040969798018355826131f4565b81549060031b9087821b91600019901b1916179055549382526020522055600190565b634e487b7160e01b83526041600452602483fd5b5092505056fea164736f6c6343000812000a",
  "linkReferences": {},
  "deployedLinkReferences": {}
}