{
  "_format": "hh-sol-artifact-1",
  "contractName": "CampaignRegistry",
  "sourceName": "contracts/CampaignRegistry.sol",
  "abi": [
    {
      "anonymous": false,
      "inputs": [
        {
          "indexed": false,
          "internalType": "address",
          "name": "previousAdmin",
          "type": "address"
        },
        {
          "indexed": false,
          "internalType": "address",
          "name": "newAdmin",
          "type": "address"
        }
      ],
      "name": "AdminChanged",
      "type": "event"
    },
    {
      "anonymous": false,
      "inputs": [
        {
          "indexed": true,
          "internalType": "address",
          "name": "beacon",
          "type": "address"
        }
      ],
      "name": "BeaconUpgraded",
      "type": "event"
    },
    {
      "anonymous": false,
      "inputs": [
        {
          "indexed": false,
          "internalType": "uint256",
          "name": "campaignId",
          "type": "uint256"
        },
        {
          "indexed": false,
          "internalType": "address",
          "name": "entrepreneur",
          "type": "address"
        },
        {
          "indexed": false,
          "internalType": "uint256",
          "name": "targetAmount",
          "type": "uint256"
        },
        {
          "indexed": false,
          "internalType": "uint256",
          "name": "deadline",
          "type": "uint256"
        }
      ],
      "name": "CampaignCreated",
      "type": "event"
    },
    {
      "anonymous": false,
      "inputs": [
        {
          "indexed": false,
          "internalType": "uint256",
          "name": "campaignId",
          "type": "uint256"
        },
        {
          "indexed": false,
          "internalType": "address",
          "name": "investor",
          "type": "address"
        },
        {
          "indexed": false,
          "internalType": "uint256",
          "name": "amount",
          "type": "uint256"
        }
      ],
      "name": "ContributionMade",
      "type": "event"
    },
    {
      "anonymous": false,
      "inputs": [
        {
          "indexed": false,
          "internalType": "uint256",
          "name": "campaignId",
          "type": "uint256"
        },
        {
          "indexed": false,
          "internalType": "address",
          "name": "vendor",
          "type": "address"
        },
        {
          "indexed": false,
          "internalType": "uint256",
          "name": "amount",
          "type": "uint256"
        }
      ],
      "name": "FundsReleased",
      "type": "event"
    },
    {
      "anonymous": false,
      "inputs": [
        {
          "indexed": false,
          "internalType": "uint8",
          "name": "version",
          "type": "uint8"
        }
      ],
      "name": "Initialized",
      "type": "event"
    },
    {
      "anonymous": false,
      "inputs": [
        {
          "indexed": true,
          "internalType": "address",
          "name": "previousOwner",
          "type": "address"
        },
        {
          "indexed": true,
          "internalType": "address",
          "name": "newOwner",
          "type": "address"
        }
      ],
      "name": "OwnershipTransferred",
      "type": "event"
    },
    {
      "anonymous": false,
      "inputs": [
        {
          "indexed": false,
          "internalType": "uint256",
          "name": "campaignId",
          "type": "uint256"
        },
        {
          "indexed": false,
          "internalType": "address",
          "name": "investor",
          "type": "address"
        }
      ],
      "name": "RequestApproved",
      "type": "event"
    },
    {
      "anonymous": false,
      "inputs": [
        {
          "indexed": false,
          "internalType": "uint256",
          "name": "campaignId",
          "type": "uint256"
        },
        {
          "indexed": false,
          "internalType": "uint256",
          "name": "requestAmount",
          "type": "uint256"
        }
      ],
      "name": "RequestCreated",
      "type": "event"
    },
    {
      "anonymous": false,
      "inputs": [
        {
          "indexed": true,
          "internalType": "address",
          "name": "implementation",
          "type": "address"
        }
      ],
      "name": "Upgraded",
      "type": "event"
    },
    {
      "inputs": [
        {
          "internalType": "uint256",
          "name": "_campaignId",
          "type": "uint256"
        }
      ],
      "name": "approveFundReleaseRequest",
      "outputs": [],
      "stateMutability": "nonpayable",
      "type": "function"
    },
    {
      "inputs": [
        {
          "internalType": "uint256",
          "name": "",
          "type": "uint256"
        }
      ],
      "name": "campaigns",
      "outputs": [
        {
          "internalType": "uint256",
          "name": "campaignId",
          "type": "uint256"
        },
        {
          "internalType": "uint256",
          "name": "targetAmount",
          "type": "uint256"
        },
        {
          "internalType": "uint256",
          "name": "raisedAmount",
          "type": "uint256"
        },
        {
          "internalType": "uint256",
          "name": "requestAmount",
          "type": "uint256"
        },
        {
          "internalType": "uint256",
          "name": "deadline",
          "type": "uint256"
        },
        {
          "internalType": "uint256",
          "name": "completeAt",
          "type": "uint256"
        },
        {
          "internalType": "uint256",
          "name": "startAt",
          "type": "uint256"
        },
        {
          "internalType": "string",
          "name": "imageUri",
          "type": "string"
        },
        {
          "internalType": "string",
          "name": "campaignTitle",
          "type": "string"
        },
        {
          "internalType": "string",
          "name": "campaignDescription",
          "type": "string"
        },
        {
          "internalType": "address",
          "name": "entrepreneur",
          "type": "address"
        },
        {
          "internalType": "address",
          "name": "vendor",
          "type": "address"
        },
        {
          "internalType": "enum ICampaignRegistry.CampaignStatus",
          "name": "status",
          "type": "uint8"
        },
        {
          "internalType": "bool",
          "name": "requestCreated",
          "type": "bool"
        }
      ],
      "stateMutability": "view",
      "type": "function"
    },
    {
      "inputs": [
        {
          "internalType": "uint256",
          "name": "_targetAmount",
          "type": "uint256"
        },
        {
          "internalType": "uint256",
          "name": "_deadline",
          "type": "uint256"
        },
        {
          "internalType": "string",
          "name": "_imageUri",
          "type": "string"
        },
        {
          "internalType": "string",
          "name": "_campaignTitle",
          "type": "string"
        },
        {
          "internalType": "string",
          "name": "_campaignDescription",
          "type": "string"
        }
      ],
      "name": "createCampaign",
      "outputs": [],
      "stateMutability": "nonpayable",
      "type": "function"
    },
    {
      "inputs": [
        {
          "internalType": "uint256",
          "name": "_campaignId",
          "type": "uint256"
        },
        {
          "internalType": "uint256",
          "name": "_requestAmount",
          "type": "uint256"
        }
      ],
      "name": "createFundReleaseRequest",
      "outputs": [],
      "stateMutability": "nonpayable",
      "type": "function"
    },
    {
      "inputs": [
        {
          "internalType": "uint256",
          "name": "_campaignId",
          "type": "uint256"
        }
      ],
      "name": "donateToCampaign",
      "outputs": [],
      "stateMutability": "payable",
      "type": "function"
    },
    {
      "inputs": [
        {
          "internalType": "uint256",
          "name": "_campaignId",
          "type": "uint256"
        }
      ],
      "name": "getAllDonations",
      "outputs": [
        {
          "internalType": "uint256[]",
          "name": "",
          "type": "uint256[]"
        }
      ],
      "stateMutability": "view",
      "type": "function"
    },
    {
      "inputs": [
        {
          "internalType": "uint256",
          "name": "_campaignId",
          "type": "uint256"
        }
      ],
      "name": "getAllDonators",
      "outputs": [
        {
          "internalType": "address[]",
          "name": "",
          "type": "address[]"
        }
      ],
      "stateMutability": "view",
      "type": "function"
    },
    {
      "inputs": [],
      "name": "getCampaigns",
      "outputs": [
        {
          "components": [
            {
              "internalType": "uint256",
              "name": "campaignId",
              "type": "uint256"
            },
            {
              "internalType": "uint256",
              "name": "targetAmount",
              "type": "uint256"
            },
            {
              "internalType": "uint256",
              "name": "raisedAmount",
              "type": "uint256"
            },
            {
              "internalType": "uint256",
              "name": "requestAmount",
              "type": "uint256"
            },
            {
              "internalType": "uint256",
              "name": "deadline",
              "type": "uint256"
            },
            {
              "internalType": "uint256",
              "name": "completeAt",
              "type": "uint256"
            },
            {
              "internalType": "uint256",
              "name": "startAt",
              "type": "uint256"
            },
            {
              "internalType": "string",
              "name": "imageUri",
              "type": "string"
            },
            {
              "internalType": "string",
              "name": "campaignTitle",
              "type": "string"
            },
            {
              "internalType": "string",
              "name": "campaignDescription",
              "type": "string"
            },
            {
              "internalType": "address",
              "name": "entrepreneur",
              "type": "address"
            },
            {
              "internalType": "address",
              "name": "vendor",
              "type": "address"
            },
            {
              "internalType": "address[]",
              "name": "investors",
              "type": "address[]"
            },
            {
              "internalType": "enum ICampaignRegistry.CampaignStatus",
              "name": "status",
              "type": "uint8"
            },
            {
              "internalType": "bool",
              "name": "requestCreated",
              "type": "bool"
            }
          ],
          "internalType": "struct ICampaignRegistry.Campaign[]",
          "name": "",
          "type": "tuple[]"
        }
      ],
      "stateMutability": "view",
      "type": "function"
    },
    {
      "inputs": [
        {
          "internalType": "uint256",
          "name": "_campaignId",
          "type": "uint256"
        }
      ],
      "name": "getInvestorDonations",
      "outputs": [
        {
          "internalType": "address[]",
          "name": "",
          "type": "address[]"
        },
        {
          "internalType": "uint256[]",
          "name": "",
          "type": "uint256[]"
        }
      ],
      "stateMutability": "view",
      "type": "function"
    },
    {
      "inputs": [
        {
          "internalType": "address",
          "name": "_investor",
          "type": "address"
        }
      ],
      "name": "getTotalCampaignsByInvestor",
      "outputs": [
        {
          "internalType": "uint256",
          "name": "",
          "type": "uint256"
        }
      ],
      "stateMutability": "view",
      "type": "function"
    },
    {
      "inputs": [],
      "name": "initialize",
      "outputs": [],
      "stateMutability": "nonpayable",
      "type": "function"
    },
    {
      "inputs": [
        {
          "internalType": "string",
          "name": "_email",
          "type": "string"
        },
        {
          "internalType": "string",
          "name": "_password",
          "type": "string"
        }
      ],
      "name": "loginUser",
      "outputs": [
        {
          "internalType": "bool",
          "name": "",
          "type": "bool"
        }
      ],
      "stateMutability": "view",
      "type": "function"
    },
    {
      "inputs": [],
      "name": "owner",
      "outputs": [
        {
          "internalType": "address",
          "name": "",
          "type": "address"
        }
      ],
      "stateMutability": "view",
      "type": "function"
    },
    {
      "inputs": [],
      "name": "proxiableUUID",
      "outputs": [
        {
          "internalType": "bytes32",
          "name": "",
          "type": "bytes32"
        }
      ],
      "stateMutability": "view",
      "type": "function"
    },
    {
      "inputs": [
        {
          "internalType": "string",
          "name": "_email",
          "type": "string"
        },
        {
          "internalType": "string",
          "name": "_password",
          "type": "string"
        },
        {
          "internalType": "enum ICampaignRegistry.Category",
          "name": "_category",
          "type": "uint8"
        }
      ],
      "name": "registerUser",
      "outputs": [],
      "stateMutability": "nonpayable",
      "type": "function"
    },
    {
      "inputs": [],
      "name": "renounceOwnership",
      "outputs": [],
      "stateMutability": "nonpayable",
      "type": "function"
    },
    {
      "inputs": [
        {
          "internalType": "address",
          "name": "newOwner",
          "type": "address"
        }
      ],
      "name": "transferOwnership",
      "outputs": [],
      "stateMutability": "nonpayable",
      "type": "function"
    },
    {
      "inputs": [
        {
          "internalType": "address",
          "name": "newImplementation",
          "type": "address"
        }
      ],
      "name": "upgradeTo",
      "outputs": [],
      "stateMutability": "nonpayable",
      "type": "function"
    },
    {
      "inputs": [
        {
          "internalType": "address",
          "name": "newImplementation",
          "type": "address"
        },
        {
          "internalType": "bytes",
          "name": "data",
          "type": "bytes"
        }
      ],
      "name": "upgradeToAndCall",
      "outputs": [],
      "stateMutability": "payable",
      "type": "function"
    },
    {
      "inputs": [
        {
          "internalType": "address",
          "name": "",
          "type": "address"
        }
      ],
      "name": "users",
      "outputs": [
        {
          "internalType": "string",
          "name": "email",
          "type": "string"
        },
        {
          "internalType": "string",
          "name": "password",
          "type": "string"
        },
        {
          "internalType": "enum ICampaignRegistry.Category",
          "name": "category",
          "type": "uint8"
        },
        {
          "internalType": "address",
          "name": "walletAddress",
          "type": "address"
        },
        {
          "internalType": "bool",
          "name": "verified",
          "type": "bool"
        }
      ],
      "stateMutability": "view",
      "type": "function"
    }
  ],
  "bytecode": "0x60a06040523060805234801561001457600080fd5b506080516137fd61004c6000396000818161094d015281816109d201528181610f3d01528181610fc201526110a301526137fd6000f3fe60806040526004361061015f5760003560e01c806374a29cd2116100c0578063a7247cd911610074578063e27883fb11610059578063e27883fb146103b5578063f2fde38b146103e2578063ffa676d11461040257600080fd5b8063a7247cd914610364578063a87430ba1461038457600080fd5b80638da5cb5b116100a55780638da5cb5b146102fa5780638e5baa6214610322578063a6b036331461034257600080fd5b806374a29cd2146102c55780638129fc1c146102e557600080fd5b80634f1ef2861161011757806367c2cbad116100fc57806367c2cbad14610262578063715018a61461029057806371572a56146102a557600080fd5b80634f1ef2861461022c57806352d1902d1461023f57600080fd5b80632e17a931116101485780632e17a931146101d75780633659cfe6146101f957806342a4fda81461021957600080fd5b8063141961bc1461016457806322ce12e5146101a7575b600080fd5b34801561017057600080fd5b5061018461017f366004612e87565b61042f565b60405161019e9e9d9c9b9a99989796959493929190612f31565b60405180910390f35b3480156101b357600080fd5b506101c76101c2366004613097565b610646565b604051901515815260200161019e565b3480156101e357600080fd5b506101f76101f23660046130fb565b6106ce565b005b34801561020557600080fd5b506101f7610214366004613193565b610943565b6101f7610227366004612e87565b610ab5565b6101f761023a3660046131ae565b610f33565b34801561024b57600080fd5b50610254611096565b60405190815260200161019e565b34801561026e57600080fd5b5061028261027d366004612e87565b61115b565b60405161019e92919061327a565b34801561029c57600080fd5b506101f76112c8565b3480156102b157600080fd5b506101f76102c03660046132a8565b6112dc565b3480156102d157600080fd5b506101f76102e0366004613344565b6115d8565b3480156102f157600080fd5b506101f7611933565b34801561030657600080fd5b506033546040516001600160a01b03909116815260200161019e565b34801561032e57600080fd5b5061025461033d366004613193565b611a5a565b34801561034e57600080fd5b50610357611ab8565b60405161019e9190613366565b34801561037057600080fd5b506101f761037f366004612e87565b611e3b565b34801561039057600080fd5b506103a461039f366004613193565b6121a4565b60405161019e9594939291906134c6565b3480156103c157600080fd5b506103d56103d0366004612e87565b6122f4565b60405161019e919061351e565b3480156103ee57600080fd5b506101f76103fd366004613193565b612366565b34801561040e57600080fd5b5061042261041d366004612e87565b6123f3565b60405161019e9190613531565b60cc60205280600052604060002060009150905080600001549080600101549080600201549080600301549080600401549080600501549080600601549080600701805461047c90613544565b80601f01602080910402602001604051908101604052809291908181526020018280546104a890613544565b80156104f55780601f106104ca576101008083540402835291602001916104f5565b820191906000526020600020905b8154815290600101906020018083116104d857829003601f168201915b50505050509080600801805461050a90613544565b80601f016020809104026020016040519081016040528092919081815260200182805461053690613544565b80156105835780601f1061055857610100808354040283529160200191610583565b820191906000526020600020905b81548152906001019060200180831161056657829003601f168201915b50505050509080600901805461059890613544565b80601f01602080910402602001604051908101604052809291908181526020018280546105c490613544565b80156106115780601f106105e657610100808354040283529160200191610611565b820191906000526020600020905b8154815290600101906020018083116105f457829003601f168201915b50505050600a830154600b840154600d9094015492936001600160a01b03918216939116915060ff808216916101009004168e565b33600090815260cb602052604081206002810154600160a81b900460ff16801561068a575083516020850120604051610680908390613578565b6040518091039020145b80156106b35750825160208401206040516106a9906001840190613578565b6040518091039020145b156106c25760019150506106c8565b60009150505b92915050565b60008351116107245760405162461bcd60e51b815260206004820152601560248201527f456d61696c2063616e6e6f7420626520656d707479000000000000000000000060448201526064015b60405180910390fd5b60008251116107755760405162461bcd60e51b815260206004820152601860248201527f50617373776f72642063616e6e6f7420626520656d7074790000000000000000604482015260640161071b565b336107c25760405162461bcd60e51b815260206004820152601660248201527f496e76616c69642077616c6c6574206164647265737300000000000000000000604482015260640161071b565b33600090815260cb6020526040902060020154600160a81b900460ff161561082c5760405162461bcd60e51b815260206004820152601a60248201527f5573657220697320616c72656164792072656769737465726564000000000000604482015260640161071b565b6040518060a0016040528084815260200183815260200182600281111561085557610855612ef0565b81523360208083018290526001604093840152600091825260cb905220815181906108809082613634565b50602082015160018201906108959082613634565b5060408201518160020160006101000a81548160ff021916908360028111156108c0576108c0612ef0565b02179055506060820151600290910180546080909301511515600160a81b027fffffffffffffffffffff00ffffffffffffffffffffffffffffffffffffffffff6001600160a01b0390931661010002929092167fffffffffffffffffffff000000000000000000000000000000000000000000ff90931692909217179055505050565b6001600160a01b037f00000000000000000000000000000000000000000000000000000000000000001630036109d05760405162461bcd60e51b815260206004820152602c60248201527f46756e6374696f6e206d7573742062652063616c6c6564207468726f7567682060448201526b19195b1959d85d1958d85b1b60a21b606482015260840161071b565b7f00000000000000000000000000000000000000000000000000000000000000006001600160a01b0316610a2b7f360894a13ba1a3210667c828492db98dca3e2076cc3735a920a3ca505d382bbc546001600160a01b031690565b6001600160a01b031614610a965760405162461bcd60e51b815260206004820152602c60248201527f46756e6374696f6e206d7573742062652063616c6c6564207468726f7567682060448201526b6163746976652070726f787960a01b606482015260840161071b565b60408051600080825260208201909252610ab2918391906124de565b50565b33600090815260cb6020526040902060020154600160a81b900460ff16610b2a5760405162461bcd60e51b815260206004820152602360248201527f4f6e6c792076657269666965642075736572732063616e20706172746963697060448201526261746560e81b606482015260840161071b565b60018033600090815260cb6020526040902060029081015460ff1690811115610b5557610b55612ef0565b14610bc85760405162461bcd60e51b815260206004820152603c60248201527f4f6e6c79207573657273206f662074686520737065636966696564206361746560448201527f676f72792063616e20706572666f726d207468697320616374696f6e00000000606482015260840161071b565b81600080600083815260cc60205260409020600d015460ff166002811115610bf257610bf2612ef0565b14610c3f5760405162461bcd60e51b815260206004820152600d60248201527f496e76616c696420737461746500000000000000000000000000000000000000604482015260640161071b565b600082815260cc60205260409020600401544210610c9f5760405162461bcd60e51b815260206004820152601560248201527f446561646c696e65206861732070617373656420210000000000000000000000604482015260640161071b565b600084815260cc6020526040812090600d82015460ff166002811115610cc757610cc7612ef0565b14610d145760405162461bcd60e51b815260206004820152601760248201527f43616d706169676e206973206e6f74206f6e676f696e67000000000000000000604482015260640161071b565b80600401544210610d675760405162461bcd60e51b815260206004820152601960248201527f43616d706169676e20706572696f642068617320656e64656400000000000000604482015260640161071b565b60003411610ddd5760405162461bcd60e51b815260206004820152602960248201527f446f6e6174696f6e20616d6f756e74206d75737420626520677265617465722060448201527f7468616e207a65726f0000000000000000000000000000000000000000000000606482015260840161071b565b8060060154421015610e315760405162461bcd60e51b815260206004820152601c60248201527f43616d706169676e20686173206e6f7420537461727465642079657400000000604482015260640161071b565b600085815260cd60209081526040808320338452909152812080543492839291610e5c90849061370a565b9250508190555080826002016000828254610e77919061370a565b9091555050600086815260ca60205260408120805491610e968361371d565b9091555050600086815260cd60209081526040808320338452909152902054819003610ee457600c82018054600181018255600091825260209091200180546001600160a01b031916331790555b60408051878152336020820152348183015290517f0a4a91237423e0a1766a761c7cb029311d8b95d6b1b81db1b949a70c98b4e08e9181900360600190a1610f2b8661267e565b505050505050565b6001600160a01b037f0000000000000000000000000000000000000000000000000000000000000000163003610fc05760405162461bcd60e51b815260206004820152602c60248201527f46756e6374696f6e206d7573742062652063616c6c6564207468726f7567682060448201526b19195b1959d85d1958d85b1b60a21b606482015260840161071b565b7f00000000000000000000000000000000000000000000000000000000000000006001600160a01b031661101b7f360894a13ba1a3210667c828492db98dca3e2076cc3735a920a3ca505d382bbc546001600160a01b031690565b6001600160a01b0316146110865760405162461bcd60e51b815260206004820152602c60248201527f46756e6374696f6e206d7573742062652063616c6c6564207468726f7567682060448201526b6163746976652070726f787960a01b606482015260840161071b565b611092828260016124de565b5050565b6000306001600160a01b037f000000000000000000000000000000000000000000000000000000000000000016146111365760405162461bcd60e51b815260206004820152603860248201527f555550535570677261646561626c653a206d757374206e6f742062652063616c60448201527f6c6564207468726f7567682064656c656761746563616c6c0000000000000000606482015260840161071b565b507f360894a13ba1a3210667c828492db98dca3e2076cc3735a920a3ca505d382bbc90565b600081815260cc60205260408120600c810154606092839291908167ffffffffffffffff81111561118e5761118e612feb565b6040519080825280602002602001820160405280156111b7578160200160208202803683370190505b50905060008267ffffffffffffffff8111156111d5576111d5612feb565b6040519080825280602002602001820160405280156111fe578160200160208202803683370190505b50905060005b838110156112bb57600085600c01828154811061122357611223613736565b9060005260206000200160009054906101000a90046001600160a01b031690508084838151811061125657611256613736565b6001600160a01b0392831660209182029290920181019190915260008b815260cd825260408082209385168252929091522054835184908490811061129d5761129d613736565b602090810291909101015250806112b38161371d565b915050611204565b5090969095509350505050565b6112d061270a565b6112da6000612764565b565b33600090815260cb6020526040902060020154600160a81b900460ff166113515760405162461bcd60e51b815260206004820152602360248201527f4f6e6c792076657269666965642075736572732063616e20706172746963697060448201526261746560e81b606482015260840161071b565b60008033600090815260cb6020526040902060029081015460ff169081111561137c5761137c612ef0565b146113ef5760405162461bcd60e51b815260206004820152603c60248201527f4f6e6c79207573657273206f662074686520737065636966696564206361746560448201527f676f72792063616e20706572666f726d207468697320616374696f6e00000000606482015260840161071b565b600086116114655760405162461bcd60e51b815260206004820152602760248201527f54617267657420616d6f756e74206d757374206265206772656174657220746860448201527f616e207a65726f00000000000000000000000000000000000000000000000000606482015260840161071b565b6000611471864261370a565b60c954600090815260cc6020526040902060048101549192509042116114ff5760405162461bcd60e51b815260206004820152602960248201527f5468652063616d706169676e206d7573742062652061206461746520696e207460448201527f6865206675747572650000000000000000000000000000000000000000000000606482015260840161071b565b60c9548155600a810180546001600160a01b03191633179055600181018890556007810161152d8782613634565b506008810161153c8682613634565b506009810161154b8582613634565b5060048101829055426006820155600d8101805460ff1916905560c980549060006115758361371d565b91905055507f91b289a829e71d811b8c69e4a24ba2d40d115d8a236e9a724cb3bb2d43cf7223600160c9546115aa919061374c565b6040805191825233602083015281018a90526060810184905260800160405180910390a15050505050505050565b33600090815260cb6020526040902060020154600160a81b900460ff1661164d5760405162461bcd60e51b815260206004820152602360248201527f4f6e6c792076657269666965642075736572732063616e20706172746963697060448201526261746560e81b606482015260840161071b565b60008033600090815260cb6020526040902060029081015460ff169081111561167857611678612ef0565b146116eb5760405162461bcd60e51b815260206004820152603c60248201527f4f6e6c79207573657273206f662074686520737065636966696564206361746560448201527f676f72792063616e20706572666f726d207468697320616374696f6e00000000606482015260840161071b565b600083815260cc6020526040812090600d82015460ff16600281111561171357611713612ef0565b146117605760405162461bcd60e51b815260206004820152601760248201527f43616d706169676e206973206e6f74206f6e676f696e67000000000000000000604482015260640161071b565b600a8101546001600160a01b031633146117e25760405162461bcd60e51b815260206004820152602a60248201527f4f6e6c792074686520656e7472657072656e6575722063616e2063726561746560448201527f2061207265717565737400000000000000000000000000000000000000000000606482015260840161071b565b600d810154610100900460ff16156118625760405162461bcd60e51b815260206004820152603460248201527f4120726571756573742068617320616c7265616479206265656e20637265617460448201527f656420666f7220746869732063616d706169676e000000000000000000000000606482015260840161071b565b80600201548311156118dc5760405162461bcd60e51b815260206004820152603e60248201527f5265717565737420616d6f756e74206d757374206265206c657373207468616e60448201527f206f7220657175616c20746f207468652072616973656420616d6f756e740000606482015260840161071b565b60038101839055600d8101805461ff00191661010017905560408051858152602081018590527f99f063607b2d9f794eb8985daf4a0d3224e73b48e43228a183329e415dff077e910160405180910390a150505050565b600054610100900460ff16158080156119535750600054600160ff909116105b8061196d5750303b15801561196d575060005460ff166001145b6119df5760405162461bcd60e51b815260206004820152602e60248201527f496e697469616c697a61626c653a20636f6e747261637420697320616c72656160448201527f647920696e697469616c697a6564000000000000000000000000000000000000606482015260840161071b565b6000805460ff191660011790558015611a02576000805461ff0019166101001790555b611a0a6127b6565b611a12612829565b8015610ab2576000805461ff0019169055604051600181527f7f26b83ff96e1f2b6a682f133852f6798a09c465da95921460cefb38474024989060200160405180910390a150565b600080805b60c954811015611ab157600081815260cd602090815260408083206001600160a01b038816845290915290205415611a9f5781611a9b8161371d565b9250505b80611aa98161371d565b915050611a5f565b5092915050565b6060600060c95467ffffffffffffffff811115611ad757611ad7612feb565b604051908082528060200260200182016040528015611b1057816020015b611afd612dee565b815260200190600190039081611af55790505b50905060005b60c954811015611e355760cc6000828152602001908152602001600020604051806101e001604052908160008201548152602001600182015481526020016002820154815260200160038201548152602001600482015481526020016005820154815260200160068201548152602001600782018054611b9590613544565b80601f0160208091040260200160405190810160405280929190818152602001828054611bc190613544565b8015611c0e5780601f10611be357610100808354040283529160200191611c0e565b820191906000526020600020905b815481529060010190602001808311611bf157829003601f168201915b50505050508152602001600882018054611c2790613544565b80601f0160208091040260200160405190810160405280929190818152602001828054611c5390613544565b8015611ca05780601f10611c7557610100808354040283529160200191611ca0565b820191906000526020600020905b815481529060010190602001808311611c8357829003601f168201915b50505050508152602001600982018054611cb990613544565b80601f0160208091040260200160405190810160405280929190818152602001828054611ce590613544565b8015611d325780601f10611d0757610100808354040283529160200191611d32565b820191906000526020600020905b815481529060010190602001808311611d1557829003601f168201915b5050509183525050600a8201546001600160a01b03908116602080840191909152600b840154909116604080840191909152600c840180548251818502810185019093528083526060909401939192909190830182828015611dbd57602002820191906000526020600020905b81546001600160a01b03168152600190910190602001808311611d9f575b5050509183525050600d82015460209091019060ff166002811115611de457611de4612ef0565b6002811115611df557611df5612ef0565b8152600d9190910154610100900460ff1615156020909101528251839083908110611e2257611e22613736565b6020908102919091010152600101611b16565b50919050565b33600090815260cb6020526040902060020154600160a81b900460ff16611eb05760405162461bcd60e51b815260206004820152602360248201527f4f6e6c792076657269666965642075736572732063616e20706172746963697060448201526261746560e81b606482015260840161071b565b60018033600090815260cb6020526040902060029081015460ff1690811115611edb57611edb612ef0565b14611f4e5760405162461bcd60e51b815260206004820152603c60248201527f4f6e6c79207573657273206f662074686520737065636966696564206361746560448201527f676f72792063616e20706572666f726d207468697320616374696f6e00000000606482015260840161071b565b600082815260cc6020526040812090600d82015460ff166002811115611f7657611f76612ef0565b14611fc35760405162461bcd60e51b815260206004820152601760248201527f43616d706169676e206973206e6f74206f6e676f696e67000000000000000000604482015260640161071b565b600083815260cd602090815260408083203384529091529020546120355760405162461bcd60e51b8152602060048201526024808201527f4f6e6c7920696e766573746f72732063616e20617070726f76652061207265716044820152631d595cdd60e21b606482015260840161071b565b600d810154610100900460ff1661209a5760405162461bcd60e51b815260206004820152602360248201527f4e6f20726571756573742065786973747320666f7220746869732063616d706160448201526234b3b760e91b606482015260840161071b565b600083815260ce6020908152604080832033845290915290205460ff161561212a5760405162461bcd60e51b815260206004820152602960248201527f496e766573746f722068617320616c726561647920617070726f76656420746860448201527f6520726571756573740000000000000000000000000000000000000000000000606482015260840161071b565b600083815260ce602090815260408083203380855290835292819020805460ff191660011790558051868152918201929092527ff3dc904660a0ea05aba8dfa1e21fbc4fb2914be2a3029da7b0fdd3e5eee20ddb910160405180910390a161219181612894565b1561219f5761219f83612937565b505050565b60cb602052600090815260409020805481906121bf90613544565b80601f01602080910402602001604051908101604052809291908181526020018280546121eb90613544565b80156122385780601f1061220d57610100808354040283529160200191612238565b820191906000526020600020905b81548152906001019060200180831161221b57829003601f168201915b50505050509080600101805461224d90613544565b80601f016020809104026020016040519081016040528092919081815260200182805461227990613544565b80156122c65780601f1061229b576101008083540402835291602001916122c6565b820191906000526020600020905b8154815290600101906020018083116122a957829003601f168201915b5050506002909301549192505060ff808216916001600160a01b0361010082041691600160a81b9091041685565b600081815260cc6020908152604091829020600c81018054845181850281018501909552808552606094929383018282801561235957602002820191906000526020600020905b81546001600160a01b0316815260019091019060200180831161233b575b5050505050915050919050565b61236e61270a565b6001600160a01b0381166123ea5760405162461bcd60e51b815260206004820152602660248201527f4f776e61626c653a206e6577206f776e657220697320746865207a65726f206160448201527f6464726573730000000000000000000000000000000000000000000000000000606482015260840161071b565b610ab281612764565b600081815260cc60205260408120600c8101546060928167ffffffffffffffff81111561242257612422612feb565b60405190808252806020026020018201604052801561244b578160200160208202803683370190505b50905060005b828110156124d557600084600c01828154811061247057612470613736565b600091825260208083209091015489835260cd825260408084206001600160a01b03909216808552919092529120548451919250908490849081106124b7576124b7613736565b602090810291909101015250806124cd8161371d565b915050612451565b50949350505050565b7f4910fdfa16fed3260ed0e7147f7cc6da11a60208b5b9406d12a635614ffd91435460ff16156125115761219f83612b02565b826001600160a01b03166352d1902d6040518163ffffffff1660e01b8152600401602060405180830381865afa92505050801561256b575060408051601f3d908101601f191682019092526125689181019061375f565b60015b6125dd5760405162461bcd60e51b815260206004820152602e60248201527f45524331393637557067726164653a206e657720696d706c656d656e7461746960448201527f6f6e206973206e6f742055555053000000000000000000000000000000000000606482015260840161071b565b7f360894a13ba1a3210667c828492db98dca3e2076cc3735a920a3ca505d382bbc81146126725760405162461bcd60e51b815260206004820152602960248201527f45524331393637557067726164653a20756e737570706f727465642070726f7860448201527f6961626c65555549440000000000000000000000000000000000000000000000606482015260840161071b565b5061219f838383612bc0565b600081815260cc602052604090206001810154600290910154106126bd57600081815260cc60205260409020600d01805460ff191660011790556126f3565b600081815260cc60205260409020600401544211156126f357600081815260cc60205260409020600d01805460ff191660021790555b600090815260cc6020526040902042600590910155565b6033546001600160a01b031633146112da5760405162461bcd60e51b815260206004820181905260248201527f4f776e61626c653a2063616c6c6572206973206e6f7420746865206f776e6572604482015260640161071b565b603380546001600160a01b038381166001600160a01b0319831681179093556040519116919082907f8be0079c531659141344cd1fd0a4f28419497f9722a3daafe3b4186f6b6457e090600090a35050565b600054610100900460ff166128215760405162461bcd60e51b815260206004820152602b60248201527f496e697469616c697a61626c653a20636f6e7472616374206973206e6f74206960448201526a6e697469616c697a696e6760a81b606482015260840161071b565b6112da612beb565b600054610100900460ff166112da5760405162461bcd60e51b815260206004820152602b60248201527f496e697469616c697a61626c653a20636f6e7472616374206973206e6f74206960448201526a6e697469616c697a696e6760a81b606482015260840161071b565b600080600283600201546128a89190613778565b90506000805b600c85015481101561292e57600081815260ce60205260408120600c87018054919291849081106128e1576128e1613736565b60009182526020808320909101546001600160a01b0316835282019290925260400190205460ff161561291c57816129188161371d565b9250505b806129268161371d565b9150506128ae565b50101592915050565b600081815260cc6020526040812090600d82015460ff16600281111561295f5761295f612ef0565b146129ac5760405162461bcd60e51b815260206004820152601760248201527f43616d706169676e206973206e6f74206f6e676f696e67000000000000000000604482015260640161071b565b6129b581612894565b612a315760405162461bcd60e51b815260206004820152604160248201527f5265717565737420686173206e6f74206265656e20617070726f76656420627960448201527f20746865207265717569726564206e756d626572206f6620696e766573746f726064820152607360f81b608482015260a40161071b565b60005b600c820154811015612af057600081815260cc6020526040808220600b81015460029091015491516001600160a01b0390911692839183156108fc0291849190818181858888f19350505050158015612a91573d6000803e3d6000fd5b50604080518681526001600160a01b03841660208201529081018290527f6e3c6096795c8298a218b2cfb8bde42726ff7c9a3d27b4d3ba41ab7f74feb5fb9060600160405180910390a150508080612ae89061371d565b915050612a34565b50600d01805460ff1916600117905550565b6001600160a01b0381163b612b7f5760405162461bcd60e51b815260206004820152602d60248201527f455243313936373a206e657720696d706c656d656e746174696f6e206973206e60448201527f6f74206120636f6e747261637400000000000000000000000000000000000000606482015260840161071b565b7f360894a13ba1a3210667c828492db98dca3e2076cc3735a920a3ca505d382bbc80546001600160a01b0319166001600160a01b0392909216919091179055565b612bc983612c5f565b600082511180612bd65750805b1561219f57612be58383612c9f565b50505050565b600054610100900460ff16612c565760405162461bcd60e51b815260206004820152602b60248201527f496e697469616c697a61626c653a20636f6e7472616374206973206e6f74206960448201526a6e697469616c697a696e6760a81b606482015260840161071b565b6112da33612764565b612c6881612b02565b6040516001600160a01b038216907fbc7cd75a20ee27fd9adebab32041f755214dbc6bffa90cc0225b39da2e5c2d3b90600090a250565b6060612cc483836040518060600160405280602781526020016137ca60279139612ccb565b9392505050565b6060600080856001600160a01b031685604051612ce8919061379a565b600060405180830381855af49150503d8060008114612d23576040519150601f19603f3d011682016040523d82523d6000602084013e612d28565b606091505b5091509150612d3986838387612d43565b9695505050505050565b60608315612db2578251600003612dab576001600160a01b0385163b612dab5760405162461bcd60e51b815260206004820152601d60248201527f416464726573733a2063616c6c20746f206e6f6e2d636f6e7472616374000000604482015260640161071b565b5081612dbc565b612dbc8383612dc4565b949350505050565b815115612dd45781518083602001fd5b8060405162461bcd60e51b815260040161071b91906137b6565b604051806101e001604052806000815260200160008152602001600081526020016000815260200160008152602001600081526020016000815260200160608152602001606081526020016060815260200160006001600160a01b0316815260200160006001600160a01b031681526020016060815260200160006002811115612e7a57612e7a612ef0565b8152600060209091015290565b600060208284031215612e9957600080fd5b5035919050565b60005b83811015612ebb578181015183820152602001612ea3565b50506000910152565b60008151808452612edc816020860160208601612ea0565b601f01601f19169290920160200192915050565b634e487b7160e01b600052602160045260246000fd5b60038110610ab257634e487b7160e01b600052602160045260246000fd5b612f2d81612f06565b9052565b8e81528d60208201528c60408201528b60608201528a60808201528960a08201528860c08201526101c060e08201526000612f706101c083018a612ec4565b828103610100840152612f83818a612ec4565b9050828103610120840152612f988189612ec4565b915050612fb16101408301876001600160a01b03169052565b6001600160a01b038516610160830152612fcf610180830185612f24565b8215156101a08301529f9e505050505050505050505050505050565b634e487b7160e01b600052604160045260246000fd5b600067ffffffffffffffff8084111561301c5761301c612feb565b604051601f8501601f19908116603f0116810190828211818310171561304457613044612feb565b8160405280935085815286868601111561305d57600080fd5b858560208301376000602087830101525050509392505050565b600082601f83011261308857600080fd5b612cc483833560208501613001565b600080604083850312156130aa57600080fd5b823567ffffffffffffffff808211156130c257600080fd5b6130ce86838701613077565b935060208501359150808211156130e457600080fd5b506130f185828601613077565b9150509250929050565b60008060006060848603121561311057600080fd5b833567ffffffffffffffff8082111561312857600080fd5b61313487838801613077565b9450602086013591508082111561314a57600080fd5b5061315786828701613077565b92505060408401356003811061316c57600080fd5b809150509250925092565b80356001600160a01b038116811461318e57600080fd5b919050565b6000602082840312156131a557600080fd5b612cc482613177565b600080604083850312156131c157600080fd5b6131ca83613177565b9150602083013567ffffffffffffffff8111156131e657600080fd5b8301601f810185136131f757600080fd5b6130f185823560208401613001565b600081518084526020808501945080840160005b8381101561323f5781516001600160a01b03168752958201959082019060010161321a565b509495945050505050565b600081518084526020808501945080840160005b8381101561323f5781518752958201959082019060010161325e565b60408152600061328d6040830185613206565b828103602084015261329f818561324a565b95945050505050565b600080600080600060a086880312156132c057600080fd5b8535945060208601359350604086013567ffffffffffffffff808211156132e657600080fd5b6132f289838a01613077565b9450606088013591508082111561330857600080fd5b61331489838a01613077565b9350608088013591508082111561332a57600080fd5b5061333788828901613077565b9150509295509295909350565b6000806040838503121561335757600080fd5b50508035926020909101359150565b60006020808301818452808551808352604092508286019150828160051b87010184880160005b838110156134b857888303603f1901855281518051845287810151888501528681015187850152606080820151908501526080808201519085015260a0808201519085015260c0808201519085015260e0808201516101e082870181905291906133f983880182612ec4565b9250505061010080830151868303828801526134158382612ec4565b9250505061012080830151868303828801526134318382612ec4565b9250505061014080830151613450828801826001600160a01b03169052565b5050610160828101516001600160a01b031690860152610180808301518683038288015261347e8382613206565b925050506101a08083015161349582880182612f24565b50506101c09182015115159490910193909352938601939086019060010161338d565b509098975050505050505050565b60a0815260006134d960a0830188612ec4565b82810360208401526134eb8188612ec4565b9150506134f785612f06565b8460408301526001600160a01b038416606083015282151560808301529695505050505050565b602081526000612cc46020830184613206565b602081526000612cc4602083018461324a565b600181811c9082168061355857607f821691505b602082108103611e3557634e487b7160e01b600052602260045260246000fd5b600080835461358681613544565b6001828116801561359e57600181146135b3576135e2565b60ff19841687528215158302870194506135e2565b8760005260208060002060005b858110156135d95781548a8201529084019082016135c0565b50505082870194505b50929695505050505050565b601f82111561219f57600081815260208120601f850160051c810160208610156136155750805b601f850160051c820191505b81811015610f2b57828155600101613621565b815167ffffffffffffffff81111561364e5761364e612feb565b6136628161365c8454613544565b846135ee565b602080601f831160018114613697576000841561367f5750858301515b600019600386901b1c1916600185901b178555610f2b565b600085815260208120601f198616915b828110156136c6578886015182559484019460019091019084016136a7565b50858210156136e45787850151600019600388901b60f8161c191681555b5050505050600190811b01905550565b634e487b7160e01b600052601160045260246000fd5b808201808211156106c8576106c86136f4565b60006001820161372f5761372f6136f4565b5060010190565b634e487b7160e01b600052603260045260246000fd5b818103818111156106c8576106c86136f4565b60006020828403121561377157600080fd5b5051919050565b60008261379557634e487b7160e01b600052601260045260246000fd5b500490565b600082516137ac818460208701612ea0565b9190910192915050565b602081526000612cc46020830184612ec456fe416464726573733a206c6f772d6c6576656c2064656c65676174652063616c6c206661696c6564a164736f6c6343000812000a",
  "linkReferences": {},
  "deployedLinkReferences": {}
}