{
  "_format": "hh-sol-artifact-1",
  "contractName": "CampaignRegistry",
  "sourceName": "contracts/CampaignRegistry.sol",
  "abi": [
    {
      "anonymous": false,
      "inputs": [
        {
          "indexed": false,
          "internalType": "address",
          "name": "previousAdmin",
          "type": "address"
        },
        {
          "indexed": false,
          "internalType": "address",
          "name": "newAdmin",
          "type": "address"
        }
      ],
      "name": "AdminChanged",
      "type": "event"
    },
    {
      "anonymous": false,
      "inputs": [
        {
          "indexed": true,
          "internalType": "address",
          "name": "beacon",
          "type": "address"
        }
      ],
      "name": "BeaconUpgraded",
      "type": "event"
    },
    {
      "anonymous": false,
      "inputs": [
        {
          "indexed": false,
          "internalType": "uint256",
          "name": "campaignId",
          "type": "uint256"
        },
        {
          "indexed": false,
          "internalType": "address",
          "name": "entrepreneur",
          "type": "address"
        },
        {
          "indexed": false,
          "internalType": "uint256",
          "name": "targetAmount",
          "type": "uint256"
        },
        {
          "indexed": false,
          "internalType": "uint256",
          "name": "deadline",
          "type": "uint256"
        }
      ],
      "name": "CampaignCreated",
      "type": "event"
    },
    {
      "anonymous": false,
      "inputs": [
        {
          "indexed": false,
          "internalType": "uint256",
          "name": "campaignId",
          "type": "uint256"
        },
        {
          "indexed": false,
          "internalType": "address",
          "name": "investor",
          "type": "address"
        },
        {
          "indexed": false,
          "internalType": "uint256",
          "name": "amount",
          "type": "uint256"
        }
      ],
      "name": "ContributionMade",
      "type": "event"
    },
    {
      "anonymous": false,
      "inputs": [
        {
          "indexed": false,
          "internalType": "uint256",
          "name": "campaignId",
          "type": "uint256"
        }
      ],
      "name": "FundReleaseDeclined",
      "type": "event"
    },
    {
      "anonymous": false,
      "inputs": [
        {
          "indexed": false,
          "internalType": "uint256",
          "name": "campaignId",
          "type": "uint256"
        }
      ],
      "name": "FundsReceived",
      "type": "event"
    },
    {
      "anonymous": false,
      "inputs": [
        {
          "indexed": false,
          "internalType": "uint256",
          "name": "campaignId",
          "type": "uint256"
        },
        {
          "indexed": false,
          "internalType": "address",
          "name": "vendor",
          "type": "address"
        },
        {
          "indexed": false,
          "internalType": "uint256",
          "name": "amount",
          "type": "uint256"
        }
      ],
      "name": "FundsReleased",
      "type": "event"
    },
    {
      "anonymous": false,
      "inputs": [
        {
          "indexed": false,
          "internalType": "uint256",
          "name": "campaignId",
          "type": "uint256"
        },
        {
          "indexed": false,
          "internalType": "address",
          "name": "investor",
          "type": "address"
        }
      ],
      "name": "FundsWithdrawn",
      "type": "event"
    },
    {
      "anonymous": false,
      "inputs": [
        {
          "indexed": false,
          "internalType": "uint8",
          "name": "version",
          "type": "uint8"
        }
      ],
      "name": "Initialized",
      "type": "event"
    },
    {
      "anonymous": false,
      "inputs": [
        {
          "indexed": true,
          "internalType": "address",
          "name": "previousOwner",
          "type": "address"
        },
        {
          "indexed": true,
          "internalType": "address",
          "name": "newOwner",
          "type": "address"
        }
      ],
      "name": "OwnershipTransferred",
      "type": "event"
    },
    {
      "anonymous": false,
      "inputs": [
        {
          "indexed": false,
          "internalType": "uint256",
          "name": "campaignId",
          "type": "uint256"
        },
        {
          "indexed": false,
          "internalType": "address",
          "name": "investor",
          "type": "address"
        }
      ],
      "name": "RequestApproved",
      "type": "event"
    },
    {
      "anonymous": false,
      "inputs": [
        {
          "indexed": false,
          "internalType": "uint256",
          "name": "campaignId",
          "type": "uint256"
        },
        {
          "indexed": false,
          "internalType": "uint256",
          "name": "requestAmount",
          "type": "uint256"
        }
      ],
      "name": "RequestCreated",
      "type": "event"
    },
    {
      "anonymous": false,
      "inputs": [
        {
          "indexed": true,
          "internalType": "address",
          "name": "implementation",
          "type": "address"
        }
      ],
      "name": "Upgraded",
      "type": "event"
    },
    {
      "anonymous": false,
      "inputs": [
        {
          "indexed": false,
          "internalType": "string",
          "name": "email",
          "type": "string"
        },
        {
          "indexed": false,
          "internalType": "bool",
          "name": "verified",
          "type": "bool"
        },
        {
          "indexed": false,
          "internalType": "address",
          "name": "walletAddress",
          "type": "address"
        }
      ],
      "name": "UserRegistered",
      "type": "event"
    },
    {
      "inputs": [
        {
          "internalType": "address",
          "name": "_owner",
          "type": "address"
        },
        {
          "internalType": "uint256",
          "name": "index",
          "type": "uint256"
        }
      ],
      "name": "_campaignOfEntrepreneurByIndex",
      "outputs": [
        {
          "internalType": "uint256",
          "name": "",
          "type": "uint256"
        }
      ],
      "stateMutability": "view",
      "type": "function"
    },
    {
      "inputs": [
        {
          "internalType": "uint256",
          "name": "_campaignId",
          "type": "uint256"
        }
      ],
      "name": "approveFundReleaseRequest",
      "outputs": [],
      "stateMutability": "nonpayable",
      "type": "function"
    },
    {
      "inputs": [
        {
          "internalType": "uint256",
          "name": "",
          "type": "uint256"
        }
      ],
      "name": "campaigns",
      "outputs": [
        {
          "internalType": "uint256",
          "name": "campaignId",
          "type": "uint256"
        },
        {
          "internalType": "uint256",
          "name": "targetAmount",
          "type": "uint256"
        },
        {
          "internalType": "uint256",
          "name": "raisedAmount",
          "type": "uint256"
        },
        {
          "internalType": "uint256",
          "name": "requestAmount",
          "type": "uint256"
        },
        {
          "internalType": "uint256",
          "name": "deadline",
          "type": "uint256"
        },
        {
          "internalType": "uint256",
          "name": "completeAt",
          "type": "uint256"
        },
        {
          "internalType": "uint256",
          "name": "minimumContribution",
          "type": "uint256"
        },
        {
          "internalType": "string",
          "name": "imageUri",
          "type": "string"
        },
        {
          "internalType": "string",
          "name": "campaignTitle",
          "type": "string"
        },
        {
          "internalType": "string",
          "name": "campaignDescription",
          "type": "string"
        },
        {
          "internalType": "address",
          "name": "entrepreneur",
          "type": "address"
        },
        {
          "internalType": "address payable",
          "name": "vendor",
          "type": "address"
        },
        {
          "internalType": "enum ICampaignRegistry.CampaignStatus",
          "name": "status",
          "type": "uint8"
        },
        {
          "internalType": "bool",
          "name": "requestCreated",
          "type": "bool"
        },
        {
          "internalType": "bool",
          "name": "fundsReceived",
          "type": "bool"
        }
      ],
      "stateMutability": "view",
      "type": "function"
    },
    {
      "inputs": [
        {
          "internalType": "uint256",
          "name": "_campaignId",
          "type": "uint256"
        }
      ],
      "name": "confirmFundsReceived",
      "outputs": [],
      "stateMutability": "nonpayable",
      "type": "function"
    },
    {
      "inputs": [
        {
          "internalType": "uint256",
          "name": "_targetAmount",
          "type": "uint256"
        },
        {
          "internalType": "uint256",
          "name": "_deadline",
          "type": "uint256"
        },
        {
          "internalType": "uint256",
          "name": "minimumContribution",
          "type": "uint256"
        },
        {
          "internalType": "string",
          "name": "_imageUri",
          "type": "string"
        },
        {
          "internalType": "string",
          "name": "_campaignTitle",
          "type": "string"
        },
        {
          "internalType": "string",
          "name": "_campaignDescription",
          "type": "string"
        }
      ],
      "name": "createCampaign",
      "outputs": [],
      "stateMutability": "nonpayable",
      "type": "function"
    },
    {
      "inputs": [
        {
          "internalType": "uint256",
          "name": "_campaignId",
          "type": "uint256"
        },
        {
          "internalType": "uint256",
          "name": "_requestAmount",
          "type": "uint256"
        },
        {
          "internalType": "address payable",
          "name": "_vendorAddress",
          "type": "address"
        }
      ],
      "name": "createFundReleaseRequest",
      "outputs": [],
      "stateMutability": "nonpayable",
      "type": "function"
    },
    {
      "inputs": [
        {
          "internalType": "uint256",
          "name": "_campaignId",
          "type": "uint256"
        }
      ],
      "name": "declineFundRelease",
      "outputs": [],
      "stateMutability": "nonpayable",
      "type": "function"
    },
    {
      "inputs": [
        {
          "internalType": "uint256",
          "name": "_campaignId",
          "type": "uint256"
        }
      ],
      "name": "donateToCampaign",
      "outputs": [],
      "stateMutability": "payable",
      "type": "function"
    },
    {
      "inputs": [
        {
          "internalType": "uint256",
          "name": "_campaignId",
          "type": "uint256"
        }
      ],
      "name": "getAllDonations",
      "outputs": [
        {
          "internalType": "uint256[]",
          "name": "",
          "type": "uint256[]"
        }
      ],
      "stateMutability": "view",
      "type": "function"
    },
    {
      "inputs": [
        {
          "internalType": "uint256",
          "name": "_campaignId",
          "type": "uint256"
        }
      ],
      "name": "getAllDonators",
      "outputs": [
        {
          "internalType": "address[]",
          "name": "",
          "type": "address[]"
        }
      ],
      "stateMutability": "view",
      "type": "function"
    },
    {
      "inputs": [
        {
          "internalType": "uint256",
          "name": "_campaignId",
          "type": "uint256"
        }
      ],
      "name": "getCampaignById",
      "outputs": [
        {
          "components": [
            {
              "internalType": "uint256",
              "name": "campaignId",
              "type": "uint256"
            },
            {
              "internalType": "uint256",
              "name": "targetAmount",
              "type": "uint256"
            },
            {
              "internalType": "uint256",
              "name": "raisedAmount",
              "type": "uint256"
            },
            {
              "internalType": "uint256",
              "name": "requestAmount",
              "type": "uint256"
            },
            {
              "internalType": "uint256",
              "name": "deadline",
              "type": "uint256"
            },
            {
              "internalType": "uint256",
              "name": "completeAt",
              "type": "uint256"
            },
            {
              "internalType": "uint256",
              "name": "minimumContribution",
              "type": "uint256"
            },
            {
              "internalType": "string",
              "name": "imageUri",
              "type": "string"
            },
            {
              "internalType": "string",
              "name": "campaignTitle",
              "type": "string"
            },
            {
              "internalType": "string",
              "name": "campaignDescription",
              "type": "string"
            },
            {
              "internalType": "address",
              "name": "entrepreneur",
              "type": "address"
            },
            {
              "internalType": "address payable",
              "name": "vendor",
              "type": "address"
            },
            {
              "internalType": "address[]",
              "name": "investors",
              "type": "address[]"
            },
            {
              "internalType": "enum ICampaignRegistry.CampaignStatus",
              "name": "status",
              "type": "uint8"
            },
            {
              "internalType": "bool",
              "name": "requestCreated",
              "type": "bool"
            },
            {
              "internalType": "bool",
              "name": "fundsReceived",
              "type": "bool"
            }
          ],
          "internalType": "struct ICampaignRegistry.Campaign",
          "name": "",
          "type": "tuple"
        }
      ],
      "stateMutability": "view",
      "type": "function"
    },
    {
      "inputs": [],
      "name": "getCampaigns",
      "outputs": [
        {
          "components": [
            {
              "internalType": "uint256",
              "name": "campaignId",
              "type": "uint256"
            },
            {
              "internalType": "uint256",
              "name": "targetAmount",
              "type": "uint256"
            },
            {
              "internalType": "uint256",
              "name": "raisedAmount",
              "type": "uint256"
            },
            {
              "internalType": "uint256",
              "name": "requestAmount",
              "type": "uint256"
            },
            {
              "internalType": "uint256",
              "name": "deadline",
              "type": "uint256"
            },
            {
              "internalType": "uint256",
              "name": "completeAt",
              "type": "uint256"
            },
            {
              "internalType": "uint256",
              "name": "minimumContribution",
              "type": "uint256"
            },
            {
              "internalType": "string",
              "name": "imageUri",
              "type": "string"
            },
            {
              "internalType": "string",
              "name": "campaignTitle",
              "type": "string"
            },
            {
              "internalType": "string",
              "name": "campaignDescription",
              "type": "string"
            },
            {
              "internalType": "address",
              "name": "entrepreneur",
              "type": "address"
            },
            {
              "internalType": "address payable",
              "name": "vendor",
              "type": "address"
            },
            {
              "internalType": "address[]",
              "name": "investors",
              "type": "address[]"
            },
            {
              "internalType": "enum ICampaignRegistry.CampaignStatus",
              "name": "status",
              "type": "uint8"
            },
            {
              "internalType": "bool",
              "name": "requestCreated",
              "type": "bool"
            },
            {
              "internalType": "bool",
              "name": "fundsReceived",
              "type": "bool"
            }
          ],
          "internalType": "struct ICampaignRegistry.Campaign[]",
          "name": "",
          "type": "tuple[]"
        }
      ],
      "stateMutability": "view",
      "type": "function"
    },
    {
      "inputs": [
        {
          "internalType": "address",
          "name": "_entrepreneur",
          "type": "address"
        }
      ],
      "name": "getCampaignsByEntrepreneur",
      "outputs": [
        {
          "components": [
            {
              "internalType": "uint256",
              "name": "campaignId",
              "type": "uint256"
            },
            {
              "internalType": "uint256",
              "name": "targetAmount",
              "type": "uint256"
            },
            {
              "internalType": "uint256",
              "name": "raisedAmount",
              "type": "uint256"
            },
            {
              "internalType": "uint256",
              "name": "requestAmount",
              "type": "uint256"
            },
            {
              "internalType": "uint256",
              "name": "deadline",
              "type": "uint256"
            },
            {
              "internalType": "uint256",
              "name": "completeAt",
              "type": "uint256"
            },
            {
              "internalType": "uint256",
              "name": "minimumContribution",
              "type": "uint256"
            },
            {
              "internalType": "string",
              "name": "imageUri",
              "type": "string"
            },
            {
              "internalType": "string",
              "name": "campaignTitle",
              "type": "string"
            },
            {
              "internalType": "string",
              "name": "campaignDescription",
              "type": "string"
            },
            {
              "internalType": "address",
              "name": "entrepreneur",
              "type": "address"
            },
            {
              "internalType": "address payable",
              "name": "vendor",
              "type": "address"
            },
            {
              "internalType": "address[]",
              "name": "investors",
              "type": "address[]"
            },
            {
              "internalType": "enum ICampaignRegistry.CampaignStatus",
              "name": "status",
              "type": "uint8"
            },
            {
              "internalType": "bool",
              "name": "requestCreated",
              "type": "bool"
            },
            {
              "internalType": "bool",
              "name": "fundsReceived",
              "type": "bool"
            }
          ],
          "internalType": "struct ICampaignRegistry.Campaign[]",
          "name": "",
          "type": "tuple[]"
        }
      ],
      "stateMutability": "view",
      "type": "function"
    },
    {
      "inputs": [
        {
          "internalType": "uint256",
          "name": "_campaignId",
          "type": "uint256"
        }
      ],
      "name": "getInvestorDonations",
      "outputs": [
        {
          "internalType": "address[]",
          "name": "",
          "type": "address[]"
        },
        {
          "internalType": "uint256[]",
          "name": "",
          "type": "uint256[]"
        }
      ],
      "stateMutability": "view",
      "type": "function"
    },
    {
      "inputs": [
        {
          "internalType": "address",
          "name": "_investor",
          "type": "address"
        }
      ],
      "name": "getTotalCampaignsByInvestor",
      "outputs": [
        {
          "internalType": "uint256",
          "name": "",
          "type": "uint256"
        }
      ],
      "stateMutability": "view",
      "type": "function"
    },
    {
      "inputs": [
        {
          "internalType": "address",
          "name": "_walltetAddress",
          "type": "address"
        }
      ],
      "name": "getUserByAddress",
      "outputs": [
        {
          "components": [
            {
              "internalType": "string",
              "name": "email",
              "type": "string"
            },
            {
              "internalType": "string",
              "name": "password",
              "type": "string"
            },
            {
              "internalType": "enum ICampaignRegistry.Category",
              "name": "category",
              "type": "uint8"
            },
            {
              "internalType": "address",
              "name": "walletAddress",
              "type": "address"
            },
            {
              "internalType": "bool",
              "name": "verified",
              "type": "bool"
            }
          ],
          "internalType": "struct ICampaignRegistry.User",
          "name": "",
          "type": "tuple"
        }
      ],
      "stateMutability": "view",
      "type": "function"
    },
    {
      "inputs": [],
      "name": "initialize",
      "outputs": [],
      "stateMutability": "nonpayable",
      "type": "function"
    },
    {
      "inputs": [
        {
          "internalType": "uint256",
          "name": "_campaignId",
          "type": "uint256"
        }
      ],
      "name": "isRequestApprovedOrDeclined",
      "outputs": [
        {
          "internalType": "bool",
          "name": "",
          "type": "bool"
        }
      ],
      "stateMutability": "view",
      "type": "function"
    },
    {
      "inputs": [
        {
          "internalType": "string",
          "name": "_email",
          "type": "string"
        },
        {
          "internalType": "string",
          "name": "_password",
          "type": "string"
        }
      ],
      "name": "loginUser",
      "outputs": [
        {
          "internalType": "bool",
          "name": "",
          "type": "bool"
        }
      ],
      "stateMutability": "view",
      "type": "function"
    },
    {
      "inputs": [
        {
          "internalType": "uint256",
          "name": "_campaignId",
          "type": "uint256"
        }
      ],
      "name": "makeCampaignExpired",
      "outputs": [],
      "stateMutability": "nonpayable",
      "type": "function"
    },
    {
      "inputs": [],
      "name": "owner",
      "outputs": [
        {
          "internalType": "address",
          "name": "",
          "type": "address"
        }
      ],
      "stateMutability": "view",
      "type": "function"
    },
    {
      "inputs": [],
      "name": "proxiableUUID",
      "outputs": [
        {
          "internalType": "bytes32",
          "name": "",
          "type": "bytes32"
        }
      ],
      "stateMutability": "view",
      "type": "function"
    },
    {
      "inputs": [
        {
          "internalType": "string",
          "name": "_email",
          "type": "string"
        },
        {
          "internalType": "string",
          "name": "_password",
          "type": "string"
        },
        {
          "internalType": "enum ICampaignRegistry.Category",
          "name": "_category",
          "type": "uint8"
        }
      ],
      "name": "registerUser",
      "outputs": [],
      "stateMutability": "nonpayable",
      "type": "function"
    },
    {
      "inputs": [
        {
          "internalType": "uint256",
          "name": "_campaignId",
          "type": "uint256"
        }
      ],
      "name": "releaseFundsToVendors",
      "outputs": [],
      "stateMutability": "nonpayable",
      "type": "function"
    },
    {
      "inputs": [],
      "name": "renounceOwnership",
      "outputs": [],
      "stateMutability": "nonpayable",
      "type": "function"
    },
    {
      "inputs": [
        {
          "internalType": "address",
          "name": "newOwner",
          "type": "address"
        }
      ],
      "name": "transferOwnership",
      "outputs": [],
      "stateMutability": "nonpayable",
      "type": "function"
    },
    {
      "inputs": [
        {
          "internalType": "address",
          "name": "newImplementation",
          "type": "address"
        }
      ],
      "name": "upgradeTo",
      "outputs": [],
      "stateMutability": "nonpayable",
      "type": "function"
    },
    {
      "inputs": [
        {
          "internalType": "address",
          "name": "newImplementation",
          "type": "address"
        },
        {
          "internalType": "bytes",
          "name": "data",
          "type": "bytes"
        }
      ],
      "name": "upgradeToAndCall",
      "outputs": [],
      "stateMutability": "payable",
      "type": "function"
    },
    {
      "inputs": [
        {
          "internalType": "address",
          "name": "",
          "type": "address"
        }
      ],
      "name": "users",
      "outputs": [
        {
          "internalType": "string",
          "name": "email",
          "type": "string"
        },
        {
          "internalType": "string",
          "name": "password",
          "type": "string"
        },
        {
          "internalType": "enum ICampaignRegistry.Category",
          "name": "category",
          "type": "uint8"
        },
        {
          "internalType": "address",
          "name": "walletAddress",
          "type": "address"
        },
        {
          "internalType": "bool",
          "name": "verified",
          "type": "bool"
        }
      ],
      "stateMutability": "view",
      "type": "function"
    },
    {
      "inputs": [
        {
          "internalType": "uint256",
          "name": "_campaignId",
          "type": "uint256"
        }
      ],
      "name": "withdrawFunds",
      "outputs": [],
      "stateMutability": "nonpayable",
      "type": "function"
    }
  ],
  "bytecode": "0x60a080604052346100315730608052613dc390816100378239608051818181610ba501528181610e560152610fbd0152f35b600080fdfe6080604052600436101561001257600080fd5b60003560e01c8063141961bc146101f7578063155dd5ee146101f25780631ad417bf146101ed57806322ce12e5146101e857806324777746146101e35780632e17a931146101de5780633659cfe6146101d957806342a4fda8146101d45780634f1ef286146101cf57806352d1902d146101ca57806367c2cbad146101c557806369c212f6146101c05780636aaa4e28146101bb57806370debcf7146101b6578063715018a6146101b157806373f13016146101ac57806374c49fd5146101a75780638129fc1c146101a25780638da5cb5b1461019d5780638e5baa6214610198578063a6b0363314610193578063a7247cd91461018e578063a87430ba14610189578063ae1f680214610184578063e27883fb1461017f578063e6ffcaa11461017a578063edc2305a14610175578063efb8018314610170578063f2fde38b1461016b5763ffa676d11461016657600080fd5b61235d565b6122a4565b6121f6565b6121b6565b612081565b61202d565b611ed9565b611e32565b611ca9565b611b2a565b61194e565b611927565b611841565b6116a4565b611551565b6114f2565b61139a565b611319565b61125a565b61110f565b610fa2565b610e00565b610d18565b610b7c565b610a0b565b6109bd565b61094b565b61079f565b610565565b61049a565b90600182811c9216801561022c575b602083101461021657565b634e487b7160e01b600052602260045260246000fd5b91607f169161020b565b634e487b7160e01b600052604160045260246000fd5b60a0810190811067ffffffffffffffff82111761026857604052565b610236565b6020810190811067ffffffffffffffff82111761026857604052565b6060810190811067ffffffffffffffff82111761026857604052565b90601f8019910116810190811067ffffffffffffffff82111761026857604052565b90604051918260008254926102db846101fc565b90818452600194858116908160001461034a5750600114610307575b5050610305925003836102a5565b565b9093915060005260209081600020936000915b818310610332575050610305935082010138806102f7565b8554888401850152948501948794509183019161031a565b91505061030594506020925060ff191682840152151560051b82010138806102f7565b919082519283825260005b848110610399575050826000602080949584010152601f8019910116010190565b602081830181015184830182015201610378565b600311156103b757565b634e487b7160e01b600052602160045260246000fd5b906103d7826103ad565b52565b9a9f9e9c969861043b6103059f9a996104889a6101c09f988f6104929f979b60c09261046c9b6104599b61047d9f61044a9b8652602086015260408501526060840152608083015260a082015201528d6101e0908160e0820152019061036d565b8c81036101008e01529061036d565b908a82036101208c015261036d565b6001600160a01b03909d16610140890152565b6001600160a01b0316610160870152565b6101808501906103cd565b15156101a0830152565b019015159052565b346105605760203660031901126105605760043560005260cc602052604060002080549060018101546002820154906003830154926004810154946005820154916006810154600782016104ed906102c7565b6104f9600884016102c7565b610505600985016102c7565b91600a85015461051b906001600160a01b031690565b93600b860154610531906001600160a01b031690565b95600d0154976040519c8d9c8d9c8b60101c60ff169c8c60081c60ff169c60ff169b61055c9f6103da565b0390f35b600080fd5b346105605760203660031901126105605760043560009033825260cb60205261059a60ff600260408520015460a81c16612e4b565b6105a760c954821061303f565b33825260cb6020526105ce600160ff6002604086200154166105c8816103ad565b14612ea3565b818080806105e68560005260cc602052604060002090565b610621610619336106018960005260cd602052604060002090565b906001600160a01b0316600052602052604060002090565b54151561397f565b6106436002610634600d84015460ff1690565b61063d816103ad565b146139f1565b61065260048201544211613a3d565b600261066c336106018960005260cd602052604060002090565b549161067f610679613aaf565b84613d5e565b83610698336106018b60005260cd602052604060002090565b55016106a5828254613032565b90558181156106f7575b3390f1156106f257604080519182523360208301527f6141b54b56b8a52a8c6f5cd2a857f6117b18ffbf4d46bd3106f300a839cbf5ea9190819081015b0390a180f35b61258f565b506108fc6106af565b604051906103058261024c565b60405190610200820182811067ffffffffffffffff82111761026857604052565b67ffffffffffffffff811161026857601f01601f191660200190565b9291926107568261072e565b9161076460405193846102a5565b829481845281830111610560578281602093846000960137010152565b9080601f830112156105605781602061079c9335910161074a565b90565b346105605760c03660031901126105605767ffffffffffffffff602435600435606435838111610560576107d7903690600401610781565b92608435818111610560576107f0903690600401610781565b9060a43590811161056057610809903690600401610781565b908360009533875260cb602052604087206002015460a81c60ff1661082d90612e4b565b33875260cb602052604087206002015460ff16610849816103ad565b1561085390612ea3565b61085e851515612f15565b60c954936108768560005260cc602052604060002090565b9360048501928354421161088990612f87565b868655600a860180546001600160a01b0319163317905587600187015560078601906108b491612af9565b6108c19060088601612af9565b6108ce9060098501612af9565b556044356006820155600d01805460ff1916905560c9546108ee9061300f565b60c9556108fb9033613cd5565b60c95461090790613023565b6040805191825233602083015281019190915260608101919091527f91b289a829e71d811b8c69e4a24ba2d40d115d8a236e9a724cb3bb2d43cf722390608090a180f35b346105605760403660031901126105605767ffffffffffffffff6004358181116105605761097d903690600401610781565b906024359081116105605760209161099c6109a2923690600401610781565b90612dcb565b6040519015158152f35b6001600160a01b0381160361056057565b34610560576040366003190112610560576001600160a01b036004356109e2816109ac565b1660005260cf60205260206109fd6024356040600020613282565b90546040519160031b1c8152f35b346105605760603660031901126105605767ffffffffffffffff60043581811161056057610a3d903690600401610781565b9060243590811161056057610a56903690600401610781565b60443591600383101561056057805115610b3757610b2482610b037f427b59b30d98f86c6e6670da78cff4cbaa374e6642ff6d038faa43cbb5fd8de395610aa2610b32965115156129b8565b610aad331515612a04565b610ae9610ae4610ae06002610ad5336001600160a01b031660005260cb602052604060002090565b015460a81c60ff1690565b1590565b612a50565b610af1610700565b92858452602084015260408301612a9c565b3360608201526001608082015233600090815260cb60205260409020612be0565b604051918291339083612d9d565b0390a1005b60405162461bcd60e51b815260206004820152601560248201527f456d61696c2063616e6e6f7420626520656d70747900000000000000000000006044820152606490fd5b3461056057602036600319011261056057600435610b99816109ac565b6001600160a01b0390817f00000000000000000000000000000000000000000000000000000000000000001691610bd28330141561249c565b610c017f360894a13ba1a3210667c828492db98dca3e2076cc3735a920a3ca505d382bbc93828554161461250e565b60405190610c0e8261026d565b600082527f4910fdfa16fed3260ed0e7147f7cc6da11a60208b5b9406d12a635614ffd91435460ff1615610c4a575050610c48915061260d565b005b6020600491604094939451928380926352d1902d60e01b825286165afa60009181610ce8575b50610cd55760405162461bcd60e51b815260206004820152602e60248201527f45524331393637557067726164653a206e657720696d706c656d656e7461746960448201526d6f6e206973206e6f74205555505360901b6064820152608490fd5b0390fd5b610c4893610ce3911461259b565b6126bb565b610d0a91925060203d8111610d11575b610d0281836102a5565b810190612580565b9038610c70565b503d610cf8565b6020806003193601126105605760043560009133835260cb8152610d4860ff600260408620015460a81c16612e4b565b610d5560c954831061303f565b33835260cb8152610d75600160ff6002604087200154166105c8816103ad565b81835260cc8152610d9960ff600d60408620015416610d93816103ad565b1561308b565b81835260cc81526004604084200154421015610dbc5750610db9906132e0565b80f35b6064906040519062461bcd60e51b82526004820152601560248201527f446561646c696e652068617320706173736564202100000000000000000000006044820152fd5b604036600319011261056057600435610e18816109ac565b60243567ffffffffffffffff8111610560573660238201121561056057610e4990369060248160040135910161074a565b906001600160a01b0391827f00000000000000000000000000000000000000000000000000000000000000001692610e838430141561249c565b610eb27f360894a13ba1a3210667c828492db98dca3e2076cc3735a920a3ca505d382bbc94828654161461250e565b7f4910fdfa16fed3260ed0e7147f7cc6da11a60208b5b9406d12a635614ffd91435460ff1615610ee8575050610c48915061260d565b6020600491604094939451928380926352d1902d60e01b825286165afa60009181610f82575b50610f6f5760405162461bcd60e51b815260206004820152602e60248201527f45524331393637557067726164653a206e657720696d706c656d656e7461746960448201526d6f6e206973206e6f74205555505360901b6064820152608490fd5b610c4893610f7d911461259b565b6127b6565b610f9b91925060203d8111610d1157610d0281836102a5565b9038610f0e565b34610560576000366003190112610560576001600160a01b037f000000000000000000000000000000000000000000000000000000000000000016300361100e576040517f360894a13ba1a3210667c828492db98dca3e2076cc3735a920a3ca505d382bbc8152602090f35b60405162461bcd60e51b815260206004820152603860248201527f555550535570677261646561626c653a206d757374206e6f742062652063616c60448201527f6c6564207468726f7567682064656c656761746563616c6c00000000000000006064820152608490fd5b90815180825260208080930193019160005b828110611099575050505090565b83516001600160a01b03168552938101939281019260010161108b565b90815180825260208080930193019160005b8281106110d6575050505090565b8351855293810193928101926001016110c8565b909161110161079c93604084526040840190611079565b9160208184039101526110b6565b34610560576020366003190112610560576004358060005260cc602052600c60406000200190815461114081613427565b9161114e60405193846102a5565b818352601f1961115d83613427565b0136602085013761116d8261343f565b9360005b838110611187576040518061055c8888836110ea565b806111de6111ae61119b6111ef9486613282565b90546001600160a01b039160031b1c1690565b6111ca816111bc858b613471565b906001600160a01b03169052565b6106018660005260cd602052604060002090565b546111e98289613471565b5261300f565b611171565b6020815260a0608061122a611214855184602087015260c086019061036d565b6020860151858203601f1901604087015261036d565b936040810151611239816103ad565b60608501526001600160a01b03606082015116828501520151151591015290565b346105605760203660031901126105605761055c60043561127a816109ac565b604060006080825161128b8161024c565b6060815260606020820152828482015282606082015201526001600160a01b0380921660005260cb60205260ff816000209260028351946112cb8661024c565b6112d4816102c7565b86526112e2600182016102c7565b60208701520154908282166112f6816103ad565b848601528160081c16606085015260a81c161515608083015251918291826111f4565b346105605760203660031901126105605761055c6113886004353360005260cb60205261135360ff60026040600020015460a81c16612e4b565b61136060c954821061303f565b3360005260cb602052611383600160ff600260406000200154166105c8816103ad565b613af9565b60405190151581529081906020820190565b34610560576060366003190112610560576044357f99f063607b2d9f794eb8985daf4a0d3224e73b48e43228a183329e415dff077e6024356004356113de846109ac565b6114d960009433865260cb60205261140260ff600260408920015460a81c16612e4b565b61140f60c954841061303f565b33865260cb60205261143460ff60026040892001541661142e816103ad565b15612ea3565b82865260cc602052600b604087206114bd600d820161149860ff82546114676001838316611461816103ad565b14613697565b61148e336001600160a01b03611487600a8a01546001600160a01b031690565b16146136e3565b60081c1615613755565b6114a860028401548911156137c7565b87600384015561010061ff0019825416179055565b01906001600160a01b03166001600160a01b0319825416179055565b60408051918252602082019290925290819081016106ec565b346105605760008060031936011261154e5761150c6123fc565b806001600160a01b036033546001600160a01b03198116603355167f8be0079c531659141344cd1fd0a4f28419497f9722a3daafe3b4186f6b6457e08280a380f35b80fd5b34610560576020806003193601126105605760043560009133835260cb815260409061158860ff6002848720015460a81c16612e4b565b61159560c954841061303f565b33845260cb81526115b4600160ff60028588200154166105c8816103ad565b82845260cc81528184209060cd81526115e233848720906001600160a01b0316600052602052604060002090565b54156116555750916106ec9161162260ff600d7fbb447f2506f46702f313360e42b26bacac341b607c973ef8fe11ee7eb901bea196015460081c16613839565b61164761163d336106018560005260ce602052604060002090565b805460ff19169055565b519081529081906020820190565b60849083519062461bcd60e51b825260048201526024808201527f4f6e6c7920696e766573746f72732063616e206465636c696e652061207265716044820152631d595cdd60e21b6064820152fd5b346105605760203660031901126105605760043560009033825260cb6020526116d960ff600260408520015460a81c16612e4b565b6116e660c954821061303f565b33825260cb60205261170560ff60026040852001541661142e816103ad565b6117198160005260cc602052604060002090565b90600d820190611738600161172f845460ff1690565b611461816103ad565b61174961174482613c53565b613903565b61177f611773600b6117658460005260cc602052604060002090565b01546001600160a01b031690565b6001600160a01b031690565b91600260036117988460005260cc602052604060002090565b015494016117a7858254613032565b905584808080876117ca611773600b6117658a60005260cc602052604060002090565b828215611838575bf1156106f257805460ff191660011790557f6e3c6096795c8298a218b2cfb8bde42726ff7c9a3d27b4d3ba41ab7f74feb5fb926106ec9061181283613b2e565b604051938493846001600160a01b03604092959493606083019683521660208201520152565b506108fc6117d2565b346105605760008060031936011261154e57805461187660ff8260081c161580928193611919575b81156118f9575b506128a4565b80611889600160ff196000541617600055565b6118e0575b611896612916565b61189d5780f35b6118ad61ff001960005416600055565b604051600181527f7f26b83ff96e1f2b6a682f133852f6798a09c465da95921460cefb38474024989080602081016106ec565b6118f461010061ff00196000541617600055565b61188e565b303b1591508161190b575b5038611870565b6001915060ff161438611904565b600160ff8216109150611869565b346105605760003660031901126105605760206001600160a01b0360335416604051908152f35b34610560576020806003193601126105605760043561196c816109ac565b60c954600091825b82811061198657505050604051908152f35b600081815260cd865260408082206001600160a01b03851683526020529020546119b9575b6119b49061300f565b611974565b926119c66119b49161300f565b9390506119ab565b9061079c90825181526020830151602082015260408301516040820152606083015160608201526080830151608082015260a083015160a082015260c083015160c0820152611a99611a5d611a49611a3560e08701516102008060e088015286019061036d565b61010080880151908683039087015261036d565b61012080870151908583039086015261036d565b610140858101516001600160a01b031690840152610160858101516001600160a01b031690840152610180808601519084830390850152611079565b92611aad6101a080830151908401906103cd565b6101c0818101511515908301526101e0908101511515910152565b602080820190808352835180925260408301928160408460051b8301019501936000915b848310611afc5750505050505090565b9091929394958480611b1a600193603f198682030187528a516119ce565b9801930193019194939290611aec565b346105605760008060031936011261154e5760c954611b4881613552565b90825b818110611b60576040518061055c8582611ac8565b80845260209060cc82526040611c8d611c7f828820611b7d61070d565b938154855260019687830154908601526002820154908501526003810154606085015260048101546080850152600581015460a0850152600681015460c0850152611bca600782016102c7565b60e0850152600d600891611bdf8382016102c7565b610100870152611bf1600982016102c7565b610120870152611c1f611c0e600a8301546001600160a01b031690565b6001600160a01b0316610140880152565b611c47611c36600b8301546001600160a01b031690565b6001600160a01b0316610160880152565b611c53600c8201613485565b610180870152015491829160ff938491611c738383166101a08a01612a9c565b1c1615156101c0860152565b60101c1615156101e0830152565b611c978286613471565b52611ca28185613471565b5001611b4b565b34610560576020806003193601126105605760043560009133835260cb8152604090611ce060ff6002848720015460a81c16612e4b565b611ced60c954841061303f565b33845260cb8152611d0c600160ff60028588200154166105c8816103ad565b82845260cc81528184209060cd8152611d3a33848720906001600160a01b0316600052602052604060002090565b5415611de35750916106ec91611d7a60ff600d7ff3dc904660a0ea05aba8dfa1e21fbc4fb2914be2a3029da7b0fdd3e5eee20ddb96015460081c16613839565b611da7611da2610ae0611d9b336106018760005260ce602052604060002090565b5460ff1690565b613891565b611dcf611dc2336106018560005260ce602052604060002090565b805460ff19166001179055565b519081523360208201529081906040820190565b60849083519062461bcd60e51b825260048201526024808201527f4f6e6c7920696e766573746f72732063616e20617070726f76652061207265716044820152631d595cdd60e21b6064820152fd5b3461056057602036600319011261056057611ea3600435611e52816109ac565b6001600160a01b0380911660005260cb602052604060002060ff611e75826102c7565b926002611e84600185016102c7565b93015490611eb18383169460405197889760a0895260a089019061036d565b90878203602089015261036d565b93611ebb816103ad565b60408601528160081c16606085015260a81c16151560808301520390f35b346105605760203660031901126105605760043560009033825260cb602052611f0e60ff600260408520015460a81c16612e4b565b611f1b60c954821061303f565b33825260cb602052611f3b600260ff81604086200154166105c8816103ad565b80825260cc60205260408220336001600160a01b03600b8301541603611fc2577fbcdc7071c1beb6dcf2744621e0b29a2f2432ee20812d9ca5e3d5e8f9308d93a391611fb2600d6106ec9301611fa1611f9c610ae0835460ff9060101c1690565b6131ed565b805462ff0000191662010000179055565b6040519081529081906020820190565b60405162461bcd60e51b815260206004820152603460248201527f4f6e6c79207468652063616d706169676e2076656e646f722063616e20636f6e60448201527f6669726d2066756e64732072656365697665642e0000000000000000000000006064820152608490fd5b346105605760203660031901126105605760043560005260cc60205261055c61205c600c604060002001613485565b604051918291602083526020830190611079565b90602061079c9281815201906119ce565b346105605760203660031901126105605761209a6134dd565b5060043560005260cc60205261055c60406000206121aa60ff600d6120bd61070d565b938054855260018101546020860152600281015460408601526003810154606086015260048101546080860152600581015460a0860152600681015460c086015261210a600782016102c7565b60e086015261211b600882016102c7565b61010086015261212d600982016102c7565b61012086015261215b61214a600a8301546001600160a01b031690565b6001600160a01b0316610140870152565b61217261046c600b8301546001600160a01b031690565b61217e600c8201613485565b61018086015201546121968282166101a08601612a9c565b600881901c821615156101c0850152611c7f565b60405191829182612070565b346105605760203660031901126105605760043560005260cc602052600d60406000206121e860048201544211613a3d565b01805460ff19166002179055005b3461056057602080600319360112610560576001600160a01b0360043561221c816109ac565b1660009181835260cf90818152604091828520549161223a83613552565b94865b8481106122515785518061055c8982611ac8565b60019082895284845261228861228361226c838a8d20613282565b90549060031b1c60005260cc602052604060002090565b6135a2565b612292828a613471565b5261229d8189613471565b500161223d565b34610560576020366003190112610560576004356122c1816109ac565b6122c96123fc565b6001600160a01b038116156122e157610c4890612454565b60405162461bcd60e51b815260206004820152602660248201527f4f776e61626c653a206e6577206f776e657220697320746865207a65726f206160448201527f64647265737300000000000000000000000000000000000000000000000000006064820152608490fd5b90602061079c9281815201906110b6565b34610560576020806003193601126105605760043560009181835260cc8152604092600c84822001928354926123928461343f565b94835b8581106123a95787518061055c898261234c565b806123ec6001600160a01b036123c26123f79486613282565b905490888a5260cd885260031b1c168a8820906001600160a01b0316600052602052604060002090565b546111e9828a613471565b612395565b6001600160a01b0360335416330361241057565b606460405162461bcd60e51b815260206004820152602060248201527f4f776e61626c653a2063616c6c6572206973206e6f7420746865206f776e65726044820152fd5b603354906001600160a01b0380911691826001600160a01b0319821617603355167f8be0079c531659141344cd1fd0a4f28419497f9722a3daafe3b4186f6b6457e0600080a3565b156124a357565b60405162461bcd60e51b815260206004820152602c60248201527f46756e6374696f6e206d7573742062652063616c6c6564207468726f7567682060448201527f64656c656761746563616c6c00000000000000000000000000000000000000006064820152608490fd5b1561251557565b60405162461bcd60e51b815260206004820152602c60248201527f46756e6374696f6e206d7573742062652063616c6c6564207468726f7567682060448201527f6163746976652070726f787900000000000000000000000000000000000000006064820152608490fd5b90816020910312610560575190565b6040513d6000823e3d90fd5b156125a257565b60405162461bcd60e51b815260206004820152602960248201527f45524331393637557067726164653a20756e737570706f727465642070726f7860448201527f6961626c655555494400000000000000000000000000000000000000000000006064820152608490fd5b803b15612650576001600160a01b037f360894a13ba1a3210667c828492db98dca3e2076cc3735a920a3ca505d382bbc91166001600160a01b0319825416179055565b60405162461bcd60e51b815260206004820152602d60248201527f455243313936373a206e657720696d706c656d656e746174696f6e206973206e60448201527f6f74206120636f6e7472616374000000000000000000000000000000000000006064820152608490fd5b906126c58261260d565b60006001600160a01b0383167fbc7cd75a20ee27fd9adebab32041f755214dbc6bffa90cc0225b39da2e5c2d3b8280a28151158015906127af575b61270957505050565b6127a39281806040519461271c86610289565b602786527f416464726573733a206c6f772d6c6576656c2064656c65676174652063616c6c60208701527f206661696c6564000000000000000000000000000000000000000000000000006040870152602081519101845af4903d156127a6573d6127868161072e565b9061279460405192836102a5565b8152809360203d92013e61280b565b50565b6060925061280b565b5080612700565b906127c08261260d565b60006001600160a01b0383167fbc7cd75a20ee27fd9adebab32041f755214dbc6bffa90cc0225b39da2e5c2d3b8280a28151158015906128035761270957505050565b506001612700565b9192901561286d575081511561281f575090565b3b156128285790565b60405162461bcd60e51b815260206004820152601d60248201527f416464726573733a2063616c6c20746f206e6f6e2d636f6e74726163740000006044820152606490fd5b8251909150156128805750805190602001fd5b60405162461bcd60e51b815260206004820152908190610cd190602483019061036d565b156128ab57565b60405162461bcd60e51b815260206004820152602e60248201527f496e697469616c697a61626c653a20636f6e747261637420697320616c72656160448201527f647920696e697469616c697a65640000000000000000000000000000000000006064820152608490fd5b61293060ff60005460081c1661292b81612946565b612946565b61293933612454565b61030560ff60005460081c165b1561294d57565b60405162461bcd60e51b815260206004820152602b60248201527f496e697469616c697a61626c653a20636f6e7472616374206973206e6f74206960448201527f6e697469616c697a696e670000000000000000000000000000000000000000006064820152608490fd5b156129bf57565b60405162461bcd60e51b815260206004820152601860248201527f50617373776f72642063616e6e6f7420626520656d70747900000000000000006044820152606490fd5b15612a0b57565b60405162461bcd60e51b815260206004820152601660248201527f496e76616c69642077616c6c65742061646472657373000000000000000000006044820152606490fd5b15612a5757565b60405162461bcd60e51b815260206004820152601a60248201527f5573657220697320616c726561647920726567697374657265640000000000006044820152606490fd5b6103d7826103ad565b90601f8111612ab357505050565b600091825260208220906020601f850160051c83019410612aef575b601f0160051c01915b828110612ae457505050565b818155600101612ad8565b9092508290612acf565b919091825167ffffffffffffffff811161026857612b2181612b1b84546101fc565b84612aa5565b602080601f8311600114612b5d575081929394600092612b52575b50508160011b916000199060031b1c1916179055565b015190503880612b3c565b90601f19831695612b7385600052602060002090565b926000905b888210612bb057505083600195969710612b97575b505050811b019055565b015160001960f88460031b161c19169055388080612b8d565b80600185968294968601518155019501930190612b78565b90612bd2816103ad565b60ff80198354169116179055565b9190805192835167ffffffffffffffff811161026857612c0481612b1b84546101fc565b6020948590601f8311600114612d205792612c51610305969784608095600295612cce98600092612d15575b50508160011b916000199060031b1c19161783555b86015160018301612af9565b0192612c6a6040820151612c64816103ad565b85612bc8565b612cc7612c8160608301516001600160a01b031690565b85547fffffffffffffffffffffff0000000000000000000000000000000000000000ff1660089190911b74ffffffffffffffffffffffffffffffffffffffff0016178555565b0151151590565b81547fffffffffffffffffffff00ffffffffffffffffffffffffffffffffffffffffff1690151560a81b75ff00000000000000000000000000000000000000000016179055565b015190503880612c30565b90601f19831691612d3685600052602060002090565b9260005b818110612d86575097600185600295612cce9895612c51956080996103059d9e10612d6d575b505050811b018355612c45565b015160001960f88460031b161c19169055388080612d60565b929389600181928786015181550195019301612d3a565b906001600160a01b03612dbd60409295949560608552606085019061036d565b946001602085015216910152565b903360005260cb602052604060002060ff600282015460a81c169283612e28575b5082612e03575b5050612dfe57600090565b600190565b612e119192506001016102c7565b602081519101209060208151910120143880612df3565b909250612e34836102c7565b602081519101209060208151910120149138612dec565b15612e5257565b60405162461bcd60e51b815260206004820152602360248201527f4f6e6c792076657269666965642075736572732063616e20706172746963697060448201526261746560e81b6064820152608490fd5b15612eaa57565b60405162461bcd60e51b815260206004820152603c60248201527f4f6e6c79207573657273206f662074686520737065636966696564206361746560448201527f676f72792063616e20706572666f726d207468697320616374696f6e000000006064820152608490fd5b15612f1c57565b60405162461bcd60e51b815260206004820152602760248201527f54617267657420616d6f756e74206d757374206265206772656174657220746860448201527f616e207a65726f000000000000000000000000000000000000000000000000006064820152608490fd5b15612f8e57565b60405162461bcd60e51b815260206004820152602960248201527f5468652063616d706169676e206d7573742062652061206461746520696e207460448201527f68652066757475726500000000000000000000000000000000000000000000006064820152608490fd5b634e487b7160e01b600052601160045260246000fd5b600019811461301e5760010190565b612ff9565b60001981019190821161301e57565b9190820391821161301e57565b1561304657565b60405162461bcd60e51b815260206004820152601760248201527f43616d706169676e20646f6573206e6f742065786973740000000000000000006044820152606490fd5b1561309257565b60405162461bcd60e51b815260206004820152601760248201527f43616d706169676e206973206e6f74206f6e676f696e670000000000000000006044820152606490fd5b156130de57565b60405162461bcd60e51b815260206004820152601960248201527f43616d706169676e20706572696f642068617320656e646564000000000000006044820152606490fd5b1561312a57565b60405162461bcd60e51b815260206004820152602960248201527f446f6e6174696f6e20616d6f756e74206d75737420626520677265617465722060448201527f7468616e207a65726f00000000000000000000000000000000000000000000006064820152608490fd5b1561319c57565b60405162461bcd60e51b815260206004820152602360248201527f41206d696e756d756d20636f6e747269627574696f6e2069732072657175697260448201526232b21760e91b6064820152608490fd5b156131f457565b60405162461bcd60e51b815260206004820152603360248201527f46756e647320666f7220746869732063616d706169676e206861766520616c7260448201527f65616479206265656e2072656365697665642e000000000000000000000000006064820152608490fd5b9190820180921161301e57565b634e487b7160e01b600052603260045260246000fd5b805482101561329a5760005260206000200190600090565b61326c565b805468010000000000000000811015610268576132c191600182018155613282565b819291549060031b916001600160a01b03809116831b921b1916179055565b610305906132f88160005260cc602052604060002090565b61334560ff600d830154613311828216610d93816103ad565b613320600485015442106130d7565b61332b341515613123565b61333b6006850154341015613195565b60101c16156131ed565b61337461335c8360005260cd602052604060002090565b336001600160a01b0316600052602052604060002090565b61337f34825461325f565b90556002810161339034825461325f565b90556133a68260005260ca602052604060002090565b6133b0815461300f565b9055346133cb336106018560005260cd602052604060002090565b5414613413575b506040805182815233602082015234918101919091527f0a4a91237423e0a1766a761c7cb029311d8b95d6b1b81db1b949a70c98b4e08e90606090a1613bae565b61342190600c33910161329f565b386133d2565b67ffffffffffffffff81116102685760051b60200190565b9061344982613427565b61345660405191826102a5565b8281528092613467601f1991613427565b0190602036910137565b805182101561329a5760209160051b010190565b9060405191828154918282526020928383019160005283600020936000905b8282106134ba57505050610305925003836102a5565b85546001600160a01b0316845260019586019588955093810193909101906134a4565b6134e561070d565b9060008083528060208401528060408401528060608401528060808401528060a08401528060c0840152606060e08401526060610100840152606061012084015280610140840152806101608401526060610180840152806101a0840152806101c08401526101e0830152565b9061355c82613427565b61356960405191826102a5565b828152809261357a601f1991613427565b019060005b82811061358b57505050565b6020906135966134dd565b8282850101520161357f565b9061030560ff600d6135b261070d565b948054865260018101546020870152600281015460408701526003810154606087015260048101546080870152600581015460a0870152600681015460c08701526135ff600782016102c7565b60e0870152613610600882016102c7565b610100870152613622600982016102c7565b61012087015261363f611c0e600a8301546001600160a01b031690565b613656611c36600b8301546001600160a01b031690565b613662600c8201613485565b610180870152015461367a8282166101a08701612a9c565b600881901c821615156101c086015260101c1615156101e0840152565b1561369e57565b60405162461bcd60e51b815260206004820152601960248201527f43616d706169676e206973206e6f7420636f6d706c65746564000000000000006044820152606490fd5b156136ea57565b60405162461bcd60e51b815260206004820152602a60248201527f4f6e6c792074686520656e7472657072656e6575722063616e2063726561746560448201527f20612072657175657374000000000000000000000000000000000000000000006064820152608490fd5b1561375c57565b60405162461bcd60e51b815260206004820152603460248201527f4120726571756573742068617320616c7265616479206265656e20637265617460448201527f656420666f7220746869732063616d706169676e0000000000000000000000006064820152608490fd5b156137ce57565b60405162461bcd60e51b815260206004820152603e60248201527f5265717565737420616d6f756e74206d757374206265206c657373207468616e60448201527f206f7220657175616c20746f207468652072616973656420616d6f756e7400006064820152608490fd5b1561384057565b60405162461bcd60e51b815260206004820152602360248201527f4e6f20726571756573742065786973747320666f7220746869732063616d706160448201526234b3b760e91b6064820152608490fd5b1561389857565b60405162461bcd60e51b815260206004820152602960248201527f496e766573746f722068617320616c726561647920617070726f76656420746860448201527f65207265717565737400000000000000000000000000000000000000000000006064820152608490fd5b1561390a57565b60405162461bcd60e51b815260206004820152604160248201527f5265717565737420686173206e6f74206265656e20617070726f76656420627960448201527f20746865207265717569726564206e756d626572206f6620696e766573746f726064820152607360f81b608482015260a490fd5b1561398657565b60405162461bcd60e51b815260206004820152602a60248201527f596f752068617665206e6f7420636f6e747269627574656420746f207468697360448201527f2063616d706169676e2e000000000000000000000000000000000000000000006064820152608490fd5b156139f857565b60405162461bcd60e51b815260206004820152601d60248201527f43616d706169676e20686173206e6f742065787069726564207965742e0000006044820152606490fd5b15613a4457565b60405162461bcd60e51b815260206004820152602560248201527f43616d706169676e20646561646c696e6520686173206e6f742070617373656460448201527f207965742e0000000000000000000000000000000000000000000000000000006064820152608490fd5b604051906040820182811067ffffffffffffffff82111761026857604052601082527f616d6f756e74546f5769746864726177000000000000000000000000000000006020830152565b60005260ce60205260ff613b236040600020336001600160a01b0316600052602052604060002090565b5416612dfe57600090565b600081815260209160cc8352604090600c8284200193845494845b868110613b595750505050505050565b80613b9c6001600160a01b03613b72613ba99486613282565b905490888b5260ce885260031b1c16878920906001600160a01b0316600052602052604060002090565b805460ff1916905561300f565b613b49565b600081815260cc60205260409020600281015460019091015411613c0e57613bf3600d613be58360005260cc602052604060002090565b01805460ff19166001179055565b6005613c0a429260005260cc602052604060002090565b0155565b6004613c248260005260cc602052604060002090565b01544211613c2f5750565b613c45600d9160005260cc602052604060002090565b01805460ff19166002179055565b600090808252602060cc8152604092838120938454825260ca83528082205493600c83960193845494845b868110613c94575050505050505060011c111590565b60ff613cab6001600160a01b03613b728486613282565b5416613cc0575b613cbb9061300f565b613c7e565b97613ccd613cbb9161300f565b989050613cb2565b906001600160a01b036127a3921660005260cf60205260406000206001810190826000528160205260406000205415600014613d565780546801000000000000000081101561026857806001613d2e9201835582613282565b81549060031b9085821b91600019901b19161790555491600052602052604060002055600190565b505050600090565b60009190613d95613da38493604051928391602083019563643fd0df60e01b8752602484015260406044840152606483019061036d565b03601f1981018352826102a5565b51906a636f6e736f6c652e6c6f675afa5056fea164736f6c6343000812000a",
  "linkReferences": {},
  "deployedLinkReferences": {}
}