{
  "_format": "hh-sol-artifact-1",
  "contractName": "CampaignRegistry",
  "sourceName": "contracts/CampaignRegistry.sol",
  "abi": [
    {
      "anonymous": false,
      "inputs": [
        {
          "indexed": false,
          "internalType": "address",
          "name": "previousAdmin",
          "type": "address"
        },
        {
          "indexed": false,
          "internalType": "address",
          "name": "newAdmin",
          "type": "address"
        }
      ],
      "name": "AdminChanged",
      "type": "event"
    },
    {
      "anonymous": false,
      "inputs": [
        {
          "indexed": true,
          "internalType": "address",
          "name": "beacon",
          "type": "address"
        }
      ],
      "name": "BeaconUpgraded",
      "type": "event"
    },
    {
      "anonymous": false,
      "inputs": [
        {
          "indexed": false,
          "internalType": "uint256",
          "name": "campaignId",
          "type": "uint256"
        },
        {
          "indexed": false,
          "internalType": "address",
          "name": "entrepreneur",
          "type": "address"
        },
        {
          "indexed": false,
          "internalType": "uint256",
          "name": "targetAmount",
          "type": "uint256"
        },
        {
          "indexed": false,
          "internalType": "uint256",
          "name": "deadline",
          "type": "uint256"
        }
      ],
      "name": "CampaignCreated",
      "type": "event"
    },
    {
      "anonymous": false,
      "inputs": [
        {
          "indexed": false,
          "internalType": "uint256",
          "name": "campaignId",
          "type": "uint256"
        },
        {
          "indexed": false,
          "internalType": "address",
          "name": "investor",
          "type": "address"
        },
        {
          "indexed": false,
          "internalType": "uint256",
          "name": "amount",
          "type": "uint256"
        }
      ],
      "name": "ContributionMade",
      "type": "event"
    },
    {
      "anonymous": false,
      "inputs": [
        {
          "indexed": false,
          "internalType": "uint256",
          "name": "campaignId",
          "type": "uint256"
        }
      ],
      "name": "FundsReceived",
      "type": "event"
    },
    {
      "anonymous": false,
      "inputs": [
        {
          "indexed": false,
          "internalType": "uint256",
          "name": "campaignId",
          "type": "uint256"
        },
        {
          "indexed": false,
          "internalType": "address",
          "name": "vendor",
          "type": "address"
        },
        {
          "indexed": false,
          "internalType": "uint256",
          "name": "amount",
          "type": "uint256"
        }
      ],
      "name": "FundsReleased",
      "type": "event"
    },
    {
      "anonymous": false,
      "inputs": [
        {
          "indexed": false,
          "internalType": "uint8",
          "name": "version",
          "type": "uint8"
        }
      ],
      "name": "Initialized",
      "type": "event"
    },
    {
      "anonymous": false,
      "inputs": [
        {
          "indexed": true,
          "internalType": "address",
          "name": "previousOwner",
          "type": "address"
        },
        {
          "indexed": true,
          "internalType": "address",
          "name": "newOwner",
          "type": "address"
        }
      ],
      "name": "OwnershipTransferred",
      "type": "event"
    },
    {
      "anonymous": false,
      "inputs": [
        {
          "indexed": false,
          "internalType": "uint256",
          "name": "campaignId",
          "type": "uint256"
        },
        {
          "indexed": false,
          "internalType": "address",
          "name": "investor",
          "type": "address"
        }
      ],
      "name": "RequestApproved",
      "type": "event"
    },
    {
      "anonymous": false,
      "inputs": [
        {
          "indexed": false,
          "internalType": "uint256",
          "name": "campaignId",
          "type": "uint256"
        },
        {
          "indexed": false,
          "internalType": "uint256",
          "name": "requestAmount",
          "type": "uint256"
        }
      ],
      "name": "RequestCreated",
      "type": "event"
    },
    {
      "anonymous": false,
      "inputs": [
        {
          "indexed": true,
          "internalType": "address",
          "name": "implementation",
          "type": "address"
        }
      ],
      "name": "Upgraded",
      "type": "event"
    },
    {
      "anonymous": false,
      "inputs": [
        {
          "indexed": false,
          "internalType": "string",
          "name": "email",
          "type": "string"
        },
        {
          "indexed": false,
          "internalType": "bool",
          "name": "verified",
          "type": "bool"
        },
        {
          "indexed": false,
          "internalType": "address",
          "name": "walletAddress",
          "type": "address"
        }
      ],
      "name": "UserRegistered",
      "type": "event"
    },
    {
      "inputs": [
        {
          "internalType": "address",
          "name": "_owner",
          "type": "address"
        },
        {
          "internalType": "uint256",
          "name": "index",
          "type": "uint256"
        }
      ],
      "name": "_campaignOfEntrepreneurByIndex",
      "outputs": [
        {
          "internalType": "uint256",
          "name": "",
          "type": "uint256"
        }
      ],
      "stateMutability": "view",
      "type": "function"
    },
    {
      "inputs": [
        {
          "internalType": "uint256",
          "name": "_campaignId",
          "type": "uint256"
        }
      ],
      "name": "approveFundReleaseRequest",
      "outputs": [],
      "stateMutability": "nonpayable",
      "type": "function"
    },
    {
      "inputs": [
        {
          "internalType": "uint256",
          "name": "",
          "type": "uint256"
        }
      ],
      "name": "campaigns",
      "outputs": [
        {
          "internalType": "uint256",
          "name": "campaignId",
          "type": "uint256"
        },
        {
          "internalType": "uint256",
          "name": "targetAmount",
          "type": "uint256"
        },
        {
          "internalType": "uint256",
          "name": "raisedAmount",
          "type": "uint256"
        },
        {
          "internalType": "uint256",
          "name": "requestAmount",
          "type": "uint256"
        },
        {
          "internalType": "uint256",
          "name": "deadline",
          "type": "uint256"
        },
        {
          "internalType": "uint256",
          "name": "completeAt",
          "type": "uint256"
        },
        {
          "internalType": "uint256",
          "name": "minimumContribution",
          "type": "uint256"
        },
        {
          "internalType": "string",
          "name": "imageUri",
          "type": "string"
        },
        {
          "internalType": "string",
          "name": "campaignTitle",
          "type": "string"
        },
        {
          "internalType": "string",
          "name": "campaignDescription",
          "type": "string"
        },
        {
          "internalType": "address",
          "name": "entrepreneur",
          "type": "address"
        },
        {
          "internalType": "address payable",
          "name": "vendor",
          "type": "address"
        },
        {
          "internalType": "enum ICampaignRegistry.CampaignStatus",
          "name": "status",
          "type": "uint8"
        },
        {
          "internalType": "bool",
          "name": "requestCreated",
          "type": "bool"
        },
        {
          "internalType": "bool",
          "name": "fundsReceived",
          "type": "bool"
        }
      ],
      "stateMutability": "view",
      "type": "function"
    },
    {
      "inputs": [
        {
          "internalType": "uint256",
          "name": "_campaignId",
          "type": "uint256"
        }
      ],
      "name": "confirmFundsReceived",
      "outputs": [],
      "stateMutability": "nonpayable",
      "type": "function"
    },
    {
      "inputs": [
        {
          "internalType": "uint256",
          "name": "_targetAmount",
          "type": "uint256"
        },
        {
          "internalType": "uint256",
          "name": "_deadline",
          "type": "uint256"
        },
        {
          "internalType": "uint256",
          "name": "minimumContribution",
          "type": "uint256"
        },
        {
          "internalType": "string",
          "name": "_imageUri",
          "type": "string"
        },
        {
          "internalType": "string",
          "name": "_campaignTitle",
          "type": "string"
        },
        {
          "internalType": "string",
          "name": "_campaignDescription",
          "type": "string"
        }
      ],
      "name": "createCampaign",
      "outputs": [],
      "stateMutability": "nonpayable",
      "type": "function"
    },
    {
      "inputs": [
        {
          "internalType": "uint256",
          "name": "_campaignId",
          "type": "uint256"
        },
        {
          "internalType": "uint256",
          "name": "_requestAmount",
          "type": "uint256"
        },
        {
          "internalType": "address payable",
          "name": "_vendorAddress",
          "type": "address"
        }
      ],
      "name": "createFundReleaseRequest",
      "outputs": [],
      "stateMutability": "nonpayable",
      "type": "function"
    },
    {
      "inputs": [
        {
          "internalType": "uint256",
          "name": "_campaignId",
          "type": "uint256"
        }
      ],
      "name": "donateToCampaign",
      "outputs": [],
      "stateMutability": "payable",
      "type": "function"
    },
    {
      "inputs": [
        {
          "internalType": "uint256",
          "name": "_campaignId",
          "type": "uint256"
        }
      ],
      "name": "getAllDonations",
      "outputs": [
        {
          "internalType": "uint256[]",
          "name": "",
          "type": "uint256[]"
        }
      ],
      "stateMutability": "view",
      "type": "function"
    },
    {
      "inputs": [
        {
          "internalType": "uint256",
          "name": "_campaignId",
          "type": "uint256"
        }
      ],
      "name": "getAllDonators",
      "outputs": [
        {
          "internalType": "address[]",
          "name": "",
          "type": "address[]"
        }
      ],
      "stateMutability": "view",
      "type": "function"
    },
    {
      "inputs": [
        {
          "internalType": "uint256",
          "name": "_campaignId",
          "type": "uint256"
        }
      ],
      "name": "getCampaignById",
      "outputs": [
        {
          "components": [
            {
              "internalType": "uint256",
              "name": "campaignId",
              "type": "uint256"
            },
            {
              "internalType": "uint256",
              "name": "targetAmount",
              "type": "uint256"
            },
            {
              "internalType": "uint256",
              "name": "raisedAmount",
              "type": "uint256"
            },
            {
              "internalType": "uint256",
              "name": "requestAmount",
              "type": "uint256"
            },
            {
              "internalType": "uint256",
              "name": "deadline",
              "type": "uint256"
            },
            {
              "internalType": "uint256",
              "name": "completeAt",
              "type": "uint256"
            },
            {
              "internalType": "uint256",
              "name": "minimumContribution",
              "type": "uint256"
            },
            {
              "internalType": "string",
              "name": "imageUri",
              "type": "string"
            },
            {
              "internalType": "string",
              "name": "campaignTitle",
              "type": "string"
            },
            {
              "internalType": "string",
              "name": "campaignDescription",
              "type": "string"
            },
            {
              "internalType": "address",
              "name": "entrepreneur",
              "type": "address"
            },
            {
              "internalType": "address payable",
              "name": "vendor",
              "type": "address"
            },
            {
              "internalType": "address[]",
              "name": "investors",
              "type": "address[]"
            },
            {
              "internalType": "enum ICampaignRegistry.CampaignStatus",
              "name": "status",
              "type": "uint8"
            },
            {
              "internalType": "bool",
              "name": "requestCreated",
              "type": "bool"
            },
            {
              "internalType": "bool",
              "name": "fundsReceived",
              "type": "bool"
            }
          ],
          "internalType": "struct ICampaignRegistry.Campaign",
          "name": "",
          "type": "tuple"
        }
      ],
      "stateMutability": "view",
      "type": "function"
    },
    {
      "inputs": [],
      "name": "getCampaigns",
      "outputs": [
        {
          "components": [
            {
              "internalType": "uint256",
              "name": "campaignId",
              "type": "uint256"
            },
            {
              "internalType": "uint256",
              "name": "targetAmount",
              "type": "uint256"
            },
            {
              "internalType": "uint256",
              "name": "raisedAmount",
              "type": "uint256"
            },
            {
              "internalType": "uint256",
              "name": "requestAmount",
              "type": "uint256"
            },
            {
              "internalType": "uint256",
              "name": "deadline",
              "type": "uint256"
            },
            {
              "internalType": "uint256",
              "name": "completeAt",
              "type": "uint256"
            },
            {
              "internalType": "uint256",
              "name": "minimumContribution",
              "type": "uint256"
            },
            {
              "internalType": "string",
              "name": "imageUri",
              "type": "string"
            },
            {
              "internalType": "string",
              "name": "campaignTitle",
              "type": "string"
            },
            {
              "internalType": "string",
              "name": "campaignDescription",
              "type": "string"
            },
            {
              "internalType": "address",
              "name": "entrepreneur",
              "type": "address"
            },
            {
              "internalType": "address payable",
              "name": "vendor",
              "type": "address"
            },
            {
              "internalType": "address[]",
              "name": "investors",
              "type": "address[]"
            },
            {
              "internalType": "enum ICampaignRegistry.CampaignStatus",
              "name": "status",
              "type": "uint8"
            },
            {
              "internalType": "bool",
              "name": "requestCreated",
              "type": "bool"
            },
            {
              "internalType": "bool",
              "name": "fundsReceived",
              "type": "bool"
            }
          ],
          "internalType": "struct ICampaignRegistry.Campaign[]",
          "name": "",
          "type": "tuple[]"
        }
      ],
      "stateMutability": "view",
      "type": "function"
    },
    {
      "inputs": [
        {
          "internalType": "address",
          "name": "_entrepreneur",
          "type": "address"
        }
      ],
      "name": "getCampaignsByEntrepreneur",
      "outputs": [
        {
          "components": [
            {
              "internalType": "uint256",
              "name": "campaignId",
              "type": "uint256"
            },
            {
              "internalType": "uint256",
              "name": "targetAmount",
              "type": "uint256"
            },
            {
              "internalType": "uint256",
              "name": "raisedAmount",
              "type": "uint256"
            },
            {
              "internalType": "uint256",
              "name": "requestAmount",
              "type": "uint256"
            },
            {
              "internalType": "uint256",
              "name": "deadline",
              "type": "uint256"
            },
            {
              "internalType": "uint256",
              "name": "completeAt",
              "type": "uint256"
            },
            {
              "internalType": "uint256",
              "name": "minimumContribution",
              "type": "uint256"
            },
            {
              "internalType": "string",
              "name": "imageUri",
              "type": "string"
            },
            {
              "internalType": "string",
              "name": "campaignTitle",
              "type": "string"
            },
            {
              "internalType": "string",
              "name": "campaignDescription",
              "type": "string"
            },
            {
              "internalType": "address",
              "name": "entrepreneur",
              "type": "address"
            },
            {
              "internalType": "address payable",
              "name": "vendor",
              "type": "address"
            },
            {
              "internalType": "address[]",
              "name": "investors",
              "type": "address[]"
            },
            {
              "internalType": "enum ICampaignRegistry.CampaignStatus",
              "name": "status",
              "type": "uint8"
            },
            {
              "internalType": "bool",
              "name": "requestCreated",
              "type": "bool"
            },
            {
              "internalType": "bool",
              "name": "fundsReceived",
              "type": "bool"
            }
          ],
          "internalType": "struct ICampaignRegistry.Campaign[]",
          "name": "",
          "type": "tuple[]"
        }
      ],
      "stateMutability": "view",
      "type": "function"
    },
    {
      "inputs": [
        {
          "internalType": "uint256",
          "name": "_campaignId",
          "type": "uint256"
        }
      ],
      "name": "getInvestorDonations",
      "outputs": [
        {
          "internalType": "address[]",
          "name": "",
          "type": "address[]"
        },
        {
          "internalType": "uint256[]",
          "name": "",
          "type": "uint256[]"
        }
      ],
      "stateMutability": "view",
      "type": "function"
    },
    {
      "inputs": [
        {
          "internalType": "address",
          "name": "_investor",
          "type": "address"
        }
      ],
      "name": "getTotalCampaignsByInvestor",
      "outputs": [
        {
          "internalType": "uint256",
          "name": "",
          "type": "uint256"
        }
      ],
      "stateMutability": "view",
      "type": "function"
    },
    {
      "inputs": [
        {
          "internalType": "address",
          "name": "_walltetAddress",
          "type": "address"
        }
      ],
      "name": "getUserByAddress",
      "outputs": [
        {
          "components": [
            {
              "internalType": "string",
              "name": "email",
              "type": "string"
            },
            {
              "internalType": "string",
              "name": "password",
              "type": "string"
            },
            {
              "internalType": "enum ICampaignRegistry.Category",
              "name": "category",
              "type": "uint8"
            },
            {
              "internalType": "address",
              "name": "walletAddress",
              "type": "address"
            },
            {
              "internalType": "bool",
              "name": "verified",
              "type": "bool"
            }
          ],
          "internalType": "struct ICampaignRegistry.User",
          "name": "",
          "type": "tuple"
        }
      ],
      "stateMutability": "view",
      "type": "function"
    },
    {
      "inputs": [],
      "name": "initialize",
      "outputs": [],
      "stateMutability": "nonpayable",
      "type": "function"
    },
    {
      "inputs": [
        {
          "internalType": "string",
          "name": "_email",
          "type": "string"
        },
        {
          "internalType": "string",
          "name": "_password",
          "type": "string"
        }
      ],
      "name": "loginUser",
      "outputs": [
        {
          "internalType": "bool",
          "name": "",
          "type": "bool"
        }
      ],
      "stateMutability": "view",
      "type": "function"
    },
    {
      "inputs": [],
      "name": "owner",
      "outputs": [
        {
          "internalType": "address",
          "name": "",
          "type": "address"
        }
      ],
      "stateMutability": "view",
      "type": "function"
    },
    {
      "inputs": [],
      "name": "proxiableUUID",
      "outputs": [
        {
          "internalType": "bytes32",
          "name": "",
          "type": "bytes32"
        }
      ],
      "stateMutability": "view",
      "type": "function"
    },
    {
      "inputs": [
        {
          "internalType": "string",
          "name": "_email",
          "type": "string"
        },
        {
          "internalType": "string",
          "name": "_password",
          "type": "string"
        },
        {
          "internalType": "enum ICampaignRegistry.Category",
          "name": "_category",
          "type": "uint8"
        }
      ],
      "name": "registerUser",
      "outputs": [],
      "stateMutability": "nonpayable",
      "type": "function"
    },
    {
      "inputs": [
        {
          "internalType": "uint256",
          "name": "_campaignId",
          "type": "uint256"
        }
      ],
      "name": "releaseFundsToVendors",
      "outputs": [],
      "stateMutability": "nonpayable",
      "type": "function"
    },
    {
      "inputs": [],
      "name": "renounceOwnership",
      "outputs": [],
      "stateMutability": "nonpayable",
      "type": "function"
    },
    {
      "inputs": [
        {
          "internalType": "address",
          "name": "newOwner",
          "type": "address"
        }
      ],
      "name": "transferOwnership",
      "outputs": [],
      "stateMutability": "nonpayable",
      "type": "function"
    },
    {
      "inputs": [
        {
          "internalType": "address",
          "name": "newImplementation",
          "type": "address"
        }
      ],
      "name": "upgradeTo",
      "outputs": [],
      "stateMutability": "nonpayable",
      "type": "function"
    },
    {
      "inputs": [
        {
          "internalType": "address",
          "name": "newImplementation",
          "type": "address"
        },
        {
          "internalType": "bytes",
          "name": "data",
          "type": "bytes"
        }
      ],
      "name": "upgradeToAndCall",
      "outputs": [],
      "stateMutability": "payable",
      "type": "function"
    },
    {
      "inputs": [
        {
          "internalType": "address",
          "name": "",
          "type": "address"
        }
      ],
      "name": "users",
      "outputs": [
        {
          "internalType": "string",
          "name": "email",
          "type": "string"
        },
        {
          "internalType": "string",
          "name": "password",
          "type": "string"
        },
        {
          "internalType": "enum ICampaignRegistry.Category",
          "name": "category",
          "type": "uint8"
        },
        {
          "internalType": "address",
          "name": "walletAddress",
          "type": "address"
        },
        {
          "internalType": "bool",
          "name": "verified",
          "type": "bool"
        }
      ],
      "stateMutability": "view",
      "type": "function"
    }
  ],
  "bytecode": "0x60a08060405234610031573060805261364a908161003782396080518181816112e6015281816113f20152611a240152f35b600080fdfe6080604052600436101561001257600080fd5b60003560e01c8063141961bc146128295780631ad417bf1461225757806322ce12e5146121f657806324777746146121ac5780632e17a93114611c995780633659cfe6146119fe57806342a4fda81461166a5780634f1ef286146113a157806352d1902d146112cb57806367c2cbad146111e857806369c212f6146110d557806370debcf714610e78578063715018a614610e1d57806374c49fd514610ce05780638129fc1c14610b8b5780638da5cb5b14610b645780638e5baa6214610ae6578063a6b0363314610999578063a7247cd914610767578063a87430ba146106c5578063ae1f680214610571578063e27883fb1461052e578063e6ffcaa114610406578063efb8018314610286578063f2fde38b146101e05763ffa676d11461013a57600080fd5b346101db576020806003193601126101db57600435908160005260cc8152600c6040600020019182549061016d8261334b565b9360005b83811061018f576040518581528061018b81880189612bcc565b0390f35b806001600160a01b036101a56101d69385613305565b9190548660005260cd895260406000209260031b1c1660005286526040600020546101d0828961337d565b526131df565b610171565b600080fd5b346101db5760203660031901126101db576101f9612b79565b610201612d54565b6001600160a01b0381161561021b5761021990612dac565b005b60405162461bcd60e51b815260206004820152602660248201527f4f776e61626c653a206e6577206f776e657220697320746865207a65726f206160448201527f64647265737300000000000000000000000000000000000000000000000000006064820152608490fd5b346101db576020806003193601126101db576001600160a01b03806102a9612b79565b16908160005260cf90818452604060002054916102c583613463565b9360005b8481106102de576040518061018b8882612cf2565b816000528287526102f3816040600020613305565b919054600392831b1c60005260cc8852604060002060405190610315826129a7565b80548252600193848201548b84015260028201546040840152810154606083015260048101546080830152600581015460a0830152600681015460c083015261036060078201612a02565b60e0830152600d600891610375838201612a02565b61010085015261038760098201612a02565b61012085015288600a8201541661014085015288600b820154166101608501526103b3600c8201613391565b6101808501520154809160ff9283918282166103ce81612ae8565b6101a08701521c1615156101c084015260101c1615156101e08201526103f4828961337d565b526103ff818861337d565b50016102c9565b346101db5760203660031901126101db5761041f6133e9565b5060043560005260cc60205261018b604060002060ff600d60405192610444846129a7565b8054845260018101546020850152600281015460408501526003810154606085015260048101546080850152600581015460a0850152600681015460c085015261049060078201612a02565b60e08501526104a160088201612a02565b6101008501526104b360098201612a02565b6101208501526001600160a01b0380600a83015416610140860152600b820154166101608501526104e6600c8201613391565b61018085015201548181166104fa81612ae8565b6101a0840152818160081c1615156101c084015260101c1615156101e0820152604051918291602083526020830190612c00565b346101db5760203660031901126101db5760043560005260cc60205261018b61055d600c604060002001613391565b604051918291602083526020830190612b8f565b346101db576020806003193601126101db57600435903360005260cb81526105a660ff60026040600020015460a81c16613115565b6105b360c95483106131ee565b3360005260cb81526105da600260ff8160406000200154166105d481612ae8565b1461316d565b8160005260cc8152604060002091336001600160a01b03600b850154160361065a57600d8361063161062c7fbcdc7071c1beb6dcf2744621e0b29a2f2432ee20812d9ca5e3d5e8f9308d93a39661352f565b6134b3565b0162010000815461064860ff8260101c1615613286565b62ff00001916179055604051908152a1005b60405162461bcd60e51b815260048101839052603460248201527f4f6e6c79207468652063616d706169676e2076656e646f722063616e20636f6e60448201527f6669726d2066756e64732072656365697665642e0000000000000000000000006064820152608490fd5b346101db5760203660031901126101db576107316001600160a01b03806106ea612b79565b1660005260cb602052604060002060ff61070382612a02565b92600261071260018501612a02565b9301549061073f8383169460405197889760a0895260a0890190612aa8565b908782036020890152612aa8565b9361074981612ae8565b60408601528160081c16606085015260a81c16151560808301520390f35b346101db576020806003193601126101db57600435903360005260cb815261079c60ff60026040600020015460a81c16613115565b6107a960c95483106131ee565b3360005260cb81526107cb600160ff600260406000200154166105d481612ae8565b8160005260cc8152600d604060002001546107f260ff82166107ec81612ae8565b1561323a565b8260005260cd82526040600020336000528252604060002054156109485760081c60ff16156108f8578160005260ce8152604060002033600052815260ff6040600020541661088e57816040917ff3dc904660a0ea05aba8dfa1e21fbc4fb2914be2a3029da7b0fdd3e5eee20ddb9360005260ce81528260002033600052815282600020600160ff1982541617905582519182523390820152a1005b6084906040519062461bcd60e51b82526004820152602960248201527f496e766573746f722068617320616c726561647920617070726f76656420746860448201527f65207265717565737400000000000000000000000000000000000000000000006064820152fd5b6084906040519062461bcd60e51b82526004820152602360248201527f4e6f20726571756573742065786973747320666f7220746869732063616d706160448201526234b3b760e91b6064820152fd5b60405162461bcd60e51b8152600481018390526024808201527f4f6e6c7920696e766573746f72732063616e20617070726f76652061207265716044820152631d595cdd60e21b6064820152608490fd5b346101db5760003660031901126101db5760c9546109b681613463565b9060005b8181106109cf576040518061018b8582612cf2565b8060005260209060cc82526040600020604051906109ec826129a7565b805482526001938482015490830152600281015460408301526003810154606083015260048101546080830152600581015460a0830152600681015460c0830152610a3960078201612a02565b60e0830152600d600891610a4e838201612a02565b610100850152610a6060098201612a02565b6101208501526001600160a01b0380600a83015416610140860152600b82015416610160850152610a93600c8201613391565b6101808501520154809160ff928391828216610aae81612ae8565b6101a08701521c1615156101c084015260101c1615156101e0820152610ad4828661337d565b52610adf818561337d565b50016109ba565b346101db576020806003193601126101db57610b00612b79565b60c9546000916001600160a01b0316825b828110610b2357505050604051908152f35b8060005260cd85526040600020826000528552604060002054610b4f575b610b4a906131df565b610b11565b92610b5c610b4a916131df565b939050610b41565b346101db5760003660031901126101db5760206001600160a01b0360335416604051908152f35b346101db5760003660031901126101db5760005460ff8160081c161590818092610cd3575b8015610cbc575b15610c515760ff19811660011760005581610c3f575b50610be860ff60005460081c16610be381613023565b613023565b610bf133612dac565b60005490610c0460ff8360081c16613023565b610c0a57005b61ff0019166000557f7f26b83ff96e1f2b6a682f133852f6798a09c465da95921460cefb3847402498602060405160018152a1005b61ffff19166101011760005581610bcd565b60405162461bcd60e51b815260206004820152602e60248201527f496e697469616c697a61626c653a20636f6e747261637420697320616c72656160448201527f647920696e697469616c697a65640000000000000000000000000000000000006064820152608490fd5b50303b158015610bb75750600160ff821614610bb7565b50600160ff821610610bb0565b346101db5760203660031901126101db576004353360005260cb602052610d1460ff60026040600020015460a81c16613115565b610d2160c95482106131ee565b3360005260cb602052610d4860ff60026040600020015416610d4281612ae8565b1561316d565b8060005260cc602052604060002090610d7861062c600d840193610d7360ff8654166107ec81612ae8565b61352f565b8060005260cc60205260406000209060026001600160a01b03600b8401541692015492600084848115610e13575b600092839283928392f115610e0757805460ff19166001179055604080519182526001600160a01b03929092166020820152908101919091527f6e3c6096795c8298a218b2cfb8bde42726ff7c9a3d27b4d3ba41ab7f74feb5fb90606090a1005b6040513d6000823e3d90fd5b6108fc9250610da6565b346101db5760003660031901126101db57610e36612d54565b60006001600160a01b036033546001600160a01b03198116603355167f8be0079c531659141344cd1fd0a4f28419497f9722a3daafe3b4186f6b6457e08280a3005b346101db5760603660031901126101db576001600160a01b03600435602435604435838116908190036101db573360005260209360cb8552610ec760ff60026040600020015460a81c16613115565b610ed460c95485106131ee565b3360005260cb8552610ef460ff60026040600020015416610d4281612ae8565b8360005260cc8552604060002090600d820190815490610f1a60ff83166107ec81612ae8565b3390600a850154160361106a5760ff8160081c16610fff5760028301548511610f94576003830185905561ff001916610100179055600b0180546001600160a01b031916909117905560408051928352928201527f99f063607b2d9f794eb8985daf4a0d3224e73b48e43228a183329e415dff077e9190a1005b60405162461bcd60e51b815260048101889052603e60248201527f5265717565737420616d6f756e74206d757374206265206c657373207468616e60448201527f206f7220657175616c20746f207468652072616973656420616d6f756e7400006064820152608490fd5b60405162461bcd60e51b815260048101889052603460248201527f4120726571756573742068617320616c7265616479206265656e20637265617460448201527f656420666f7220746869732063616d706169676e0000000000000000000000006064820152608490fd5b60405162461bcd60e51b815260048101889052602a60248201527f4f6e6c792074686520656e7472657072656e6575722063616e2063726561746560448201527f20612072657175657374000000000000000000000000000000000000000000006064820152608490fd5b346101db576020806003193601126101db5760a0906110f2612b79565b90600060806040516111038161298b565b6060815260608482015282604082015282606082015201526001600160a01b0380921660005260cb8152604060002090604051926111408461298b565b61114983612a02565b8452600261115960018501612a02565b938386019485520154916111c560ff841694604087019561117981612ae8565b86526111b26060880193858760081c16855260ff60808a019760a81c1615158752604051998a99828b5251918a015260c0890190612aa8565b9051878203601f19016040890152612aa8565b93516111d081612ae8565b60608601525116608084015251151560a08301520390f35b346101db576020806003193601126101db576004358060005260cc8252600c604060002001805461121881613333565b9261122660405194856129e0565b818452601f1961123583613333565b0136868601376112448261334b565b9260005b8381106112795761126c8661018b8988604051948594604086526040860190612b8f565b9184830390850152612bcc565b806001600160a01b0361128f6112c69385613305565b90549060031b1c16806112a2838a61337d565b528460005260cd895260406000209060005288526040600020546101d0828861337d565b611248565b346101db5760003660031901126101db576001600160a01b037f00000000000000000000000000000000000000000000000000000000000000001630036113365760206040517f360894a13ba1a3210667c828492db98dca3e2076cc3735a920a3ca505d382bbc8152f35b60405162461bcd60e51b815260206004820152603860248201527f555550535570677261646561626c653a206d757374206e6f742062652063616c60448201527f6c6564207468726f7567682064656c656761746563616c6c00000000000000006064820152608490fd5b60403660031901126101db576113b5612b79565b60243567ffffffffffffffff81116101db57366023820112156101db576113e6903690602481600401359101612b24565b6001600160a01b0390817f0000000000000000000000000000000000000000000000000000000000000000169161141f83301415612df4565b61144e7f360894a13ba1a3210667c828492db98dca3e2076cc3735a920a3ca505d382bbc938285541614612e66565b7f4910fdfa16fed3260ed0e7147f7cc6da11a60208b5b9406d12a635614ffd91435460ff16156114845750505061021990612ed8565b8316604051926352d1902d60e01b84526020938481600481865afa6000918161163b575b506115095760405162461bcd60e51b815260048101869052602e60248201527f45524331393637557067726164653a206e657720696d706c656d656e7461746960448201526d6f6e206973206e6f74205555505360901b6064820152608490fd5b939293036115e45761151a84612ed8565b7fbc7cd75a20ee27fd9adebab32041f755214dbc6bffa90cc0225b39da2e5c2d3b600080a28151158015906115dc575b61155057005b6102199260008060405194611564866129c4565b602786527f416464726573733a206c6f772d6c6576656c2064656c65676174652063616c6c85870152660819985a5b195960ca1b60408701528481519101845af4903d156115d3573d6115b681612b08565b906115c460405192836129e0565b8152600081943d92013e612f86565b60609250612f86565b50600161154a565b60405162461bcd60e51b815260048101839052602960248201527f45524331393637557067726164653a20756e737570706f727465642070726f786044820152681a58589b195555525160ba1b6064820152608490fd5b9091508581813d8311611663575b61165381836129e0565b810103126101db575190876114a8565b503d611649565b6020806003193601126101db57600435903360005260cb815261169a60ff60026040600020015460a81c16613115565b6116a760c95483106131ee565b3360005260cb81526116c9600160ff600260406000200154166105d481612ae8565b8160005260cc81526116e960ff600d60406000200154166107ec81612ae8565b8160005260cc81526004604060002001544210156119ba578160005260cc81526040600020600d81015461172360ff82166107ec81612ae8565b600482015442101561197557341561190a57600682015434106118b95760ff6117509160101c1615613286565b8260005260cd8252604060002033600052825260406000206117733482546132f8565b9055600281016117843482546132f8565b90558260005260ca8252604060002061179d81546131df565b90558260005260cd82526040600020336000528252346040600020541461185a575b5060408051838152336020820152349181019190915260cc92907f0a4a91237423e0a1766a761c7cb029311d8b95d6b1b81db1b949a70c98b4e08e90606090a16000525260406000204260048201541160001461182357600d01805460ff19169055005b600281015460018201541161184a57600d8101805460ff1916600117905542600590910155005b600d01805460ff19166002179055005b600c0191825492680100000000000000008410156118a3578361188491600160cc96018155613305565b81549060031b906001600160a01b0333831b921b1916179055916117bf565b634e487b7160e01b600052604160045260246000fd5b60405162461bcd60e51b815260048101849052602360248201527f41206d696e756d756d20636f6e747269627574696f6e2069732072657175697260448201526232b21760e91b6064820152608490fd5b60405162461bcd60e51b815260048101849052602960248201527f446f6e6174696f6e20616d6f756e74206d75737420626520677265617465722060448201527f7468616e207a65726f00000000000000000000000000000000000000000000006064820152608490fd5b60405162461bcd60e51b815260048101849052601960248201527f43616d706169676e20706572696f642068617320656e646564000000000000006044820152606490fd5b6064906040519062461bcd60e51b82526004820152601560248201527f446561646c696e652068617320706173736564202100000000000000000000006044820152fd5b346101db576020806003193601126101db57611a18612b79565b6001600160a01b0391827f000000000000000000000000000000000000000000000000000000000000000016611a5081301415612df4565b611a7f7f360894a13ba1a3210667c828492db98dca3e2076cc3735a920a3ca505d382bbc918583541614612e66565b604051908282019482861067ffffffffffffffff8711176118a357856040526000835260ff7f4910fdfa16fed3260ed0e7147f7cc6da11a60208b5b9406d12a635614ffd91435416600014611adc57505050506102199150612ed8565b8492939416906040516352d1902d60e01b81528581600481865afa60009181611c6a575b50611b615760405162461bcd60e51b815260048101879052602e60248201527f45524331393637557067726164653a206e657720696d706c656d656e7461746960448201526d6f6e206973206e6f74205555505360901b6064820152608490fd5b94939403611c1357611b7282612ed8565b7fbc7cd75a20ee27fd9adebab32041f755214dbc6bffa90cc0225b39da2e5c2d3b600080a2825115801590611c0b575b611ba857005b6000806102199560405195611bbc876129c4565b602787527f416464726573733a206c6f772d6c6576656c2064656c65676174652063616c6c86880152660819985a5b195960ca1b60408801525190845af4903d156115d3573d6115b681612b08565b506000611ba2565b60405162461bcd60e51b815260048101849052602960248201527f45524331393637557067726164653a20756e737570706f727465642070726f786044820152681a58589b195555525160ba1b6064820152608490fd5b9091508681813d8311611c92575b611c8281836129e0565b810103126101db57519088611b00565b503d611c78565b346101db5760603660031901126101db5760043567ffffffffffffffff81116101db57611cca903690600401612b5b565b60243567ffffffffffffffff81116101db57611cea903690600401612b5b565b9060443560038110156101db57815115612167578251156121225733156120dd573360005260cb60205260ff60026040600020015460a81c166120985760405192611d348461298b565b8284526020840152611d4581612ae8565b6040830152336060830152600160808301523360005260cb602052604060002090825192835167ffffffffffffffff81116118a357611d848454612951565b601f8111612054575b506020601f8211600114611feb578192939495600092611fe0575b50508160011b916000199060031b1c19161783555b602081015192835167ffffffffffffffff81116118a357611de16001830154612951565b601f8111611f95575b506020601f8211600114611eff579181600292611ee29695947f427b59b30d98f86c6e6670da78cff4cbaa374e6642ff6d038faa43cbb5fd8de398600092611ef4575b50508160011b916000199060031b1c19161760018201555b0190604081015190611e5682612ae8565b611e5f82612ae8565b82547fffffffffffffffffffff0000000000000000000000000000000000000000000060ff75ff000000000000000000000000000000000000000000608074ffffffffffffffffffffffffffffffffffffffff00606087015160081b16950151151560a81b16941691161717179055604051918291606083526060830190612aa8565b600160208301523360408301520390a1005b015190508880611e2d565b601f198216956001840160005260206000209660005b818110611f7d5750927f427b59b30d98f86c6e6670da78cff4cbaa374e6642ff6d038faa43cbb5fd8de397611ee2979695936001938360029710611f64575b505050811b016001820155611e45565b015160001960f88460031b161c19169055888080611f54565b83830151895560019098019760209384019301611f15565b600183016000526020600020601f830160051c81019160208410611fd6575b601f0160051c01905b818110611fca5750611dea565b60008155600101611fbd565b9091508190611fb4565b015190508580611da8565b8460005260206000209060005b601f198416811061203c575060019394959683601f19811610612023575b505050811b018355611dbd565b015160001960f88460031b161c19169055858080612016565b9091602060018192858b015181550193019101611ff8565b846000526020600020601f830160051c810160208410612091575b601f830160051c82018110612085575050611d8d565b6000815560010161206f565b508061206f565b60405162461bcd60e51b815260206004820152601a60248201527f5573657220697320616c726561647920726567697374657265640000000000006044820152606490fd5b60405162461bcd60e51b815260206004820152601660248201527f496e76616c69642077616c6c65742061646472657373000000000000000000006044820152606490fd5b60405162461bcd60e51b815260206004820152601860248201527f50617373776f72642063616e6e6f7420626520656d70747900000000000000006044820152606490fd5b60405162461bcd60e51b815260206004820152601560248201527f456d61696c2063616e6e6f7420626520656d70747900000000000000000000006044820152606490fd5b346101db5760403660031901126101db576001600160a01b036121cd612b79565b1660005260cf60205260206121e86024356040600020613305565b90546040519160031b1c8152f35b346101db5760403660031901126101db5767ffffffffffffffff6004358181116101db57612228903690600401612b5b565b906024359081116101db5760209161224761224d923690600401612b5b565b90613095565b6040519015158152f35b346101db5760c03660031901126101db5760643567ffffffffffffffff81116101db57612288903690600401612b5b565b60843567ffffffffffffffff81116101db576122a8903690600401612b5b565b9060a43567ffffffffffffffff81116101db576122c9903690600401612b5b565b903360005260cb6020526122ea60ff60026040600020015460a81c16613115565b3360005260cb60205261230b60ff60026040600020015416610d4281612ae8565b600435156127be5760c9548060005260cc602052604060002091600483015442111561275357818355600a8301336001600160a01b0319825416179055600435600184015580519067ffffffffffffffff82116118a35781906123716007860154612951565b601f8111612700575b50602090601f831160011461268e57600092612683575b50508160011b916000199060031b1c19161760078301555b835167ffffffffffffffff81116118a3576123c76008840154612951565b601f811161263a575b506020601f82116001146125cb5781929394956000926125c0575b50508160011b916000199060031b1c19161760088301555b825167ffffffffffffffff81116118a35760098301906124238254612951565b601f811161257a575b506020601f821160011461250f57819061249c9596600092612504575b50508160011b916000199060031b1c19161790555b600d6024359384600482015560443560068201550160ff19815416905561248660c9546131df565b60c9553360005260cf60205260406000206135bb565b5060c9546000198101919082116124ee577f91b289a829e71d811b8c69e4a24ba2d40d115d8a236e9a724cb3bb2d43cf72239160809160405191825233602083015260043560408301526060820152a1005b634e487b7160e01b600052601160045260246000fd5b015190508680612449565b601f198216958360005260206000209660005b81811061256257509161249c969791846001959410612549575b505050811b01905561245e565b015160001960f88460031b161c1916905586808061253c565b83830151895560019098019760209384019301612522565b826000526020600020601f830160051c8101602084106125b9575b601f90920160051c01905b8181106125ad575061242c565b600081556001016125a0565b5080612595565b0151905085806123eb565b6008840160005260206000209060005b601f1984168110612622575060019394959683601f19811610612609575b505050811b016008830155612403565b015160001960f88460031b161c191690558580806125f9565b9091602060018192858b0151815501930191016125db565b600884016000526020600020601f830160051c81016020841061267c575b601f90920160051c01905b81811061267057506123d0565b60008155600101612663565b5080612658565b015190508680612391565b9250600785016000526020600020906000935b601f19841685106126e5576001945083601f198116106126cc575b505050811b0160078301556123a9565b015160001960f88460031b161c191690558680806126bc565b818101518355602094850194600190930192909101906126a1565b909150600785016000526020600020601f840160051c81016020851061274c575b90849392915b601f830160051c8201811061273d57505061237a565b60008155859450600101612727565b5080612721565b60405162461bcd60e51b815260206004820152602960248201527f5468652063616d706169676e206d7573742062652061206461746520696e207460448201527f68652066757475726500000000000000000000000000000000000000000000006064820152608490fd5b60405162461bcd60e51b815260206004820152602760248201527f54617267657420616d6f756e74206d757374206265206772656174657220746860448201527f616e207a65726f000000000000000000000000000000000000000000000000006064820152608490fd5b346101db5760203660031901126101db5760043560005260cc602052604060002080546001820154916002810154600382015490600483015492600581015460068201546007830161287a90612a02565b61288660088501612a02565b9161289360098601612a02565b936001600160a01b039889600a8801541699600b8801541696600d01549860ff8a16986040519d8e809e81526020015260408d015260608c015260808b015260a08a015260c08901526101e08060e08a015288016128f091612aa8565b87810361010089015261290291612aa8565b86810361012088015261291491612aa8565b9361014086015261016085015261292a81612ae8565b6101808401528060081c60ff1615156101a084015260101c60ff1615156101c08301520390f35b90600182811c92168015612981575b602083101461296b57565b634e487b7160e01b600052602260045260246000fd5b91607f1691612960565b60a0810190811067ffffffffffffffff8211176118a357604052565b610200810190811067ffffffffffffffff8211176118a357604052565b6060810190811067ffffffffffffffff8211176118a357604052565b90601f8019910116810190811067ffffffffffffffff8211176118a357604052565b9060405191826000825492612a1684612951565b908184526001948581169081600014612a855750600114612a42575b5050612a40925003836129e0565b565b9093915060005260209081600020936000915b818310612a6d575050612a4093508201013880612a32565b85548884018501529485019487945091830191612a55565b915050612a4094506020925060ff191682840152151560051b8201013880612a32565b919082519283825260005b848110612ad4575050826000602080949584010152601f8019910116010190565b602081830181015184830182015201612ab3565b60031115612af257565b634e487b7160e01b600052602160045260246000fd5b67ffffffffffffffff81116118a357601f01601f191660200190565b929192612b3082612b08565b91612b3e60405193846129e0565b8294818452818301116101db578281602093846000960137010152565b9080601f830112156101db57816020612b7693359101612b24565b90565b600435906001600160a01b03821682036101db57565b90815180825260208080930193019160005b828110612baf575050505090565b83516001600160a01b031685529381019392810192600101612ba1565b90815180825260208080930193019160005b828110612bec575050505090565b835185529381019392810192600101612bde565b90815181526020820151602082015260408201516040820152606082015160608201526080820151608082015260a082015160a082015260c082015160c0820152612cc1612c8b612c77612c6360e08601516102008060e0880152860190612aa8565b610100808701519086830390870152612aa8565b610120808601519085830390860152612aa8565b6001600160a01b036101408181870151169085015261016090818601511690840152610180808501519084830390850152612b8f565b916101a08082015190612cd382612ae8565b8301526101c0808201511515908301526101e080910151151591015290565b602080820190808352835180925260408301928160408460051b8301019501936000915b848310612d265750505050505090565b9091929394958480612d44600193603f198682030187528a51612c00565b9801930193019194939290612d16565b6001600160a01b03603354163303612d6857565b606460405162461bcd60e51b815260206004820152602060248201527f4f776e61626c653a2063616c6c6572206973206e6f7420746865206f776e65726044820152fd5b603354906001600160a01b0380911691826001600160a01b0319821617603355167f8be0079c531659141344cd1fd0a4f28419497f9722a3daafe3b4186f6b6457e0600080a3565b15612dfb57565b60405162461bcd60e51b815260206004820152602c60248201527f46756e6374696f6e206d7573742062652063616c6c6564207468726f7567682060448201527f64656c656761746563616c6c00000000000000000000000000000000000000006064820152608490fd5b15612e6d57565b60405162461bcd60e51b815260206004820152602c60248201527f46756e6374696f6e206d7573742062652063616c6c6564207468726f7567682060448201527f6163746976652070726f787900000000000000000000000000000000000000006064820152608490fd5b803b15612f1b576001600160a01b037f360894a13ba1a3210667c828492db98dca3e2076cc3735a920a3ca505d382bbc91166001600160a01b0319825416179055565b60405162461bcd60e51b815260206004820152602d60248201527f455243313936373a206e657720696d706c656d656e746174696f6e206973206e60448201527f6f74206120636f6e7472616374000000000000000000000000000000000000006064820152608490fd5b91929015612fe85750815115612f9a575090565b3b15612fa35790565b60405162461bcd60e51b815260206004820152601d60248201527f416464726573733a2063616c6c20746f206e6f6e2d636f6e74726163740000006044820152606490fd5b825190915015612ffb5750805190602001fd5b60405162461bcd60e51b81526020600482015290819061301f906024830190612aa8565b0390fd5b1561302a57565b60405162461bcd60e51b815260206004820152602b60248201527f496e697469616c697a61626c653a20636f6e7472616374206973206e6f74206960448201527f6e697469616c697a696e670000000000000000000000000000000000000000006064820152608490fd5b903360005260cb602052604060002060ff600282015460a81c1692836130f2575b50826130cd575b50506130c857600090565b600190565b6130db919250600101612a02565b6020815191012090602081519101201438806130bd565b9092506130fe83612a02565b6020815191012090602081519101201491386130b6565b1561311c57565b60405162461bcd60e51b815260206004820152602360248201527f4f6e6c792076657269666965642075736572732063616e20706172746963697060448201526261746560e81b6064820152608490fd5b1561317457565b60405162461bcd60e51b815260206004820152603c60248201527f4f6e6c79207573657273206f662074686520737065636966696564206361746560448201527f676f72792063616e20706572666f726d207468697320616374696f6e000000006064820152608490fd5b60001981146124ee5760010190565b156131f557565b60405162461bcd60e51b815260206004820152601760248201527f43616d706169676e20646f6573206e6f742065786973740000000000000000006044820152606490fd5b1561324157565b60405162461bcd60e51b815260206004820152601760248201527f43616d706169676e206973206e6f74206f6e676f696e670000000000000000006044820152606490fd5b1561328d57565b60405162461bcd60e51b815260206004820152603360248201527f46756e647320666f7220746869732063616d706169676e206861766520616c7260448201527f65616479206265656e2072656365697665642e000000000000000000000000006064820152608490fd5b919082018092116124ee57565b805482101561331d5760005260206000200190600090565b634e487b7160e01b600052603260045260246000fd5b67ffffffffffffffff81116118a35760051b60200190565b9061335582613333565b61336260405191826129e0565b8281528092613373601f1991613333565b0190602036910137565b805182101561331d5760209160051b010190565b9060405191828154918282526020928383019160005283600020936000905b8282106133c657505050612a40925003836129e0565b85546001600160a01b0316845260019586019588955093810193909101906133b0565b604051906133f6826129a7565b816101e06000918281528260208201528260408201528260608201528260808201528260a08201528260c0820152606060e08201526060610100820152606061012082015282610140820152826101608201526060610180820152826101a0820152826101c08201520152565b9061346d82613333565b61347a60405191826129e0565b828152809261348b601f1991613333565b019060005b82811061349c57505050565b6020906134a76133e9565b82828501015201613490565b156134ba57565b60405162461bcd60e51b815260206004820152604160248201527f5265717565737420686173206e6f74206265656e20617070726f76656420627960448201527f20746865207265717569726564206e756d626572206f6620696e766573746f726064820152607360f81b608482015260a490fd5b80546000908152602060ca815260408083205492600c81950192835493825b8581106135635750505050505060011c111590565b6001600160a01b036135758284613305565b91905483875260ce86528787209260031b1c168552835260ff85852054166135a6575b6135a1906131df565b61354e565b966135b36135a1916131df565b979050613598565b91906001830160009082825280602052604082205415600014613637578454946801000000000000000086101561362357613600866001604096979801835582613305565b81549060031b9087821b91600019901b1916179055549382526020522055600190565b634e487b7160e01b83526041600452602483fd5b5092505056fea164736f6c6343000812000a",
  "linkReferences": {},
  "deployedLinkReferences": {}
}