{
  "_format": "hh-sol-artifact-1",
  "contractName": "CampaignRegistry",
  "sourceName": "contracts/CampaignRegistry.sol",
  "abi": [
    {
      "anonymous": false,
      "inputs": [
        {
          "indexed": false,
          "internalType": "address",
          "name": "previousAdmin",
          "type": "address"
        },
        {
          "indexed": false,
          "internalType": "address",
          "name": "newAdmin",
          "type": "address"
        }
      ],
      "name": "AdminChanged",
      "type": "event"
    },
    {
      "anonymous": false,
      "inputs": [
        {
          "indexed": true,
          "internalType": "address",
          "name": "beacon",
          "type": "address"
        }
      ],
      "name": "BeaconUpgraded",
      "type": "event"
    },
    {
      "anonymous": false,
      "inputs": [
        {
          "indexed": false,
          "internalType": "uint256",
          "name": "campaignId",
          "type": "uint256"
        },
        {
          "indexed": false,
          "internalType": "address",
          "name": "entrepreneur",
          "type": "address"
        },
        {
          "indexed": false,
          "internalType": "uint256",
          "name": "targetAmount",
          "type": "uint256"
        },
        {
          "indexed": false,
          "internalType": "uint256",
          "name": "deadline",
          "type": "uint256"
        }
      ],
      "name": "CampaignCreated",
      "type": "event"
    },
    {
      "anonymous": false,
      "inputs": [
        {
          "indexed": false,
          "internalType": "uint256",
          "name": "campaignId",
          "type": "uint256"
        },
        {
          "indexed": false,
          "internalType": "address",
          "name": "investor",
          "type": "address"
        },
        {
          "indexed": false,
          "internalType": "uint256",
          "name": "amount",
          "type": "uint256"
        }
      ],
      "name": "ContributionMade",
      "type": "event"
    },
    {
      "anonymous": false,
      "inputs": [
        {
          "indexed": false,
          "internalType": "uint256",
          "name": "campaignId",
          "type": "uint256"
        }
      ],
      "name": "FundReleaseDeclined",
      "type": "event"
    },
    {
      "anonymous": false,
      "inputs": [
        {
          "indexed": false,
          "internalType": "uint256",
          "name": "campaignId",
          "type": "uint256"
        }
      ],
      "name": "FundsReceived",
      "type": "event"
    },
    {
      "anonymous": false,
      "inputs": [
        {
          "indexed": false,
          "internalType": "uint256",
          "name": "campaignId",
          "type": "uint256"
        },
        {
          "indexed": false,
          "internalType": "address",
          "name": "vendor",
          "type": "address"
        },
        {
          "indexed": false,
          "internalType": "uint256",
          "name": "amount",
          "type": "uint256"
        }
      ],
      "name": "FundsReleased",
      "type": "event"
    },
    {
      "anonymous": false,
      "inputs": [
        {
          "indexed": false,
          "internalType": "uint256",
          "name": "campaignId",
          "type": "uint256"
        },
        {
          "indexed": false,
          "internalType": "address",
          "name": "investor",
          "type": "address"
        }
      ],
      "name": "FundsWithdrawn",
      "type": "event"
    },
    {
      "anonymous": false,
      "inputs": [
        {
          "indexed": false,
          "internalType": "uint8",
          "name": "version",
          "type": "uint8"
        }
      ],
      "name": "Initialized",
      "type": "event"
    },
    {
      "anonymous": false,
      "inputs": [
        {
          "indexed": true,
          "internalType": "address",
          "name": "previousOwner",
          "type": "address"
        },
        {
          "indexed": true,
          "internalType": "address",
          "name": "newOwner",
          "type": "address"
        }
      ],
      "name": "OwnershipTransferred",
      "type": "event"
    },
    {
      "anonymous": false,
      "inputs": [
        {
          "indexed": false,
          "internalType": "uint256",
          "name": "campaignId",
          "type": "uint256"
        },
        {
          "indexed": false,
          "internalType": "address",
          "name": "investor",
          "type": "address"
        }
      ],
      "name": "RequestApproved",
      "type": "event"
    },
    {
      "anonymous": false,
      "inputs": [
        {
          "indexed": false,
          "internalType": "uint256",
          "name": "campaignId",
          "type": "uint256"
        },
        {
          "indexed": false,
          "internalType": "uint256",
          "name": "requestAmount",
          "type": "uint256"
        }
      ],
      "name": "RequestCreated",
      "type": "event"
    },
    {
      "anonymous": false,
      "inputs": [
        {
          "indexed": true,
          "internalType": "address",
          "name": "implementation",
          "type": "address"
        }
      ],
      "name": "Upgraded",
      "type": "event"
    },
    {
      "anonymous": false,
      "inputs": [
        {
          "indexed": false,
          "internalType": "string",
          "name": "email",
          "type": "string"
        },
        {
          "indexed": false,
          "internalType": "bool",
          "name": "verified",
          "type": "bool"
        },
        {
          "indexed": false,
          "internalType": "address",
          "name": "walletAddress",
          "type": "address"
        }
      ],
      "name": "UserRegistered",
      "type": "event"
    },
    {
      "inputs": [
        {
          "internalType": "address",
          "name": "_owner",
          "type": "address"
        },
        {
          "internalType": "uint256",
          "name": "index",
          "type": "uint256"
        }
      ],
      "name": "_campaignOfEntrepreneurByIndex",
      "outputs": [
        {
          "internalType": "uint256",
          "name": "",
          "type": "uint256"
        }
      ],
      "stateMutability": "view",
      "type": "function"
    },
    {
      "inputs": [
        {
          "internalType": "uint256",
          "name": "_campaignId",
          "type": "uint256"
        }
      ],
      "name": "approveFundReleaseRequest",
      "outputs": [],
      "stateMutability": "nonpayable",
      "type": "function"
    },
    {
      "inputs": [
        {
          "internalType": "uint256",
          "name": "",
          "type": "uint256"
        }
      ],
      "name": "campaigns",
      "outputs": [
        {
          "internalType": "uint256",
          "name": "campaignId",
          "type": "uint256"
        },
        {
          "internalType": "uint256",
          "name": "targetAmount",
          "type": "uint256"
        },
        {
          "internalType": "uint256",
          "name": "raisedAmount",
          "type": "uint256"
        },
        {
          "internalType": "uint256",
          "name": "requestAmount",
          "type": "uint256"
        },
        {
          "internalType": "uint256",
          "name": "deadline",
          "type": "uint256"
        },
        {
          "internalType": "uint256",
          "name": "completeAt",
          "type": "uint256"
        },
        {
          "internalType": "uint256",
          "name": "minimumContribution",
          "type": "uint256"
        },
        {
          "internalType": "string",
          "name": "imageUri",
          "type": "string"
        },
        {
          "internalType": "string",
          "name": "campaignTitle",
          "type": "string"
        },
        {
          "internalType": "string",
          "name": "campaignDescription",
          "type": "string"
        },
        {
          "internalType": "address",
          "name": "entrepreneur",
          "type": "address"
        },
        {
          "internalType": "address payable",
          "name": "vendor",
          "type": "address"
        },
        {
          "internalType": "enum ICampaignRegistry.CampaignStatus",
          "name": "status",
          "type": "uint8"
        },
        {
          "internalType": "bool",
          "name": "requestCreated",
          "type": "bool"
        },
        {
          "internalType": "bool",
          "name": "fundsReceived",
          "type": "bool"
        }
      ],
      "stateMutability": "view",
      "type": "function"
    },
    {
      "inputs": [
        {
          "internalType": "uint256",
          "name": "_campaignId",
          "type": "uint256"
        }
      ],
      "name": "confirmFundsReceived",
      "outputs": [],
      "stateMutability": "nonpayable",
      "type": "function"
    },
    {
      "inputs": [
        {
          "internalType": "uint256",
          "name": "_targetAmount",
          "type": "uint256"
        },
        {
          "internalType": "uint256",
          "name": "_deadline",
          "type": "uint256"
        },
        {
          "internalType": "uint256",
          "name": "minimumContribution",
          "type": "uint256"
        },
        {
          "internalType": "string",
          "name": "_imageUri",
          "type": "string"
        },
        {
          "internalType": "string",
          "name": "_campaignTitle",
          "type": "string"
        },
        {
          "internalType": "string",
          "name": "_campaignDescription",
          "type": "string"
        }
      ],
      "name": "createCampaign",
      "outputs": [],
      "stateMutability": "nonpayable",
      "type": "function"
    },
    {
      "inputs": [
        {
          "internalType": "uint256",
          "name": "_campaignId",
          "type": "uint256"
        },
        {
          "internalType": "uint256",
          "name": "_requestAmount",
          "type": "uint256"
        },
        {
          "internalType": "address payable",
          "name": "_vendorAddress",
          "type": "address"
        }
      ],
      "name": "createFundReleaseRequest",
      "outputs": [],
      "stateMutability": "nonpayable",
      "type": "function"
    },
    {
      "inputs": [
        {
          "internalType": "uint256",
          "name": "_campaignId",
          "type": "uint256"
        }
      ],
      "name": "declineFundRelease",
      "outputs": [],
      "stateMutability": "nonpayable",
      "type": "function"
    },
    {
      "inputs": [
        {
          "internalType": "uint256",
          "name": "_campaignId",
          "type": "uint256"
        }
      ],
      "name": "donateToCampaign",
      "outputs": [],
      "stateMutability": "payable",
      "type": "function"
    },
    {
      "inputs": [
        {
          "internalType": "uint256",
          "name": "_campaignId",
          "type": "uint256"
        }
      ],
      "name": "getAllDonations",
      "outputs": [
        {
          "internalType": "uint256[]",
          "name": "",
          "type": "uint256[]"
        }
      ],
      "stateMutability": "view",
      "type": "function"
    },
    {
      "inputs": [
        {
          "internalType": "uint256",
          "name": "_campaignId",
          "type": "uint256"
        }
      ],
      "name": "getAllDonators",
      "outputs": [
        {
          "internalType": "address[]",
          "name": "",
          "type": "address[]"
        }
      ],
      "stateMutability": "view",
      "type": "function"
    },
    {
      "inputs": [
        {
          "internalType": "uint256",
          "name": "_campaignId",
          "type": "uint256"
        }
      ],
      "name": "getCampaignById",
      "outputs": [
        {
          "components": [
            {
              "internalType": "uint256",
              "name": "campaignId",
              "type": "uint256"
            },
            {
              "internalType": "uint256",
              "name": "targetAmount",
              "type": "uint256"
            },
            {
              "internalType": "uint256",
              "name": "raisedAmount",
              "type": "uint256"
            },
            {
              "internalType": "uint256",
              "name": "requestAmount",
              "type": "uint256"
            },
            {
              "internalType": "uint256",
              "name": "deadline",
              "type": "uint256"
            },
            {
              "internalType": "uint256",
              "name": "completeAt",
              "type": "uint256"
            },
            {
              "internalType": "uint256",
              "name": "minimumContribution",
              "type": "uint256"
            },
            {
              "internalType": "string",
              "name": "imageUri",
              "type": "string"
            },
            {
              "internalType": "string",
              "name": "campaignTitle",
              "type": "string"
            },
            {
              "internalType": "string",
              "name": "campaignDescription",
              "type": "string"
            },
            {
              "internalType": "address",
              "name": "entrepreneur",
              "type": "address"
            },
            {
              "internalType": "address payable",
              "name": "vendor",
              "type": "address"
            },
            {
              "internalType": "address[]",
              "name": "investors",
              "type": "address[]"
            },
            {
              "internalType": "enum ICampaignRegistry.CampaignStatus",
              "name": "status",
              "type": "uint8"
            },
            {
              "internalType": "bool",
              "name": "requestCreated",
              "type": "bool"
            },
            {
              "internalType": "bool",
              "name": "fundsReceived",
              "type": "bool"
            }
          ],
          "internalType": "struct ICampaignRegistry.Campaign",
          "name": "",
          "type": "tuple"
        }
      ],
      "stateMutability": "view",
      "type": "function"
    },
    {
      "inputs": [],
      "name": "getCampaigns",
      "outputs": [
        {
          "components": [
            {
              "internalType": "uint256",
              "name": "campaignId",
              "type": "uint256"
            },
            {
              "internalType": "uint256",
              "name": "targetAmount",
              "type": "uint256"
            },
            {
              "internalType": "uint256",
              "name": "raisedAmount",
              "type": "uint256"
            },
            {
              "internalType": "uint256",
              "name": "requestAmount",
              "type": "uint256"
            },
            {
              "internalType": "uint256",
              "name": "deadline",
              "type": "uint256"
            },
            {
              "internalType": "uint256",
              "name": "completeAt",
              "type": "uint256"
            },
            {
              "internalType": "uint256",
              "name": "minimumContribution",
              "type": "uint256"
            },
            {
              "internalType": "string",
              "name": "imageUri",
              "type": "string"
            },
            {
              "internalType": "string",
              "name": "campaignTitle",
              "type": "string"
            },
            {
              "internalType": "string",
              "name": "campaignDescription",
              "type": "string"
            },
            {
              "internalType": "address",
              "name": "entrepreneur",
              "type": "address"
            },
            {
              "internalType": "address payable",
              "name": "vendor",
              "type": "address"
            },
            {
              "internalType": "address[]",
              "name": "investors",
              "type": "address[]"
            },
            {
              "internalType": "enum ICampaignRegistry.CampaignStatus",
              "name": "status",
              "type": "uint8"
            },
            {
              "internalType": "bool",
              "name": "requestCreated",
              "type": "bool"
            },
            {
              "internalType": "bool",
              "name": "fundsReceived",
              "type": "bool"
            }
          ],
          "internalType": "struct ICampaignRegistry.Campaign[]",
          "name": "",
          "type": "tuple[]"
        }
      ],
      "stateMutability": "view",
      "type": "function"
    },
    {
      "inputs": [
        {
          "internalType": "address",
          "name": "_entrepreneur",
          "type": "address"
        }
      ],
      "name": "getCampaignsByEntrepreneur",
      "outputs": [
        {
          "components": [
            {
              "internalType": "uint256",
              "name": "campaignId",
              "type": "uint256"
            },
            {
              "internalType": "uint256",
              "name": "targetAmount",
              "type": "uint256"
            },
            {
              "internalType": "uint256",
              "name": "raisedAmount",
              "type": "uint256"
            },
            {
              "internalType": "uint256",
              "name": "requestAmount",
              "type": "uint256"
            },
            {
              "internalType": "uint256",
              "name": "deadline",
              "type": "uint256"
            },
            {
              "internalType": "uint256",
              "name": "completeAt",
              "type": "uint256"
            },
            {
              "internalType": "uint256",
              "name": "minimumContribution",
              "type": "uint256"
            },
            {
              "internalType": "string",
              "name": "imageUri",
              "type": "string"
            },
            {
              "internalType": "string",
              "name": "campaignTitle",
              "type": "string"
            },
            {
              "internalType": "string",
              "name": "campaignDescription",
              "type": "string"
            },
            {
              "internalType": "address",
              "name": "entrepreneur",
              "type": "address"
            },
            {
              "internalType": "address payable",
              "name": "vendor",
              "type": "address"
            },
            {
              "internalType": "address[]",
              "name": "investors",
              "type": "address[]"
            },
            {
              "internalType": "enum ICampaignRegistry.CampaignStatus",
              "name": "status",
              "type": "uint8"
            },
            {
              "internalType": "bool",
              "name": "requestCreated",
              "type": "bool"
            },
            {
              "internalType": "bool",
              "name": "fundsReceived",
              "type": "bool"
            }
          ],
          "internalType": "struct ICampaignRegistry.Campaign[]",
          "name": "",
          "type": "tuple[]"
        }
      ],
      "stateMutability": "view",
      "type": "function"
    },
    {
      "inputs": [
        {
          "internalType": "uint256",
          "name": "_campaignId",
          "type": "uint256"
        }
      ],
      "name": "getInvestorDonations",
      "outputs": [
        {
          "internalType": "address[]",
          "name": "",
          "type": "address[]"
        },
        {
          "internalType": "uint256[]",
          "name": "",
          "type": "uint256[]"
        }
      ],
      "stateMutability": "view",
      "type": "function"
    },
    {
      "inputs": [
        {
          "internalType": "address",
          "name": "_investor",
          "type": "address"
        }
      ],
      "name": "getTotalCampaignsByInvestor",
      "outputs": [
        {
          "internalType": "uint256",
          "name": "",
          "type": "uint256"
        }
      ],
      "stateMutability": "view",
      "type": "function"
    },
    {
      "inputs": [
        {
          "internalType": "address",
          "name": "_walltetAddress",
          "type": "address"
        }
      ],
      "name": "getUserByAddress",
      "outputs": [
        {
          "components": [
            {
              "internalType": "string",
              "name": "email",
              "type": "string"
            },
            {
              "internalType": "string",
              "name": "password",
              "type": "string"
            },
            {
              "internalType": "enum ICampaignRegistry.Category",
              "name": "category",
              "type": "uint8"
            },
            {
              "internalType": "address",
              "name": "walletAddress",
              "type": "address"
            },
            {
              "internalType": "bool",
              "name": "verified",
              "type": "bool"
            }
          ],
          "internalType": "struct ICampaignRegistry.User",
          "name": "",
          "type": "tuple"
        }
      ],
      "stateMutability": "view",
      "type": "function"
    },
    {
      "inputs": [],
      "name": "initialize",
      "outputs": [],
      "stateMutability": "nonpayable",
      "type": "function"
    },
    {
      "inputs": [
        {
          "internalType": "string",
          "name": "_email",
          "type": "string"
        },
        {
          "internalType": "string",
          "name": "_password",
          "type": "string"
        }
      ],
      "name": "loginUser",
      "outputs": [
        {
          "internalType": "bool",
          "name": "",
          "type": "bool"
        }
      ],
      "stateMutability": "view",
      "type": "function"
    },
    {
      "inputs": [],
      "name": "owner",
      "outputs": [
        {
          "internalType": "address",
          "name": "",
          "type": "address"
        }
      ],
      "stateMutability": "view",
      "type": "function"
    },
    {
      "inputs": [],
      "name": "proxiableUUID",
      "outputs": [
        {
          "internalType": "bytes32",
          "name": "",
          "type": "bytes32"
        }
      ],
      "stateMutability": "view",
      "type": "function"
    },
    {
      "inputs": [
        {
          "internalType": "string",
          "name": "_email",
          "type": "string"
        },
        {
          "internalType": "string",
          "name": "_password",
          "type": "string"
        },
        {
          "internalType": "enum ICampaignRegistry.Category",
          "name": "_category",
          "type": "uint8"
        }
      ],
      "name": "registerUser",
      "outputs": [],
      "stateMutability": "nonpayable",
      "type": "function"
    },
    {
      "inputs": [
        {
          "internalType": "uint256",
          "name": "_campaignId",
          "type": "uint256"
        }
      ],
      "name": "releaseFundsToVendors",
      "outputs": [],
      "stateMutability": "nonpayable",
      "type": "function"
    },
    {
      "inputs": [],
      "name": "renounceOwnership",
      "outputs": [],
      "stateMutability": "nonpayable",
      "type": "function"
    },
    {
      "inputs": [
        {
          "internalType": "address",
          "name": "newOwner",
          "type": "address"
        }
      ],
      "name": "transferOwnership",
      "outputs": [],
      "stateMutability": "nonpayable",
      "type": "function"
    },
    {
      "inputs": [
        {
          "internalType": "address",
          "name": "newImplementation",
          "type": "address"
        }
      ],
      "name": "upgradeTo",
      "outputs": [],
      "stateMutability": "nonpayable",
      "type": "function"
    },
    {
      "inputs": [
        {
          "internalType": "address",
          "name": "newImplementation",
          "type": "address"
        },
        {
          "internalType": "bytes",
          "name": "data",
          "type": "bytes"
        }
      ],
      "name": "upgradeToAndCall",
      "outputs": [],
      "stateMutability": "payable",
      "type": "function"
    },
    {
      "inputs": [
        {
          "internalType": "address",
          "name": "",
          "type": "address"
        }
      ],
      "name": "users",
      "outputs": [
        {
          "internalType": "string",
          "name": "email",
          "type": "string"
        },
        {
          "internalType": "string",
          "name": "password",
          "type": "string"
        },
        {
          "internalType": "enum ICampaignRegistry.Category",
          "name": "category",
          "type": "uint8"
        },
        {
          "internalType": "address",
          "name": "walletAddress",
          "type": "address"
        },
        {
          "internalType": "bool",
          "name": "verified",
          "type": "bool"
        }
      ],
      "stateMutability": "view",
      "type": "function"
    },
    {
      "inputs": [
        {
          "internalType": "uint256",
          "name": "_campaignId",
          "type": "uint256"
        }
      ],
      "name": "withdrawFunds",
      "outputs": [],
      "stateMutability": "nonpayable",
      "type": "function"
    }
  ],
  "bytecode": "0x60a080604052346100315730608052613d6090816100378239608051818181610ba101528181610e520152610fb90152f35b600080fdfe6080604052600436101561001257600080fd5b60003560e01c8063141961bc146101d7578063155dd5ee146101d25780631ad417bf146101cd57806322ce12e5146101c857806324777746146101c35780632e17a931146101be5780633659cfe6146101b957806342a4fda8146101b45780634f1ef286146101af57806352d1902d146101aa57806367c2cbad146101a557806369c212f6146101a057806370debcf71461019b578063715018a61461019657806373f130161461019157806374c49fd51461018c5780638129fc1c146101875780638da5cb5b146101825780638e5baa621461017d578063a6b0363314610178578063a7247cd914610173578063a87430ba1461016e578063ae1f680214610169578063e27883fb14610164578063e6ffcaa11461015f578063efb801831461015a578063f2fde38b146101555763ffa676d11461015057600080fd5b61228f565b6121d6565b612128565b611ff3565b611f9f565b611e3f565b611d98565b611c46565b611ac7565b6118eb565b6118c4565b6117de565b61162a565b6114c4565b611465565b611315565b611256565b61110b565b610f9e565b610dfc565b610d14565b610b78565b610a07565b6109b9565b610947565b61079b565b610561565b610496565b90600182811c9216801561020c575b60208310146101f657565b634e487b7160e01b600052602260045260246000fd5b91607f16916101eb565b634e487b7160e01b600052604160045260246000fd5b60a0810190811067ffffffffffffffff82111761024857604052565b610216565b6020810190811067ffffffffffffffff82111761024857604052565b6060810190811067ffffffffffffffff82111761024857604052565b6040810190811067ffffffffffffffff82111761024857604052565b90601f8019910116810190811067ffffffffffffffff82111761024857604052565b90604051918260008254926102d7846101dc565b9081845260019485811690816000146103465750600114610303575b5050610301925003836102a1565b565b9093915060005260209081600020936000915b81831061032e575050610301935082010138806102f3565b85548884018501529485019487945091830191610316565b91505061030194506020925060ff191682840152151560051b82010138806102f3565b919082519283825260005b848110610395575050826000602080949584010152601f8019910116010190565b602081830181015184830182015201610374565b600311156103b357565b634e487b7160e01b600052602160045260246000fd5b906103d3826103a9565b52565b9a9f9e9c96986104376103019f9a996104849a6101c09f988f61048e9f979b60c0926104689b6104559b6104799f6104469b8652602086015260408501526060840152608083015260a082015201528d6101e0908160e08201520190610369565b8c81036101008e015290610369565b908a82036101208c0152610369565b6001600160a01b03909d16610140890152565b6001600160a01b0316610160870152565b6101808501906103c9565b15156101a0830152565b019015159052565b3461055c57602036600319011261055c5760043560005260cc602052604060002080549060018101546002820154906003830154926004810154946005820154916006810154600782016104e9906102c3565b6104f5600884016102c3565b610501600985016102c3565b91600a850154610517906001600160a01b031690565b93600b86015461052d906001600160a01b031690565b95600d0154976040519c8d9c8d9c8b60101c60ff169c8c60081c60ff169c60ff169b6105589f6103d6565b0390f35b600080fd5b3461055c57602036600319011261055c5760043560009033825260cb60205261059660ff600260408520015460a81c16612d7d565b6105a360c9548210612f71565b33825260cb6020526105ca600160ff6002604086200154166105c4816103a9565b14612dd5565b818080806105e28560005260cc602052604060002090565b61061d610615336105fd8960005260cd602052604060002090565b906001600160a01b0316600052602052604060002090565b54151561392f565b61063f6002610630600d84015460ff1690565b610639816103a9565b146139a1565b61064e600482015442116139ed565b6002610668336105fd8960005260cd602052604060002090565b549161067b610675613a5f565b84613c67565b83610694336105fd8b60005260cd602052604060002090565b55016106a1828254612f64565b90558181156106f3575b3390f1156106ee57604080519182523360208301527f6141b54b56b8a52a8c6f5cd2a857f6117b18ffbf4d46bd3106f300a839cbf5ea9190819081015b0390a180f35b6124c1565b506108fc6106ab565b604051906103018261022c565b60405190610200820182811067ffffffffffffffff82111761024857604052565b67ffffffffffffffff811161024857601f01601f191660200190565b9291926107528261072a565b9161076060405193846102a1565b82948184528183011161055c578281602093846000960137010152565b9080601f8301121561055c5781602061079893359101610746565b90565b3461055c5760c036600319011261055c5767ffffffffffffffff60243560043560643583811161055c576107d390369060040161077d565b9260843581811161055c576107ec90369060040161077d565b9060a43590811161055c5761080590369060040161077d565b908360009533875260cb602052604087206002015460a81c60ff1661082990612d7d565b33875260cb602052604087206002015460ff16610845816103a9565b1561084f90612dd5565b61085a851515612e47565b60c954936108728560005260cc602052604060002090565b9360048501928354421161088590612eb9565b868655600a860180546001600160a01b0319163317905587600187015560078601906108b091612a2b565b6108bd9060088601612a2b565b6108ca9060098501612a2b565b556044356006820155600d01805460ff1916905560c9546108ea90612f41565b60c9556108f79033613bde565b60c95461090390612f55565b6040805191825233602083015281019190915260608101919091527f91b289a829e71d811b8c69e4a24ba2d40d115d8a236e9a724cb3bb2d43cf722390608090a180f35b3461055c57604036600319011261055c5767ffffffffffffffff60043581811161055c5761097990369060040161077d565b9060243590811161055c5760209161099861099e92369060040161077d565b90612cfd565b6040519015158152f35b6001600160a01b0381160361055c57565b3461055c57604036600319011261055c576001600160a01b036004356109de816109a8565b1660005260cf60205260206109f960243560406000206131b4565b90546040519160031b1c8152f35b3461055c57606036600319011261055c5767ffffffffffffffff60043581811161055c57610a3990369060040161077d565b9060243590811161055c57610a5290369060040161077d565b60443591600383101561055c57805115610b3357610b2082610aff7f427b59b30d98f86c6e6670da78cff4cbaa374e6642ff6d038faa43cbb5fd8de395610a9e610b2e965115156128ea565b610aa9331515612936565b610ae5610ae0610adc6002610ad1336001600160a01b031660005260cb602052604060002090565b015460a81c60ff1690565b1590565b612982565b610aed6106fc565b928584526020840152604083016129ce565b3360608201526001608082015233600090815260cb60205260409020612b12565b604051918291339083612ccf565b0390a1005b60405162461bcd60e51b815260206004820152601560248201527f456d61696c2063616e6e6f7420626520656d70747900000000000000000000006044820152606490fd5b3461055c57602036600319011261055c57600435610b95816109a8565b6001600160a01b0390817f00000000000000000000000000000000000000000000000000000000000000001691610bce833014156123ce565b610bfd7f360894a13ba1a3210667c828492db98dca3e2076cc3735a920a3ca505d382bbc938285541614612440565b60405190610c0a8261024d565b600082527f4910fdfa16fed3260ed0e7147f7cc6da11a60208b5b9406d12a635614ffd91435460ff1615610c46575050610c44915061253f565b005b6020600491604094939451928380926352d1902d60e01b825286165afa60009181610ce4575b50610cd15760405162461bcd60e51b815260206004820152602e60248201527f45524331393637557067726164653a206e657720696d706c656d656e7461746960448201526d6f6e206973206e6f74205555505360901b6064820152608490fd5b0390fd5b610c4493610cdf91146124cd565b6125ed565b610d0691925060203d8111610d0d575b610cfe81836102a1565b8101906124b2565b9038610c6c565b503d610cf4565b60208060031936011261055c5760043560009133835260cb8152610d4460ff600260408620015460a81c16612d7d565b610d5160c9548310612f71565b33835260cb8152610d71600160ff6002604087200154166105c4816103a9565b81835260cc8152610d9560ff600d60408620015416610d8f816103a9565b15612fbd565b81835260cc81526004604084200154421015610db85750610db590613212565b80f35b6064906040519062461bcd60e51b82526004820152601560248201527f446561646c696e652068617320706173736564202100000000000000000000006044820152fd5b604036600319011261055c57600435610e14816109a8565b60243567ffffffffffffffff811161055c573660238201121561055c57610e45903690602481600401359101610746565b906001600160a01b0391827f00000000000000000000000000000000000000000000000000000000000000001692610e7f843014156123ce565b610eae7f360894a13ba1a3210667c828492db98dca3e2076cc3735a920a3ca505d382bbc948286541614612440565b7f4910fdfa16fed3260ed0e7147f7cc6da11a60208b5b9406d12a635614ffd91435460ff1615610ee4575050610c44915061253f565b6020600491604094939451928380926352d1902d60e01b825286165afa60009181610f7e575b50610f6b5760405162461bcd60e51b815260206004820152602e60248201527f45524331393637557067726164653a206e657720696d706c656d656e7461746960448201526d6f6e206973206e6f74205555505360901b6064820152608490fd5b610c4493610f7991146124cd565b6126e8565b610f9791925060203d8111610d0d57610cfe81836102a1565b9038610f0a565b3461055c57600036600319011261055c576001600160a01b037f000000000000000000000000000000000000000000000000000000000000000016300361100a576040517f360894a13ba1a3210667c828492db98dca3e2076cc3735a920a3ca505d382bbc8152602090f35b60405162461bcd60e51b815260206004820152603860248201527f555550535570677261646561626c653a206d757374206e6f742062652063616c60448201527f6c6564207468726f7567682064656c656761746563616c6c00000000000000006064820152608490fd5b90815180825260208080930193019160005b828110611095575050505090565b83516001600160a01b031685529381019392810192600101611087565b90815180825260208080930193019160005b8281106110d2575050505090565b8351855293810193928101926001016110c4565b90916110fd61079893604084526040840190611075565b9160208184039101526110b2565b3461055c57602036600319011261055c576004358060005260cc602052600c60406000200190815461113c81613359565b9161114a60405193846102a1565b818352601f1961115983613359565b0136602085013761116982613371565b9360005b83811061118357604051806105588888836110e6565b806111da6111aa6111976111eb94866131b4565b90546001600160a01b039160031b1c1690565b6111c6816111b8858b6133a3565b906001600160a01b03169052565b6105fd8660005260cd602052604060002090565b546111e582896133a3565b52612f41565b61116d565b6020815260a06080611226611210855184602087015260c0860190610369565b6020860151858203601f19016040870152610369565b936040810151611235816103a9565b60608501526001600160a01b03606082015116828501520151151591015290565b3461055c57602036600319011261055c57610558600435611276816109a8565b60406000608082516112878161022c565b6060815260606020820152828482015282606082015201526001600160a01b0380921660005260cb60205260ff816000209260028351946112c78661022c565b6112d0816102c3565b86526112de600182016102c3565b60208701520154908282166112f2816103a9565b848601528160081c16606085015260a81c161515608083015251918291826111f0565b3461055c57606036600319011261055c576044357f99f063607b2d9f794eb8985daf4a0d3224e73b48e43228a183329e415dff077e602435600435611359846109a8565b61144c60009433865260cb60205261137d60ff600260408920015460a81c16612d7d565b61138a60c9548410612f71565b33865260cb6020526113af60ff6002604089200154166113a9816103a9565b15612dd5565b82865260cc602052600b60408720611430600d820161140b60ff82546113da828216610d8f816103a9565b611401336001600160a01b036113fa600a8a01546001600160a01b031690565b16146135c9565b60081c161561363b565b61141b60028401548911156136ad565b87600384015561010061ff0019825416179055565b01906001600160a01b03166001600160a01b0319825416179055565b60408051918252602082019290925290819081016106e8565b3461055c576000806003193601126114c15761147f61232e565b806001600160a01b036033546001600160a01b03198116603355167f8be0079c531659141344cd1fd0a4f28419497f9722a3daafe3b4186f6b6457e08280a380f35b80fd5b3461055c5760208060031936011261055c5760043560009133835260cb81526040906114fb60ff6002848720015460a81c16612d7d565b61150860c9548410612f71565b33845260cb8152611527600160ff60028588200154166105c4816103a9565b82845260cc8152600d82852001549061154660ff8316610d8f816103a9565b83855260cd815261156c33848720906001600160a01b0316600052602052604060002090565b54156115db5750916106e8916115a860ff7fbb447f2506f46702f313360e42b26bacac341b607c973ef8fe11ee7eb901bea19560081c16613777565b6115cd6115c3336105fd8560005260ce602052604060002090565b805460ff19169055565b519081529081906020820190565b60849083519062461bcd60e51b825260048201526024808201527f4f6e6c7920696e766573746f72732063616e206465636c696e652061207265716044820152631d595cdd60e21b6064820152fd5b3461055c57602036600319011261055c5760043560009033825260cb60205261165f60ff600260408520015460a81c16612d7d565b61166c60c9548210612f71565b33825260cb60205261168b60ff6002604085200154166113a9816103a9565b61169f8160005260cc602052604060002090565b90600d8201906116bc6116b3835460ff1690565b610d8f816103a9565b6116cd6116c884613b3d565b613841565b6117036116f7600b6116e98460005260cc602052604060002090565b01546001600160a01b031690565b6001600160a01b031690565b916002600361171c8460005260cc602052604060002090565b0154946117308661172b6138bd565b613cc4565b6117418561173c6138f6565b613d07565b0161174d858254612f64565b905584808080876117706116f7600b6116e98a60005260cc602052604060002090565b8282156117d5575bf1156106ee57805460ff191660011790557f6e3c6096795c8298a218b2cfb8bde42726ff7c9a3d27b4d3ba41ab7f74feb5fb926106e890604051938493846001600160a01b03604092959493606083019683521660208201520152565b506108fc611778565b3461055c576000806003193601126114c157805461181360ff8260081c1615809281936118b6575b8115611896575b506127d6565b80611826600160ff196000541617600055565b61187d575b611833612848565b61183a5780f35b61184a61ff001960005416600055565b604051600181527f7f26b83ff96e1f2b6a682f133852f6798a09c465da95921460cefb38474024989080602081016106e8565b61189161010061ff00196000541617600055565b61182b565b303b159150816118a8575b503861180d565b6001915060ff1614386118a1565b600160ff8216109150611806565b3461055c57600036600319011261055c5760206001600160a01b0360335416604051908152f35b3461055c5760208060031936011261055c57600435611909816109a8565b60c954600091825b82811061192357505050604051908152f35b600081815260cd865260408082206001600160a01b0385168352602052902054611956575b61195190612f41565b611911565b9261196361195191612f41565b939050611948565b9061079890825181526020830151602082015260408301516040820152606083015160608201526080830151608082015260a083015160a082015260c083015160c0820152611a366119fa6119e66119d260e08701516102008060e0880152860190610369565b610100808801519086830390870152610369565b610120808701519085830390860152610369565b610140858101516001600160a01b031690840152610160858101516001600160a01b031690840152610180808601519084830390850152611075565b92611a4a6101a080830151908401906103c9565b6101c0818101511515908301526101e0908101511515910152565b602080820190808352835180925260408301928160408460051b8301019501936000915b848310611a995750505050505090565b9091929394958480611ab7600193603f198682030187528a5161196b565b9801930193019194939290611a89565b3461055c576000806003193601126114c15760c954611ae581613484565b90825b818110611afd57604051806105588582611a65565b80845260209060cc82526040611c2a611c1c828820611b1a610709565b938154855260019687830154908601526002820154908501526003810154606085015260048101546080850152600581015460a0850152600681015460c0850152611b67600782016102c3565b60e0850152600d600891611b7c8382016102c3565b610100870152611b8e600982016102c3565b610120870152611bbc611bab600a8301546001600160a01b031690565b6001600160a01b0316610140880152565b611be4611bd3600b8301546001600160a01b031690565b6001600160a01b0316610160880152565b611bf0600c82016133b7565b610180870152015491829160ff938491611c108383166101a08a016129ce565b1c1615156101c0860152565b60101c1615156101e0830152565b611c3482866133a3565b52611c3f81856133a3565b5001611ae8565b3461055c57602036600319011261055c576004357ff3dc904660a0ea05aba8dfa1e21fbc4fb2914be2a3029da7b0fdd3e5eee20ddb6106e860009233845260cb602052611c9f60ff600260408720015460a81c16612d7d565b611cac60c9548210612f71565b33845260cb602052611ccd600160ff6002604088200154166105c4816103a9565b80845260cc602052611d2d60ff600d604087200154611cf1828216610d8f816103a9565b83875260cd602052611d24611d1c3360408a20906001600160a01b0316600052602052604060002090565b54151561371f565b60081c16613777565b611d5a611d55610adc611d4e336105fd8660005260ce602052604060002090565b5460ff1690565b6137cf565b611d82611d75336105fd8460005260ce602052604060002090565b805460ff19166001179055565b6040805191825233602083015290918291820190565b3461055c57602036600319011261055c57611e09600435611db8816109a8565b6001600160a01b0380911660005260cb602052604060002060ff611ddb826102c3565b926002611dea600185016102c3565b93015490611e178383169460405197889760a0895260a0890190610369565b908782036020890152610369565b93611e21816103a9565b60408601528160081c16606085015260a81c16151560808301520390f35b3461055c57602036600319011261055c5760043560009033825260cb602052611e7460ff600260408520015460a81c16612d7d565b611e8160c9548210612f71565b33825260cb602052611ea1600260ff81604086200154166105c4816103a9565b80825260cc60205260408220336001600160a01b03600b8301541603611f34577fbcdc7071c1beb6dcf2744621e0b29a2f2432ee20812d9ca5e3d5e8f9308d93a391611f24600d83611ef86116c86106e896613b3d565b01611f13611f0e610adc835460ff9060101c1690565b61311f565b805462ff0000191662010000179055565b6040519081529081906020820190565b60405162461bcd60e51b815260206004820152603460248201527f4f6e6c79207468652063616d706169676e2076656e646f722063616e20636f6e60448201527f6669726d2066756e64732072656365697665642e0000000000000000000000006064820152608490fd5b3461055c57602036600319011261055c5760043560005260cc602052610558611fce600c6040600020016133b7565b604051918291602083526020830190611075565b90602061079892818152019061196b565b3461055c57602036600319011261055c5761200c61340f565b5060043560005260cc602052610558604060002061211c60ff600d61202f610709565b938054855260018101546020860152600281015460408601526003810154606086015260048101546080860152600581015460a0860152600681015460c086015261207c600782016102c3565b60e086015261208d600882016102c3565b61010086015261209f600982016102c3565b6101208601526120cd6120bc600a8301546001600160a01b031690565b6001600160a01b0316610140870152565b6120e4610468600b8301546001600160a01b031690565b6120f0600c82016133b7565b61018086015201546121088282166101a086016129ce565b600881901c821615156101c0850152611c1c565b60405191829182611fe2565b3461055c5760208060031936011261055c576001600160a01b0360043561214e816109a8565b1660009181835260cf90818152604091828520549161216c83613484565b94865b848110612183578551806105588982611a65565b6001908289528484526121ba6121b561219e838a8d206131b4565b90549060031b1c60005260cc602052604060002090565b6134d4565b6121c4828a6133a3565b526121cf81896133a3565b500161216f565b3461055c57602036600319011261055c576004356121f3816109a8565b6121fb61232e565b6001600160a01b0381161561221357610c4490612386565b60405162461bcd60e51b815260206004820152602660248201527f4f776e61626c653a206e6577206f776e657220697320746865207a65726f206160448201527f64647265737300000000000000000000000000000000000000000000000000006064820152608490fd5b9060206107989281815201906110b2565b3461055c5760208060031936011261055c5760043560009181835260cc8152604092600c84822001928354926122c484613371565b94835b8581106122db57875180610558898261227e565b8061231e6001600160a01b036122f461232994866131b4565b905490888a5260cd885260031b1c168a8820906001600160a01b0316600052602052604060002090565b546111e5828a6133a3565b6122c7565b6001600160a01b0360335416330361234257565b606460405162461bcd60e51b815260206004820152602060248201527f4f776e61626c653a2063616c6c6572206973206e6f7420746865206f776e65726044820152fd5b603354906001600160a01b0380911691826001600160a01b0319821617603355167f8be0079c531659141344cd1fd0a4f28419497f9722a3daafe3b4186f6b6457e0600080a3565b156123d557565b60405162461bcd60e51b815260206004820152602c60248201527f46756e6374696f6e206d7573742062652063616c6c6564207468726f7567682060448201527f64656c656761746563616c6c00000000000000000000000000000000000000006064820152608490fd5b1561244757565b60405162461bcd60e51b815260206004820152602c60248201527f46756e6374696f6e206d7573742062652063616c6c6564207468726f7567682060448201527f6163746976652070726f787900000000000000000000000000000000000000006064820152608490fd5b9081602091031261055c575190565b6040513d6000823e3d90fd5b156124d457565b60405162461bcd60e51b815260206004820152602960248201527f45524331393637557067726164653a20756e737570706f727465642070726f7860448201527f6961626c655555494400000000000000000000000000000000000000000000006064820152608490fd5b803b15612582576001600160a01b037f360894a13ba1a3210667c828492db98dca3e2076cc3735a920a3ca505d382bbc91166001600160a01b0319825416179055565b60405162461bcd60e51b815260206004820152602d60248201527f455243313936373a206e657720696d706c656d656e746174696f6e206973206e60448201527f6f74206120636f6e7472616374000000000000000000000000000000000000006064820152608490fd5b906125f78261253f565b60006001600160a01b0383167fbc7cd75a20ee27fd9adebab32041f755214dbc6bffa90cc0225b39da2e5c2d3b8280a28151158015906126e1575b61263b57505050565b6126d59281806040519461264e86610269565b602786527f416464726573733a206c6f772d6c6576656c2064656c65676174652063616c6c60208701527f206661696c6564000000000000000000000000000000000000000000000000006040870152602081519101845af4903d156126d8573d6126b88161072a565b906126c660405192836102a1565b8152809360203d92013e61273d565b50565b6060925061273d565b5080612632565b906126f28261253f565b60006001600160a01b0383167fbc7cd75a20ee27fd9adebab32041f755214dbc6bffa90cc0225b39da2e5c2d3b8280a28151158015906127355761263b57505050565b506001612632565b9192901561279f5750815115612751575090565b3b1561275a5790565b60405162461bcd60e51b815260206004820152601d60248201527f416464726573733a2063616c6c20746f206e6f6e2d636f6e74726163740000006044820152606490fd5b8251909150156127b25750805190602001fd5b60405162461bcd60e51b815260206004820152908190610ccd906024830190610369565b156127dd57565b60405162461bcd60e51b815260206004820152602e60248201527f496e697469616c697a61626c653a20636f6e747261637420697320616c72656160448201527f647920696e697469616c697a65640000000000000000000000000000000000006064820152608490fd5b61286260ff60005460081c1661285d81612878565b612878565b61286b33612386565b61030160ff60005460081c165b1561287f57565b60405162461bcd60e51b815260206004820152602b60248201527f496e697469616c697a61626c653a20636f6e7472616374206973206e6f74206960448201527f6e697469616c697a696e670000000000000000000000000000000000000000006064820152608490fd5b156128f157565b60405162461bcd60e51b815260206004820152601860248201527f50617373776f72642063616e6e6f7420626520656d70747900000000000000006044820152606490fd5b1561293d57565b60405162461bcd60e51b815260206004820152601660248201527f496e76616c69642077616c6c65742061646472657373000000000000000000006044820152606490fd5b1561298957565b60405162461bcd60e51b815260206004820152601a60248201527f5573657220697320616c726561647920726567697374657265640000000000006044820152606490fd5b6103d3826103a9565b90601f81116129e557505050565b600091825260208220906020601f850160051c83019410612a21575b601f0160051c01915b828110612a1657505050565b818155600101612a0a565b9092508290612a01565b919091825167ffffffffffffffff811161024857612a5381612a4d84546101dc565b846129d7565b602080601f8311600114612a8f575081929394600092612a84575b50508160011b916000199060031b1c1916179055565b015190503880612a6e565b90601f19831695612aa585600052602060002090565b926000905b888210612ae257505083600195969710612ac9575b505050811b019055565b015160001960f88460031b161c19169055388080612abf565b80600185968294968601518155019501930190612aaa565b90612b04816103a9565b60ff80198354169116179055565b9190805192835167ffffffffffffffff811161024857612b3681612a4d84546101dc565b6020948590601f8311600114612c525792612b83610301969784608095600295612c0098600092612c47575b50508160011b916000199060031b1c19161783555b86015160018301612a2b565b0192612b9c6040820151612b96816103a9565b85612afa565b612bf9612bb360608301516001600160a01b031690565b85547fffffffffffffffffffffff0000000000000000000000000000000000000000ff1660089190911b74ffffffffffffffffffffffffffffffffffffffff0016178555565b0151151590565b81547fffffffffffffffffffff00ffffffffffffffffffffffffffffffffffffffffff1690151560a81b75ff00000000000000000000000000000000000000000016179055565b015190503880612b62565b90601f19831691612c6885600052602060002090565b9260005b818110612cb8575097600185600295612c009895612b83956080996103019d9e10612c9f575b505050811b018355612b77565b015160001960f88460031b161c19169055388080612c92565b929389600181928786015181550195019301612c6c565b906001600160a01b03612cef604092959495606085526060850190610369565b946001602085015216910152565b903360005260cb602052604060002060ff600282015460a81c169283612d5a575b5082612d35575b5050612d3057600090565b600190565b612d439192506001016102c3565b602081519101209060208151910120143880612d25565b909250612d66836102c3565b602081519101209060208151910120149138612d1e565b15612d8457565b60405162461bcd60e51b815260206004820152602360248201527f4f6e6c792076657269666965642075736572732063616e20706172746963697060448201526261746560e81b6064820152608490fd5b15612ddc57565b60405162461bcd60e51b815260206004820152603c60248201527f4f6e6c79207573657273206f662074686520737065636966696564206361746560448201527f676f72792063616e20706572666f726d207468697320616374696f6e000000006064820152608490fd5b15612e4e57565b60405162461bcd60e51b815260206004820152602760248201527f54617267657420616d6f756e74206d757374206265206772656174657220746860448201527f616e207a65726f000000000000000000000000000000000000000000000000006064820152608490fd5b15612ec057565b60405162461bcd60e51b815260206004820152602960248201527f5468652063616d706169676e206d7573742062652061206461746520696e207460448201527f68652066757475726500000000000000000000000000000000000000000000006064820152608490fd5b634e487b7160e01b600052601160045260246000fd5b6000198114612f505760010190565b612f2b565b600019810191908211612f5057565b91908203918211612f5057565b15612f7857565b60405162461bcd60e51b815260206004820152601760248201527f43616d706169676e20646f6573206e6f742065786973740000000000000000006044820152606490fd5b15612fc457565b60405162461bcd60e51b815260206004820152601760248201527f43616d706169676e206973206e6f74206f6e676f696e670000000000000000006044820152606490fd5b1561301057565b60405162461bcd60e51b815260206004820152601960248201527f43616d706169676e20706572696f642068617320656e646564000000000000006044820152606490fd5b1561305c57565b60405162461bcd60e51b815260206004820152602960248201527f446f6e6174696f6e20616d6f756e74206d75737420626520677265617465722060448201527f7468616e207a65726f00000000000000000000000000000000000000000000006064820152608490fd5b156130ce57565b60405162461bcd60e51b815260206004820152602360248201527f41206d696e756d756d20636f6e747269627574696f6e2069732072657175697260448201526232b21760e91b6064820152608490fd5b1561312657565b60405162461bcd60e51b815260206004820152603360248201527f46756e647320666f7220746869732063616d706169676e206861766520616c7260448201527f65616479206265656e2072656365697665642e000000000000000000000000006064820152608490fd5b91908201809211612f5057565b634e487b7160e01b600052603260045260246000fd5b80548210156131cc5760005260206000200190600090565b61319e565b805468010000000000000000811015610248576131f3916001820181556131b4565b819291549060031b916001600160a01b03809116831b921b1916179055565b6103019061322a8160005260cc602052604060002090565b61327760ff600d830154613243828216610d8f816103a9565b61325260048501544210613009565b61325d341515613055565b61326d60068501543410156130c7565b60101c161561311f565b6132a661328e8360005260cd602052604060002090565b336001600160a01b0316600052602052604060002090565b6132b1348254613191565b9055600281016132c2348254613191565b90556132d88260005260ca602052604060002090565b6132e28154612f41565b9055346132fd336105fd8560005260cd602052604060002090565b5414613345575b506040805182815233602082015234918101919091527f0a4a91237423e0a1766a761c7cb029311d8b95d6b1b81db1b949a70c98b4e08e90606090a1613a98565b61335390600c3391016131d1565b38613304565b67ffffffffffffffff81116102485760051b60200190565b9061337b82613359565b61338860405191826102a1565b8281528092613399601f1991613359565b0190602036910137565b80518210156131cc5760209160051b010190565b9060405191828154918282526020928383019160005283600020936000905b8282106133ec57505050610301925003836102a1565b85546001600160a01b0316845260019586019588955093810193909101906133d6565b613417610709565b9060008083528060208401528060408401528060608401528060808401528060a08401528060c0840152606060e08401526060610100840152606061012084015280610140840152806101608401526060610180840152806101a0840152806101c08401526101e0830152565b9061348e82613359565b61349b60405191826102a1565b82815280926134ac601f1991613359565b019060005b8281106134bd57505050565b6020906134c861340f565b828285010152016134b1565b9061030160ff600d6134e4610709565b948054865260018101546020870152600281015460408701526003810154606087015260048101546080870152600581015460a0870152600681015460c0870152613531600782016102c3565b60e0870152613542600882016102c3565b610100870152613554600982016102c3565b610120870152613571611bab600a8301546001600160a01b031690565b613588611bd3600b8301546001600160a01b031690565b613594600c82016133b7565b61018087015201546135ac8282166101a087016129ce565b600881901c821615156101c086015260101c1615156101e0840152565b156135d057565b60405162461bcd60e51b815260206004820152602a60248201527f4f6e6c792074686520656e7472657072656e6575722063616e2063726561746560448201527f20612072657175657374000000000000000000000000000000000000000000006064820152608490fd5b1561364257565b60405162461bcd60e51b815260206004820152603460248201527f4120726571756573742068617320616c7265616479206265656e20637265617460448201527f656420666f7220746869732063616d706169676e0000000000000000000000006064820152608490fd5b156136b457565b60405162461bcd60e51b815260206004820152603e60248201527f5265717565737420616d6f756e74206d757374206265206c657373207468616e60448201527f206f7220657175616c20746f207468652072616973656420616d6f756e7400006064820152608490fd5b1561372657565b60405162461bcd60e51b8152602060048201526024808201527f4f6e6c7920696e766573746f72732063616e20617070726f76652061207265716044820152631d595cdd60e21b6064820152608490fd5b1561377e57565b60405162461bcd60e51b815260206004820152602360248201527f4e6f20726571756573742065786973747320666f7220746869732063616d706160448201526234b3b760e91b6064820152608490fd5b156137d657565b60405162461bcd60e51b815260206004820152602960248201527f496e766573746f722068617320616c726561647920617070726f76656420746860448201527f65207265717565737400000000000000000000000000000000000000000000006064820152608490fd5b1561384857565b60405162461bcd60e51b815260206004820152604160248201527f5265717565737420686173206e6f74206265656e20617070726f76656420627960448201527f20746865207265717569726564206e756d626572206f6620696e766573746f726064820152607360f81b608482015260a490fd5b604051906138ca82610285565b600882527f616d6f756e743a200000000000000000000000000000000000000000000000006020830152565b6040519061390382610285565b600882527f76656e646f723a200000000000000000000000000000000000000000000000006020830152565b1561393657565b60405162461bcd60e51b815260206004820152602a60248201527f596f752068617665206e6f7420636f6e747269627574656420746f207468697360448201527f2063616d706169676e2e000000000000000000000000000000000000000000006064820152608490fd5b156139a857565b60405162461bcd60e51b815260206004820152601d60248201527f43616d706169676e20686173206e6f742065787069726564207965742e0000006044820152606490fd5b156139f457565b60405162461bcd60e51b815260206004820152602560248201527f43616d706169676e20646561646c696e6520686173206e6f742070617373656460448201527f207965742e0000000000000000000000000000000000000000000000000000006064820152608490fd5b60405190613a6c82610285565b601082527f616d6f756e74546f5769746864726177000000000000000000000000000000006020830152565b600081815260cc60205260409020600281015460019091015411613af857613add600d613acf8360005260cc602052604060002090565b01805460ff19166001179055565b6005613af4429260005260cc602052604060002090565b0155565b6004613b0e8260005260cc602052604060002090565b01544211613b195750565b613b2f600d9160005260cc602052604060002090565b01805460ff19166002179055565b8054600081815260209060ca825260408082205493600c83960193845494845b868110613b73575050505050505060011c111590565b60ff613bb46001600160a01b03613b8a84866131b4565b905490888b5260ce885260031b1c16878920906001600160a01b0316600052602052604060002090565b5416613bc9575b613bc490612f41565b613b5d565b97613bd6613bc491612f41565b989050613bbb565b906001600160a01b036126d5921660005260cf60205260406000206001810190826000528160205260406000205415600014613c5f5780546801000000000000000081101561024857806001613c3792018355826131b4565b81549060031b9085821b91600019901b19161790555491600052602052604060002055600190565b505050600090565b90613ca961030192613c9b60405193849263643fd0df60e01b60208501526024840152604060448401526064830190610369565b03601f1981018352826102a1565b600080916020815191016a636f6e736f6c652e6c6f675afa50565b613ca9613cf39161030193604051938492632d839cb360e21b6020850152604060248501526064840190610369565b90604483015203601f1981018352826102a1565b613ca9613d3e91610301936001600160a01b0360405194859363319af33360e01b6020860152604060248601526064850190610369565b9116604483015203601f1981018352826102a156fea164736f6c6343000812000a",
  "linkReferences": {},
  "deployedLinkReferences": {}
}